{
	"contracts/contract_template.sol": {
		"EnergyTrading": {
			"abi": [
				{
					"inputs": [
						{
							"internalType": "address",
							"name": "_recorder",
							"type": "address"
						}
					],
					"stateMutability": "payable",
					"type": "constructor"
				},
				{
					"anonymous": false,
					"inputs": [
						{
							"indexed": false,
							"internalType": "uint256",
							"name": "totalMatchedEnergy",
							"type": "uint256"
						}
					],
					"name": "CoordinationComplete",
					"type": "event"
				},
				{
					"anonymous": false,
					"inputs": [
						{
							"indexed": false,
							"internalType": "uint256",
							"name": "newPrice",
							"type": "uint256"
						},
						{
							"indexed": false,
							"internalType": "int256",
							"name": "totalEnergyStatus",
							"type": "int256"
						}
					],
					"name": "EnergyPriceUpdated",
					"type": "event"
				},
				{
					"inputs": [
						{
							"internalType": "address",
							"name": "_seller",
							"type": "address"
						},
						{
							"internalType": "uint256",
							"name": "_requestedEnergy",
							"type": "uint256"
						}
					],
					"name": "buyEnergyFrom",
					"outputs": [],
					"stateMutability": "nonpayable",
					"type": "function"
				},
				{
					"inputs": [],
					"name": "contractBalance",
					"outputs": [
						{
							"internalType": "uint256",
							"name": "",
							"type": "uint256"
						}
					],
					"stateMutability": "view",
					"type": "function"
				},
				{
					"inputs": [],
					"name": "coordinateTrading",
					"outputs": [],
					"stateMutability": "nonpayable",
					"type": "function"
				},
				{
					"inputs": [],
					"name": "deposit",
					"outputs": [],
					"stateMutability": "payable",
					"type": "function"
				},
				{
					"inputs": [],
					"name": "getEnergyPrice",
					"outputs": [
						{
							"internalType": "uint256",
							"name": "",
							"type": "uint256"
						}
					],
					"stateMutability": "view",
					"type": "function"
				},
				{
					"inputs": [],
					"name": "getRecorder",
					"outputs": [
						{
							"internalType": "address",
							"name": "",
							"type": "address"
						}
					],
					"stateMutability": "view",
					"type": "function"
				},
				{
					"inputs": [
						{
							"internalType": "uint256",
							"name": "",
							"type": "uint256"
						}
					],
					"name": "prosumerAddresses",
					"outputs": [
						{
							"internalType": "address",
							"name": "",
							"type": "address"
						}
					],
					"stateMutability": "view",
					"type": "function"
				},
				{
					"inputs": [
						{
							"internalType": "address",
							"name": "",
							"type": "address"
						}
					],
					"name": "prosumers",
					"outputs": [
						{
							"internalType": "address",
							"name": "prosumerAddress",
							"type": "address"
						},
						{
							"internalType": "int256",
							"name": "prosumerEnergyStat",
							"type": "int256"
						},
						{
							"internalType": "uint256",
							"name": "prosumerBalance",
							"type": "uint256"
						},
						{
							"internalType": "bool",
							"name": "isMember",
							"type": "bool"
						}
					],
					"stateMutability": "view",
					"type": "function"
				},
				{
					"inputs": [],
					"name": "registerProsumer",
					"outputs": [],
					"stateMutability": "nonpayable",
					"type": "function"
				},
				{
					"inputs": [
						{
							"internalType": "address",
							"name": "_buyer",
							"type": "address"
						},
						{
							"internalType": "uint256",
							"name": "_offeredEnergy",
							"type": "uint256"
						}
					],
					"name": "sellEnergyTo",
					"outputs": [],
					"stateMutability": "nonpayable",
					"type": "function"
				},
				{
					"inputs": [],
					"name": "updateEnergyPrice",
					"outputs": [],
					"stateMutability": "nonpayable",
					"type": "function"
				},
				{
					"inputs": [
						{
							"internalType": "address",
							"name": "_prosumer",
							"type": "address"
						},
						{
							"internalType": "int256",
							"name": "deltaEnergy",
							"type": "int256"
						}
					],
					"name": "updateEnergyStatus",
					"outputs": [],
					"stateMutability": "nonpayable",
					"type": "function"
				},
				{
					"inputs": [
						{
							"internalType": "uint256",
							"name": "_value",
							"type": "uint256"
						}
					],
					"name": "withdraw",
					"outputs": [],
					"stateMutability": "nonpayable",
					"type": "function"
				}
			],
			"devdoc": {
				"kind": "dev",
				"methods": {},
				"version": 1
			},
			"evm": {
				"assembly": "    /* \"contracts/contract_template.sol\":64:10633  contract EnergyTrading {... */\n  mstore(0x40, 0x80)\n    /* \"contracts/contract_template.sol\":1135:1244  constructor(address _recorder) payable {... */\n  mload(0x40)\n  sub(codesize, bytecodeSize)\n  dup1\n  bytecodeSize\n  dup4\n  codecopy\n  dup2\n  dup2\n  add\n  0x40\n  mstore\n  dup2\n  add\n  swap1\n  tag_1\n  swap2\n  swap1\n  tag_2\n  jump\t// in\ntag_1:\n    /* \"contracts/contract_template.sol\":1194:1203  _recorder */\n  dup1\n    /* \"contracts/contract_template.sol\":1185:1193  recorder */\n  0x02\n  0x00\n    /* \"contracts/contract_template.sol\":1185:1203  recorder=_recorder */\n  0x0100\n  exp\n  dup2\n  sload\n  dup2\n  0xffffffffffffffffffffffffffffffffffffffff\n  mul\n  not\n  and\n  swap1\n  dup4\n  0xffffffffffffffffffffffffffffffffffffffff\n  and\n  mul\n  or\n  swap1\n  sstore\n  pop\n    /* \"contracts/contract_template.sol\":1227:1234  1 ether */\n  0x0de0b6b3a7640000\n    /* \"contracts/contract_template.sol\":1214:1225  energyPrice */\n  0x01\n    /* \"contracts/contract_template.sol\":1214:1234  energyPrice= 1 ether */\n  dup2\n  swap1\n  sstore\n  pop\n    /* \"contracts/contract_template.sol\":1135:1244  constructor(address _recorder) payable {... */\n  pop\n    /* \"contracts/contract_template.sol\":64:10633  contract EnergyTrading {... */\n  jump(tag_5)\n    /* \"#utility.yul\":88:205   */\ntag_7:\n    /* \"#utility.yul\":197:198   */\n  0x00\n    /* \"#utility.yul\":194:195   */\n  0x00\n    /* \"#utility.yul\":187:199   */\n  revert\n    /* \"#utility.yul\":334:460   */\ntag_9:\n    /* \"#utility.yul\":371:378   */\n  0x00\n    /* \"#utility.yul\":411:453   */\n  0xffffffffffffffffffffffffffffffffffffffff\n    /* \"#utility.yul\":404:409   */\n  dup3\n    /* \"#utility.yul\":400:454   */\n  and\n    /* \"#utility.yul\":389:454   */\n  swap1\n  pop\n    /* \"#utility.yul\":334:460   */\n  swap2\n  swap1\n  pop\n  jump\t// out\n    /* \"#utility.yul\":466:562   */\ntag_10:\n    /* \"#utility.yul\":503:510   */\n  0x00\n    /* \"#utility.yul\":532:556   */\n  tag_19\n    /* \"#utility.yul\":550:555   */\n  dup3\n    /* \"#utility.yul\":532:556   */\n  tag_9\n  jump\t// in\ntag_19:\n    /* \"#utility.yul\":521:556   */\n  swap1\n  pop\n    /* \"#utility.yul\":466:562   */\n  swap2\n  swap1\n  pop\n  jump\t// out\n    /* \"#utility.yul\":568:690   */\ntag_11:\n    /* \"#utility.yul\":641:665   */\n  tag_21\n    /* \"#utility.yul\":659:664   */\n  dup2\n    /* \"#utility.yul\":641:665   */\n  tag_10\n  jump\t// in\ntag_21:\n    /* \"#utility.yul\":634:639   */\n  dup2\n    /* \"#utility.yul\":631:666   */\n  eq\n    /* \"#utility.yul\":621:684   */\n  tag_22\n  jumpi\n    /* \"#utility.yul\":680:681   */\n  0x00\n    /* \"#utility.yul\":677:678   */\n  0x00\n    /* \"#utility.yul\":670:682   */\n  revert\n    /* \"#utility.yul\":621:684   */\ntag_22:\n    /* \"#utility.yul\":568:690   */\n  pop\n  jump\t// out\n    /* \"#utility.yul\":696:839   */\ntag_12:\n    /* \"#utility.yul\":753:758   */\n  0x00\n    /* \"#utility.yul\":784:790   */\n  dup2\n    /* \"#utility.yul\":778:791   */\n  mload\n    /* \"#utility.yul\":769:791   */\n  swap1\n  pop\n    /* \"#utility.yul\":800:833   */\n  tag_24\n    /* \"#utility.yul\":827:832   */\n  dup2\n    /* \"#utility.yul\":800:833   */\n  tag_11\n  jump\t// in\ntag_24:\n    /* \"#utility.yul\":696:839   */\n  swap3\n  swap2\n  pop\n  pop\n  jump\t// out\n    /* \"#utility.yul\":845:1196   */\ntag_2:\n    /* \"#utility.yul\":915:921   */\n  0x00\n    /* \"#utility.yul\":964:966   */\n  0x20\n    /* \"#utility.yul\":952:961   */\n  dup3\n    /* \"#utility.yul\":943:950   */\n  dup5\n    /* \"#utility.yul\":939:962   */\n  sub\n    /* \"#utility.yul\":935:967   */\n  slt\n    /* \"#utility.yul\":932:1051   */\n  iszero\n  tag_26\n  jumpi\n    /* \"#utility.yul\":970:1049   */\n  tag_27\n  tag_7\n  jump\t// in\ntag_27:\n    /* \"#utility.yul\":932:1051   */\ntag_26:\n    /* \"#utility.yul\":1090:1091   */\n  0x00\n    /* \"#utility.yul\":1115:1179   */\n  tag_28\n    /* \"#utility.yul\":1171:1178   */\n  dup5\n    /* \"#utility.yul\":1162:1168   */\n  dup3\n    /* \"#utility.yul\":1151:1160   */\n  dup6\n    /* \"#utility.yul\":1147:1169   */\n  add\n    /* \"#utility.yul\":1115:1179   */\n  tag_12\n  jump\t// in\ntag_28:\n    /* \"#utility.yul\":1105:1179   */\n  swap2\n  pop\n    /* \"#utility.yul\":1061:1189   */\n  pop\n    /* \"#utility.yul\":845:1196   */\n  swap3\n  swap2\n  pop\n  pop\n  jump\t// out\n    /* \"contracts/contract_template.sol\":64:10633  contract EnergyTrading {... */\ntag_5:\n  dataSize(sub_0)\n  dup1\n  dataOffset(sub_0)\n  0x00\n  codecopy\n  0x00\n  return\nstop\n\nsub_0: assembly {\n        /* \"contracts/contract_template.sol\":64:10633  contract EnergyTrading {... */\n      mstore(0x40, 0x80)\n      jumpi(tag_1, lt(calldatasize, 0x04))\n      shr(0xe0, calldataload(0x00))\n      dup1\n      0x8b7afe2e\n      gt\n      tag_15\n      jumpi\n      dup1\n      0xb8510a96\n      gt\n      tag_16\n      jumpi\n      dup1\n      0xb8510a96\n      eq\n      tag_11\n      jumpi\n      dup1\n      0xcab0f335\n      eq\n      tag_12\n      jumpi\n      dup1\n      0xcb2fd8db\n      eq\n      tag_13\n      jumpi\n      dup1\n      0xd0e30db0\n      eq\n      tag_14\n      jumpi\n      jump(tag_1)\n    tag_16:\n      dup1\n      0x8b7afe2e\n      eq\n      tag_8\n      jumpi\n      dup1\n      0xa3818880\n      eq\n      tag_9\n      jumpi\n      dup1\n      0xb6c3afca\n      eq\n      tag_10\n      jumpi\n      jump(tag_1)\n    tag_15:\n      dup1\n      0x0f0fe598\n      eq\n      tag_2\n      jumpi\n      dup1\n      0x2c8d7c32\n      eq\n      tag_3\n      jumpi\n      dup1\n      0x2e1a7d4d\n      eq\n      tag_4\n      jumpi\n      dup1\n      0x2fbbf123\n      eq\n      tag_5\n      jumpi\n      dup1\n      0x45f80251\n      eq\n      tag_6\n      jumpi\n      dup1\n      0x7a6edb28\n      eq\n      tag_7\n      jumpi\n    tag_1:\n      revert(0x00, 0x00)\n        /* \"contracts/contract_template.sol\":5669:7885  function buyEnergyFrom(address _seller, uint _requestedEnergy) external {... */\n    tag_2:\n      callvalue\n      dup1\n      iszero\n      tag_17\n      jumpi\n      revert(0x00, 0x00)\n    tag_17:\n      pop\n      tag_18\n      0x04\n      dup1\n      calldatasize\n      sub\n      dup2\n      add\n      swap1\n      tag_19\n      swap2\n      swap1\n      tag_20\n      jump\t// in\n    tag_19:\n      tag_21\n      jump\t// in\n    tag_18:\n      stop\n        /* \"contracts/contract_template.sol\":582:628  mapping (address => Prosumer) public prosumers */\n    tag_3:\n      callvalue\n      dup1\n      iszero\n      tag_22\n      jumpi\n      revert(0x00, 0x00)\n    tag_22:\n      pop\n      tag_23\n      0x04\n      dup1\n      calldatasize\n      sub\n      dup2\n      add\n      swap1\n      tag_24\n      swap2\n      swap1\n      tag_25\n      jump\t// in\n    tag_24:\n      tag_26\n      jump\t// in\n    tag_23:\n      mload(0x40)\n      tag_27\n      swap5\n      swap4\n      swap3\n      swap2\n      swap1\n      tag_28\n      jump\t// in\n    tag_27:\n      mload(0x40)\n      dup1\n      swap2\n      sub\n      swap1\n      return\n        /* \"contracts/contract_template.sol\":2260:2850  function withdraw(uint256 _value) external {... */\n    tag_4:\n      callvalue\n      dup1\n      iszero\n      tag_29\n      jumpi\n      revert(0x00, 0x00)\n    tag_29:\n      pop\n      tag_30\n      0x04\n      dup1\n      calldatasize\n      sub\n      dup2\n      add\n      swap1\n      tag_31\n      swap2\n      swap1\n      tag_32\n      jump\t// in\n    tag_31:\n      tag_33\n      jump\t// in\n    tag_30:\n      stop\n        /* \"contracts/contract_template.sol\":3823:5661  function updateEnergyPrice() public {... */\n    tag_5:\n      callvalue\n      dup1\n      iszero\n      tag_34\n      jumpi\n      revert(0x00, 0x00)\n    tag_34:\n      pop\n      tag_35\n      tag_36\n      jump\t// in\n    tag_35:\n      stop\n        /* \"contracts/contract_template.sol\":10010:10091  function coordinateTrading() public {... */\n    tag_6:\n      callvalue\n      dup1\n      iszero\n      tag_37\n      jumpi\n      revert(0x00, 0x00)\n    tag_37:\n      pop\n      tag_38\n      tag_39\n      jump\t// in\n    tag_38:\n      stop\n        /* \"contracts/contract_template.sol\":7893:10000  function sellEnergyTo(address _buyer, uint _offeredEnergy) external {... */\n    tag_7:\n      callvalue\n      dup1\n      iszero\n      tag_40\n      jumpi\n      revert(0x00, 0x00)\n    tag_40:\n      pop\n      tag_41\n      0x04\n      dup1\n      calldatasize\n      sub\n      dup2\n      add\n      swap1\n      tag_42\n      swap2\n      swap1\n      tag_20\n      jump\t// in\n    tag_42:\n      tag_43\n      jump\t// in\n    tag_41:\n      stop\n        /* \"contracts/contract_template.sol\":10135:10274  function contractBalance() external view returns (uint256) {... */\n    tag_8:\n      callvalue\n      dup1\n      iszero\n      tag_44\n      jumpi\n      revert(0x00, 0x00)\n    tag_44:\n      pop\n      tag_45\n      tag_46\n      jump\t// in\n    tag_45:\n      mload(0x40)\n      tag_47\n      swap2\n      swap1\n      tag_48\n      jump\t// in\n    tag_47:\n      mload(0x40)\n      dup1\n      swap2\n      sub\n      swap1\n      return\n        /* \"contracts/contract_template.sol\":1252:1860  function registerProsumer() external {... */\n    tag_9:\n      callvalue\n      dup1\n      iszero\n      tag_49\n      jumpi\n      revert(0x00, 0x00)\n    tag_49:\n      pop\n      tag_50\n      tag_51\n      jump\t// in\n    tag_50:\n      stop\n        /* \"contracts/contract_template.sol\":10442:10529  function getRecorder() public view returns (address) {... */\n    tag_10:\n      callvalue\n      dup1\n      iszero\n      tag_52\n      jumpi\n      revert(0x00, 0x00)\n    tag_52:\n      pop\n      tag_53\n      tag_54\n      jump\t// in\n    tag_53:\n      mload(0x40)\n      tag_55\n      swap2\n      swap1\n      tag_56\n      jump\t// in\n    tag_55:\n      mload(0x40)\n      dup1\n      swap2\n      sub\n      swap1\n      return\n        /* \"contracts/contract_template.sol\":1017:1051  address[] public prosumerAddresses */\n    tag_11:\n      callvalue\n      dup1\n      iszero\n      tag_57\n      jumpi\n      revert(0x00, 0x00)\n    tag_57:\n      pop\n      tag_58\n      0x04\n      dup1\n      calldatasize\n      sub\n      dup2\n      add\n      swap1\n      tag_59\n      swap2\n      swap1\n      tag_32\n      jump\t// in\n    tag_59:\n      tag_60\n      jump\t// in\n    tag_58:\n      mload(0x40)\n      tag_61\n      swap2\n      swap1\n      tag_56\n      jump\t// in\n    tag_61:\n      mload(0x40)\n      dup1\n      swap2\n      sub\n      swap1\n      return\n        /* \"contracts/contract_template.sol\":10537:10630  function getEnergyPrice() public view returns (uint256) {... */\n    tag_12:\n      callvalue\n      dup1\n      iszero\n      tag_62\n      jumpi\n      revert(0x00, 0x00)\n    tag_62:\n      pop\n      tag_63\n      tag_64\n      jump\t// in\n    tag_63:\n      mload(0x40)\n      tag_65\n      swap2\n      swap1\n      tag_48\n      jump\t// in\n    tag_65:\n      mload(0x40)\n      dup1\n      swap2\n      sub\n      swap1\n      return\n        /* \"contracts/contract_template.sol\":2858:3815  function updateEnergyStatus(address _prosumer, int256 deltaEnergy) external {... */\n    tag_13:\n      callvalue\n      dup1\n      iszero\n      tag_66\n      jumpi\n      revert(0x00, 0x00)\n    tag_66:\n      pop\n      tag_67\n      0x04\n      dup1\n      calldatasize\n      sub\n      dup2\n      add\n      swap1\n      tag_68\n      swap2\n      swap1\n      tag_69\n      jump\t// in\n    tag_68:\n      tag_70\n      jump\t// in\n    tag_67:\n      stop\n        /* \"contracts/contract_template.sol\":1868:2252  function deposit() external payable {... */\n    tag_14:\n      tag_71\n      tag_72\n      jump\t// in\n    tag_71:\n      stop\n        /* \"contracts/contract_template.sol\":5669:7885  function buyEnergyFrom(address _seller, uint _requestedEnergy) external {... */\n    tag_21:\n        /* \"contracts/contract_template.sol\":6069:6070  0 */\n      0x00\n        /* \"contracts/contract_template.sol\":6050:6066  _requestedEnergy */\n      dup2\n        /* \"contracts/contract_template.sol\":6050:6070  _requestedEnergy > 0 */\n      gt\n        /* \"contracts/contract_template.sol\":6042:6103  require(_requestedEnergy > 0, \"Requested energy must be > 0\") */\n      tag_74\n      jumpi\n      mload(0x40)\n      0x08c379a000000000000000000000000000000000000000000000000000000000\n      dup2\n      mstore\n      0x04\n      add\n      tag_75\n      swap1\n      tag_76\n      jump\t// in\n    tag_75:\n      mload(0x40)\n      dup1\n      swap2\n      sub\n      swap1\n      revert\n    tag_74:\n        /* \"contracts/contract_template.sol\":6141:6142  0 */\n      0x00\n        /* \"contracts/contract_template.sol\":6122:6143  _seller != address(0) */\n      0xffffffffffffffffffffffffffffffffffffffff\n      and\n        /* \"contracts/contract_template.sol\":6122:6129  _seller */\n      dup3\n        /* \"contracts/contract_template.sol\":6122:6143  _seller != address(0) */\n      0xffffffffffffffffffffffffffffffffffffffff\n      and\n      sub\n        /* \"contracts/contract_template.sol\":6114:6162  require(_seller != address(0), \"Invalid seller\") */\n      tag_77\n      jumpi\n      mload(0x40)\n      0x08c379a000000000000000000000000000000000000000000000000000000000\n      dup2\n      mstore\n      0x04\n      add\n      tag_78\n      swap1\n      tag_79\n      jump\t// in\n    tag_78:\n      mload(0x40)\n      dup1\n      swap2\n      sub\n      swap1\n      revert\n    tag_77:\n        /* \"contracts/contract_template.sol\":6192:6202  msg.sender */\n      caller\n        /* \"contracts/contract_template.sol\":6181:6202  _seller != msg.sender */\n      0xffffffffffffffffffffffffffffffffffffffff\n      and\n        /* \"contracts/contract_template.sol\":6181:6188  _seller */\n      dup3\n        /* \"contracts/contract_template.sol\":6181:6202  _seller != msg.sender */\n      0xffffffffffffffffffffffffffffffffffffffff\n      and\n      sub\n        /* \"contracts/contract_template.sol\":6173:6227  require(_seller != msg.sender, \"Cannot buy from self\") */\n      tag_80\n      jumpi\n      mload(0x40)\n      0x08c379a000000000000000000000000000000000000000000000000000000000\n      dup2\n      mstore\n      0x04\n      add\n      tag_81\n      swap1\n      tag_82\n      jump\t// in\n    tag_81:\n      mload(0x40)\n      dup1\n      swap2\n      sub\n      swap1\n      revert\n    tag_80:\n        /* \"contracts/contract_template.sol\":6240:6262  Prosumer storage buyer */\n      0x00\n        /* \"contracts/contract_template.sol\":6265:6274  prosumers */\n      0x00\n        /* \"contracts/contract_template.sol\":6265:6286  prosumers[msg.sender] */\n      0x00\n        /* \"contracts/contract_template.sol\":6275:6285  msg.sender */\n      caller\n        /* \"contracts/contract_template.sol\":6265:6286  prosumers[msg.sender] */\n      0xffffffffffffffffffffffffffffffffffffffff\n      and\n      0xffffffffffffffffffffffffffffffffffffffff\n      and\n      dup2\n      mstore\n      0x20\n      add\n      swap1\n      dup2\n      mstore\n      0x20\n      add\n      0x00\n      keccak256\n        /* \"contracts/contract_template.sol\":6240:6286  Prosumer storage buyer = prosumers[msg.sender] */\n      swap1\n      pop\n        /* \"contracts/contract_template.sol\":6297:6320  Prosumer storage seller */\n      0x00\n        /* \"contracts/contract_template.sol\":6323:6332  prosumers */\n      0x00\n        /* \"contracts/contract_template.sol\":6323:6341  prosumers[_seller] */\n      0x00\n        /* \"contracts/contract_template.sol\":6333:6340  _seller */\n      dup6\n        /* \"contracts/contract_template.sol\":6323:6341  prosumers[_seller] */\n      0xffffffffffffffffffffffffffffffffffffffff\n      and\n      0xffffffffffffffffffffffffffffffffffffffff\n      and\n      dup2\n      mstore\n      0x20\n      add\n      swap1\n      dup2\n      mstore\n      0x20\n      add\n      0x00\n      keccak256\n        /* \"contracts/contract_template.sol\":6297:6341  Prosumer storage seller = prosumers[_seller] */\n      swap1\n      pop\n        /* \"contracts/contract_template.sol\":6362:6367  buyer */\n      dup2\n        /* \"contracts/contract_template.sol\":6362:6376  buyer.isMember */\n      0x03\n      add\n      0x00\n      swap1\n      sload\n      swap1\n      0x0100\n      exp\n      swap1\n      div\n      0xff\n      and\n        /* \"contracts/contract_template.sol\":6354:6401  require(buyer.isMember, \"Buyer not registered\") */\n      tag_83\n      jumpi\n      mload(0x40)\n      0x08c379a000000000000000000000000000000000000000000000000000000000\n      dup2\n      mstore\n      0x04\n      add\n      tag_84\n      swap1\n      tag_85\n      jump\t// in\n    tag_84:\n      mload(0x40)\n      dup1\n      swap2\n      sub\n      swap1\n      revert\n    tag_83:\n        /* \"contracts/contract_template.sol\":6420:6426  seller */\n      dup1\n        /* \"contracts/contract_template.sol\":6420:6435  seller.isMember */\n      0x03\n      add\n      0x00\n      swap1\n      sload\n      swap1\n      0x0100\n      exp\n      swap1\n      div\n      0xff\n      and\n        /* \"contracts/contract_template.sol\":6412:6461  require(seller.isMember, \"Seller not registered\") */\n      tag_86\n      jumpi\n      mload(0x40)\n      0x08c379a000000000000000000000000000000000000000000000000000000000\n      dup2\n      mstore\n      0x04\n      add\n      tag_87\n      swap1\n      tag_88\n      jump\t// in\n    tag_87:\n      mload(0x40)\n      dup1\n      swap2\n      sub\n      swap1\n      revert\n    tag_86:\n        /* \"contracts/contract_template.sol\":6557:6558  0 */\n      0x00\n        /* \"contracts/contract_template.sol\":6530:6535  buyer */\n      dup3\n        /* \"contracts/contract_template.sol\":6530:6554  buyer.prosumerEnergyStat */\n      0x01\n      add\n      sload\n        /* \"contracts/contract_template.sol\":6530:6558  buyer.prosumerEnergyStat < 0 */\n      slt\n        /* \"contracts/contract_template.sol\":6522:6586  require(buyer.prosumerEnergyStat < 0, \"Buyer is not in deficit\") */\n      tag_89\n      jumpi\n      mload(0x40)\n      0x08c379a000000000000000000000000000000000000000000000000000000000\n      dup2\n      mstore\n      0x04\n      add\n      tag_90\n      swap1\n      tag_91\n      jump\t// in\n    tag_90:\n      mload(0x40)\n      dup1\n      swap2\n      sub\n      swap1\n      revert\n    tag_89:\n        /* \"contracts/contract_template.sol\":6684:6685  0 */\n      0x00\n        /* \"contracts/contract_template.sol\":6656:6662  seller */\n      dup2\n        /* \"contracts/contract_template.sol\":6656:6681  seller.prosumerEnergyStat */\n      0x01\n      add\n      sload\n        /* \"contracts/contract_template.sol\":6656:6685  seller.prosumerEnergyStat > 0 */\n      sgt\n        /* \"contracts/contract_template.sol\":6648:6714  require(seller.prosumerEnergyStat > 0, \"Seller is not in surplus\") */\n      tag_92\n      jumpi\n      mload(0x40)\n      0x08c379a000000000000000000000000000000000000000000000000000000000\n      dup2\n      mstore\n      0x04\n      add\n      tag_93\n      swap1\n      tag_94\n      jump\t// in\n    tag_93:\n      mload(0x40)\n      dup1\n      swap2\n      sub\n      swap1\n      revert\n    tag_92:\n        /* \"contracts/contract_template.sol\":6776:6796  uint256 buyerDeficit */\n      0x00\n        /* \"contracts/contract_template.sol\":6808:6813  buyer */\n      dup3\n        /* \"contracts/contract_template.sol\":6808:6832  buyer.prosumerEnergyStat */\n      0x01\n      add\n      sload\n        /* \"contracts/contract_template.sol\":6807:6832  -buyer.prosumerEnergyStat */\n      tag_95\n      swap1\n      tag_96\n      jump\t// in\n    tag_95:\n        /* \"contracts/contract_template.sol\":6776:6833  uint256 buyerDeficit = uint256(-buyer.prosumerEnergyStat) */\n      swap1\n      pop\n        /* \"contracts/contract_template.sol\":6908:6920  buyerDeficit */\n      dup1\n        /* \"contracts/contract_template.sol\":6888:6904  _requestedEnergy */\n      dup5\n        /* \"contracts/contract_template.sol\":6888:6920  _requestedEnergy <= buyerDeficit */\n      gt\n      iszero\n        /* \"contracts/contract_template.sol\":6880:6963  require(_requestedEnergy <= buyerDeficit, \"Requested energy exceeds buyer deficit\") */\n      tag_97\n      jumpi\n      mload(0x40)\n      0x08c379a000000000000000000000000000000000000000000000000000000000\n      dup2\n      mstore\n      0x04\n      add\n      tag_98\n      swap1\n      tag_99\n      jump\t// in\n    tag_98:\n      mload(0x40)\n      dup1\n      swap2\n      sub\n      swap1\n      revert\n    tag_97:\n        /* \"contracts/contract_template.sol\":7020:7041  uint256 sellerSurplus */\n      0x00\n        /* \"contracts/contract_template.sol\":7052:7058  seller */\n      dup3\n        /* \"contracts/contract_template.sol\":7052:7077  seller.prosumerEnergyStat */\n      0x01\n      add\n      sload\n        /* \"contracts/contract_template.sol\":7020:7078  uint256 sellerSurplus = uint256(seller.prosumerEnergyStat) */\n      swap1\n      pop\n        /* \"contracts/contract_template.sol\":7137:7150  sellerSurplus */\n      dup1\n        /* \"contracts/contract_template.sol\":7117:7133  _requestedEnergy */\n      dup6\n        /* \"contracts/contract_template.sol\":7117:7150  _requestedEnergy <= sellerSurplus */\n      gt\n      iszero\n        /* \"contracts/contract_template.sol\":7109:7194  require(_requestedEnergy <= sellerSurplus, \"Requested energy exceeds seller surplus\") */\n      tag_100\n      jumpi\n      mload(0x40)\n      0x08c379a000000000000000000000000000000000000000000000000000000000\n      dup2\n      mstore\n      0x04\n      add\n      tag_101\n      swap1\n      tag_102\n      jump\t// in\n    tag_101:\n      mload(0x40)\n      dup1\n      swap2\n      sub\n      swap1\n      revert\n    tag_100:\n        /* \"contracts/contract_template.sol\":7376:7388  uint256 cost */\n      0x00\n        /* \"contracts/contract_template.sol\":7410:7421  energyPrice */\n      sload(0x01)\n        /* \"contracts/contract_template.sol\":7391:7407  _requestedEnergy */\n      dup7\n        /* \"contracts/contract_template.sol\":7391:7421  _requestedEnergy * energyPrice */\n      tag_103\n      swap2\n      swap1\n      tag_104\n      jump\t// in\n    tag_103:\n        /* \"contracts/contract_template.sol\":7376:7421  uint256 cost = _requestedEnergy * energyPrice */\n      swap1\n      pop\n        /* \"contracts/contract_template.sol\":7465:7469  cost */\n      dup1\n        /* \"contracts/contract_template.sol\":7440:7445  buyer */\n      dup6\n        /* \"contracts/contract_template.sol\":7440:7461  buyer.prosumerBalance */\n      0x02\n      add\n      sload\n        /* \"contracts/contract_template.sol\":7440:7469  buyer.prosumerBalance >= cost */\n      lt\n      iszero\n        /* \"contracts/contract_template.sol\":7432:7500  require(buyer.prosumerBalance >= cost, \"Insufficient buyer balance\") */\n      tag_105\n      jumpi\n      mload(0x40)\n      0x08c379a000000000000000000000000000000000000000000000000000000000\n      dup2\n      mstore\n      0x04\n      add\n      tag_106\n      swap1\n      tag_107\n      jump\t// in\n    tag_106:\n      mload(0x40)\n      dup1\n      swap2\n      sub\n      swap1\n      revert\n    tag_105:\n        /* \"contracts/contract_template.sol\":7570:7574  cost */\n      dup1\n        /* \"contracts/contract_template.sol\":7545:7550  buyer */\n      dup6\n        /* \"contracts/contract_template.sol\":7545:7566  buyer.prosumerBalance */\n      0x02\n      add\n      0x00\n        /* \"contracts/contract_template.sol\":7545:7574  buyer.prosumerBalance -= cost */\n      dup3\n      dup3\n      sload\n      tag_108\n      swap2\n      swap1\n      tag_109\n      jump\t// in\n    tag_108:\n      swap3\n      pop\n      pop\n      dup2\n      swap1\n      sstore\n      pop\n        /* \"contracts/contract_template.sol\":7611:7615  cost */\n      dup1\n        /* \"contracts/contract_template.sol\":7585:7591  seller */\n      dup5\n        /* \"contracts/contract_template.sol\":7585:7607  seller.prosumerBalance */\n      0x02\n      add\n      0x00\n        /* \"contracts/contract_template.sol\":7585:7615  seller.prosumerBalance += cost */\n      dup3\n      dup3\n      sload\n      tag_110\n      swap2\n      swap1\n      tag_111\n      jump\t// in\n    tag_110:\n      swap3\n      pop\n      pop\n      dup2\n      swap1\n      sstore\n      pop\n        /* \"contracts/contract_template.sol\":7695:7711  _requestedEnergy */\n      dup6\n        /* \"contracts/contract_template.sol\":7660:7665  buyer */\n      dup6\n        /* \"contracts/contract_template.sol\":7660:7684  buyer.prosumerEnergyStat */\n      0x01\n      add\n      0x00\n        /* \"contracts/contract_template.sol\":7660:7712  buyer.prosumerEnergyStat += int256(_requestedEnergy) */\n      dup3\n      dup3\n      sload\n      tag_112\n      swap2\n      swap1\n      tag_113\n      jump\t// in\n    tag_112:\n      swap3\n      pop\n      pop\n      dup2\n      swap1\n      sstore\n      pop\n        /* \"contracts/contract_template.sol\":7759:7775  _requestedEnergy */\n      dup6\n        /* \"contracts/contract_template.sol\":7723:7729  seller */\n      dup5\n        /* \"contracts/contract_template.sol\":7723:7748  seller.prosumerEnergyStat */\n      0x01\n      add\n      0x00\n        /* \"contracts/contract_template.sol\":7723:7776  seller.prosumerEnergyStat -= int256(_requestedEnergy) */\n      dup3\n      dup3\n      sload\n      tag_114\n      swap2\n      swap1\n      tag_115\n      jump\t// in\n    tag_114:\n      swap3\n      pop\n      pop\n      dup2\n      swap1\n      sstore\n      pop\n        /* \"contracts/contract_template.sol\":5741:7885  {... */\n      pop\n      pop\n      pop\n      pop\n      pop\n        /* \"contracts/contract_template.sol\":5669:7885  function buyEnergyFrom(address _seller, uint _requestedEnergy) external {... */\n      pop\n      pop\n      jump\t// out\n        /* \"contracts/contract_template.sol\":582:628  mapping (address => Prosumer) public prosumers */\n    tag_26:\n      mstore(0x20, 0x00)\n      dup1\n      0x00\n      mstore\n      keccak256(0x00, 0x40)\n      0x00\n      swap2\n      pop\n      swap1\n      pop\n      dup1\n      0x00\n      add\n      0x00\n      swap1\n      sload\n      swap1\n      0x0100\n      exp\n      swap1\n      div\n      0xffffffffffffffffffffffffffffffffffffffff\n      and\n      swap1\n      dup1\n      0x01\n      add\n      sload\n      swap1\n      dup1\n      0x02\n      add\n      sload\n      swap1\n      dup1\n      0x03\n      add\n      0x00\n      swap1\n      sload\n      swap1\n      0x0100\n      exp\n      swap1\n      div\n      0xff\n      and\n      swap1\n      pop\n      dup5\n      jump\t// out\n        /* \"contracts/contract_template.sol\":2260:2850  function withdraw(uint256 _value) external {... */\n    tag_33:\n        /* \"contracts/contract_template.sol\":2504:2520  address mySender */\n      0x00\n        /* \"contracts/contract_template.sol\":2521:2531  msg.sender */\n      caller\n        /* \"contracts/contract_template.sol\":2504:2531  address mySender=msg.sender */\n      swap1\n      pop\n        /* \"contracts/contract_template.sol\":2550:2559  prosumers */\n      0x00\n        /* \"contracts/contract_template.sol\":2550:2569  prosumers[mySender] */\n      0x00\n        /* \"contracts/contract_template.sol\":2560:2568  mySender */\n      dup3\n        /* \"contracts/contract_template.sol\":2550:2569  prosumers[mySender] */\n      0xffffffffffffffffffffffffffffffffffffffff\n      and\n      0xffffffffffffffffffffffffffffffffffffffff\n      and\n      dup2\n      mstore\n      0x20\n      add\n      swap1\n      dup2\n      mstore\n      0x20\n      add\n      0x00\n      keccak256\n        /* \"contracts/contract_template.sol\":2550:2578  prosumers[mySender].isMember */\n      0x03\n      add\n      0x00\n      swap1\n      sload\n      swap1\n      0x0100\n      exp\n      swap1\n      div\n      0xff\n      and\n        /* \"contracts/contract_template.sol\":2542:2606  require(prosumers[mySender].isMember, \"Prosumer not registered\") */\n      tag_117\n      jumpi\n      mload(0x40)\n      0x08c379a000000000000000000000000000000000000000000000000000000000\n      dup2\n      mstore\n      0x04\n      add\n      tag_118\n      swap1\n      tag_119\n      jump\t// in\n    tag_118:\n      mload(0x40)\n      dup1\n      swap2\n      sub\n      swap1\n      revert\n    tag_117:\n        /* \"contracts/contract_template.sol\":2667:2668  0 */\n      0x00\n        /* \"contracts/contract_template.sol\":2625:2634  prosumers */\n      0x00\n        /* \"contracts/contract_template.sol\":2625:2644  prosumers[mySender] */\n      0x00\n        /* \"contracts/contract_template.sol\":2635:2643  mySender */\n      dup4\n        /* \"contracts/contract_template.sol\":2625:2644  prosumers[mySender] */\n      0xffffffffffffffffffffffffffffffffffffffff\n      and\n      0xffffffffffffffffffffffffffffffffffffffff\n      and\n      dup2\n      mstore\n      0x20\n      add\n      swap1\n      dup2\n      mstore\n      0x20\n      add\n      0x00\n      keccak256\n        /* \"contracts/contract_template.sol\":2625:2663  prosumers[mySender].prosumerEnergyStat */\n      0x01\n      add\n      sload\n        /* \"contracts/contract_template.sol\":2625:2668  prosumers[mySender].prosumerEnergyStat >= 0 */\n      slt\n      iszero\n        /* \"contracts/contract_template.sol\":2617:2703  require(prosumers[mySender].prosumerEnergyStat >= 0,\"Prosumer has an energy deficit\" ) */\n      tag_120\n      jumpi\n      mload(0x40)\n      0x08c379a000000000000000000000000000000000000000000000000000000000\n      dup2\n      mstore\n      0x04\n      add\n      tag_121\n      swap1\n      tag_122\n      jump\t// in\n    tag_121:\n      mload(0x40)\n      dup1\n      swap2\n      sub\n      swap1\n      revert\n    tag_120:\n        /* \"contracts/contract_template.sol\":2836:2842  _value */\n      dup2\n        /* \"contracts/contract_template.sol\":2798:2807  prosumers */\n      0x00\n        /* \"contracts/contract_template.sol\":2798:2817  prosumers[mySender] */\n      0x00\n        /* \"contracts/contract_template.sol\":2808:2816  mySender */\n      dup4\n        /* \"contracts/contract_template.sol\":2798:2817  prosumers[mySender] */\n      0xffffffffffffffffffffffffffffffffffffffff\n      and\n      0xffffffffffffffffffffffffffffffffffffffff\n      and\n      dup2\n      mstore\n      0x20\n      add\n      swap1\n      dup2\n      mstore\n      0x20\n      add\n      0x00\n      keccak256\n        /* \"contracts/contract_template.sol\":2798:2833  prosumers[mySender].prosumerBalance */\n      0x02\n      add\n      sload\n        /* \"contracts/contract_template.sol\":2798:2842  prosumers[mySender].prosumerBalance - _value */\n      tag_123\n      swap2\n      swap1\n      tag_109\n      jump\t// in\n    tag_123:\n        /* \"contracts/contract_template.sol\":2760:2769  prosumers */\n      0x00\n        /* \"contracts/contract_template.sol\":2760:2779  prosumers[mySender] */\n      0x00\n        /* \"contracts/contract_template.sol\":2770:2778  mySender */\n      dup4\n        /* \"contracts/contract_template.sol\":2760:2779  prosumers[mySender] */\n      0xffffffffffffffffffffffffffffffffffffffff\n      and\n      0xffffffffffffffffffffffffffffffffffffffff\n      and\n      dup2\n      mstore\n      0x20\n      add\n      swap1\n      dup2\n      mstore\n      0x20\n      add\n      0x00\n      keccak256\n        /* \"contracts/contract_template.sol\":2760:2795  prosumers[mySender].prosumerBalance */\n      0x02\n      add\n        /* \"contracts/contract_template.sol\":2760:2842  prosumers[mySender].prosumerBalance = prosumers[mySender].prosumerBalance - _value */\n      dup2\n      swap1\n      sstore\n      pop\n        /* \"contracts/contract_template.sol\":2303:2850  {... */\n      pop\n        /* \"contracts/contract_template.sol\":2260:2850  function withdraw(uint256 _value) external {... */\n      pop\n      jump\t// out\n        /* \"contracts/contract_template.sol\":3823:5661  function updateEnergyPrice() public {... */\n    tag_36:\n        /* \"contracts/contract_template.sol\":4507:4519  int256 total */\n      0x00\n        /* \"contracts/contract_template.sol\":4522:4523  0 */\n      0x00\n        /* \"contracts/contract_template.sol\":4507:4523  int256 total = 0 */\n      swap1\n      pop\n        /* \"contracts/contract_template.sol\":4580:4589  uint256 i */\n      0x00\n        /* \"contracts/contract_template.sol\":4592:4593  0 */\n      0x00\n        /* \"contracts/contract_template.sol\":4580:4593  uint256 i = 0 */\n      swap1\n      pop\n        /* \"contracts/contract_template.sol\":4575:4744  for (uint256 i = 0; i < prosumerAddresses.length; i++) {... */\n    tag_125:\n        /* \"contracts/contract_template.sol\":4599:4616  prosumerAddresses */\n      0x03\n        /* \"contracts/contract_template.sol\":4599:4623  prosumerAddresses.length */\n      dup1\n      sload\n      swap1\n      pop\n        /* \"contracts/contract_template.sol\":4595:4596  i */\n      dup2\n        /* \"contracts/contract_template.sol\":4595:4623  i < prosumerAddresses.length */\n      lt\n        /* \"contracts/contract_template.sol\":4575:4744  for (uint256 i = 0; i < prosumerAddresses.length; i++) {... */\n      iszero\n      tag_126\n      jumpi\n        /* \"contracts/contract_template.sol\":4645:4654  address a */\n      0x00\n        /* \"contracts/contract_template.sol\":4657:4674  prosumerAddresses */\n      0x03\n        /* \"contracts/contract_template.sol\":4675:4676  i */\n      dup3\n        /* \"contracts/contract_template.sol\":4657:4677  prosumerAddresses[i] */\n      dup2\n      sload\n      dup2\n      lt\n      tag_128\n      jumpi\n      tag_129\n      tag_130\n      jump\t// in\n    tag_129:\n    tag_128:\n      swap1\n      0x00\n      mstore\n      keccak256(0x00, 0x20)\n      add\n      0x00\n      swap1\n      sload\n      swap1\n      0x0100\n      exp\n      swap1\n      div\n      0xffffffffffffffffffffffffffffffffffffffff\n      and\n        /* \"contracts/contract_template.sol\":4645:4677  address a = prosumerAddresses[i] */\n      swap1\n      pop\n        /* \"contracts/contract_template.sol\":4701:4710  prosumers */\n      0x00\n        /* \"contracts/contract_template.sol\":4701:4713  prosumers[a] */\n      0x00\n        /* \"contracts/contract_template.sol\":4711:4712  a */\n      dup3\n        /* \"contracts/contract_template.sol\":4701:4713  prosumers[a] */\n      0xffffffffffffffffffffffffffffffffffffffff\n      and\n      0xffffffffffffffffffffffffffffffffffffffff\n      and\n      dup2\n      mstore\n      0x20\n      add\n      swap1\n      dup2\n      mstore\n      0x20\n      add\n      0x00\n      keccak256\n        /* \"contracts/contract_template.sol\":4701:4732  prosumers[a].prosumerEnergyStat */\n      0x01\n      add\n      sload\n        /* \"contracts/contract_template.sol\":4692:4732  total += prosumers[a].prosumerEnergyStat */\n      dup4\n      tag_132\n      swap2\n      swap1\n      tag_113\n      jump\t// in\n    tag_132:\n      swap3\n      pop\n        /* \"contracts/contract_template.sol\":4630:4744  {... */\n      pop\n        /* \"contracts/contract_template.sol\":4625:4628  i++ */\n      dup1\n      dup1\n      0x01\n      add\n      swap2\n      pop\n      pop\n        /* \"contracts/contract_template.sol\":4575:4744  for (uint256 i = 0; i < prosumerAddresses.length; i++) {... */\n      jump(tag_125)\n    tag_126:\n      pop\n        /* \"contracts/contract_template.sol\":4803:4816  uint256 price */\n      0x00\n        /* \"contracts/contract_template.sol\":4819:4826  1 ether */\n      0x0de0b6b3a7640000\n        /* \"contracts/contract_template.sol\":4803:4826  uint256 price = 1 ether */\n      swap1\n      pop\n        /* \"contracts/contract_template.sol\":4889:4907  uint256 adjustment */\n      0x00\n        /* \"contracts/contract_template.sol\":4930:4931  0 */\n      0x00\n        /* \"contracts/contract_template.sol\":4922:4927  total */\n      dup4\n        /* \"contracts/contract_template.sol\":4922:4931  total < 0 */\n      slt\n        /* \"contracts/contract_template.sol\":4918:5422  if (total < 0) {... */\n      iszero\n      tag_133\n      jumpi\n        /* \"contracts/contract_template.sol\":4979:4990  0.001 ether */\n      0x038d7ea4c68000\n        /* \"contracts/contract_template.sol\":4970:4975  total */\n      dup4\n        /* \"contracts/contract_template.sol\":4969:4975  -total */\n      tag_134\n      swap1\n      tag_96\n      jump\t// in\n    tag_134:\n        /* \"contracts/contract_template.sol\":4961:4990  uint256(-total) * 0.001 ether */\n      tag_135\n      swap2\n      swap1\n      tag_104\n      jump\t// in\n    tag_135:\n        /* \"contracts/contract_template.sol\":4948:4990  adjustment = uint256(-total) * 0.001 ether */\n      swap1\n      pop\n        /* \"contracts/contract_template.sol\":5044:5054  adjustment */\n      dup1\n        /* \"contracts/contract_template.sol\":5036:5041  price */\n      dup3\n        /* \"contracts/contract_template.sol\":5036:5054  price + adjustment */\n      tag_136\n      swap2\n      swap1\n      tag_111\n      jump\t// in\n    tag_136:\n        /* \"contracts/contract_template.sol\":5028:5054  price = price + adjustment */\n      swap2\n      pop\n        /* \"contracts/contract_template.sol\":4918:5422  if (total < 0) {... */\n      jump(tag_137)\n    tag_133:\n        /* \"contracts/contract_template.sol\":5084:5085  0 */\n      0x00\n        /* \"contracts/contract_template.sol\":5076:5081  total */\n      dup4\n        /* \"contracts/contract_template.sol\":5076:5085  total > 0 */\n      sgt\n        /* \"contracts/contract_template.sol\":5072:5422  if (total > 0) {... */\n      iszero\n      tag_138\n      jumpi\n        /* \"contracts/contract_template.sol\":5132:5143  0.001 ether */\n      0x038d7ea4c68000\n        /* \"contracts/contract_template.sol\":5123:5128  total */\n      dup4\n        /* \"contracts/contract_template.sol\":5115:5143  uint256(total) * 0.001 ether */\n      tag_139\n      swap2\n      swap1\n      tag_104\n      jump\t// in\n    tag_139:\n        /* \"contracts/contract_template.sol\":5102:5143  adjustment = uint256(total) * 0.001 ether */\n      swap1\n      pop\n        /* \"contracts/contract_template.sol\":5256:5261  price */\n      dup2\n        /* \"contracts/contract_template.sol\":5242:5252  adjustment */\n      dup2\n        /* \"contracts/contract_template.sol\":5242:5261  adjustment >= price */\n      lt\n        /* \"contracts/contract_template.sol\":5238:5411  if (adjustment >= price) {... */\n      tag_140\n      jumpi\n        /* \"contracts/contract_template.sol\":5290:5291  0 */\n      0x00\n        /* \"contracts/contract_template.sol\":5282:5291  price = 0 */\n      swap2\n      pop\n        /* \"contracts/contract_template.sol\":5238:5411  if (adjustment >= price) {... */\n      jump(tag_141)\n    tag_140:\n        /* \"contracts/contract_template.sol\":5385:5395  adjustment */\n      dup1\n        /* \"contracts/contract_template.sol\":5377:5382  price */\n      dup3\n        /* \"contracts/contract_template.sol\":5377:5395  price - adjustment */\n      tag_142\n      swap2\n      swap1\n      tag_109\n      jump\t// in\n    tag_142:\n        /* \"contracts/contract_template.sol\":5369:5395  price = price - adjustment */\n      swap2\n      pop\n        /* \"contracts/contract_template.sol\":5238:5411  if (adjustment >= price) {... */\n    tag_141:\n        /* \"contracts/contract_template.sol\":5072:5422  if (total > 0) {... */\n    tag_138:\n        /* \"contracts/contract_template.sol\":4918:5422  if (total < 0) {... */\n    tag_137:\n        /* \"contracts/contract_template.sol\":5493:5502  0.1 ether */\n      0x016345785d8a0000\n        /* \"contracts/contract_template.sol\":5485:5490  price */\n      dup3\n        /* \"contracts/contract_template.sol\":5485:5502  price < 0.1 ether */\n      lt\n        /* \"contracts/contract_template.sol\":5481:5521  if (price < 0.1 ether) price = 0.1 ether */\n      iszero\n      tag_143\n      jumpi\n        /* \"contracts/contract_template.sol\":5512:5521  0.1 ether */\n      0x016345785d8a0000\n        /* \"contracts/contract_template.sol\":5504:5521  price = 0.1 ether */\n      swap2\n      pop\n        /* \"contracts/contract_template.sol\":5481:5521  if (price < 0.1 ether) price = 0.1 ether */\n    tag_143:\n        /* \"contracts/contract_template.sol\":5544:5551  5 ether */\n      0x4563918244f40000\n        /* \"contracts/contract_template.sol\":5536:5541  price */\n      dup3\n        /* \"contracts/contract_template.sol\":5536:5551  price > 5 ether */\n      gt\n        /* \"contracts/contract_template.sol\":5532:5570  if (price > 5 ether)   price = 5 ether */\n      iszero\n      tag_144\n      jumpi\n        /* \"contracts/contract_template.sol\":5563:5570  5 ether */\n      0x4563918244f40000\n        /* \"contracts/contract_template.sol\":5555:5570  price = 5 ether */\n      swap2\n      pop\n        /* \"contracts/contract_template.sol\":5532:5570  if (price > 5 ether)   price = 5 ether */\n    tag_144:\n        /* \"contracts/contract_template.sol\":5597:5602  price */\n      dup2\n        /* \"contracts/contract_template.sol\":5583:5594  energyPrice */\n      0x01\n        /* \"contracts/contract_template.sol\":5583:5602  energyPrice = price */\n      dup2\n      swap1\n      sstore\n      pop\n        /* \"contracts/contract_template.sol\":5621:5653  EnergyPriceUpdated(price, total) */\n      0x999f531f5c660ea97b00b870fa2eaf696cf5c011cc53c3a68a866585105d6e56\n        /* \"contracts/contract_template.sol\":5640:5645  price */\n      dup3\n        /* \"contracts/contract_template.sol\":5647:5652  total */\n      dup5\n        /* \"contracts/contract_template.sol\":5621:5653  EnergyPriceUpdated(price, total) */\n      mload(0x40)\n      tag_145\n      swap3\n      swap2\n      swap1\n      tag_146\n      jump\t// in\n    tag_145:\n      mload(0x40)\n      dup1\n      swap2\n      sub\n      swap1\n      log1\n        /* \"contracts/contract_template.sol\":3859:5661  {... */\n      pop\n      pop\n      pop\n        /* \"contracts/contract_template.sol\":3823:5661  function updateEnergyPrice() public {... */\n      jump\t// out\n        /* \"contracts/contract_template.sol\":10010:10091  function coordinateTrading() public {... */\n    tag_39:\n      jump\t// out\n        /* \"contracts/contract_template.sol\":7893:10000  function sellEnergyTo(address _buyer, uint _offeredEnergy) external {... */\n    tag_43:\n        /* \"contracts/contract_template.sol\":8385:8386  0 */\n      0x00\n        /* \"contracts/contract_template.sol\":8368:8382  _offeredEnergy */\n      dup2\n        /* \"contracts/contract_template.sol\":8368:8386  _offeredEnergy > 0 */\n      gt\n        /* \"contracts/contract_template.sol\":8360:8417  require(_offeredEnergy > 0, \"Offered energy must be > 0\") */\n      tag_149\n      jumpi\n      mload(0x40)\n      0x08c379a000000000000000000000000000000000000000000000000000000000\n      dup2\n      mstore\n      0x04\n      add\n      tag_150\n      swap1\n      tag_151\n      jump\t// in\n    tag_150:\n      mload(0x40)\n      dup1\n      swap2\n      sub\n      swap1\n      revert\n    tag_149:\n        /* \"contracts/contract_template.sol\":8454:8455  0 */\n      0x00\n        /* \"contracts/contract_template.sol\":8436:8456  _buyer != address(0) */\n      0xffffffffffffffffffffffffffffffffffffffff\n      and\n        /* \"contracts/contract_template.sol\":8436:8442  _buyer */\n      dup3\n        /* \"contracts/contract_template.sol\":8436:8456  _buyer != address(0) */\n      0xffffffffffffffffffffffffffffffffffffffff\n      and\n      sub\n        /* \"contracts/contract_template.sol\":8428:8474  require(_buyer != address(0), \"Invalid buyer\") */\n      tag_152\n      jumpi\n      mload(0x40)\n      0x08c379a000000000000000000000000000000000000000000000000000000000\n      dup2\n      mstore\n      0x04\n      add\n      tag_153\n      swap1\n      tag_154\n      jump\t// in\n    tag_153:\n      mload(0x40)\n      dup1\n      swap2\n      sub\n      swap1\n      revert\n    tag_152:\n        /* \"contracts/contract_template.sol\":8503:8513  msg.sender */\n      caller\n        /* \"contracts/contract_template.sol\":8493:8513  _buyer != msg.sender */\n      0xffffffffffffffffffffffffffffffffffffffff\n      and\n        /* \"contracts/contract_template.sol\":8493:8499  _buyer */\n      dup3\n        /* \"contracts/contract_template.sol\":8493:8513  _buyer != msg.sender */\n      0xffffffffffffffffffffffffffffffffffffffff\n      and\n      sub\n        /* \"contracts/contract_template.sol\":8485:8537  require(_buyer != msg.sender, \"Cannot sell to self\") */\n      tag_155\n      jumpi\n      mload(0x40)\n      0x08c379a000000000000000000000000000000000000000000000000000000000\n      dup2\n      mstore\n      0x04\n      add\n      tag_156\n      swap1\n      tag_157\n      jump\t// in\n    tag_156:\n      mload(0x40)\n      dup1\n      swap2\n      sub\n      swap1\n      revert\n    tag_155:\n        /* \"contracts/contract_template.sol\":8550:8573  Prosumer storage seller */\n      0x00\n        /* \"contracts/contract_template.sol\":8576:8585  prosumers */\n      0x00\n        /* \"contracts/contract_template.sol\":8576:8597  prosumers[msg.sender] */\n      0x00\n        /* \"contracts/contract_template.sol\":8586:8596  msg.sender */\n      caller\n        /* \"contracts/contract_template.sol\":8576:8597  prosumers[msg.sender] */\n      0xffffffffffffffffffffffffffffffffffffffff\n      and\n      0xffffffffffffffffffffffffffffffffffffffff\n      and\n      dup2\n      mstore\n      0x20\n      add\n      swap1\n      dup2\n      mstore\n      0x20\n      add\n      0x00\n      keccak256\n        /* \"contracts/contract_template.sol\":8550:8597  Prosumer storage seller = prosumers[msg.sender] */\n      swap1\n      pop\n        /* \"contracts/contract_template.sol\":8608:8630  Prosumer storage buyer */\n      0x00\n        /* \"contracts/contract_template.sol\":8634:8643  prosumers */\n      0x00\n        /* \"contracts/contract_template.sol\":8634:8651  prosumers[_buyer] */\n      0x00\n        /* \"contracts/contract_template.sol\":8644:8650  _buyer */\n      dup6\n        /* \"contracts/contract_template.sol\":8634:8651  prosumers[_buyer] */\n      0xffffffffffffffffffffffffffffffffffffffff\n      and\n      0xffffffffffffffffffffffffffffffffffffffff\n      and\n      dup2\n      mstore\n      0x20\n      add\n      swap1\n      dup2\n      mstore\n      0x20\n      add\n      0x00\n      keccak256\n        /* \"contracts/contract_template.sol\":8608:8651  Prosumer storage buyer  = prosumers[_buyer] */\n      swap1\n      pop\n        /* \"contracts/contract_template.sol\":8672:8678  seller */\n      dup2\n        /* \"contracts/contract_template.sol\":8672:8687  seller.isMember */\n      0x03\n      add\n      0x00\n      swap1\n      sload\n      swap1\n      0x0100\n      exp\n      swap1\n      div\n      0xff\n      and\n        /* \"contracts/contract_template.sol\":8664:8713  require(seller.isMember, \"Seller not registered\") */\n      tag_158\n      jumpi\n      mload(0x40)\n      0x08c379a000000000000000000000000000000000000000000000000000000000\n      dup2\n      mstore\n      0x04\n      add\n      tag_159\n      swap1\n      tag_88\n      jump\t// in\n    tag_159:\n      mload(0x40)\n      dup1\n      swap2\n      sub\n      swap1\n      revert\n    tag_158:\n        /* \"contracts/contract_template.sol\":8732:8737  buyer */\n      dup1\n        /* \"contracts/contract_template.sol\":8732:8746  buyer.isMember */\n      0x03\n      add\n      0x00\n      swap1\n      sload\n      swap1\n      0x0100\n      exp\n      swap1\n      div\n      0xff\n      and\n        /* \"contracts/contract_template.sol\":8724:8771  require(buyer.isMember, \"Buyer not registered\") */\n      tag_160\n      jumpi\n      mload(0x40)\n      0x08c379a000000000000000000000000000000000000000000000000000000000\n      dup2\n      mstore\n      0x04\n      add\n      tag_161\n      swap1\n      tag_85\n      jump\t// in\n    tag_161:\n      mload(0x40)\n      dup1\n      swap2\n      sub\n      swap1\n      revert\n    tag_160:\n        /* \"contracts/contract_template.sol\":8869:8870  0 */\n      0x00\n        /* \"contracts/contract_template.sol\":8841:8847  seller */\n      dup3\n        /* \"contracts/contract_template.sol\":8841:8866  seller.prosumerEnergyStat */\n      0x01\n      add\n      sload\n        /* \"contracts/contract_template.sol\":8841:8870  seller.prosumerEnergyStat > 0 */\n      sgt\n        /* \"contracts/contract_template.sol\":8833:8899  require(seller.prosumerEnergyStat > 0, \"Seller is not in surplus\") */\n      tag_162\n      jumpi\n      mload(0x40)\n      0x08c379a000000000000000000000000000000000000000000000000000000000\n      dup2\n      mstore\n      0x04\n      add\n      tag_163\n      swap1\n      tag_94\n      jump\t// in\n    tag_163:\n      mload(0x40)\n      dup1\n      swap2\n      sub\n      swap1\n      revert\n    tag_162:\n        /* \"contracts/contract_template.sol\":8995:8996  0 */\n      0x00\n        /* \"contracts/contract_template.sol\":8968:8973  buyer */\n      dup2\n        /* \"contracts/contract_template.sol\":8968:8992  buyer.prosumerEnergyStat */\n      0x01\n      add\n      sload\n        /* \"contracts/contract_template.sol\":8968:8996  buyer.prosumerEnergyStat < 0 */\n      slt\n        /* \"contracts/contract_template.sol\":8960:9024  require(buyer.prosumerEnergyStat < 0, \"Buyer is not in deficit\") */\n      tag_164\n      jumpi\n      mload(0x40)\n      0x08c379a000000000000000000000000000000000000000000000000000000000\n      dup2\n      mstore\n      0x04\n      add\n      tag_165\n      swap1\n      tag_91\n      jump\t// in\n    tag_165:\n      mload(0x40)\n      dup1\n      swap2\n      sub\n      swap1\n      revert\n    tag_164:\n        /* \"contracts/contract_template.sol\":9088:9109  uint256 sellerSurplus */\n      0x00\n        /* \"contracts/contract_template.sol\":9120:9126  seller */\n      dup3\n        /* \"contracts/contract_template.sol\":9120:9145  seller.prosumerEnergyStat */\n      0x01\n      add\n      sload\n        /* \"contracts/contract_template.sol\":9088:9146  uint256 sellerSurplus = uint256(seller.prosumerEnergyStat) */\n      swap1\n      pop\n        /* \"contracts/contract_template.sol\":9183:9196  sellerSurplus */\n      dup1\n        /* \"contracts/contract_template.sol\":9165:9179  _offeredEnergy */\n      dup5\n        /* \"contracts/contract_template.sol\":9165:9196  _offeredEnergy <= sellerSurplus */\n      gt\n      iszero\n        /* \"contracts/contract_template.sol\":9157:9231  require(_offeredEnergy <= sellerSurplus, \"Offered exceeds seller surplus\") */\n      tag_166\n      jumpi\n      mload(0x40)\n      0x08c379a000000000000000000000000000000000000000000000000000000000\n      dup2\n      mstore\n      0x04\n      add\n      tag_167\n      swap1\n      tag_168\n      jump\t// in\n    tag_167:\n      mload(0x40)\n      dup1\n      swap2\n      sub\n      swap1\n      revert\n    tag_166:\n        /* \"contracts/contract_template.sol\":9293:9313  uint256 buyerDeficit */\n      0x00\n        /* \"contracts/contract_template.sol\":9325:9330  buyer */\n      dup3\n        /* \"contracts/contract_template.sol\":9325:9349  buyer.prosumerEnergyStat */\n      0x01\n      add\n      sload\n        /* \"contracts/contract_template.sol\":9324:9349  -buyer.prosumerEnergyStat */\n      tag_169\n      swap1\n      tag_96\n      jump\t// in\n    tag_169:\n        /* \"contracts/contract_template.sol\":9293:9350  uint256 buyerDeficit = uint256(-buyer.prosumerEnergyStat) */\n      swap1\n      pop\n        /* \"contracts/contract_template.sol\":9387:9399  buyerDeficit */\n      dup1\n        /* \"contracts/contract_template.sol\":9369:9383  _offeredEnergy */\n      dup6\n        /* \"contracts/contract_template.sol\":9369:9399  _offeredEnergy <= buyerDeficit */\n      gt\n      iszero\n        /* \"contracts/contract_template.sol\":9361:9433  require(_offeredEnergy <= buyerDeficit, \"Offered exceeds buyer deficit\") */\n      tag_170\n      jumpi\n      mload(0x40)\n      0x08c379a000000000000000000000000000000000000000000000000000000000\n      dup2\n      mstore\n      0x04\n      add\n      tag_171\n      swap1\n      tag_172\n      jump\t// in\n    tag_171:\n      mload(0x40)\n      dup1\n      swap2\n      sub\n      swap1\n      revert\n    tag_170:\n        /* \"contracts/contract_template.sol\":9476:9488  uint256 cost */\n      0x00\n        /* \"contracts/contract_template.sol\":9508:9519  energyPrice */\n      sload(0x01)\n        /* \"contracts/contract_template.sol\":9491:9505  _offeredEnergy */\n      dup7\n        /* \"contracts/contract_template.sol\":9491:9519  _offeredEnergy * energyPrice */\n      tag_173\n      swap2\n      swap1\n      tag_104\n      jump\t// in\n    tag_173:\n        /* \"contracts/contract_template.sol\":9476:9519  uint256 cost = _offeredEnergy * energyPrice */\n      swap1\n      pop\n        /* \"contracts/contract_template.sol\":9625:9629  cost */\n      dup1\n        /* \"contracts/contract_template.sol\":9600:9605  buyer */\n      dup5\n        /* \"contracts/contract_template.sol\":9600:9621  buyer.prosumerBalance */\n      0x02\n      add\n      sload\n        /* \"contracts/contract_template.sol\":9600:9629  buyer.prosumerBalance >= cost */\n      lt\n      iszero\n        /* \"contracts/contract_template.sol\":9592:9660  require(buyer.prosumerBalance >= cost, \"Insufficient buyer balance\") */\n      tag_174\n      jumpi\n      mload(0x40)\n      0x08c379a000000000000000000000000000000000000000000000000000000000\n      dup2\n      mstore\n      0x04\n      add\n      tag_175\n      swap1\n      tag_107\n      jump\t// in\n    tag_175:\n      mload(0x40)\n      dup1\n      swap2\n      sub\n      swap1\n      revert\n    tag_174:\n        /* \"contracts/contract_template.sol\":9730:9734  cost */\n      dup1\n        /* \"contracts/contract_template.sol\":9705:9710  buyer */\n      dup5\n        /* \"contracts/contract_template.sol\":9705:9726  buyer.prosumerBalance */\n      0x02\n      add\n      0x00\n        /* \"contracts/contract_template.sol\":9705:9734  buyer.prosumerBalance -= cost */\n      dup3\n      dup3\n      sload\n      tag_176\n      swap2\n      swap1\n      tag_109\n      jump\t// in\n    tag_176:\n      swap3\n      pop\n      pop\n      dup2\n      swap1\n      sstore\n      pop\n        /* \"contracts/contract_template.sol\":9771:9775  cost */\n      dup1\n        /* \"contracts/contract_template.sol\":9745:9751  seller */\n      dup6\n        /* \"contracts/contract_template.sol\":9745:9767  seller.prosumerBalance */\n      0x02\n      add\n      0x00\n        /* \"contracts/contract_template.sol\":9745:9775  seller.prosumerBalance += cost */\n      dup3\n      dup3\n      sload\n      tag_177\n      swap2\n      swap1\n      tag_111\n      jump\t// in\n    tag_177:\n      swap3\n      pop\n      pop\n      dup2\n      swap1\n      sstore\n      pop\n        /* \"contracts/contract_template.sol\":9856:9870  _offeredEnergy */\n      dup6\n        /* \"contracts/contract_template.sol\":9820:9826  seller */\n      dup6\n        /* \"contracts/contract_template.sol\":9820:9845  seller.prosumerEnergyStat */\n      0x01\n      add\n      0x00\n        /* \"contracts/contract_template.sol\":9820:9871  seller.prosumerEnergyStat -= int256(_offeredEnergy) */\n      dup3\n      dup3\n      sload\n      tag_178\n      swap2\n      swap1\n      tag_115\n      jump\t// in\n    tag_178:\n      swap3\n      pop\n      pop\n      dup2\n      swap1\n      sstore\n      pop\n        /* \"contracts/contract_template.sol\":9918:9932  _offeredEnergy */\n      dup6\n        /* \"contracts/contract_template.sol\":9882:9887  buyer */\n      dup5\n        /* \"contracts/contract_template.sol\":9882:9906  buyer.prosumerEnergyStat */\n      0x01\n      add\n      0x00\n        /* \"contracts/contract_template.sol\":9882:9933  buyer.prosumerEnergyStat  += int256(_offeredEnergy) */\n      dup3\n      dup3\n      sload\n      tag_179\n      swap2\n      swap1\n      tag_113\n      jump\t// in\n    tag_179:\n      swap3\n      pop\n      pop\n      dup2\n      swap1\n      sstore\n      pop\n        /* \"contracts/contract_template.sol\":7961:10000  {... */\n      pop\n      pop\n      pop\n      pop\n      pop\n        /* \"contracts/contract_template.sol\":7893:10000  function sellEnergyTo(address _buyer, uint _offeredEnergy) external {... */\n      pop\n      pop\n      jump\t// out\n        /* \"contracts/contract_template.sol\":10135:10274  function contractBalance() external view returns (uint256) {... */\n    tag_46:\n        /* \"contracts/contract_template.sol\":10185:10192  uint256 */\n      0x00\n        /* \"contracts/contract_template.sol\":10245:10266  address(this).balance */\n      selfbalance\n        /* \"contracts/contract_template.sol\":10238:10266  return address(this).balance */\n      swap1\n      pop\n        /* \"contracts/contract_template.sol\":10135:10274  function contractBalance() external view returns (uint256) {... */\n      swap1\n      jump\t// out\n        /* \"contracts/contract_template.sol\":1252:1860  function registerProsumer() external {... */\n    tag_51:\n        /* \"contracts/contract_template.sol\":1560:1569  prosumers */\n      0x00\n        /* \"contracts/contract_template.sol\":1560:1581  prosumers[msg.sender] */\n      0x00\n        /* \"contracts/contract_template.sol\":1570:1580  msg.sender */\n      caller\n        /* \"contracts/contract_template.sol\":1560:1581  prosumers[msg.sender] */\n      0xffffffffffffffffffffffffffffffffffffffff\n      and\n      0xffffffffffffffffffffffffffffffffffffffff\n      and\n      dup2\n      mstore\n      0x20\n      add\n      swap1\n      dup2\n      mstore\n      0x20\n      add\n      0x00\n      keccak256\n        /* \"contracts/contract_template.sol\":1560:1590  prosumers[msg.sender].isMember */\n      0x03\n      add\n      0x00\n      swap1\n      sload\n      swap1\n      0x0100\n      exp\n      swap1\n      div\n      0xff\n      and\n        /* \"contracts/contract_template.sol\":1559:1590  !prosumers[msg.sender].isMember */\n      iszero\n        /* \"contracts/contract_template.sol\":1551:1622  require(!prosumers[msg.sender].isMember,\"Prosumer already registered!\") */\n      tag_182\n      jumpi\n      mload(0x40)\n      0x08c379a000000000000000000000000000000000000000000000000000000000\n      dup2\n      mstore\n      0x04\n      add\n      tag_183\n      swap1\n      tag_184\n      jump\t// in\n    tag_183:\n      mload(0x40)\n      dup1\n      swap2\n      sub\n      swap1\n      revert\n    tag_182:\n        /* \"contracts/contract_template.sol\":1655:1805  Prosumer({... */\n      mload(0x40)\n      dup1\n      0x80\n      add\n      0x40\n      mstore\n      dup1\n        /* \"contracts/contract_template.sol\":1696:1706  msg.sender */\n      caller\n        /* \"contracts/contract_template.sol\":1655:1805  Prosumer({... */\n      0xffffffffffffffffffffffffffffffffffffffff\n      and\n      dup2\n      mstore\n      0x20\n      add\n        /* \"contracts/contract_template.sol\":1740:1741  0 */\n      0x00\n        /* \"contracts/contract_template.sol\":1655:1805  Prosumer({... */\n      dup2\n      mstore\n      0x20\n      add\n        /* \"contracts/contract_template.sol\":1773:1774  0 */\n      0x00\n        /* \"contracts/contract_template.sol\":1655:1805  Prosumer({... */\n      dup2\n      mstore\n      0x20\n      add\n        /* \"contracts/contract_template.sol\":1799:1803  true */\n      0x01\n        /* \"contracts/contract_template.sol\":1655:1805  Prosumer({... */\n      iszero\n      iszero\n      dup2\n      mstore\n      pop\n        /* \"contracts/contract_template.sol\":1633:1642  prosumers */\n      0x00\n        /* \"contracts/contract_template.sol\":1633:1654  prosumers[msg.sender] */\n      0x00\n        /* \"contracts/contract_template.sol\":1643:1653  msg.sender */\n      caller\n        /* \"contracts/contract_template.sol\":1633:1654  prosumers[msg.sender] */\n      0xffffffffffffffffffffffffffffffffffffffff\n      and\n      0xffffffffffffffffffffffffffffffffffffffff\n      and\n      dup2\n      mstore\n      0x20\n      add\n      swap1\n      dup2\n      mstore\n      0x20\n      add\n      0x00\n      keccak256\n        /* \"contracts/contract_template.sol\":1633:1805  prosumers[msg.sender]=Prosumer({... */\n      0x00\n      dup3\n      add\n      mload\n      dup2\n      0x00\n      add\n      exp(0x0100, 0x00)\n      dup2\n      sload\n      dup2\n      0xffffffffffffffffffffffffffffffffffffffff\n      mul\n      not\n      and\n      swap1\n      dup4\n      0xffffffffffffffffffffffffffffffffffffffff\n      and\n      mul\n      or\n      swap1\n      sstore\n      pop\n      0x20\n      dup3\n      add\n      mload\n      dup2\n      0x01\n      add\n      sstore\n      0x40\n      dup3\n      add\n      mload\n      dup2\n      0x02\n      add\n      sstore\n      0x60\n      dup3\n      add\n      mload\n      dup2\n      0x03\n      add\n      exp(0x0100, 0x00)\n      dup2\n      sload\n      dup2\n      0xff\n      mul\n      not\n      and\n      swap1\n      dup4\n      iszero\n      iszero\n      mul\n      or\n      swap1\n      sstore\n      pop\n      swap1\n      pop\n      pop\n        /* \"contracts/contract_template.sol\":1818:1835  prosumerAddresses */\n      0x03\n        /* \"contracts/contract_template.sol\":1841:1851  msg.sender */\n      caller\n        /* \"contracts/contract_template.sol\":1818:1852  prosumerAddresses.push(msg.sender) */\n      swap1\n      dup1\n      0x01\n      dup2\n      sload\n      add\n      dup1\n      dup3\n      sstore\n      dup1\n      swap2\n      pop\n      pop\n      0x01\n      swap1\n      sub\n      swap1\n      0x00\n      mstore\n      keccak256(0x00, 0x20)\n      add\n      0x00\n      swap1\n      swap2\n      swap1\n      swap2\n      swap1\n      swap2\n      0x0100\n      exp\n      dup2\n      sload\n      dup2\n      0xffffffffffffffffffffffffffffffffffffffff\n      mul\n      not\n      and\n      swap1\n      dup4\n      0xffffffffffffffffffffffffffffffffffffffff\n      and\n      mul\n      or\n      swap1\n      sstore\n      pop\n        /* \"contracts/contract_template.sol\":1252:1860  function registerProsumer() external {... */\n      jump\t// out\n        /* \"contracts/contract_template.sol\":10442:10529  function getRecorder() public view returns (address) {... */\n    tag_54:\n        /* \"contracts/contract_template.sol\":10486:10493  address */\n      0x00\n        /* \"contracts/contract_template.sol\":10513:10521  recorder */\n      0x02\n      0x00\n      swap1\n      sload\n      swap1\n      0x0100\n      exp\n      swap1\n      div\n      0xffffffffffffffffffffffffffffffffffffffff\n      and\n        /* \"contracts/contract_template.sol\":10506:10521  return recorder */\n      swap1\n      pop\n        /* \"contracts/contract_template.sol\":10442:10529  function getRecorder() public view returns (address) {... */\n      swap1\n      jump\t// out\n        /* \"contracts/contract_template.sol\":1017:1051  address[] public prosumerAddresses */\n    tag_60:\n      0x03\n      dup2\n      dup2\n      sload\n      dup2\n      lt\n      tag_187\n      jumpi\n      0x00\n      dup1\n      revert\n    tag_187:\n      swap1\n      0x00\n      mstore\n      keccak256(0x00, 0x20)\n      add\n      0x00\n      swap2\n      pop\n      sload\n      swap1\n      0x0100\n      exp\n      swap1\n      div\n      0xffffffffffffffffffffffffffffffffffffffff\n      and\n      dup2\n      jump\t// out\n        /* \"contracts/contract_template.sol\":10537:10630  function getEnergyPrice() public view returns (uint256) {... */\n    tag_64:\n        /* \"contracts/contract_template.sol\":10584:10591  uint256 */\n      0x00\n        /* \"contracts/contract_template.sol\":10611:10622  energyPrice */\n      sload(0x01)\n        /* \"contracts/contract_template.sol\":10604:10622  return energyPrice */\n      swap1\n      pop\n        /* \"contracts/contract_template.sol\":10537:10630  function getEnergyPrice() public view returns (uint256) {... */\n      swap1\n      jump\t// out\n        /* \"contracts/contract_template.sol\":2858:3815  function updateEnergyStatus(address _prosumer, int256 deltaEnergy) external {... */\n    tag_70:\n        /* \"contracts/contract_template.sol\":3458:3466  recorder */\n      0x02\n      0x00\n      swap1\n      sload\n      swap1\n      0x0100\n      exp\n      swap1\n      div\n      0xffffffffffffffffffffffffffffffffffffffff\n      and\n        /* \"contracts/contract_template.sol\":3444:3466  msg.sender == recorder */\n      0xffffffffffffffffffffffffffffffffffffffff\n      and\n        /* \"contracts/contract_template.sol\":3444:3454  msg.sender */\n      caller\n        /* \"contracts/contract_template.sol\":3444:3466  msg.sender == recorder */\n      0xffffffffffffffffffffffffffffffffffffffff\n      and\n      eq\n        /* \"contracts/contract_template.sol\":3436:3509  require(msg.sender == recorder, \"Only recorder can update energy status\") */\n      tag_191\n      jumpi\n      mload(0x40)\n      0x08c379a000000000000000000000000000000000000000000000000000000000\n      dup2\n      mstore\n      0x04\n      add\n      tag_192\n      swap1\n      tag_193\n      jump\t// in\n    tag_192:\n      mload(0x40)\n      dup1\n      swap2\n      sub\n      swap1\n      revert\n    tag_191:\n        /* \"contracts/contract_template.sol\":3528:3537  prosumers */\n      0x00\n        /* \"contracts/contract_template.sol\":3528:3548  prosumers[_prosumer] */\n      0x00\n        /* \"contracts/contract_template.sol\":3538:3547  _prosumer */\n      dup4\n        /* \"contracts/contract_template.sol\":3528:3548  prosumers[_prosumer] */\n      0xffffffffffffffffffffffffffffffffffffffff\n      and\n      0xffffffffffffffffffffffffffffffffffffffff\n      and\n      dup2\n      mstore\n      0x20\n      add\n      swap1\n      dup2\n      mstore\n      0x20\n      add\n      0x00\n      keccak256\n        /* \"contracts/contract_template.sol\":3528:3557  prosumers[_prosumer].isMember */\n      0x03\n      add\n      0x00\n      swap1\n      sload\n      swap1\n      0x0100\n      exp\n      swap1\n      div\n      0xff\n      and\n        /* \"contracts/contract_template.sol\":3520:3585  require(prosumers[_prosumer].isMember, \"Prosumer not registered\") */\n      tag_194\n      jumpi\n      mload(0x40)\n      0x08c379a000000000000000000000000000000000000000000000000000000000\n      dup2\n      mstore\n      0x04\n      add\n      tag_195\n      swap1\n      tag_119\n      jump\t// in\n    tag_195:\n      mload(0x40)\n      dup1\n      swap2\n      sub\n      swap1\n      revert\n    tag_194:\n        /* \"contracts/contract_template.sol\":3641:3652  deltaEnergy */\n      dup1\n        /* \"contracts/contract_template.sol\":3598:3607  prosumers */\n      0x00\n        /* \"contracts/contract_template.sol\":3598:3618  prosumers[_prosumer] */\n      0x00\n        /* \"contracts/contract_template.sol\":3608:3617  _prosumer */\n      dup5\n        /* \"contracts/contract_template.sol\":3598:3618  prosumers[_prosumer] */\n      0xffffffffffffffffffffffffffffffffffffffff\n      and\n      0xffffffffffffffffffffffffffffffffffffffff\n      and\n      dup2\n      mstore\n      0x20\n      add\n      swap1\n      dup2\n      mstore\n      0x20\n      add\n      0x00\n      keccak256\n        /* \"contracts/contract_template.sol\":3598:3637  prosumers[_prosumer].prosumerEnergyStat */\n      0x01\n      add\n      0x00\n        /* \"contracts/contract_template.sol\":3598:3652  prosumers[_prosumer].prosumerEnergyStat += deltaEnergy */\n      dup3\n      dup3\n      sload\n      tag_196\n      swap2\n      swap1\n      tag_113\n      jump\t// in\n    tag_196:\n      swap3\n      pop\n      pop\n      dup2\n      swap1\n      sstore\n      pop\n        /* \"contracts/contract_template.sol\":2858:3815  function updateEnergyStatus(address _prosumer, int256 deltaEnergy) external {... */\n      pop\n      pop\n      jump\t// out\n        /* \"contracts/contract_template.sol\":1868:2252  function deposit() external payable {... */\n    tag_72:\n        /* \"contracts/contract_template.sol\":2125:2134  prosumers */\n      0x00\n        /* \"contracts/contract_template.sol\":2125:2146  prosumers[msg.sender] */\n      0x00\n        /* \"contracts/contract_template.sol\":2135:2145  msg.sender */\n      caller\n        /* \"contracts/contract_template.sol\":2125:2146  prosumers[msg.sender] */\n      0xffffffffffffffffffffffffffffffffffffffff\n      and\n      0xffffffffffffffffffffffffffffffffffffffff\n      and\n      dup2\n      mstore\n      0x20\n      add\n      swap1\n      dup2\n      mstore\n      0x20\n      add\n      0x00\n      keccak256\n        /* \"contracts/contract_template.sol\":2125:2155  prosumers[msg.sender].isMember */\n      0x03\n      add\n      0x00\n      swap1\n      sload\n      swap1\n      0x0100\n      exp\n      swap1\n      div\n      0xff\n      and\n        /* \"contracts/contract_template.sol\":2117:2183  require(prosumers[msg.sender].isMember, \"Prosumer not registered\") */\n      tag_198\n      jumpi\n      mload(0x40)\n      0x08c379a000000000000000000000000000000000000000000000000000000000\n      dup2\n      mstore\n      0x04\n      add\n      tag_199\n      swap1\n      tag_119\n      jump\t// in\n    tag_199:\n      mload(0x40)\n      dup1\n      swap2\n      sub\n      swap1\n      revert\n    tag_198:\n        /* \"contracts/contract_template.sol\":2235:2244  msg.value */\n      callvalue\n        /* \"contracts/contract_template.sol\":2194:2203  prosumers */\n      0x00\n        /* \"contracts/contract_template.sol\":2194:2215  prosumers[msg.sender] */\n      0x00\n        /* \"contracts/contract_template.sol\":2204:2214  msg.sender */\n      caller\n        /* \"contracts/contract_template.sol\":2194:2215  prosumers[msg.sender] */\n      0xffffffffffffffffffffffffffffffffffffffff\n      and\n      0xffffffffffffffffffffffffffffffffffffffff\n      and\n      dup2\n      mstore\n      0x20\n      add\n      swap1\n      dup2\n      mstore\n      0x20\n      add\n      0x00\n      keccak256\n        /* \"contracts/contract_template.sol\":2194:2231  prosumers[msg.sender].prosumerBalance */\n      0x02\n      add\n      0x00\n        /* \"contracts/contract_template.sol\":2194:2244  prosumers[msg.sender].prosumerBalance += msg.value */\n      dup3\n      dup3\n      sload\n      tag_200\n      swap2\n      swap1\n      tag_111\n      jump\t// in\n    tag_200:\n      swap3\n      pop\n      pop\n      dup2\n      swap1\n      sstore\n      pop\n        /* \"contracts/contract_template.sol\":1868:2252  function deposit() external payable {... */\n      jump\t// out\n        /* \"#utility.yul\":88:205   */\n    tag_202:\n        /* \"#utility.yul\":197:198   */\n      0x00\n        /* \"#utility.yul\":194:195   */\n      0x00\n        /* \"#utility.yul\":187:199   */\n      revert\n        /* \"#utility.yul\":334:460   */\n    tag_204:\n        /* \"#utility.yul\":371:378   */\n      0x00\n        /* \"#utility.yul\":411:453   */\n      0xffffffffffffffffffffffffffffffffffffffff\n        /* \"#utility.yul\":404:409   */\n      dup3\n        /* \"#utility.yul\":400:454   */\n      and\n        /* \"#utility.yul\":389:454   */\n      swap1\n      pop\n        /* \"#utility.yul\":334:460   */\n      swap2\n      swap1\n      pop\n      jump\t// out\n        /* \"#utility.yul\":466:562   */\n    tag_205:\n        /* \"#utility.yul\":503:510   */\n      0x00\n        /* \"#utility.yul\":532:556   */\n      tag_265\n        /* \"#utility.yul\":550:555   */\n      dup3\n        /* \"#utility.yul\":532:556   */\n      tag_204\n      jump\t// in\n    tag_265:\n        /* \"#utility.yul\":521:556   */\n      swap1\n      pop\n        /* \"#utility.yul\":466:562   */\n      swap2\n      swap1\n      pop\n      jump\t// out\n        /* \"#utility.yul\":568:690   */\n    tag_206:\n        /* \"#utility.yul\":641:665   */\n      tag_267\n        /* \"#utility.yul\":659:664   */\n      dup2\n        /* \"#utility.yul\":641:665   */\n      tag_205\n      jump\t// in\n    tag_267:\n        /* \"#utility.yul\":634:639   */\n      dup2\n        /* \"#utility.yul\":631:666   */\n      eq\n        /* \"#utility.yul\":621:684   */\n      tag_268\n      jumpi\n        /* \"#utility.yul\":680:681   */\n      0x00\n        /* \"#utility.yul\":677:678   */\n      0x00\n        /* \"#utility.yul\":670:682   */\n      revert\n        /* \"#utility.yul\":621:684   */\n    tag_268:\n        /* \"#utility.yul\":568:690   */\n      pop\n      jump\t// out\n        /* \"#utility.yul\":696:835   */\n    tag_207:\n        /* \"#utility.yul\":742:747   */\n      0x00\n        /* \"#utility.yul\":780:786   */\n      dup2\n        /* \"#utility.yul\":767:787   */\n      calldataload\n        /* \"#utility.yul\":758:787   */\n      swap1\n      pop\n        /* \"#utility.yul\":796:829   */\n      tag_270\n        /* \"#utility.yul\":823:828   */\n      dup2\n        /* \"#utility.yul\":796:829   */\n      tag_206\n      jump\t// in\n    tag_270:\n        /* \"#utility.yul\":696:835   */\n      swap3\n      swap2\n      pop\n      pop\n      jump\t// out\n        /* \"#utility.yul\":841:918   */\n    tag_208:\n        /* \"#utility.yul\":878:885   */\n      0x00\n        /* \"#utility.yul\":907:912   */\n      dup2\n        /* \"#utility.yul\":896:912   */\n      swap1\n      pop\n        /* \"#utility.yul\":841:918   */\n      swap2\n      swap1\n      pop\n      jump\t// out\n        /* \"#utility.yul\":924:1046   */\n    tag_209:\n        /* \"#utility.yul\":997:1021   */\n      tag_273\n        /* \"#utility.yul\":1015:1020   */\n      dup2\n        /* \"#utility.yul\":997:1021   */\n      tag_208\n      jump\t// in\n    tag_273:\n        /* \"#utility.yul\":990:995   */\n      dup2\n        /* \"#utility.yul\":987:1022   */\n      eq\n        /* \"#utility.yul\":977:1040   */\n      tag_274\n      jumpi\n        /* \"#utility.yul\":1036:1037   */\n      0x00\n        /* \"#utility.yul\":1033:1034   */\n      0x00\n        /* \"#utility.yul\":1026:1038   */\n      revert\n        /* \"#utility.yul\":977:1040   */\n    tag_274:\n        /* \"#utility.yul\":924:1046   */\n      pop\n      jump\t// out\n        /* \"#utility.yul\":1052:1191   */\n    tag_210:\n        /* \"#utility.yul\":1098:1103   */\n      0x00\n        /* \"#utility.yul\":1136:1142   */\n      dup2\n        /* \"#utility.yul\":1123:1143   */\n      calldataload\n        /* \"#utility.yul\":1114:1143   */\n      swap1\n      pop\n        /* \"#utility.yul\":1152:1185   */\n      tag_276\n        /* \"#utility.yul\":1179:1184   */\n      dup2\n        /* \"#utility.yul\":1152:1185   */\n      tag_209\n      jump\t// in\n    tag_276:\n        /* \"#utility.yul\":1052:1191   */\n      swap3\n      swap2\n      pop\n      pop\n      jump\t// out\n        /* \"#utility.yul\":1197:1671   */\n    tag_20:\n        /* \"#utility.yul\":1265:1271   */\n      0x00\n        /* \"#utility.yul\":1273:1279   */\n      0x00\n        /* \"#utility.yul\":1322:1324   */\n      0x40\n        /* \"#utility.yul\":1310:1319   */\n      dup4\n        /* \"#utility.yul\":1301:1308   */\n      dup6\n        /* \"#utility.yul\":1297:1320   */\n      sub\n        /* \"#utility.yul\":1293:1325   */\n      slt\n        /* \"#utility.yul\":1290:1409   */\n      iszero\n      tag_278\n      jumpi\n        /* \"#utility.yul\":1328:1407   */\n      tag_279\n      tag_202\n      jump\t// in\n    tag_279:\n        /* \"#utility.yul\":1290:1409   */\n    tag_278:\n        /* \"#utility.yul\":1448:1449   */\n      0x00\n        /* \"#utility.yul\":1473:1526   */\n      tag_280\n        /* \"#utility.yul\":1518:1525   */\n      dup6\n        /* \"#utility.yul\":1509:1515   */\n      dup3\n        /* \"#utility.yul\":1498:1507   */\n      dup7\n        /* \"#utility.yul\":1494:1516   */\n      add\n        /* \"#utility.yul\":1473:1526   */\n      tag_207\n      jump\t// in\n    tag_280:\n        /* \"#utility.yul\":1463:1526   */\n      swap3\n      pop\n        /* \"#utility.yul\":1419:1536   */\n      pop\n        /* \"#utility.yul\":1575:1577   */\n      0x20\n        /* \"#utility.yul\":1601:1654   */\n      tag_281\n        /* \"#utility.yul\":1646:1653   */\n      dup6\n        /* \"#utility.yul\":1637:1643   */\n      dup3\n        /* \"#utility.yul\":1626:1635   */\n      dup7\n        /* \"#utility.yul\":1622:1644   */\n      add\n        /* \"#utility.yul\":1601:1654   */\n      tag_210\n      jump\t// in\n    tag_281:\n        /* \"#utility.yul\":1591:1654   */\n      swap2\n      pop\n        /* \"#utility.yul\":1546:1664   */\n      pop\n        /* \"#utility.yul\":1197:1671   */\n      swap3\n      pop\n      swap3\n      swap1\n      pop\n      jump\t// out\n        /* \"#utility.yul\":1677:2006   */\n    tag_25:\n        /* \"#utility.yul\":1736:1742   */\n      0x00\n        /* \"#utility.yul\":1785:1787   */\n      0x20\n        /* \"#utility.yul\":1773:1782   */\n      dup3\n        /* \"#utility.yul\":1764:1771   */\n      dup5\n        /* \"#utility.yul\":1760:1783   */\n      sub\n        /* \"#utility.yul\":1756:1788   */\n      slt\n        /* \"#utility.yul\":1753:1872   */\n      iszero\n      tag_283\n      jumpi\n        /* \"#utility.yul\":1791:1870   */\n      tag_284\n      tag_202\n      jump\t// in\n    tag_284:\n        /* \"#utility.yul\":1753:1872   */\n    tag_283:\n        /* \"#utility.yul\":1911:1912   */\n      0x00\n        /* \"#utility.yul\":1936:1989   */\n      tag_285\n        /* \"#utility.yul\":1981:1988   */\n      dup5\n        /* \"#utility.yul\":1972:1978   */\n      dup3\n        /* \"#utility.yul\":1961:1970   */\n      dup6\n        /* \"#utility.yul\":1957:1979   */\n      add\n        /* \"#utility.yul\":1936:1989   */\n      tag_207\n      jump\t// in\n    tag_285:\n        /* \"#utility.yul\":1926:1989   */\n      swap2\n      pop\n        /* \"#utility.yul\":1882:1999   */\n      pop\n        /* \"#utility.yul\":1677:2006   */\n      swap3\n      swap2\n      pop\n      pop\n      jump\t// out\n        /* \"#utility.yul\":2012:2130   */\n    tag_211:\n        /* \"#utility.yul\":2099:2123   */\n      tag_287\n        /* \"#utility.yul\":2117:2122   */\n      dup2\n        /* \"#utility.yul\":2099:2123   */\n      tag_205\n      jump\t// in\n    tag_287:\n        /* \"#utility.yul\":2094:2097   */\n      dup3\n        /* \"#utility.yul\":2087:2124   */\n      mstore\n        /* \"#utility.yul\":2012:2130   */\n      pop\n      pop\n      jump\t// out\n        /* \"#utility.yul\":2136:2212   */\n    tag_212:\n        /* \"#utility.yul\":2172:2179   */\n      0x00\n        /* \"#utility.yul\":2201:2206   */\n      dup2\n        /* \"#utility.yul\":2190:2206   */\n      swap1\n      pop\n        /* \"#utility.yul\":2136:2212   */\n      swap2\n      swap1\n      pop\n      jump\t// out\n        /* \"#utility.yul\":2218:2333   */\n    tag_213:\n        /* \"#utility.yul\":2303:2326   */\n      tag_290\n        /* \"#utility.yul\":2320:2325   */\n      dup2\n        /* \"#utility.yul\":2303:2326   */\n      tag_212\n      jump\t// in\n    tag_290:\n        /* \"#utility.yul\":2298:2301   */\n      dup3\n        /* \"#utility.yul\":2291:2327   */\n      mstore\n        /* \"#utility.yul\":2218:2333   */\n      pop\n      pop\n      jump\t// out\n        /* \"#utility.yul\":2339:2457   */\n    tag_214:\n        /* \"#utility.yul\":2426:2450   */\n      tag_292\n        /* \"#utility.yul\":2444:2449   */\n      dup2\n        /* \"#utility.yul\":2426:2450   */\n      tag_208\n      jump\t// in\n    tag_292:\n        /* \"#utility.yul\":2421:2424   */\n      dup3\n        /* \"#utility.yul\":2414:2451   */\n      mstore\n        /* \"#utility.yul\":2339:2457   */\n      pop\n      pop\n      jump\t// out\n        /* \"#utility.yul\":2463:2553   */\n    tag_215:\n        /* \"#utility.yul\":2497:2504   */\n      0x00\n        /* \"#utility.yul\":2540:2545   */\n      dup2\n        /* \"#utility.yul\":2533:2546   */\n      iszero\n        /* \"#utility.yul\":2526:2547   */\n      iszero\n        /* \"#utility.yul\":2515:2547   */\n      swap1\n      pop\n        /* \"#utility.yul\":2463:2553   */\n      swap2\n      swap1\n      pop\n      jump\t// out\n        /* \"#utility.yul\":2559:2668   */\n    tag_216:\n        /* \"#utility.yul\":2640:2661   */\n      tag_295\n        /* \"#utility.yul\":2655:2660   */\n      dup2\n        /* \"#utility.yul\":2640:2661   */\n      tag_215\n      jump\t// in\n    tag_295:\n        /* \"#utility.yul\":2635:2638   */\n      dup3\n        /* \"#utility.yul\":2628:2662   */\n      mstore\n        /* \"#utility.yul\":2559:2668   */\n      pop\n      pop\n      jump\t// out\n        /* \"#utility.yul\":2674:3211   */\n    tag_28:\n        /* \"#utility.yul\":2843:2847   */\n      0x00\n        /* \"#utility.yul\":2881:2884   */\n      0x80\n        /* \"#utility.yul\":2870:2879   */\n      dup3\n        /* \"#utility.yul\":2866:2885   */\n      add\n        /* \"#utility.yul\":2858:2885   */\n      swap1\n      pop\n        /* \"#utility.yul\":2895:2966   */\n      tag_297\n        /* \"#utility.yul\":2963:2964   */\n      0x00\n        /* \"#utility.yul\":2952:2961   */\n      dup4\n        /* \"#utility.yul\":2948:2965   */\n      add\n        /* \"#utility.yul\":2939:2945   */\n      dup8\n        /* \"#utility.yul\":2895:2966   */\n      tag_211\n      jump\t// in\n    tag_297:\n        /* \"#utility.yul\":2976:3046   */\n      tag_298\n        /* \"#utility.yul\":3042:3044   */\n      0x20\n        /* \"#utility.yul\":3031:3040   */\n      dup4\n        /* \"#utility.yul\":3027:3045   */\n      add\n        /* \"#utility.yul\":3018:3024   */\n      dup7\n        /* \"#utility.yul\":2976:3046   */\n      tag_213\n      jump\t// in\n    tag_298:\n        /* \"#utility.yul\":3056:3128   */\n      tag_299\n        /* \"#utility.yul\":3124:3126   */\n      0x40\n        /* \"#utility.yul\":3113:3122   */\n      dup4\n        /* \"#utility.yul\":3109:3127   */\n      add\n        /* \"#utility.yul\":3100:3106   */\n      dup6\n        /* \"#utility.yul\":3056:3128   */\n      tag_214\n      jump\t// in\n    tag_299:\n        /* \"#utility.yul\":3138:3204   */\n      tag_300\n        /* \"#utility.yul\":3200:3202   */\n      0x60\n        /* \"#utility.yul\":3189:3198   */\n      dup4\n        /* \"#utility.yul\":3185:3203   */\n      add\n        /* \"#utility.yul\":3176:3182   */\n      dup5\n        /* \"#utility.yul\":3138:3204   */\n      tag_216\n      jump\t// in\n    tag_300:\n        /* \"#utility.yul\":2674:3211   */\n      swap6\n      swap5\n      pop\n      pop\n      pop\n      pop\n      pop\n      jump\t// out\n        /* \"#utility.yul\":3217:3546   */\n    tag_32:\n        /* \"#utility.yul\":3276:3282   */\n      0x00\n        /* \"#utility.yul\":3325:3327   */\n      0x20\n        /* \"#utility.yul\":3313:3322   */\n      dup3\n        /* \"#utility.yul\":3304:3311   */\n      dup5\n        /* \"#utility.yul\":3300:3323   */\n      sub\n        /* \"#utility.yul\":3296:3328   */\n      slt\n        /* \"#utility.yul\":3293:3412   */\n      iszero\n      tag_302\n      jumpi\n        /* \"#utility.yul\":3331:3410   */\n      tag_303\n      tag_202\n      jump\t// in\n    tag_303:\n        /* \"#utility.yul\":3293:3412   */\n    tag_302:\n        /* \"#utility.yul\":3451:3452   */\n      0x00\n        /* \"#utility.yul\":3476:3529   */\n      tag_304\n        /* \"#utility.yul\":3521:3528   */\n      dup5\n        /* \"#utility.yul\":3512:3518   */\n      dup3\n        /* \"#utility.yul\":3501:3510   */\n      dup6\n        /* \"#utility.yul\":3497:3519   */\n      add\n        /* \"#utility.yul\":3476:3529   */\n      tag_210\n      jump\t// in\n    tag_304:\n        /* \"#utility.yul\":3466:3529   */\n      swap2\n      pop\n        /* \"#utility.yul\":3422:3539   */\n      pop\n        /* \"#utility.yul\":3217:3546   */\n      swap3\n      swap2\n      pop\n      pop\n      jump\t// out\n        /* \"#utility.yul\":3552:3774   */\n    tag_48:\n        /* \"#utility.yul\":3645:3649   */\n      0x00\n        /* \"#utility.yul\":3683:3685   */\n      0x20\n        /* \"#utility.yul\":3672:3681   */\n      dup3\n        /* \"#utility.yul\":3668:3686   */\n      add\n        /* \"#utility.yul\":3660:3686   */\n      swap1\n      pop\n        /* \"#utility.yul\":3696:3767   */\n      tag_306\n        /* \"#utility.yul\":3764:3765   */\n      0x00\n        /* \"#utility.yul\":3753:3762   */\n      dup4\n        /* \"#utility.yul\":3749:3766   */\n      add\n        /* \"#utility.yul\":3740:3746   */\n      dup5\n        /* \"#utility.yul\":3696:3767   */\n      tag_214\n      jump\t// in\n    tag_306:\n        /* \"#utility.yul\":3552:3774   */\n      swap3\n      swap2\n      pop\n      pop\n      jump\t// out\n        /* \"#utility.yul\":3780:4002   */\n    tag_56:\n        /* \"#utility.yul\":3873:3877   */\n      0x00\n        /* \"#utility.yul\":3911:3913   */\n      0x20\n        /* \"#utility.yul\":3900:3909   */\n      dup3\n        /* \"#utility.yul\":3896:3914   */\n      add\n        /* \"#utility.yul\":3888:3914   */\n      swap1\n      pop\n        /* \"#utility.yul\":3924:3995   */\n      tag_308\n        /* \"#utility.yul\":3992:3993   */\n      0x00\n        /* \"#utility.yul\":3981:3990   */\n      dup4\n        /* \"#utility.yul\":3977:3994   */\n      add\n        /* \"#utility.yul\":3968:3974   */\n      dup5\n        /* \"#utility.yul\":3924:3995   */\n      tag_211\n      jump\t// in\n    tag_308:\n        /* \"#utility.yul\":3780:4002   */\n      swap3\n      swap2\n      pop\n      pop\n      jump\t// out\n        /* \"#utility.yul\":4008:4128   */\n    tag_217:\n        /* \"#utility.yul\":4080:4103   */\n      tag_310\n        /* \"#utility.yul\":4097:4102   */\n      dup2\n        /* \"#utility.yul\":4080:4103   */\n      tag_212\n      jump\t// in\n    tag_310:\n        /* \"#utility.yul\":4073:4078   */\n      dup2\n        /* \"#utility.yul\":4070:4104   */\n      eq\n        /* \"#utility.yul\":4060:4122   */\n      tag_311\n      jumpi\n        /* \"#utility.yul\":4118:4119   */\n      0x00\n        /* \"#utility.yul\":4115:4116   */\n      0x00\n        /* \"#utility.yul\":4108:4120   */\n      revert\n        /* \"#utility.yul\":4060:4122   */\n    tag_311:\n        /* \"#utility.yul\":4008:4128   */\n      pop\n      jump\t// out\n        /* \"#utility.yul\":4134:4271   */\n    tag_218:\n        /* \"#utility.yul\":4179:4184   */\n      0x00\n        /* \"#utility.yul\":4217:4223   */\n      dup2\n        /* \"#utility.yul\":4204:4224   */\n      calldataload\n        /* \"#utility.yul\":4195:4224   */\n      swap1\n      pop\n        /* \"#utility.yul\":4233:4265   */\n      tag_313\n        /* \"#utility.yul\":4259:4264   */\n      dup2\n        /* \"#utility.yul\":4233:4265   */\n      tag_217\n      jump\t// in\n    tag_313:\n        /* \"#utility.yul\":4134:4271   */\n      swap3\n      swap2\n      pop\n      pop\n      jump\t// out\n        /* \"#utility.yul\":4277:4749   */\n    tag_69:\n        /* \"#utility.yul\":4344:4350   */\n      0x00\n        /* \"#utility.yul\":4352:4358   */\n      0x00\n        /* \"#utility.yul\":4401:4403   */\n      0x40\n        /* \"#utility.yul\":4389:4398   */\n      dup4\n        /* \"#utility.yul\":4380:4387   */\n      dup6\n        /* \"#utility.yul\":4376:4399   */\n      sub\n        /* \"#utility.yul\":4372:4404   */\n      slt\n        /* \"#utility.yul\":4369:4488   */\n      iszero\n      tag_315\n      jumpi\n        /* \"#utility.yul\":4407:4486   */\n      tag_316\n      tag_202\n      jump\t// in\n    tag_316:\n        /* \"#utility.yul\":4369:4488   */\n    tag_315:\n        /* \"#utility.yul\":4527:4528   */\n      0x00\n        /* \"#utility.yul\":4552:4605   */\n      tag_317\n        /* \"#utility.yul\":4597:4604   */\n      dup6\n        /* \"#utility.yul\":4588:4594   */\n      dup3\n        /* \"#utility.yul\":4577:4586   */\n      dup7\n        /* \"#utility.yul\":4573:4595   */\n      add\n        /* \"#utility.yul\":4552:4605   */\n      tag_207\n      jump\t// in\n    tag_317:\n        /* \"#utility.yul\":4542:4605   */\n      swap3\n      pop\n        /* \"#utility.yul\":4498:4615   */\n      pop\n        /* \"#utility.yul\":4654:4656   */\n      0x20\n        /* \"#utility.yul\":4680:4732   */\n      tag_318\n        /* \"#utility.yul\":4724:4731   */\n      dup6\n        /* \"#utility.yul\":4715:4721   */\n      dup3\n        /* \"#utility.yul\":4704:4713   */\n      dup7\n        /* \"#utility.yul\":4700:4722   */\n      add\n        /* \"#utility.yul\":4680:4732   */\n      tag_218\n      jump\t// in\n    tag_318:\n        /* \"#utility.yul\":4670:4732   */\n      swap2\n      pop\n        /* \"#utility.yul\":4625:4742   */\n      pop\n        /* \"#utility.yul\":4277:4749   */\n      swap3\n      pop\n      swap3\n      swap1\n      pop\n      jump\t// out\n        /* \"#utility.yul\":4755:4924   */\n    tag_219:\n        /* \"#utility.yul\":4839:4850   */\n      0x00\n        /* \"#utility.yul\":4873:4879   */\n      dup3\n        /* \"#utility.yul\":4868:4871   */\n      dup3\n        /* \"#utility.yul\":4861:4880   */\n      mstore\n        /* \"#utility.yul\":4913:4917   */\n      0x20\n        /* \"#utility.yul\":4908:4911   */\n      dup3\n        /* \"#utility.yul\":4904:4918   */\n      add\n        /* \"#utility.yul\":4889:4918   */\n      swap1\n      pop\n        /* \"#utility.yul\":4755:4924   */\n      swap3\n      swap2\n      pop\n      pop\n      jump\t// out\n        /* \"#utility.yul\":4930:5108   */\n    tag_220:\n        /* \"#utility.yul\":5070:5100   */\n      0x52657175657374656420656e65726779206d757374206265203e203000000000\n        /* \"#utility.yul\":5066:5067   */\n      0x00\n        /* \"#utility.yul\":5058:5064   */\n      dup3\n        /* \"#utility.yul\":5054:5068   */\n      add\n        /* \"#utility.yul\":5047:5101   */\n      mstore\n        /* \"#utility.yul\":4930:5108   */\n      pop\n      jump\t// out\n        /* \"#utility.yul\":5114:5480   */\n    tag_221:\n        /* \"#utility.yul\":5256:5259   */\n      0x00\n        /* \"#utility.yul\":5277:5344   */\n      tag_322\n        /* \"#utility.yul\":5341:5343   */\n      0x1c\n        /* \"#utility.yul\":5336:5339   */\n      dup4\n        /* \"#utility.yul\":5277:5344   */\n      tag_219\n      jump\t// in\n    tag_322:\n        /* \"#utility.yul\":5270:5344   */\n      swap2\n      pop\n        /* \"#utility.yul\":5353:5446   */\n      tag_323\n        /* \"#utility.yul\":5442:5445   */\n      dup3\n        /* \"#utility.yul\":5353:5446   */\n      tag_220\n      jump\t// in\n    tag_323:\n        /* \"#utility.yul\":5471:5473   */\n      0x20\n        /* \"#utility.yul\":5466:5469   */\n      dup3\n        /* \"#utility.yul\":5462:5474   */\n      add\n        /* \"#utility.yul\":5455:5474   */\n      swap1\n      pop\n        /* \"#utility.yul\":5114:5480   */\n      swap2\n      swap1\n      pop\n      jump\t// out\n        /* \"#utility.yul\":5486:5905   */\n    tag_76:\n        /* \"#utility.yul\":5652:5656   */\n      0x00\n        /* \"#utility.yul\":5690:5692   */\n      0x20\n        /* \"#utility.yul\":5679:5688   */\n      dup3\n        /* \"#utility.yul\":5675:5693   */\n      add\n        /* \"#utility.yul\":5667:5693   */\n      swap1\n      pop\n        /* \"#utility.yul\":5739:5748   */\n      dup2\n        /* \"#utility.yul\":5733:5737   */\n      dup2\n        /* \"#utility.yul\":5729:5749   */\n      sub\n        /* \"#utility.yul\":5725:5726   */\n      0x00\n        /* \"#utility.yul\":5714:5723   */\n      dup4\n        /* \"#utility.yul\":5710:5727   */\n      add\n        /* \"#utility.yul\":5703:5750   */\n      mstore\n        /* \"#utility.yul\":5767:5898   */\n      tag_325\n        /* \"#utility.yul\":5893:5897   */\n      dup2\n        /* \"#utility.yul\":5767:5898   */\n      tag_221\n      jump\t// in\n    tag_325:\n        /* \"#utility.yul\":5759:5898   */\n      swap1\n      pop\n        /* \"#utility.yul\":5486:5905   */\n      swap2\n      swap1\n      pop\n      jump\t// out\n        /* \"#utility.yul\":5911:6075   */\n    tag_222:\n        /* \"#utility.yul\":6051:6067   */\n      0x496e76616c69642073656c6c6572000000000000000000000000000000000000\n        /* \"#utility.yul\":6047:6048   */\n      0x00\n        /* \"#utility.yul\":6039:6045   */\n      dup3\n        /* \"#utility.yul\":6035:6049   */\n      add\n        /* \"#utility.yul\":6028:6068   */\n      mstore\n        /* \"#utility.yul\":5911:6075   */\n      pop\n      jump\t// out\n        /* \"#utility.yul\":6081:6447   */\n    tag_223:\n        /* \"#utility.yul\":6223:6226   */\n      0x00\n        /* \"#utility.yul\":6244:6311   */\n      tag_328\n        /* \"#utility.yul\":6308:6310   */\n      0x0e\n        /* \"#utility.yul\":6303:6306   */\n      dup4\n        /* \"#utility.yul\":6244:6311   */\n      tag_219\n      jump\t// in\n    tag_328:\n        /* \"#utility.yul\":6237:6311   */\n      swap2\n      pop\n        /* \"#utility.yul\":6320:6413   */\n      tag_329\n        /* \"#utility.yul\":6409:6412   */\n      dup3\n        /* \"#utility.yul\":6320:6413   */\n      tag_222\n      jump\t// in\n    tag_329:\n        /* \"#utility.yul\":6438:6440   */\n      0x20\n        /* \"#utility.yul\":6433:6436   */\n      dup3\n        /* \"#utility.yul\":6429:6441   */\n      add\n        /* \"#utility.yul\":6422:6441   */\n      swap1\n      pop\n        /* \"#utility.yul\":6081:6447   */\n      swap2\n      swap1\n      pop\n      jump\t// out\n        /* \"#utility.yul\":6453:6872   */\n    tag_79:\n        /* \"#utility.yul\":6619:6623   */\n      0x00\n        /* \"#utility.yul\":6657:6659   */\n      0x20\n        /* \"#utility.yul\":6646:6655   */\n      dup3\n        /* \"#utility.yul\":6642:6660   */\n      add\n        /* \"#utility.yul\":6634:6660   */\n      swap1\n      pop\n        /* \"#utility.yul\":6706:6715   */\n      dup2\n        /* \"#utility.yul\":6700:6704   */\n      dup2\n        /* \"#utility.yul\":6696:6716   */\n      sub\n        /* \"#utility.yul\":6692:6693   */\n      0x00\n        /* \"#utility.yul\":6681:6690   */\n      dup4\n        /* \"#utility.yul\":6677:6694   */\n      add\n        /* \"#utility.yul\":6670:6717   */\n      mstore\n        /* \"#utility.yul\":6734:6865   */\n      tag_331\n        /* \"#utility.yul\":6860:6864   */\n      dup2\n        /* \"#utility.yul\":6734:6865   */\n      tag_223\n      jump\t// in\n    tag_331:\n        /* \"#utility.yul\":6726:6865   */\n      swap1\n      pop\n        /* \"#utility.yul\":6453:6872   */\n      swap2\n      swap1\n      pop\n      jump\t// out\n        /* \"#utility.yul\":6878:7048   */\n    tag_224:\n        /* \"#utility.yul\":7018:7040   */\n      0x43616e6e6f74206275792066726f6d2073656c66000000000000000000000000\n        /* \"#utility.yul\":7014:7015   */\n      0x00\n        /* \"#utility.yul\":7006:7012   */\n      dup3\n        /* \"#utility.yul\":7002:7016   */\n      add\n        /* \"#utility.yul\":6995:7041   */\n      mstore\n        /* \"#utility.yul\":6878:7048   */\n      pop\n      jump\t// out\n        /* \"#utility.yul\":7054:7420   */\n    tag_225:\n        /* \"#utility.yul\":7196:7199   */\n      0x00\n        /* \"#utility.yul\":7217:7284   */\n      tag_334\n        /* \"#utility.yul\":7281:7283   */\n      0x14\n        /* \"#utility.yul\":7276:7279   */\n      dup4\n        /* \"#utility.yul\":7217:7284   */\n      tag_219\n      jump\t// in\n    tag_334:\n        /* \"#utility.yul\":7210:7284   */\n      swap2\n      pop\n        /* \"#utility.yul\":7293:7386   */\n      tag_335\n        /* \"#utility.yul\":7382:7385   */\n      dup3\n        /* \"#utility.yul\":7293:7386   */\n      tag_224\n      jump\t// in\n    tag_335:\n        /* \"#utility.yul\":7411:7413   */\n      0x20\n        /* \"#utility.yul\":7406:7409   */\n      dup3\n        /* \"#utility.yul\":7402:7414   */\n      add\n        /* \"#utility.yul\":7395:7414   */\n      swap1\n      pop\n        /* \"#utility.yul\":7054:7420   */\n      swap2\n      swap1\n      pop\n      jump\t// out\n        /* \"#utility.yul\":7426:7845   */\n    tag_82:\n        /* \"#utility.yul\":7592:7596   */\n      0x00\n        /* \"#utility.yul\":7630:7632   */\n      0x20\n        /* \"#utility.yul\":7619:7628   */\n      dup3\n        /* \"#utility.yul\":7615:7633   */\n      add\n        /* \"#utility.yul\":7607:7633   */\n      swap1\n      pop\n        /* \"#utility.yul\":7679:7688   */\n      dup2\n        /* \"#utility.yul\":7673:7677   */\n      dup2\n        /* \"#utility.yul\":7669:7689   */\n      sub\n        /* \"#utility.yul\":7665:7666   */\n      0x00\n        /* \"#utility.yul\":7654:7663   */\n      dup4\n        /* \"#utility.yul\":7650:7667   */\n      add\n        /* \"#utility.yul\":7643:7690   */\n      mstore\n        /* \"#utility.yul\":7707:7838   */\n      tag_337\n        /* \"#utility.yul\":7833:7837   */\n      dup2\n        /* \"#utility.yul\":7707:7838   */\n      tag_225\n      jump\t// in\n    tag_337:\n        /* \"#utility.yul\":7699:7838   */\n      swap1\n      pop\n        /* \"#utility.yul\":7426:7845   */\n      swap2\n      swap1\n      pop\n      jump\t// out\n        /* \"#utility.yul\":7851:8021   */\n    tag_226:\n        /* \"#utility.yul\":7991:8013   */\n      0x4275796572206e6f742072656769737465726564000000000000000000000000\n        /* \"#utility.yul\":7987:7988   */\n      0x00\n        /* \"#utility.yul\":7979:7985   */\n      dup3\n        /* \"#utility.yul\":7975:7989   */\n      add\n        /* \"#utility.yul\":7968:8014   */\n      mstore\n        /* \"#utility.yul\":7851:8021   */\n      pop\n      jump\t// out\n        /* \"#utility.yul\":8027:8393   */\n    tag_227:\n        /* \"#utility.yul\":8169:8172   */\n      0x00\n        /* \"#utility.yul\":8190:8257   */\n      tag_340\n        /* \"#utility.yul\":8254:8256   */\n      0x14\n        /* \"#utility.yul\":8249:8252   */\n      dup4\n        /* \"#utility.yul\":8190:8257   */\n      tag_219\n      jump\t// in\n    tag_340:\n        /* \"#utility.yul\":8183:8257   */\n      swap2\n      pop\n        /* \"#utility.yul\":8266:8359   */\n      tag_341\n        /* \"#utility.yul\":8355:8358   */\n      dup3\n        /* \"#utility.yul\":8266:8359   */\n      tag_226\n      jump\t// in\n    tag_341:\n        /* \"#utility.yul\":8384:8386   */\n      0x20\n        /* \"#utility.yul\":8379:8382   */\n      dup3\n        /* \"#utility.yul\":8375:8387   */\n      add\n        /* \"#utility.yul\":8368:8387   */\n      swap1\n      pop\n        /* \"#utility.yul\":8027:8393   */\n      swap2\n      swap1\n      pop\n      jump\t// out\n        /* \"#utility.yul\":8399:8818   */\n    tag_85:\n        /* \"#utility.yul\":8565:8569   */\n      0x00\n        /* \"#utility.yul\":8603:8605   */\n      0x20\n        /* \"#utility.yul\":8592:8601   */\n      dup3\n        /* \"#utility.yul\":8588:8606   */\n      add\n        /* \"#utility.yul\":8580:8606   */\n      swap1\n      pop\n        /* \"#utility.yul\":8652:8661   */\n      dup2\n        /* \"#utility.yul\":8646:8650   */\n      dup2\n        /* \"#utility.yul\":8642:8662   */\n      sub\n        /* \"#utility.yul\":8638:8639   */\n      0x00\n        /* \"#utility.yul\":8627:8636   */\n      dup4\n        /* \"#utility.yul\":8623:8640   */\n      add\n        /* \"#utility.yul\":8616:8663   */\n      mstore\n        /* \"#utility.yul\":8680:8811   */\n      tag_343\n        /* \"#utility.yul\":8806:8810   */\n      dup2\n        /* \"#utility.yul\":8680:8811   */\n      tag_227\n      jump\t// in\n    tag_343:\n        /* \"#utility.yul\":8672:8811   */\n      swap1\n      pop\n        /* \"#utility.yul\":8399:8818   */\n      swap2\n      swap1\n      pop\n      jump\t// out\n        /* \"#utility.yul\":8824:8995   */\n    tag_228:\n        /* \"#utility.yul\":8964:8987   */\n      0x53656c6c6572206e6f7420726567697374657265640000000000000000000000\n        /* \"#utility.yul\":8960:8961   */\n      0x00\n        /* \"#utility.yul\":8952:8958   */\n      dup3\n        /* \"#utility.yul\":8948:8962   */\n      add\n        /* \"#utility.yul\":8941:8988   */\n      mstore\n        /* \"#utility.yul\":8824:8995   */\n      pop\n      jump\t// out\n        /* \"#utility.yul\":9001:9367   */\n    tag_229:\n        /* \"#utility.yul\":9143:9146   */\n      0x00\n        /* \"#utility.yul\":9164:9231   */\n      tag_346\n        /* \"#utility.yul\":9228:9230   */\n      0x15\n        /* \"#utility.yul\":9223:9226   */\n      dup4\n        /* \"#utility.yul\":9164:9231   */\n      tag_219\n      jump\t// in\n    tag_346:\n        /* \"#utility.yul\":9157:9231   */\n      swap2\n      pop\n        /* \"#utility.yul\":9240:9333   */\n      tag_347\n        /* \"#utility.yul\":9329:9332   */\n      dup3\n        /* \"#utility.yul\":9240:9333   */\n      tag_228\n      jump\t// in\n    tag_347:\n        /* \"#utility.yul\":9358:9360   */\n      0x20\n        /* \"#utility.yul\":9353:9356   */\n      dup3\n        /* \"#utility.yul\":9349:9361   */\n      add\n        /* \"#utility.yul\":9342:9361   */\n      swap1\n      pop\n        /* \"#utility.yul\":9001:9367   */\n      swap2\n      swap1\n      pop\n      jump\t// out\n        /* \"#utility.yul\":9373:9792   */\n    tag_88:\n        /* \"#utility.yul\":9539:9543   */\n      0x00\n        /* \"#utility.yul\":9577:9579   */\n      0x20\n        /* \"#utility.yul\":9566:9575   */\n      dup3\n        /* \"#utility.yul\":9562:9580   */\n      add\n        /* \"#utility.yul\":9554:9580   */\n      swap1\n      pop\n        /* \"#utility.yul\":9626:9635   */\n      dup2\n        /* \"#utility.yul\":9620:9624   */\n      dup2\n        /* \"#utility.yul\":9616:9636   */\n      sub\n        /* \"#utility.yul\":9612:9613   */\n      0x00\n        /* \"#utility.yul\":9601:9610   */\n      dup4\n        /* \"#utility.yul\":9597:9614   */\n      add\n        /* \"#utility.yul\":9590:9637   */\n      mstore\n        /* \"#utility.yul\":9654:9785   */\n      tag_349\n        /* \"#utility.yul\":9780:9784   */\n      dup2\n        /* \"#utility.yul\":9654:9785   */\n      tag_229\n      jump\t// in\n    tag_349:\n        /* \"#utility.yul\":9646:9785   */\n      swap1\n      pop\n        /* \"#utility.yul\":9373:9792   */\n      swap2\n      swap1\n      pop\n      jump\t// out\n        /* \"#utility.yul\":9798:9971   */\n    tag_230:\n        /* \"#utility.yul\":9938:9963   */\n      0x4275796572206973206e6f7420696e2064656669636974000000000000000000\n        /* \"#utility.yul\":9934:9935   */\n      0x00\n        /* \"#utility.yul\":9926:9932   */\n      dup3\n        /* \"#utility.yul\":9922:9936   */\n      add\n        /* \"#utility.yul\":9915:9964   */\n      mstore\n        /* \"#utility.yul\":9798:9971   */\n      pop\n      jump\t// out\n        /* \"#utility.yul\":9977:10343   */\n    tag_231:\n        /* \"#utility.yul\":10119:10122   */\n      0x00\n        /* \"#utility.yul\":10140:10207   */\n      tag_352\n        /* \"#utility.yul\":10204:10206   */\n      0x17\n        /* \"#utility.yul\":10199:10202   */\n      dup4\n        /* \"#utility.yul\":10140:10207   */\n      tag_219\n      jump\t// in\n    tag_352:\n        /* \"#utility.yul\":10133:10207   */\n      swap2\n      pop\n        /* \"#utility.yul\":10216:10309   */\n      tag_353\n        /* \"#utility.yul\":10305:10308   */\n      dup3\n        /* \"#utility.yul\":10216:10309   */\n      tag_230\n      jump\t// in\n    tag_353:\n        /* \"#utility.yul\":10334:10336   */\n      0x20\n        /* \"#utility.yul\":10329:10332   */\n      dup3\n        /* \"#utility.yul\":10325:10337   */\n      add\n        /* \"#utility.yul\":10318:10337   */\n      swap1\n      pop\n        /* \"#utility.yul\":9977:10343   */\n      swap2\n      swap1\n      pop\n      jump\t// out\n        /* \"#utility.yul\":10349:10768   */\n    tag_91:\n        /* \"#utility.yul\":10515:10519   */\n      0x00\n        /* \"#utility.yul\":10553:10555   */\n      0x20\n        /* \"#utility.yul\":10542:10551   */\n      dup3\n        /* \"#utility.yul\":10538:10556   */\n      add\n        /* \"#utility.yul\":10530:10556   */\n      swap1\n      pop\n        /* \"#utility.yul\":10602:10611   */\n      dup2\n        /* \"#utility.yul\":10596:10600   */\n      dup2\n        /* \"#utility.yul\":10592:10612   */\n      sub\n        /* \"#utility.yul\":10588:10589   */\n      0x00\n        /* \"#utility.yul\":10577:10586   */\n      dup4\n        /* \"#utility.yul\":10573:10590   */\n      add\n        /* \"#utility.yul\":10566:10613   */\n      mstore\n        /* \"#utility.yul\":10630:10761   */\n      tag_355\n        /* \"#utility.yul\":10756:10760   */\n      dup2\n        /* \"#utility.yul\":10630:10761   */\n      tag_231\n      jump\t// in\n    tag_355:\n        /* \"#utility.yul\":10622:10761   */\n      swap1\n      pop\n        /* \"#utility.yul\":10349:10768   */\n      swap2\n      swap1\n      pop\n      jump\t// out\n        /* \"#utility.yul\":10774:10948   */\n    tag_232:\n        /* \"#utility.yul\":10914:10940   */\n      0x53656c6c6572206973206e6f7420696e20737572706c75730000000000000000\n        /* \"#utility.yul\":10910:10911   */\n      0x00\n        /* \"#utility.yul\":10902:10908   */\n      dup3\n        /* \"#utility.yul\":10898:10912   */\n      add\n        /* \"#utility.yul\":10891:10941   */\n      mstore\n        /* \"#utility.yul\":10774:10948   */\n      pop\n      jump\t// out\n        /* \"#utility.yul\":10954:11320   */\n    tag_233:\n        /* \"#utility.yul\":11096:11099   */\n      0x00\n        /* \"#utility.yul\":11117:11184   */\n      tag_358\n        /* \"#utility.yul\":11181:11183   */\n      0x18\n        /* \"#utility.yul\":11176:11179   */\n      dup4\n        /* \"#utility.yul\":11117:11184   */\n      tag_219\n      jump\t// in\n    tag_358:\n        /* \"#utility.yul\":11110:11184   */\n      swap2\n      pop\n        /* \"#utility.yul\":11193:11286   */\n      tag_359\n        /* \"#utility.yul\":11282:11285   */\n      dup3\n        /* \"#utility.yul\":11193:11286   */\n      tag_232\n      jump\t// in\n    tag_359:\n        /* \"#utility.yul\":11311:11313   */\n      0x20\n        /* \"#utility.yul\":11306:11309   */\n      dup3\n        /* \"#utility.yul\":11302:11314   */\n      add\n        /* \"#utility.yul\":11295:11314   */\n      swap1\n      pop\n        /* \"#utility.yul\":10954:11320   */\n      swap2\n      swap1\n      pop\n      jump\t// out\n        /* \"#utility.yul\":11326:11745   */\n    tag_94:\n        /* \"#utility.yul\":11492:11496   */\n      0x00\n        /* \"#utility.yul\":11530:11532   */\n      0x20\n        /* \"#utility.yul\":11519:11528   */\n      dup3\n        /* \"#utility.yul\":11515:11533   */\n      add\n        /* \"#utility.yul\":11507:11533   */\n      swap1\n      pop\n        /* \"#utility.yul\":11579:11588   */\n      dup2\n        /* \"#utility.yul\":11573:11577   */\n      dup2\n        /* \"#utility.yul\":11569:11589   */\n      sub\n        /* \"#utility.yul\":11565:11566   */\n      0x00\n        /* \"#utility.yul\":11554:11563   */\n      dup4\n        /* \"#utility.yul\":11550:11567   */\n      add\n        /* \"#utility.yul\":11543:11590   */\n      mstore\n        /* \"#utility.yul\":11607:11738   */\n      tag_361\n        /* \"#utility.yul\":11733:11737   */\n      dup2\n        /* \"#utility.yul\":11607:11738   */\n      tag_233\n      jump\t// in\n    tag_361:\n        /* \"#utility.yul\":11599:11738   */\n      swap1\n      pop\n        /* \"#utility.yul\":11326:11745   */\n      swap2\n      swap1\n      pop\n      jump\t// out\n        /* \"#utility.yul\":11751:11931   */\n    tag_234:\n        /* \"#utility.yul\":11799:11876   */\n      0x4e487b7100000000000000000000000000000000000000000000000000000000\n        /* \"#utility.yul\":11796:11797   */\n      0x00\n        /* \"#utility.yul\":11789:11877   */\n      mstore\n        /* \"#utility.yul\":11896:11900   */\n      0x11\n        /* \"#utility.yul\":11893:11894   */\n      0x04\n        /* \"#utility.yul\":11886:11901   */\n      mstore\n        /* \"#utility.yul\":11920:11924   */\n      0x24\n        /* \"#utility.yul\":11917:11918   */\n      0x00\n        /* \"#utility.yul\":11910:11925   */\n      revert\n        /* \"#utility.yul\":11937:12165   */\n    tag_96:\n        /* \"#utility.yul\":11972:11975   */\n      0x00\n        /* \"#utility.yul\":11995:12018   */\n      tag_364\n        /* \"#utility.yul\":12012:12017   */\n      dup3\n        /* \"#utility.yul\":11995:12018   */\n      tag_212\n      jump\t// in\n    tag_364:\n        /* \"#utility.yul\":11986:12018   */\n      swap2\n      pop\n        /* \"#utility.yul\":12040:12106   */\n      0x8000000000000000000000000000000000000000000000000000000000000000\n        /* \"#utility.yul\":12033:12038   */\n      dup3\n        /* \"#utility.yul\":12030:12107   */\n      sub\n        /* \"#utility.yul\":12027:12130   */\n      tag_365\n      jumpi\n        /* \"#utility.yul\":12110:12128   */\n      tag_366\n      tag_234\n      jump\t// in\n    tag_366:\n        /* \"#utility.yul\":12027:12130   */\n    tag_365:\n        /* \"#utility.yul\":12153:12158   */\n      dup2\n        /* \"#utility.yul\":12150:12151   */\n      0x00\n        /* \"#utility.yul\":12146:12159   */\n      sub\n        /* \"#utility.yul\":12139:12159   */\n      swap1\n      pop\n        /* \"#utility.yul\":11937:12165   */\n      swap2\n      swap1\n      pop\n      jump\t// out\n        /* \"#utility.yul\":12171:12396   */\n    tag_235:\n        /* \"#utility.yul\":12311:12345   */\n      0x52657175657374656420656e6572677920657863656564732062757965722064\n        /* \"#utility.yul\":12307:12308   */\n      0x00\n        /* \"#utility.yul\":12299:12305   */\n      dup3\n        /* \"#utility.yul\":12295:12309   */\n      add\n        /* \"#utility.yul\":12288:12346   */\n      mstore\n        /* \"#utility.yul\":12380:12388   */\n      0x6566696369740000000000000000000000000000000000000000000000000000\n        /* \"#utility.yul\":12375:12377   */\n      0x20\n        /* \"#utility.yul\":12367:12373   */\n      dup3\n        /* \"#utility.yul\":12363:12378   */\n      add\n        /* \"#utility.yul\":12356:12389   */\n      mstore\n        /* \"#utility.yul\":12171:12396   */\n      pop\n      jump\t// out\n        /* \"#utility.yul\":12402:12768   */\n    tag_236:\n        /* \"#utility.yul\":12544:12547   */\n      0x00\n        /* \"#utility.yul\":12565:12632   */\n      tag_369\n        /* \"#utility.yul\":12629:12631   */\n      0x26\n        /* \"#utility.yul\":12624:12627   */\n      dup4\n        /* \"#utility.yul\":12565:12632   */\n      tag_219\n      jump\t// in\n    tag_369:\n        /* \"#utility.yul\":12558:12632   */\n      swap2\n      pop\n        /* \"#utility.yul\":12641:12734   */\n      tag_370\n        /* \"#utility.yul\":12730:12733   */\n      dup3\n        /* \"#utility.yul\":12641:12734   */\n      tag_235\n      jump\t// in\n    tag_370:\n        /* \"#utility.yul\":12759:12761   */\n      0x40\n        /* \"#utility.yul\":12754:12757   */\n      dup3\n        /* \"#utility.yul\":12750:12762   */\n      add\n        /* \"#utility.yul\":12743:12762   */\n      swap1\n      pop\n        /* \"#utility.yul\":12402:12768   */\n      swap2\n      swap1\n      pop\n      jump\t// out\n        /* \"#utility.yul\":12774:13193   */\n    tag_99:\n        /* \"#utility.yul\":12940:12944   */\n      0x00\n        /* \"#utility.yul\":12978:12980   */\n      0x20\n        /* \"#utility.yul\":12967:12976   */\n      dup3\n        /* \"#utility.yul\":12963:12981   */\n      add\n        /* \"#utility.yul\":12955:12981   */\n      swap1\n      pop\n        /* \"#utility.yul\":13027:13036   */\n      dup2\n        /* \"#utility.yul\":13021:13025   */\n      dup2\n        /* \"#utility.yul\":13017:13037   */\n      sub\n        /* \"#utility.yul\":13013:13014   */\n      0x00\n        /* \"#utility.yul\":13002:13011   */\n      dup4\n        /* \"#utility.yul\":12998:13015   */\n      add\n        /* \"#utility.yul\":12991:13038   */\n      mstore\n        /* \"#utility.yul\":13055:13186   */\n      tag_372\n        /* \"#utility.yul\":13181:13185   */\n      dup2\n        /* \"#utility.yul\":13055:13186   */\n      tag_236\n      jump\t// in\n    tag_372:\n        /* \"#utility.yul\":13047:13186   */\n      swap1\n      pop\n        /* \"#utility.yul\":12774:13193   */\n      swap2\n      swap1\n      pop\n      jump\t// out\n        /* \"#utility.yul\":13199:13425   */\n    tag_237:\n        /* \"#utility.yul\":13339:13373   */\n      0x52657175657374656420656e6572677920657863656564732073656c6c657220\n        /* \"#utility.yul\":13335:13336   */\n      0x00\n        /* \"#utility.yul\":13327:13333   */\n      dup3\n        /* \"#utility.yul\":13323:13337   */\n      add\n        /* \"#utility.yul\":13316:13374   */\n      mstore\n        /* \"#utility.yul\":13408:13417   */\n      0x737572706c757300000000000000000000000000000000000000000000000000\n        /* \"#utility.yul\":13403:13405   */\n      0x20\n        /* \"#utility.yul\":13395:13401   */\n      dup3\n        /* \"#utility.yul\":13391:13406   */\n      add\n        /* \"#utility.yul\":13384:13418   */\n      mstore\n        /* \"#utility.yul\":13199:13425   */\n      pop\n      jump\t// out\n        /* \"#utility.yul\":13431:13797   */\n    tag_238:\n        /* \"#utility.yul\":13573:13576   */\n      0x00\n        /* \"#utility.yul\":13594:13661   */\n      tag_375\n        /* \"#utility.yul\":13658:13660   */\n      0x27\n        /* \"#utility.yul\":13653:13656   */\n      dup4\n        /* \"#utility.yul\":13594:13661   */\n      tag_219\n      jump\t// in\n    tag_375:\n        /* \"#utility.yul\":13587:13661   */\n      swap2\n      pop\n        /* \"#utility.yul\":13670:13763   */\n      tag_376\n        /* \"#utility.yul\":13759:13762   */\n      dup3\n        /* \"#utility.yul\":13670:13763   */\n      tag_237\n      jump\t// in\n    tag_376:\n        /* \"#utility.yul\":13788:13790   */\n      0x40\n        /* \"#utility.yul\":13783:13786   */\n      dup3\n        /* \"#utility.yul\":13779:13791   */\n      add\n        /* \"#utility.yul\":13772:13791   */\n      swap1\n      pop\n        /* \"#utility.yul\":13431:13797   */\n      swap2\n      swap1\n      pop\n      jump\t// out\n        /* \"#utility.yul\":13803:14222   */\n    tag_102:\n        /* \"#utility.yul\":13969:13973   */\n      0x00\n        /* \"#utility.yul\":14007:14009   */\n      0x20\n        /* \"#utility.yul\":13996:14005   */\n      dup3\n        /* \"#utility.yul\":13992:14010   */\n      add\n        /* \"#utility.yul\":13984:14010   */\n      swap1\n      pop\n        /* \"#utility.yul\":14056:14065   */\n      dup2\n        /* \"#utility.yul\":14050:14054   */\n      dup2\n        /* \"#utility.yul\":14046:14066   */\n      sub\n        /* \"#utility.yul\":14042:14043   */\n      0x00\n        /* \"#utility.yul\":14031:14040   */\n      dup4\n        /* \"#utility.yul\":14027:14044   */\n      add\n        /* \"#utility.yul\":14020:14067   */\n      mstore\n        /* \"#utility.yul\":14084:14215   */\n      tag_378\n        /* \"#utility.yul\":14210:14214   */\n      dup2\n        /* \"#utility.yul\":14084:14215   */\n      tag_238\n      jump\t// in\n    tag_378:\n        /* \"#utility.yul\":14076:14215   */\n      swap1\n      pop\n        /* \"#utility.yul\":13803:14222   */\n      swap2\n      swap1\n      pop\n      jump\t// out\n        /* \"#utility.yul\":14228:14638   */\n    tag_104:\n        /* \"#utility.yul\":14268:14275   */\n      0x00\n        /* \"#utility.yul\":14291:14311   */\n      tag_380\n        /* \"#utility.yul\":14309:14310   */\n      dup3\n        /* \"#utility.yul\":14291:14311   */\n      tag_208\n      jump\t// in\n    tag_380:\n        /* \"#utility.yul\":14286:14311   */\n      swap2\n      pop\n        /* \"#utility.yul\":14325:14345   */\n      tag_381\n        /* \"#utility.yul\":14343:14344   */\n      dup4\n        /* \"#utility.yul\":14325:14345   */\n      tag_208\n      jump\t// in\n    tag_381:\n        /* \"#utility.yul\":14320:14345   */\n      swap3\n      pop\n        /* \"#utility.yul\":14380:14381   */\n      dup3\n        /* \"#utility.yul\":14377:14378   */\n      dup3\n        /* \"#utility.yul\":14373:14382   */\n      mul\n        /* \"#utility.yul\":14402:14432   */\n      tag_382\n        /* \"#utility.yul\":14420:14431   */\n      dup2\n        /* \"#utility.yul\":14402:14432   */\n      tag_208\n      jump\t// in\n    tag_382:\n        /* \"#utility.yul\":14391:14432   */\n      swap2\n      pop\n        /* \"#utility.yul\":14581:14582   */\n      dup3\n        /* \"#utility.yul\":14572:14579   */\n      dup3\n        /* \"#utility.yul\":14568:14583   */\n      div\n        /* \"#utility.yul\":14565:14566   */\n      dup5\n        /* \"#utility.yul\":14562:14584   */\n      eq\n        /* \"#utility.yul\":14542:14543   */\n      dup4\n        /* \"#utility.yul\":14535:14544   */\n      iszero\n        /* \"#utility.yul\":14515:14598   */\n      or\n        /* \"#utility.yul\":14492:14631   */\n      tag_383\n      jumpi\n        /* \"#utility.yul\":14611:14629   */\n      tag_384\n      tag_234\n      jump\t// in\n    tag_384:\n        /* \"#utility.yul\":14492:14631   */\n    tag_383:\n        /* \"#utility.yul\":14276:14638   */\n      pop\n        /* \"#utility.yul\":14228:14638   */\n      swap3\n      swap2\n      pop\n      pop\n      jump\t// out\n        /* \"#utility.yul\":14644:14820   */\n    tag_239:\n        /* \"#utility.yul\":14784:14812   */\n      0x496e73756666696369656e742062757965722062616c616e6365000000000000\n        /* \"#utility.yul\":14780:14781   */\n      0x00\n        /* \"#utility.yul\":14772:14778   */\n      dup3\n        /* \"#utility.yul\":14768:14782   */\n      add\n        /* \"#utility.yul\":14761:14813   */\n      mstore\n        /* \"#utility.yul\":14644:14820   */\n      pop\n      jump\t// out\n        /* \"#utility.yul\":14826:15192   */\n    tag_240:\n        /* \"#utility.yul\":14968:14971   */\n      0x00\n        /* \"#utility.yul\":14989:15056   */\n      tag_387\n        /* \"#utility.yul\":15053:15055   */\n      0x1a\n        /* \"#utility.yul\":15048:15051   */\n      dup4\n        /* \"#utility.yul\":14989:15056   */\n      tag_219\n      jump\t// in\n    tag_387:\n        /* \"#utility.yul\":14982:15056   */\n      swap2\n      pop\n        /* \"#utility.yul\":15065:15158   */\n      tag_388\n        /* \"#utility.yul\":15154:15157   */\n      dup3\n        /* \"#utility.yul\":15065:15158   */\n      tag_239\n      jump\t// in\n    tag_388:\n        /* \"#utility.yul\":15183:15185   */\n      0x20\n        /* \"#utility.yul\":15178:15181   */\n      dup3\n        /* \"#utility.yul\":15174:15186   */\n      add\n        /* \"#utility.yul\":15167:15186   */\n      swap1\n      pop\n        /* \"#utility.yul\":14826:15192   */\n      swap2\n      swap1\n      pop\n      jump\t// out\n        /* \"#utility.yul\":15198:15617   */\n    tag_107:\n        /* \"#utility.yul\":15364:15368   */\n      0x00\n        /* \"#utility.yul\":15402:15404   */\n      0x20\n        /* \"#utility.yul\":15391:15400   */\n      dup3\n        /* \"#utility.yul\":15387:15405   */\n      add\n        /* \"#utility.yul\":15379:15405   */\n      swap1\n      pop\n        /* \"#utility.yul\":15451:15460   */\n      dup2\n        /* \"#utility.yul\":15445:15449   */\n      dup2\n        /* \"#utility.yul\":15441:15461   */\n      sub\n        /* \"#utility.yul\":15437:15438   */\n      0x00\n        /* \"#utility.yul\":15426:15435   */\n      dup4\n        /* \"#utility.yul\":15422:15439   */\n      add\n        /* \"#utility.yul\":15415:15462   */\n      mstore\n        /* \"#utility.yul\":15479:15610   */\n      tag_390\n        /* \"#utility.yul\":15605:15609   */\n      dup2\n        /* \"#utility.yul\":15479:15610   */\n      tag_240\n      jump\t// in\n    tag_390:\n        /* \"#utility.yul\":15471:15610   */\n      swap1\n      pop\n        /* \"#utility.yul\":15198:15617   */\n      swap2\n      swap1\n      pop\n      jump\t// out\n        /* \"#utility.yul\":15623:15817   */\n    tag_109:\n        /* \"#utility.yul\":15663:15667   */\n      0x00\n        /* \"#utility.yul\":15683:15703   */\n      tag_392\n        /* \"#utility.yul\":15701:15702   */\n      dup3\n        /* \"#utility.yul\":15683:15703   */\n      tag_208\n      jump\t// in\n    tag_392:\n        /* \"#utility.yul\":15678:15703   */\n      swap2\n      pop\n        /* \"#utility.yul\":15717:15737   */\n      tag_393\n        /* \"#utility.yul\":15735:15736   */\n      dup4\n        /* \"#utility.yul\":15717:15737   */\n      tag_208\n      jump\t// in\n    tag_393:\n        /* \"#utility.yul\":15712:15737   */\n      swap3\n      pop\n        /* \"#utility.yul\":15761:15762   */\n      dup3\n        /* \"#utility.yul\":15758:15759   */\n      dup3\n        /* \"#utility.yul\":15754:15763   */\n      sub\n        /* \"#utility.yul\":15746:15763   */\n      swap1\n      pop\n        /* \"#utility.yul\":15785:15786   */\n      dup2\n        /* \"#utility.yul\":15779:15783   */\n      dup2\n        /* \"#utility.yul\":15776:15787   */\n      gt\n        /* \"#utility.yul\":15773:15810   */\n      iszero\n      tag_394\n      jumpi\n        /* \"#utility.yul\":15790:15808   */\n      tag_395\n      tag_234\n      jump\t// in\n    tag_395:\n        /* \"#utility.yul\":15773:15810   */\n    tag_394:\n        /* \"#utility.yul\":15623:15817   */\n      swap3\n      swap2\n      pop\n      pop\n      jump\t// out\n        /* \"#utility.yul\":15823:16014   */\n    tag_111:\n        /* \"#utility.yul\":15863:15866   */\n      0x00\n        /* \"#utility.yul\":15882:15902   */\n      tag_397\n        /* \"#utility.yul\":15900:15901   */\n      dup3\n        /* \"#utility.yul\":15882:15902   */\n      tag_208\n      jump\t// in\n    tag_397:\n        /* \"#utility.yul\":15877:15902   */\n      swap2\n      pop\n        /* \"#utility.yul\":15916:15936   */\n      tag_398\n        /* \"#utility.yul\":15934:15935   */\n      dup4\n        /* \"#utility.yul\":15916:15936   */\n      tag_208\n      jump\t// in\n    tag_398:\n        /* \"#utility.yul\":15911:15936   */\n      swap3\n      pop\n        /* \"#utility.yul\":15959:15960   */\n      dup3\n        /* \"#utility.yul\":15956:15957   */\n      dup3\n        /* \"#utility.yul\":15952:15961   */\n      add\n        /* \"#utility.yul\":15945:15961   */\n      swap1\n      pop\n        /* \"#utility.yul\":15980:15983   */\n      dup1\n        /* \"#utility.yul\":15977:15978   */\n      dup3\n        /* \"#utility.yul\":15974:15984   */\n      gt\n        /* \"#utility.yul\":15971:16007   */\n      iszero\n      tag_399\n      jumpi\n        /* \"#utility.yul\":15987:16005   */\n      tag_400\n      tag_234\n      jump\t// in\n    tag_400:\n        /* \"#utility.yul\":15971:16007   */\n    tag_399:\n        /* \"#utility.yul\":15823:16014   */\n      swap3\n      swap2\n      pop\n      pop\n      jump\t// out\n        /* \"#utility.yul\":16020:16395   */\n    tag_113:\n        /* \"#utility.yul\":16059:16062   */\n      0x00\n        /* \"#utility.yul\":16078:16097   */\n      tag_402\n        /* \"#utility.yul\":16095:16096   */\n      dup3\n        /* \"#utility.yul\":16078:16097   */\n      tag_212\n      jump\t// in\n    tag_402:\n        /* \"#utility.yul\":16073:16097   */\n      swap2\n      pop\n        /* \"#utility.yul\":16111:16130   */\n      tag_403\n        /* \"#utility.yul\":16128:16129   */\n      dup4\n        /* \"#utility.yul\":16111:16130   */\n      tag_212\n      jump\t// in\n    tag_403:\n        /* \"#utility.yul\":16106:16130   */\n      swap3\n      pop\n        /* \"#utility.yul\":16153:16154   */\n      dup3\n        /* \"#utility.yul\":16150:16151   */\n      dup3\n        /* \"#utility.yul\":16146:16155   */\n      add\n        /* \"#utility.yul\":16139:16155   */\n      swap1\n      pop\n        /* \"#utility.yul\":16351:16352   */\n      dup3\n        /* \"#utility.yul\":16346:16349   */\n      dup2\n        /* \"#utility.yul\":16342:16353   */\n      slt\n        /* \"#utility.yul\":16335:16354   */\n      iszero\n        /* \"#utility.yul\":16331:16332   */\n      0x00\n        /* \"#utility.yul\":16328:16329   */\n      dup4\n        /* \"#utility.yul\":16324:16333   */\n      slt\n        /* \"#utility.yul\":16320:16355   */\n      and\n        /* \"#utility.yul\":16303:16304   */\n      dup4\n        /* \"#utility.yul\":16298:16301   */\n      dup3\n        /* \"#utility.yul\":16294:16305   */\n      slt\n        /* \"#utility.yul\":16289:16290   */\n      0x00\n        /* \"#utility.yul\":16286:16287   */\n      dup5\n        /* \"#utility.yul\":16282:16291   */\n      slt\n        /* \"#utility.yul\":16275:16292   */\n      iszero\n        /* \"#utility.yul\":16271:16306   */\n      and\n        /* \"#utility.yul\":16255:16365   */\n      or\n        /* \"#utility.yul\":16252:16388   */\n      iszero\n      tag_404\n      jumpi\n        /* \"#utility.yul\":16368:16386   */\n      tag_405\n      tag_234\n      jump\t// in\n    tag_405:\n        /* \"#utility.yul\":16252:16388   */\n    tag_404:\n        /* \"#utility.yul\":16020:16395   */\n      swap3\n      swap2\n      pop\n      pop\n      jump\t// out\n        /* \"#utility.yul\":16401:16773   */\n    tag_115:\n        /* \"#utility.yul\":16440:16444   */\n      0x00\n        /* \"#utility.yul\":16460:16479   */\n      tag_407\n        /* \"#utility.yul\":16477:16478   */\n      dup3\n        /* \"#utility.yul\":16460:16479   */\n      tag_212\n      jump\t// in\n    tag_407:\n        /* \"#utility.yul\":16455:16479   */\n      swap2\n      pop\n        /* \"#utility.yul\":16493:16512   */\n      tag_408\n        /* \"#utility.yul\":16510:16511   */\n      dup4\n        /* \"#utility.yul\":16493:16512   */\n      tag_212\n      jump\t// in\n    tag_408:\n        /* \"#utility.yul\":16488:16512   */\n      swap3\n      pop\n        /* \"#utility.yul\":16536:16537   */\n      dup3\n        /* \"#utility.yul\":16533:16534   */\n      dup3\n        /* \"#utility.yul\":16529:16538   */\n      sub\n        /* \"#utility.yul\":16521:16538   */\n      swap1\n      pop\n        /* \"#utility.yul\":16730:16731   */\n      dup2\n        /* \"#utility.yul\":16724:16728   */\n      dup2\n        /* \"#utility.yul\":16720:16732   */\n      slt\n        /* \"#utility.yul\":16716:16717   */\n      0x00\n        /* \"#utility.yul\":16713:16714   */\n      dup5\n        /* \"#utility.yul\":16709:16718   */\n      slt\n        /* \"#utility.yul\":16705:16733   */\n      and\n        /* \"#utility.yul\":16688:16689   */\n      dup3\n        /* \"#utility.yul\":16682:16686   */\n      dup3\n        /* \"#utility.yul\":16678:16690   */\n      sgt\n        /* \"#utility.yul\":16673:16674   */\n      0x00\n        /* \"#utility.yul\":16670:16671   */\n      dup6\n        /* \"#utility.yul\":16666:16675   */\n      slt\n        /* \"#utility.yul\":16659:16676   */\n      iszero\n        /* \"#utility.yul\":16655:16691   */\n      and\n        /* \"#utility.yul\":16639:16743   */\n      or\n        /* \"#utility.yul\":16636:16766   */\n      iszero\n      tag_409\n      jumpi\n        /* \"#utility.yul\":16746:16764   */\n      tag_410\n      tag_234\n      jump\t// in\n    tag_410:\n        /* \"#utility.yul\":16636:16766   */\n    tag_409:\n        /* \"#utility.yul\":16401:16773   */\n      swap3\n      swap2\n      pop\n      pop\n      jump\t// out\n        /* \"#utility.yul\":16779:16952   */\n    tag_241:\n        /* \"#utility.yul\":16919:16944   */\n      0x50726f73756d6572206e6f742072656769737465726564000000000000000000\n        /* \"#utility.yul\":16915:16916   */\n      0x00\n        /* \"#utility.yul\":16907:16913   */\n      dup3\n        /* \"#utility.yul\":16903:16917   */\n      add\n        /* \"#utility.yul\":16896:16945   */\n      mstore\n        /* \"#utility.yul\":16779:16952   */\n      pop\n      jump\t// out\n        /* \"#utility.yul\":16958:17324   */\n    tag_242:\n        /* \"#utility.yul\":17100:17103   */\n      0x00\n        /* \"#utility.yul\":17121:17188   */\n      tag_413\n        /* \"#utility.yul\":17185:17187   */\n      0x17\n        /* \"#utility.yul\":17180:17183   */\n      dup4\n        /* \"#utility.yul\":17121:17188   */\n      tag_219\n      jump\t// in\n    tag_413:\n        /* \"#utility.yul\":17114:17188   */\n      swap2\n      pop\n        /* \"#utility.yul\":17197:17290   */\n      tag_414\n        /* \"#utility.yul\":17286:17289   */\n      dup3\n        /* \"#utility.yul\":17197:17290   */\n      tag_241\n      jump\t// in\n    tag_414:\n        /* \"#utility.yul\":17315:17317   */\n      0x20\n        /* \"#utility.yul\":17310:17313   */\n      dup3\n        /* \"#utility.yul\":17306:17318   */\n      add\n        /* \"#utility.yul\":17299:17318   */\n      swap1\n      pop\n        /* \"#utility.yul\":16958:17324   */\n      swap2\n      swap1\n      pop\n      jump\t// out\n        /* \"#utility.yul\":17330:17749   */\n    tag_119:\n        /* \"#utility.yul\":17496:17500   */\n      0x00\n        /* \"#utility.yul\":17534:17536   */\n      0x20\n        /* \"#utility.yul\":17523:17532   */\n      dup3\n        /* \"#utility.yul\":17519:17537   */\n      add\n        /* \"#utility.yul\":17511:17537   */\n      swap1\n      pop\n        /* \"#utility.yul\":17583:17592   */\n      dup2\n        /* \"#utility.yul\":17577:17581   */\n      dup2\n        /* \"#utility.yul\":17573:17593   */\n      sub\n        /* \"#utility.yul\":17569:17570   */\n      0x00\n        /* \"#utility.yul\":17558:17567   */\n      dup4\n        /* \"#utility.yul\":17554:17571   */\n      add\n        /* \"#utility.yul\":17547:17594   */\n      mstore\n        /* \"#utility.yul\":17611:17742   */\n      tag_416\n        /* \"#utility.yul\":17737:17741   */\n      dup2\n        /* \"#utility.yul\":17611:17742   */\n      tag_242\n      jump\t// in\n    tag_416:\n        /* \"#utility.yul\":17603:17742   */\n      swap1\n      pop\n        /* \"#utility.yul\":17330:17749   */\n      swap2\n      swap1\n      pop\n      jump\t// out\n        /* \"#utility.yul\":17755:17935   */\n    tag_243:\n        /* \"#utility.yul\":17895:17927   */\n      0x50726f73756d65722068617320616e20656e6572677920646566696369740000\n        /* \"#utility.yul\":17891:17892   */\n      0x00\n        /* \"#utility.yul\":17883:17889   */\n      dup3\n        /* \"#utility.yul\":17879:17893   */\n      add\n        /* \"#utility.yul\":17872:17928   */\n      mstore\n        /* \"#utility.yul\":17755:17935   */\n      pop\n      jump\t// out\n        /* \"#utility.yul\":17941:18307   */\n    tag_244:\n        /* \"#utility.yul\":18083:18086   */\n      0x00\n        /* \"#utility.yul\":18104:18171   */\n      tag_419\n        /* \"#utility.yul\":18168:18170   */\n      0x1e\n        /* \"#utility.yul\":18163:18166   */\n      dup4\n        /* \"#utility.yul\":18104:18171   */\n      tag_219\n      jump\t// in\n    tag_419:\n        /* \"#utility.yul\":18097:18171   */\n      swap2\n      pop\n        /* \"#utility.yul\":18180:18273   */\n      tag_420\n        /* \"#utility.yul\":18269:18272   */\n      dup3\n        /* \"#utility.yul\":18180:18273   */\n      tag_243\n      jump\t// in\n    tag_420:\n        /* \"#utility.yul\":18298:18300   */\n      0x20\n        /* \"#utility.yul\":18293:18296   */\n      dup3\n        /* \"#utility.yul\":18289:18301   */\n      add\n        /* \"#utility.yul\":18282:18301   */\n      swap1\n      pop\n        /* \"#utility.yul\":17941:18307   */\n      swap2\n      swap1\n      pop\n      jump\t// out\n        /* \"#utility.yul\":18313:18732   */\n    tag_122:\n        /* \"#utility.yul\":18479:18483   */\n      0x00\n        /* \"#utility.yul\":18517:18519   */\n      0x20\n        /* \"#utility.yul\":18506:18515   */\n      dup3\n        /* \"#utility.yul\":18502:18520   */\n      add\n        /* \"#utility.yul\":18494:18520   */\n      swap1\n      pop\n        /* \"#utility.yul\":18566:18575   */\n      dup2\n        /* \"#utility.yul\":18560:18564   */\n      dup2\n        /* \"#utility.yul\":18556:18576   */\n      sub\n        /* \"#utility.yul\":18552:18553   */\n      0x00\n        /* \"#utility.yul\":18541:18550   */\n      dup4\n        /* \"#utility.yul\":18537:18554   */\n      add\n        /* \"#utility.yul\":18530:18577   */\n      mstore\n        /* \"#utility.yul\":18594:18725   */\n      tag_422\n        /* \"#utility.yul\":18720:18724   */\n      dup2\n        /* \"#utility.yul\":18594:18725   */\n      tag_244\n      jump\t// in\n    tag_422:\n        /* \"#utility.yul\":18586:18725   */\n      swap1\n      pop\n        /* \"#utility.yul\":18313:18732   */\n      swap2\n      swap1\n      pop\n      jump\t// out\n        /* \"#utility.yul\":18738:18918   */\n    tag_130:\n        /* \"#utility.yul\":18786:18863   */\n      0x4e487b7100000000000000000000000000000000000000000000000000000000\n        /* \"#utility.yul\":18783:18784   */\n      0x00\n        /* \"#utility.yul\":18776:18864   */\n      mstore\n        /* \"#utility.yul\":18883:18887   */\n      0x32\n        /* \"#utility.yul\":18880:18881   */\n      0x04\n        /* \"#utility.yul\":18873:18888   */\n      mstore\n        /* \"#utility.yul\":18907:18911   */\n      0x24\n        /* \"#utility.yul\":18904:18905   */\n      0x00\n        /* \"#utility.yul\":18897:18912   */\n      revert\n        /* \"#utility.yul\":18924:19252   */\n    tag_146:\n        /* \"#utility.yul\":19043:19047   */\n      0x00\n        /* \"#utility.yul\":19081:19083   */\n      0x40\n        /* \"#utility.yul\":19070:19079   */\n      dup3\n        /* \"#utility.yul\":19066:19084   */\n      add\n        /* \"#utility.yul\":19058:19084   */\n      swap1\n      pop\n        /* \"#utility.yul\":19094:19165   */\n      tag_425\n        /* \"#utility.yul\":19162:19163   */\n      0x00\n        /* \"#utility.yul\":19151:19160   */\n      dup4\n        /* \"#utility.yul\":19147:19164   */\n      add\n        /* \"#utility.yul\":19138:19144   */\n      dup6\n        /* \"#utility.yul\":19094:19165   */\n      tag_214\n      jump\t// in\n    tag_425:\n        /* \"#utility.yul\":19175:19245   */\n      tag_426\n        /* \"#utility.yul\":19241:19243   */\n      0x20\n        /* \"#utility.yul\":19230:19239   */\n      dup4\n        /* \"#utility.yul\":19226:19244   */\n      add\n        /* \"#utility.yul\":19217:19223   */\n      dup5\n        /* \"#utility.yul\":19175:19245   */\n      tag_213\n      jump\t// in\n    tag_426:\n        /* \"#utility.yul\":18924:19252   */\n      swap4\n      swap3\n      pop\n      pop\n      pop\n      jump\t// out\n        /* \"#utility.yul\":19258:19434   */\n    tag_245:\n        /* \"#utility.yul\":19398:19426   */\n      0x4f66666572656420656e65726779206d757374206265203e2030000000000000\n        /* \"#utility.yul\":19394:19395   */\n      0x00\n        /* \"#utility.yul\":19386:19392   */\n      dup3\n        /* \"#utility.yul\":19382:19396   */\n      add\n        /* \"#utility.yul\":19375:19427   */\n      mstore\n        /* \"#utility.yul\":19258:19434   */\n      pop\n      jump\t// out\n        /* \"#utility.yul\":19440:19806   */\n    tag_246:\n        /* \"#utility.yul\":19582:19585   */\n      0x00\n        /* \"#utility.yul\":19603:19670   */\n      tag_429\n        /* \"#utility.yul\":19667:19669   */\n      0x1a\n        /* \"#utility.yul\":19662:19665   */\n      dup4\n        /* \"#utility.yul\":19603:19670   */\n      tag_219\n      jump\t// in\n    tag_429:\n        /* \"#utility.yul\":19596:19670   */\n      swap2\n      pop\n        /* \"#utility.yul\":19679:19772   */\n      tag_430\n        /* \"#utility.yul\":19768:19771   */\n      dup3\n        /* \"#utility.yul\":19679:19772   */\n      tag_245\n      jump\t// in\n    tag_430:\n        /* \"#utility.yul\":19797:19799   */\n      0x20\n        /* \"#utility.yul\":19792:19795   */\n      dup3\n        /* \"#utility.yul\":19788:19800   */\n      add\n        /* \"#utility.yul\":19781:19800   */\n      swap1\n      pop\n        /* \"#utility.yul\":19440:19806   */\n      swap2\n      swap1\n      pop\n      jump\t// out\n        /* \"#utility.yul\":19812:20231   */\n    tag_151:\n        /* \"#utility.yul\":19978:19982   */\n      0x00\n        /* \"#utility.yul\":20016:20018   */\n      0x20\n        /* \"#utility.yul\":20005:20014   */\n      dup3\n        /* \"#utility.yul\":20001:20019   */\n      add\n        /* \"#utility.yul\":19993:20019   */\n      swap1\n      pop\n        /* \"#utility.yul\":20065:20074   */\n      dup2\n        /* \"#utility.yul\":20059:20063   */\n      dup2\n        /* \"#utility.yul\":20055:20075   */\n      sub\n        /* \"#utility.yul\":20051:20052   */\n      0x00\n        /* \"#utility.yul\":20040:20049   */\n      dup4\n        /* \"#utility.yul\":20036:20053   */\n      add\n        /* \"#utility.yul\":20029:20076   */\n      mstore\n        /* \"#utility.yul\":20093:20224   */\n      tag_432\n        /* \"#utility.yul\":20219:20223   */\n      dup2\n        /* \"#utility.yul\":20093:20224   */\n      tag_246\n      jump\t// in\n    tag_432:\n        /* \"#utility.yul\":20085:20224   */\n      swap1\n      pop\n        /* \"#utility.yul\":19812:20231   */\n      swap2\n      swap1\n      pop\n      jump\t// out\n        /* \"#utility.yul\":20237:20400   */\n    tag_247:\n        /* \"#utility.yul\":20377:20392   */\n      0x496e76616c696420627579657200000000000000000000000000000000000000\n        /* \"#utility.yul\":20373:20374   */\n      0x00\n        /* \"#utility.yul\":20365:20371   */\n      dup3\n        /* \"#utility.yul\":20361:20375   */\n      add\n        /* \"#utility.yul\":20354:20393   */\n      mstore\n        /* \"#utility.yul\":20237:20400   */\n      pop\n      jump\t// out\n        /* \"#utility.yul\":20406:20772   */\n    tag_248:\n        /* \"#utility.yul\":20548:20551   */\n      0x00\n        /* \"#utility.yul\":20569:20636   */\n      tag_435\n        /* \"#utility.yul\":20633:20635   */\n      0x0d\n        /* \"#utility.yul\":20628:20631   */\n      dup4\n        /* \"#utility.yul\":20569:20636   */\n      tag_219\n      jump\t// in\n    tag_435:\n        /* \"#utility.yul\":20562:20636   */\n      swap2\n      pop\n        /* \"#utility.yul\":20645:20738   */\n      tag_436\n        /* \"#utility.yul\":20734:20737   */\n      dup3\n        /* \"#utility.yul\":20645:20738   */\n      tag_247\n      jump\t// in\n    tag_436:\n        /* \"#utility.yul\":20763:20765   */\n      0x20\n        /* \"#utility.yul\":20758:20761   */\n      dup3\n        /* \"#utility.yul\":20754:20766   */\n      add\n        /* \"#utility.yul\":20747:20766   */\n      swap1\n      pop\n        /* \"#utility.yul\":20406:20772   */\n      swap2\n      swap1\n      pop\n      jump\t// out\n        /* \"#utility.yul\":20778:21197   */\n    tag_154:\n        /* \"#utility.yul\":20944:20948   */\n      0x00\n        /* \"#utility.yul\":20982:20984   */\n      0x20\n        /* \"#utility.yul\":20971:20980   */\n      dup3\n        /* \"#utility.yul\":20967:20985   */\n      add\n        /* \"#utility.yul\":20959:20985   */\n      swap1\n      pop\n        /* \"#utility.yul\":21031:21040   */\n      dup2\n        /* \"#utility.yul\":21025:21029   */\n      dup2\n        /* \"#utility.yul\":21021:21041   */\n      sub\n        /* \"#utility.yul\":21017:21018   */\n      0x00\n        /* \"#utility.yul\":21006:21015   */\n      dup4\n        /* \"#utility.yul\":21002:21019   */\n      add\n        /* \"#utility.yul\":20995:21042   */\n      mstore\n        /* \"#utility.yul\":21059:21190   */\n      tag_438\n        /* \"#utility.yul\":21185:21189   */\n      dup2\n        /* \"#utility.yul\":21059:21190   */\n      tag_248\n      jump\t// in\n    tag_438:\n        /* \"#utility.yul\":21051:21190   */\n      swap1\n      pop\n        /* \"#utility.yul\":20778:21197   */\n      swap2\n      swap1\n      pop\n      jump\t// out\n        /* \"#utility.yul\":21203:21372   */\n    tag_249:\n        /* \"#utility.yul\":21343:21364   */\n      0x43616e6e6f742073656c6c20746f2073656c6600000000000000000000000000\n        /* \"#utility.yul\":21339:21340   */\n      0x00\n        /* \"#utility.yul\":21331:21337   */\n      dup3\n        /* \"#utility.yul\":21327:21341   */\n      add\n        /* \"#utility.yul\":21320:21365   */\n      mstore\n        /* \"#utility.yul\":21203:21372   */\n      pop\n      jump\t// out\n        /* \"#utility.yul\":21378:21744   */\n    tag_250:\n        /* \"#utility.yul\":21520:21523   */\n      0x00\n        /* \"#utility.yul\":21541:21608   */\n      tag_441\n        /* \"#utility.yul\":21605:21607   */\n      0x13\n        /* \"#utility.yul\":21600:21603   */\n      dup4\n        /* \"#utility.yul\":21541:21608   */\n      tag_219\n      jump\t// in\n    tag_441:\n        /* \"#utility.yul\":21534:21608   */\n      swap2\n      pop\n        /* \"#utility.yul\":21617:21710   */\n      tag_442\n        /* \"#utility.yul\":21706:21709   */\n      dup3\n        /* \"#utility.yul\":21617:21710   */\n      tag_249\n      jump\t// in\n    tag_442:\n        /* \"#utility.yul\":21735:21737   */\n      0x20\n        /* \"#utility.yul\":21730:21733   */\n      dup3\n        /* \"#utility.yul\":21726:21738   */\n      add\n        /* \"#utility.yul\":21719:21738   */\n      swap1\n      pop\n        /* \"#utility.yul\":21378:21744   */\n      swap2\n      swap1\n      pop\n      jump\t// out\n        /* \"#utility.yul\":21750:22169   */\n    tag_157:\n        /* \"#utility.yul\":21916:21920   */\n      0x00\n        /* \"#utility.yul\":21954:21956   */\n      0x20\n        /* \"#utility.yul\":21943:21952   */\n      dup3\n        /* \"#utility.yul\":21939:21957   */\n      add\n        /* \"#utility.yul\":21931:21957   */\n      swap1\n      pop\n        /* \"#utility.yul\":22003:22012   */\n      dup2\n        /* \"#utility.yul\":21997:22001   */\n      dup2\n        /* \"#utility.yul\":21993:22013   */\n      sub\n        /* \"#utility.yul\":21989:21990   */\n      0x00\n        /* \"#utility.yul\":21978:21987   */\n      dup4\n        /* \"#utility.yul\":21974:21991   */\n      add\n        /* \"#utility.yul\":21967:22014   */\n      mstore\n        /* \"#utility.yul\":22031:22162   */\n      tag_444\n        /* \"#utility.yul\":22157:22161   */\n      dup2\n        /* \"#utility.yul\":22031:22162   */\n      tag_250\n      jump\t// in\n    tag_444:\n        /* \"#utility.yul\":22023:22162   */\n      swap1\n      pop\n        /* \"#utility.yul\":21750:22169   */\n      swap2\n      swap1\n      pop\n      jump\t// out\n        /* \"#utility.yul\":22175:22355   */\n    tag_251:\n        /* \"#utility.yul\":22315:22347   */\n      0x4f66666572656420657863656564732073656c6c657220737572706c75730000\n        /* \"#utility.yul\":22311:22312   */\n      0x00\n        /* \"#utility.yul\":22303:22309   */\n      dup3\n        /* \"#utility.yul\":22299:22313   */\n      add\n        /* \"#utility.yul\":22292:22348   */\n      mstore\n        /* \"#utility.yul\":22175:22355   */\n      pop\n      jump\t// out\n        /* \"#utility.yul\":22361:22727   */\n    tag_252:\n        /* \"#utility.yul\":22503:22506   */\n      0x00\n        /* \"#utility.yul\":22524:22591   */\n      tag_447\n        /* \"#utility.yul\":22588:22590   */\n      0x1e\n        /* \"#utility.yul\":22583:22586   */\n      dup4\n        /* \"#utility.yul\":22524:22591   */\n      tag_219\n      jump\t// in\n    tag_447:\n        /* \"#utility.yul\":22517:22591   */\n      swap2\n      pop\n        /* \"#utility.yul\":22600:22693   */\n      tag_448\n        /* \"#utility.yul\":22689:22692   */\n      dup3\n        /* \"#utility.yul\":22600:22693   */\n      tag_251\n      jump\t// in\n    tag_448:\n        /* \"#utility.yul\":22718:22720   */\n      0x20\n        /* \"#utility.yul\":22713:22716   */\n      dup3\n        /* \"#utility.yul\":22709:22721   */\n      add\n        /* \"#utility.yul\":22702:22721   */\n      swap1\n      pop\n        /* \"#utility.yul\":22361:22727   */\n      swap2\n      swap1\n      pop\n      jump\t// out\n        /* \"#utility.yul\":22733:23152   */\n    tag_168:\n        /* \"#utility.yul\":22899:22903   */\n      0x00\n        /* \"#utility.yul\":22937:22939   */\n      0x20\n        /* \"#utility.yul\":22926:22935   */\n      dup3\n        /* \"#utility.yul\":22922:22940   */\n      add\n        /* \"#utility.yul\":22914:22940   */\n      swap1\n      pop\n        /* \"#utility.yul\":22986:22995   */\n      dup2\n        /* \"#utility.yul\":22980:22984   */\n      dup2\n        /* \"#utility.yul\":22976:22996   */\n      sub\n        /* \"#utility.yul\":22972:22973   */\n      0x00\n        /* \"#utility.yul\":22961:22970   */\n      dup4\n        /* \"#utility.yul\":22957:22974   */\n      add\n        /* \"#utility.yul\":22950:22997   */\n      mstore\n        /* \"#utility.yul\":23014:23145   */\n      tag_450\n        /* \"#utility.yul\":23140:23144   */\n      dup2\n        /* \"#utility.yul\":23014:23145   */\n      tag_252\n      jump\t// in\n    tag_450:\n        /* \"#utility.yul\":23006:23145   */\n      swap1\n      pop\n        /* \"#utility.yul\":22733:23152   */\n      swap2\n      swap1\n      pop\n      jump\t// out\n        /* \"#utility.yul\":23158:23337   */\n    tag_253:\n        /* \"#utility.yul\":23298:23329   */\n      0x4f66666572656420657863656564732062757965722064656669636974000000\n        /* \"#utility.yul\":23294:23295   */\n      0x00\n        /* \"#utility.yul\":23286:23292   */\n      dup3\n        /* \"#utility.yul\":23282:23296   */\n      add\n        /* \"#utility.yul\":23275:23330   */\n      mstore\n        /* \"#utility.yul\":23158:23337   */\n      pop\n      jump\t// out\n        /* \"#utility.yul\":23343:23709   */\n    tag_254:\n        /* \"#utility.yul\":23485:23488   */\n      0x00\n        /* \"#utility.yul\":23506:23573   */\n      tag_453\n        /* \"#utility.yul\":23570:23572   */\n      0x1d\n        /* \"#utility.yul\":23565:23568   */\n      dup4\n        /* \"#utility.yul\":23506:23573   */\n      tag_219\n      jump\t// in\n    tag_453:\n        /* \"#utility.yul\":23499:23573   */\n      swap2\n      pop\n        /* \"#utility.yul\":23582:23675   */\n      tag_454\n        /* \"#utility.yul\":23671:23674   */\n      dup3\n        /* \"#utility.yul\":23582:23675   */\n      tag_253\n      jump\t// in\n    tag_454:\n        /* \"#utility.yul\":23700:23702   */\n      0x20\n        /* \"#utility.yul\":23695:23698   */\n      dup3\n        /* \"#utility.yul\":23691:23703   */\n      add\n        /* \"#utility.yul\":23684:23703   */\n      swap1\n      pop\n        /* \"#utility.yul\":23343:23709   */\n      swap2\n      swap1\n      pop\n      jump\t// out\n        /* \"#utility.yul\":23715:24134   */\n    tag_172:\n        /* \"#utility.yul\":23881:23885   */\n      0x00\n        /* \"#utility.yul\":23919:23921   */\n      0x20\n        /* \"#utility.yul\":23908:23917   */\n      dup3\n        /* \"#utility.yul\":23904:23922   */\n      add\n        /* \"#utility.yul\":23896:23922   */\n      swap1\n      pop\n        /* \"#utility.yul\":23968:23977   */\n      dup2\n        /* \"#utility.yul\":23962:23966   */\n      dup2\n        /* \"#utility.yul\":23958:23978   */\n      sub\n        /* \"#utility.yul\":23954:23955   */\n      0x00\n        /* \"#utility.yul\":23943:23952   */\n      dup4\n        /* \"#utility.yul\":23939:23956   */\n      add\n        /* \"#utility.yul\":23932:23979   */\n      mstore\n        /* \"#utility.yul\":23996:24127   */\n      tag_456\n        /* \"#utility.yul\":24122:24126   */\n      dup2\n        /* \"#utility.yul\":23996:24127   */\n      tag_254\n      jump\t// in\n    tag_456:\n        /* \"#utility.yul\":23988:24127   */\n      swap1\n      pop\n        /* \"#utility.yul\":23715:24134   */\n      swap2\n      swap1\n      pop\n      jump\t// out\n        /* \"#utility.yul\":24140:24318   */\n    tag_255:\n        /* \"#utility.yul\":24280:24310   */\n      0x50726f73756d657220616c726561647920726567697374657265642100000000\n        /* \"#utility.yul\":24276:24277   */\n      0x00\n        /* \"#utility.yul\":24268:24274   */\n      dup3\n        /* \"#utility.yul\":24264:24278   */\n      add\n        /* \"#utility.yul\":24257:24311   */\n      mstore\n        /* \"#utility.yul\":24140:24318   */\n      pop\n      jump\t// out\n        /* \"#utility.yul\":24324:24690   */\n    tag_256:\n        /* \"#utility.yul\":24466:24469   */\n      0x00\n        /* \"#utility.yul\":24487:24554   */\n      tag_459\n        /* \"#utility.yul\":24551:24553   */\n      0x1c\n        /* \"#utility.yul\":24546:24549   */\n      dup4\n        /* \"#utility.yul\":24487:24554   */\n      tag_219\n      jump\t// in\n    tag_459:\n        /* \"#utility.yul\":24480:24554   */\n      swap2\n      pop\n        /* \"#utility.yul\":24563:24656   */\n      tag_460\n        /* \"#utility.yul\":24652:24655   */\n      dup3\n        /* \"#utility.yul\":24563:24656   */\n      tag_255\n      jump\t// in\n    tag_460:\n        /* \"#utility.yul\":24681:24683   */\n      0x20\n        /* \"#utility.yul\":24676:24679   */\n      dup3\n        /* \"#utility.yul\":24672:24684   */\n      add\n        /* \"#utility.yul\":24665:24684   */\n      swap1\n      pop\n        /* \"#utility.yul\":24324:24690   */\n      swap2\n      swap1\n      pop\n      jump\t// out\n        /* \"#utility.yul\":24696:25115   */\n    tag_184:\n        /* \"#utility.yul\":24862:24866   */\n      0x00\n        /* \"#utility.yul\":24900:24902   */\n      0x20\n        /* \"#utility.yul\":24889:24898   */\n      dup3\n        /* \"#utility.yul\":24885:24903   */\n      add\n        /* \"#utility.yul\":24877:24903   */\n      swap1\n      pop\n        /* \"#utility.yul\":24949:24958   */\n      dup2\n        /* \"#utility.yul\":24943:24947   */\n      dup2\n        /* \"#utility.yul\":24939:24959   */\n      sub\n        /* \"#utility.yul\":24935:24936   */\n      0x00\n        /* \"#utility.yul\":24924:24933   */\n      dup4\n        /* \"#utility.yul\":24920:24937   */\n      add\n        /* \"#utility.yul\":24913:24960   */\n      mstore\n        /* \"#utility.yul\":24977:25108   */\n      tag_462\n        /* \"#utility.yul\":25103:25107   */\n      dup2\n        /* \"#utility.yul\":24977:25108   */\n      tag_256\n      jump\t// in\n    tag_462:\n        /* \"#utility.yul\":24969:25108   */\n      swap1\n      pop\n        /* \"#utility.yul\":24696:25115   */\n      swap2\n      swap1\n      pop\n      jump\t// out\n        /* \"#utility.yul\":25121:25346   */\n    tag_257:\n        /* \"#utility.yul\":25261:25295   */\n      0x4f6e6c79207265636f726465722063616e2075706461746520656e6572677920\n        /* \"#utility.yul\":25257:25258   */\n      0x00\n        /* \"#utility.yul\":25249:25255   */\n      dup3\n        /* \"#utility.yul\":25245:25259   */\n      add\n        /* \"#utility.yul\":25238:25296   */\n      mstore\n        /* \"#utility.yul\":25330:25338   */\n      0x7374617475730000000000000000000000000000000000000000000000000000\n        /* \"#utility.yul\":25325:25327   */\n      0x20\n        /* \"#utility.yul\":25317:25323   */\n      dup3\n        /* \"#utility.yul\":25313:25328   */\n      add\n        /* \"#utility.yul\":25306:25339   */\n      mstore\n        /* \"#utility.yul\":25121:25346   */\n      pop\n      jump\t// out\n        /* \"#utility.yul\":25352:25718   */\n    tag_258:\n        /* \"#utility.yul\":25494:25497   */\n      0x00\n        /* \"#utility.yul\":25515:25582   */\n      tag_465\n        /* \"#utility.yul\":25579:25581   */\n      0x26\n        /* \"#utility.yul\":25574:25577   */\n      dup4\n        /* \"#utility.yul\":25515:25582   */\n      tag_219\n      jump\t// in\n    tag_465:\n        /* \"#utility.yul\":25508:25582   */\n      swap2\n      pop\n        /* \"#utility.yul\":25591:25684   */\n      tag_466\n        /* \"#utility.yul\":25680:25683   */\n      dup3\n        /* \"#utility.yul\":25591:25684   */\n      tag_257\n      jump\t// in\n    tag_466:\n        /* \"#utility.yul\":25709:25711   */\n      0x40\n        /* \"#utility.yul\":25704:25707   */\n      dup3\n        /* \"#utility.yul\":25700:25712   */\n      add\n        /* \"#utility.yul\":25693:25712   */\n      swap1\n      pop\n        /* \"#utility.yul\":25352:25718   */\n      swap2\n      swap1\n      pop\n      jump\t// out\n        /* \"#utility.yul\":25724:26143   */\n    tag_193:\n        /* \"#utility.yul\":25890:25894   */\n      0x00\n        /* \"#utility.yul\":25928:25930   */\n      0x20\n        /* \"#utility.yul\":25917:25926   */\n      dup3\n        /* \"#utility.yul\":25913:25931   */\n      add\n        /* \"#utility.yul\":25905:25931   */\n      swap1\n      pop\n        /* \"#utility.yul\":25977:25986   */\n      dup2\n        /* \"#utility.yul\":25971:25975   */\n      dup2\n        /* \"#utility.yul\":25967:25987   */\n      sub\n        /* \"#utility.yul\":25963:25964   */\n      0x00\n        /* \"#utility.yul\":25952:25961   */\n      dup4\n        /* \"#utility.yul\":25948:25965   */\n      add\n        /* \"#utility.yul\":25941:25988   */\n      mstore\n        /* \"#utility.yul\":26005:26136   */\n      tag_468\n        /* \"#utility.yul\":26131:26135   */\n      dup2\n        /* \"#utility.yul\":26005:26136   */\n      tag_258\n      jump\t// in\n    tag_468:\n        /* \"#utility.yul\":25997:26136   */\n      swap1\n      pop\n        /* \"#utility.yul\":25724:26143   */\n      swap2\n      swap1\n      pop\n      jump\t// out\n\n    auxdata: 0xa2646970667358221220a7c67fe4b2041709dbc26452f5f009eba6940256fadca1d07908cb67954757ad64736f6c634300081e0033\n}\n",
				"bytecode": {
					"linkReferences": {},
					"object": "608060405260405161211d38038061211d833981810160405281019061002591906100d8565b8060025f6101000a81548173ffffffffffffffffffffffffffffffffffffffff021916908373ffffffffffffffffffffffffffffffffffffffff160217905550670de0b6b3a764000060018190555050610103565b5f5ffd5b5f73ffffffffffffffffffffffffffffffffffffffff82169050919050565b5f6100a78261007e565b9050919050565b6100b78161009d565b81146100c1575f5ffd5b50565b5f815190506100d2816100ae565b92915050565b5f602082840312156100ed576100ec61007a565b5b5f6100fa848285016100c4565b91505092915050565b61200d806101105f395ff3fe6080604052600436106100c1575f3560e01c80638b7afe2e1161007e578063b8510a9611610058578063b8510a9614610212578063cab0f3351461024e578063cb2fd8db14610278578063d0e30db0146102a0576100c1565b80638b7afe2e146101a8578063a3818880146101d2578063b6c3afca146101e8576100c1565b80630f0fe598146100c55780632c8d7c32146100ed5780632e1a7d4d1461012c5780632fbbf1231461015457806345f802511461016a5780637a6edb2814610180575b5f5ffd5b3480156100d0575f5ffd5b506100eb60048036038101906100e691906113ed565b6102aa565b005b3480156100f8575f5ffd5b50610113600480360381019061010e919061142b565b6106da565b60405161012394939291906114a6565b60405180910390f35b348015610137575f5ffd5b50610152600480360381019061014d91906114e9565b610730565b005b34801561015f575f5ffd5b506101686108d3565b005b348015610175575f5ffd5b5061017e610a84565b005b34801561018b575f5ffd5b506101a660048036038101906101a191906113ed565b610a86565b005b3480156101b3575f5ffd5b506101bc610eb6565b6040516101c99190611514565b60405180910390f35b3480156101dd575f5ffd5b506101e6610ebd565b005b3480156101f3575f5ffd5b506101fc61109b565b604051610209919061152d565b60405180910390f35b34801561021d575f5ffd5b50610238600480360381019061023391906114e9565b6110c3565b604051610245919061152d565b60405180910390f35b348015610259575f5ffd5b506102626110fe565b60405161026f9190611514565b60405180910390f35b348015610283575f5ffd5b5061029e60048036038101906102999190611570565b611107565b005b6102a861127a565b005b5f81116102ec576040517f08c379a00000000000000000000000000000000000000000000000000000000081526004016102e390611608565b60405180910390fd5b5f73ffffffffffffffffffffffffffffffffffffffff168273ffffffffffffffffffffffffffffffffffffffff160361035a576040517f08c379a000000000000000000000000000000000000000000000000000000000815260040161035190611670565b60405180910390fd5b3373ffffffffffffffffffffffffffffffffffffffff168273ffffffffffffffffffffffffffffffffffffffff16036103c8576040517f08c379a00000000000000000000000000000000000000000000000000000000081526004016103bf906116d8565b60405180910390fd5b5f5f5f3373ffffffffffffffffffffffffffffffffffffffff1673ffffffffffffffffffffffffffffffffffffffff1681526020019081526020015f2090505f5f5f8573ffffffffffffffffffffffffffffffffffffffff1673ffffffffffffffffffffffffffffffffffffffff1681526020019081526020015f209050816003015f9054906101000a900460ff16610496576040517f08c379a000000000000000000000000000000000000000000000000000000000815260040161048d90611740565b60405180910390fd5b806003015f9054906101000a900460ff166104e6576040517f08c379a00000000000000000000000000000000000000000000000000000000081526004016104dd906117a8565b60405180910390fd5b5f82600101541261052c576040517f08c379a000000000000000000000000000000000000000000000000000000000815260040161052390611810565b60405180910390fd5b5f816001015413610572576040517f08c379a000000000000000000000000000000000000000000000000000000000815260040161056990611878565b60405180910390fd5b5f8260010154610581906118c3565b9050808411156105c6576040517f08c379a00000000000000000000000000000000000000000000000000000000081526004016105bd90611979565b60405180910390fd5b5f8260010154905080851115610611576040517f08c379a000000000000000000000000000000000000000000000000000000000815260040161060890611a07565b60405180910390fd5b5f600154866106209190611a25565b90508085600201541015610669576040517f08c379a000000000000000000000000000000000000000000000000000000000815260040161066090611ab0565b60405180910390fd5b80856002015f82825461067c9190611ace565b9250508190555080846002015f8282546106969190611b01565b9250508190555085856001015f8282546106b09190611b34565b9250508190555085846001015f8282546106ca9190611b75565b9250508190555050505050505050565b5f602052805f5260405f205f91509050805f015f9054906101000a900473ffffffffffffffffffffffffffffffffffffffff1690806001015490806002015490806003015f9054906101000a900460ff16905084565b5f3390505f5f8273ffffffffffffffffffffffffffffffffffffffff1673ffffffffffffffffffffffffffffffffffffffff1681526020019081526020015f206003015f9054906101000a900460ff166107bf576040517f08c379a00000000000000000000000000000000000000000000000000000000081526004016107b690611bff565b60405180910390fd5b5f5f5f8373ffffffffffffffffffffffffffffffffffffffff1673ffffffffffffffffffffffffffffffffffffffff1681526020019081526020015f20600101541215610841576040517f08c379a000000000000000000000000000000000000000000000000000000000815260040161083890611c67565b60405180910390fd5b815f5f8373ffffffffffffffffffffffffffffffffffffffff1673ffffffffffffffffffffffffffffffffffffffff1681526020019081526020015f206002015461088c9190611ace565b5f5f8373ffffffffffffffffffffffffffffffffffffffff1673ffffffffffffffffffffffffffffffffffffffff1681526020019081526020015f20600201819055505050565b5f5f90505f5f90505b600380549050811015610983575f600382815481106108fe576108fd611c85565b5b905f5260205f20015f9054906101000a900473ffffffffffffffffffffffffffffffffffffffff1690505f5f8273ffffffffffffffffffffffffffffffffffffffff1673ffffffffffffffffffffffffffffffffffffffff1681526020019081526020015f2060010154836109739190611b34565b92505080806001019150506108dc565b505f670de0b6b3a764000090505f5f8312156109ca5766038d7ea4c68000836109ab906118c3565b6109b59190611a25565b905080826109c39190611b01565b9150610a07565b5f831315610a065766038d7ea4c68000836109e59190611a25565b90508181106109f6575f9150610a05565b8082610a029190611ace565b91505b5b5b67016345785d8a0000821015610a235767016345785d8a000091505b674563918244f40000821115610a3f57674563918244f4000091505b816001819055507f999f531f5c660ea97b00b870fa2eaf696cf5c011cc53c3a68a866585105d6e568284604051610a77929190611cb2565b60405180910390a1505050565b565b5f8111610ac8576040517f08c379a0000000000000000000000000000000000000000000000000000000008152600401610abf90611d23565b60405180910390fd5b5f73ffffffffffffffffffffffffffffffffffffffff168273ffffffffffffffffffffffffffffffffffffffff1603610b36576040517f08c379a0000000000000000000000000000000000000000000000000000000008152600401610b2d90611d8b565b60405180910390fd5b3373ffffffffffffffffffffffffffffffffffffffff168273ffffffffffffffffffffffffffffffffffffffff1603610ba4576040517f08c379a0000000000000000000000000000000000000000000000000000000008152600401610b9b90611df3565b60405180910390fd5b5f5f5f3373ffffffffffffffffffffffffffffffffffffffff1673ffffffffffffffffffffffffffffffffffffffff1681526020019081526020015f2090505f5f5f8573ffffffffffffffffffffffffffffffffffffffff1673ffffffffffffffffffffffffffffffffffffffff1681526020019081526020015f209050816003015f9054906101000a900460ff16610c72576040517f08c379a0000000000000000000000000000000000000000000000000000000008152600401610c69906117a8565b60405180910390fd5b806003015f9054906101000a900460ff16610cc2576040517f08c379a0000000000000000000000000000000000000000000000000000000008152600401610cb990611740565b60405180910390fd5b5f826001015413610d08576040517f08c379a0000000000000000000000000000000000000000000000000000000008152600401610cff90611878565b60405180910390fd5b5f816001015412610d4e576040517f08c379a0000000000000000000000000000000000000000000000000000000008152600401610d4590611810565b60405180910390fd5b5f8260010154905080841115610d99576040517f08c379a0000000000000000000000000000000000000000000000000000000008152600401610d9090611e5b565b60405180910390fd5b5f8260010154610da8906118c3565b905080851115610ded576040517f08c379a0000000000000000000000000000000000000000000000000000000008152600401610de490611ec3565b60405180910390fd5b5f60015486610dfc9190611a25565b90508084600201541015610e45576040517f08c379a0000000000000000000000000000000000000000000000000000000008152600401610e3c90611ab0565b60405180910390fd5b80846002015f828254610e589190611ace565b9250508190555080856002015f828254610e729190611b01565b9250508190555085856001015f828254610e8c9190611b75565b9250508190555085846001015f828254610ea69190611b34565b9250508190555050505050505050565b5f47905090565b5f5f3373ffffffffffffffffffffffffffffffffffffffff1673ffffffffffffffffffffffffffffffffffffffff1681526020019081526020015f206003015f9054906101000a900460ff1615610f49576040517f08c379a0000000000000000000000000000000000000000000000000000000008152600401610f4090611f2b565b60405180910390fd5b60405180608001604052803373ffffffffffffffffffffffffffffffffffffffff1681526020015f81526020015f8152602001600115158152505f5f3373ffffffffffffffffffffffffffffffffffffffff1673ffffffffffffffffffffffffffffffffffffffff1681526020019081526020015f205f820151815f015f6101000a81548173ffffffffffffffffffffffffffffffffffffffff021916908373ffffffffffffffffffffffffffffffffffffffff16021790555060208201518160010155604082015181600201556060820151816003015f6101000a81548160ff021916908315150217905550905050600333908060018154018082558091505060019003905f5260205f20015f9091909190916101000a81548173ffffffffffffffffffffffffffffffffffffffff021916908373ffffffffffffffffffffffffffffffffffffffff160217905550565b5f60025f9054906101000a900473ffffffffffffffffffffffffffffffffffffffff16905090565b600381815481106110d2575f80fd5b905f5260205f20015f915054906101000a900473ffffffffffffffffffffffffffffffffffffffff1681565b5f600154905090565b60025f9054906101000a900473ffffffffffffffffffffffffffffffffffffffff1673ffffffffffffffffffffffffffffffffffffffff163373ffffffffffffffffffffffffffffffffffffffff1614611196576040517f08c379a000000000000000000000000000000000000000000000000000000000815260040161118d90611fb9565b60405180910390fd5b5f5f8373ffffffffffffffffffffffffffffffffffffffff1673ffffffffffffffffffffffffffffffffffffffff1681526020019081526020015f206003015f9054906101000a900460ff16611221576040517f08c379a000000000000000000000000000000000000000000000000000000000815260040161121890611bff565b60405180910390fd5b805f5f8473ffffffffffffffffffffffffffffffffffffffff1673ffffffffffffffffffffffffffffffffffffffff1681526020019081526020015f206001015f82825461126f9190611b34565b925050819055505050565b5f5f3373ffffffffffffffffffffffffffffffffffffffff1673ffffffffffffffffffffffffffffffffffffffff1681526020019081526020015f206003015f9054906101000a900460ff16611305576040517f08c379a00000000000000000000000000000000000000000000000000000000081526004016112fc90611bff565b60405180910390fd5b345f5f3373ffffffffffffffffffffffffffffffffffffffff1673ffffffffffffffffffffffffffffffffffffffff1681526020019081526020015f206002015f8282546113539190611b01565b92505081905550565b5f5ffd5b5f73ffffffffffffffffffffffffffffffffffffffff82169050919050565b5f61138982611360565b9050919050565b6113998161137f565b81146113a3575f5ffd5b50565b5f813590506113b481611390565b92915050565b5f819050919050565b6113cc816113ba565b81146113d6575f5ffd5b50565b5f813590506113e7816113c3565b92915050565b5f5f604083850312156114035761140261135c565b5b5f611410858286016113a6565b9250506020611421858286016113d9565b9150509250929050565b5f602082840312156114405761143f61135c565b5b5f61144d848285016113a6565b91505092915050565b61145f8161137f565b82525050565b5f819050919050565b61147781611465565b82525050565b611486816113ba565b82525050565b5f8115159050919050565b6114a08161148c565b82525050565b5f6080820190506114b95f830187611456565b6114c6602083018661146e565b6114d3604083018561147d565b6114e06060830184611497565b95945050505050565b5f602082840312156114fe576114fd61135c565b5b5f61150b848285016113d9565b91505092915050565b5f6020820190506115275f83018461147d565b92915050565b5f6020820190506115405f830184611456565b92915050565b61154f81611465565b8114611559575f5ffd5b50565b5f8135905061156a81611546565b92915050565b5f5f604083850312156115865761158561135c565b5b5f611593858286016113a6565b92505060206115a48582860161155c565b9150509250929050565b5f82825260208201905092915050565b7f52657175657374656420656e65726779206d757374206265203e2030000000005f82015250565b5f6115f2601c836115ae565b91506115fd826115be565b602082019050919050565b5f6020820190508181035f83015261161f816115e6565b9050919050565b7f496e76616c69642073656c6c65720000000000000000000000000000000000005f82015250565b5f61165a600e836115ae565b915061166582611626565b602082019050919050565b5f6020820190508181035f8301526116878161164e565b9050919050565b7f43616e6e6f74206275792066726f6d2073656c660000000000000000000000005f82015250565b5f6116c26014836115ae565b91506116cd8261168e565b602082019050919050565b5f6020820190508181035f8301526116ef816116b6565b9050919050565b7f4275796572206e6f7420726567697374657265640000000000000000000000005f82015250565b5f61172a6014836115ae565b9150611735826116f6565b602082019050919050565b5f6020820190508181035f8301526117578161171e565b9050919050565b7f53656c6c6572206e6f74207265676973746572656400000000000000000000005f82015250565b5f6117926015836115ae565b915061179d8261175e565b602082019050919050565b5f6020820190508181035f8301526117bf81611786565b9050919050565b7f4275796572206973206e6f7420696e20646566696369740000000000000000005f82015250565b5f6117fa6017836115ae565b9150611805826117c6565b602082019050919050565b5f6020820190508181035f830152611827816117ee565b9050919050565b7f53656c6c6572206973206e6f7420696e20737572706c757300000000000000005f82015250565b5f6118626018836115ae565b915061186d8261182e565b602082019050919050565b5f6020820190508181035f83015261188f81611856565b9050919050565b7f4e487b71000000000000000000000000000000000000000000000000000000005f52601160045260245ffd5b5f6118cd82611465565b91507f800000000000000000000000000000000000000000000000000000000000000082036118ff576118fe611896565b5b815f039050919050565b7f52657175657374656420656e65726779206578636565647320627579657220645f8201527f6566696369740000000000000000000000000000000000000000000000000000602082015250565b5f6119636026836115ae565b915061196e82611909565b604082019050919050565b5f6020820190508181035f83015261199081611957565b9050919050565b7f52657175657374656420656e6572677920657863656564732073656c6c6572205f8201527f737572706c757300000000000000000000000000000000000000000000000000602082015250565b5f6119f16027836115ae565b91506119fc82611997565b604082019050919050565b5f6020820190508181035f830152611a1e816119e5565b9050919050565b5f611a2f826113ba565b9150611a3a836113ba565b9250828202611a48816113ba565b91508282048414831517611a5f57611a5e611896565b5b5092915050565b7f496e73756666696369656e742062757965722062616c616e63650000000000005f82015250565b5f611a9a601a836115ae565b9150611aa582611a66565b602082019050919050565b5f6020820190508181035f830152611ac781611a8e565b9050919050565b5f611ad8826113ba565b9150611ae3836113ba565b9250828203905081811115611afb57611afa611896565b5b92915050565b5f611b0b826113ba565b9150611b16836113ba565b9250828201905080821115611b2e57611b2d611896565b5b92915050565b5f611b3e82611465565b9150611b4983611465565b92508282019050828112155f8312168382125f841215161715611b6f57611b6e611896565b5b92915050565b5f611b7f82611465565b9150611b8a83611465565b925082820390508181125f8412168282135f851215161715611baf57611bae611896565b5b92915050565b7f50726f73756d6572206e6f7420726567697374657265640000000000000000005f82015250565b5f611be96017836115ae565b9150611bf482611bb5565b602082019050919050565b5f6020820190508181035f830152611c1681611bdd565b9050919050565b7f50726f73756d65722068617320616e20656e65726779206465666963697400005f82015250565b5f611c51601e836115ae565b9150611c5c82611c1d565b602082019050919050565b5f6020820190508181035f830152611c7e81611c45565b9050919050565b7f4e487b71000000000000000000000000000000000000000000000000000000005f52603260045260245ffd5b5f604082019050611cc55f83018561147d565b611cd2602083018461146e565b9392505050565b7f4f66666572656420656e65726779206d757374206265203e20300000000000005f82015250565b5f611d0d601a836115ae565b9150611d1882611cd9565b602082019050919050565b5f6020820190508181035f830152611d3a81611d01565b9050919050565b7f496e76616c6964206275796572000000000000000000000000000000000000005f82015250565b5f611d75600d836115ae565b9150611d8082611d41565b602082019050919050565b5f6020820190508181035f830152611da281611d69565b9050919050565b7f43616e6e6f742073656c6c20746f2073656c66000000000000000000000000005f82015250565b5f611ddd6013836115ae565b9150611de882611da9565b602082019050919050565b5f6020820190508181035f830152611e0a81611dd1565b9050919050565b7f4f66666572656420657863656564732073656c6c657220737572706c757300005f82015250565b5f611e45601e836115ae565b9150611e5082611e11565b602082019050919050565b5f6020820190508181035f830152611e7281611e39565b9050919050565b7f4f666665726564206578636565647320627579657220646566696369740000005f82015250565b5f611ead601d836115ae565b9150611eb882611e79565b602082019050919050565b5f6020820190508181035f830152611eda81611ea1565b9050919050565b7f50726f73756d657220616c7265616479207265676973746572656421000000005f82015250565b5f611f15601c836115ae565b9150611f2082611ee1565b602082019050919050565b5f6020820190508181035f830152611f4281611f09565b9050919050565b7f4f6e6c79207265636f726465722063616e2075706461746520656e65726779205f8201527f7374617475730000000000000000000000000000000000000000000000000000602082015250565b5f611fa36026836115ae565b9150611fae82611f49565b604082019050919050565b5f6020820190508181035f830152611fd081611f97565b905091905056fea2646970667358221220a7c67fe4b2041709dbc26452f5f009eba6940256fadca1d07908cb67954757ad64736f6c634300081e0033",
					"opcodes": "PUSH1 0x80 PUSH1 0x40 MSTORE PUSH1 0x40 MLOAD PUSH2 0x211D CODESIZE SUB DUP1 PUSH2 0x211D DUP4 CODECOPY DUP2 DUP2 ADD PUSH1 0x40 MSTORE DUP2 ADD SWAP1 PUSH2 0x25 SWAP2 SWAP1 PUSH2 0xD8 JUMP JUMPDEST DUP1 PUSH1 0x2 PUSH0 PUSH2 0x100 EXP DUP2 SLOAD DUP2 PUSH20 0xFFFFFFFFFFFFFFFFFFFFFFFFFFFFFFFFFFFFFFFF MUL NOT AND SWAP1 DUP4 PUSH20 0xFFFFFFFFFFFFFFFFFFFFFFFFFFFFFFFFFFFFFFFF AND MUL OR SWAP1 SSTORE POP PUSH8 0xDE0B6B3A7640000 PUSH1 0x1 DUP2 SWAP1 SSTORE POP POP PUSH2 0x103 JUMP JUMPDEST PUSH0 PUSH0 REVERT JUMPDEST PUSH0 PUSH20 0xFFFFFFFFFFFFFFFFFFFFFFFFFFFFFFFFFFFFFFFF DUP3 AND SWAP1 POP SWAP2 SWAP1 POP JUMP JUMPDEST PUSH0 PUSH2 0xA7 DUP3 PUSH2 0x7E JUMP JUMPDEST SWAP1 POP SWAP2 SWAP1 POP JUMP JUMPDEST PUSH2 0xB7 DUP2 PUSH2 0x9D JUMP JUMPDEST DUP2 EQ PUSH2 0xC1 JUMPI PUSH0 PUSH0 REVERT JUMPDEST POP JUMP JUMPDEST PUSH0 DUP2 MLOAD SWAP1 POP PUSH2 0xD2 DUP2 PUSH2 0xAE JUMP JUMPDEST SWAP3 SWAP2 POP POP JUMP JUMPDEST PUSH0 PUSH1 0x20 DUP3 DUP5 SUB SLT ISZERO PUSH2 0xED JUMPI PUSH2 0xEC PUSH2 0x7A JUMP JUMPDEST JUMPDEST PUSH0 PUSH2 0xFA DUP5 DUP3 DUP6 ADD PUSH2 0xC4 JUMP JUMPDEST SWAP2 POP POP SWAP3 SWAP2 POP POP JUMP JUMPDEST PUSH2 0x200D DUP1 PUSH2 0x110 PUSH0 CODECOPY PUSH0 RETURN INVALID PUSH1 0x80 PUSH1 0x40 MSTORE PUSH1 0x4 CALLDATASIZE LT PUSH2 0xC1 JUMPI PUSH0 CALLDATALOAD PUSH1 0xE0 SHR DUP1 PUSH4 0x8B7AFE2E GT PUSH2 0x7E JUMPI DUP1 PUSH4 0xB8510A96 GT PUSH2 0x58 JUMPI DUP1 PUSH4 0xB8510A96 EQ PUSH2 0x212 JUMPI DUP1 PUSH4 0xCAB0F335 EQ PUSH2 0x24E JUMPI DUP1 PUSH4 0xCB2FD8DB EQ PUSH2 0x278 JUMPI DUP1 PUSH4 0xD0E30DB0 EQ PUSH2 0x2A0 JUMPI PUSH2 0xC1 JUMP JUMPDEST DUP1 PUSH4 0x8B7AFE2E EQ PUSH2 0x1A8 JUMPI DUP1 PUSH4 0xA3818880 EQ PUSH2 0x1D2 JUMPI DUP1 PUSH4 0xB6C3AFCA EQ PUSH2 0x1E8 JUMPI PUSH2 0xC1 JUMP JUMPDEST DUP1 PUSH4 0xF0FE598 EQ PUSH2 0xC5 JUMPI DUP1 PUSH4 0x2C8D7C32 EQ PUSH2 0xED JUMPI DUP1 PUSH4 0x2E1A7D4D EQ PUSH2 0x12C JUMPI DUP1 PUSH4 0x2FBBF123 EQ PUSH2 0x154 JUMPI DUP1 PUSH4 0x45F80251 EQ PUSH2 0x16A JUMPI DUP1 PUSH4 0x7A6EDB28 EQ PUSH2 0x180 JUMPI JUMPDEST PUSH0 PUSH0 REVERT JUMPDEST CALLVALUE DUP1 ISZERO PUSH2 0xD0 JUMPI PUSH0 PUSH0 REVERT JUMPDEST POP PUSH2 0xEB PUSH1 0x4 DUP1 CALLDATASIZE SUB DUP2 ADD SWAP1 PUSH2 0xE6 SWAP2 SWAP1 PUSH2 0x13ED JUMP JUMPDEST PUSH2 0x2AA JUMP JUMPDEST STOP JUMPDEST CALLVALUE DUP1 ISZERO PUSH2 0xF8 JUMPI PUSH0 PUSH0 REVERT JUMPDEST POP PUSH2 0x113 PUSH1 0x4 DUP1 CALLDATASIZE SUB DUP2 ADD SWAP1 PUSH2 0x10E SWAP2 SWAP1 PUSH2 0x142B JUMP JUMPDEST PUSH2 0x6DA JUMP JUMPDEST PUSH1 0x40 MLOAD PUSH2 0x123 SWAP5 SWAP4 SWAP3 SWAP2 SWAP1 PUSH2 0x14A6 JUMP JUMPDEST PUSH1 0x40 MLOAD DUP1 SWAP2 SUB SWAP1 RETURN JUMPDEST CALLVALUE DUP1 ISZERO PUSH2 0x137 JUMPI PUSH0 PUSH0 REVERT JUMPDEST POP PUSH2 0x152 PUSH1 0x4 DUP1 CALLDATASIZE SUB DUP2 ADD SWAP1 PUSH2 0x14D SWAP2 SWAP1 PUSH2 0x14E9 JUMP JUMPDEST PUSH2 0x730 JUMP JUMPDEST STOP JUMPDEST CALLVALUE DUP1 ISZERO PUSH2 0x15F JUMPI PUSH0 PUSH0 REVERT JUMPDEST POP PUSH2 0x168 PUSH2 0x8D3 JUMP JUMPDEST STOP JUMPDEST CALLVALUE DUP1 ISZERO PUSH2 0x175 JUMPI PUSH0 PUSH0 REVERT JUMPDEST POP PUSH2 0x17E PUSH2 0xA84 JUMP JUMPDEST STOP JUMPDEST CALLVALUE DUP1 ISZERO PUSH2 0x18B JUMPI PUSH0 PUSH0 REVERT JUMPDEST POP PUSH2 0x1A6 PUSH1 0x4 DUP1 CALLDATASIZE SUB DUP2 ADD SWAP1 PUSH2 0x1A1 SWAP2 SWAP1 PUSH2 0x13ED JUMP JUMPDEST PUSH2 0xA86 JUMP JUMPDEST STOP JUMPDEST CALLVALUE DUP1 ISZERO PUSH2 0x1B3 JUMPI PUSH0 PUSH0 REVERT JUMPDEST POP PUSH2 0x1BC PUSH2 0xEB6 JUMP JUMPDEST PUSH1 0x40 MLOAD PUSH2 0x1C9 SWAP2 SWAP1 PUSH2 0x1514 JUMP JUMPDEST PUSH1 0x40 MLOAD DUP1 SWAP2 SUB SWAP1 RETURN JUMPDEST CALLVALUE DUP1 ISZERO PUSH2 0x1DD JUMPI PUSH0 PUSH0 REVERT JUMPDEST POP PUSH2 0x1E6 PUSH2 0xEBD JUMP JUMPDEST STOP JUMPDEST CALLVALUE DUP1 ISZERO PUSH2 0x1F3 JUMPI PUSH0 PUSH0 REVERT JUMPDEST POP PUSH2 0x1FC PUSH2 0x109B JUMP JUMPDEST PUSH1 0x40 MLOAD PUSH2 0x209 SWAP2 SWAP1 PUSH2 0x152D JUMP JUMPDEST PUSH1 0x40 MLOAD DUP1 SWAP2 SUB SWAP1 RETURN JUMPDEST CALLVALUE DUP1 ISZERO PUSH2 0x21D JUMPI PUSH0 PUSH0 REVERT JUMPDEST POP PUSH2 0x238 PUSH1 0x4 DUP1 CALLDATASIZE SUB DUP2 ADD SWAP1 PUSH2 0x233 SWAP2 SWAP1 PUSH2 0x14E9 JUMP JUMPDEST PUSH2 0x10C3 JUMP JUMPDEST PUSH1 0x40 MLOAD PUSH2 0x245 SWAP2 SWAP1 PUSH2 0x152D JUMP JUMPDEST PUSH1 0x40 MLOAD DUP1 SWAP2 SUB SWAP1 RETURN JUMPDEST CALLVALUE DUP1 ISZERO PUSH2 0x259 JUMPI PUSH0 PUSH0 REVERT JUMPDEST POP PUSH2 0x262 PUSH2 0x10FE JUMP JUMPDEST PUSH1 0x40 MLOAD PUSH2 0x26F SWAP2 SWAP1 PUSH2 0x1514 JUMP JUMPDEST PUSH1 0x40 MLOAD DUP1 SWAP2 SUB SWAP1 RETURN JUMPDEST CALLVALUE DUP1 ISZERO PUSH2 0x283 JUMPI PUSH0 PUSH0 REVERT JUMPDEST POP PUSH2 0x29E PUSH1 0x4 DUP1 CALLDATASIZE SUB DUP2 ADD SWAP1 PUSH2 0x299 SWAP2 SWAP1 PUSH2 0x1570 JUMP JUMPDEST PUSH2 0x1107 JUMP JUMPDEST STOP JUMPDEST PUSH2 0x2A8 PUSH2 0x127A JUMP JUMPDEST STOP JUMPDEST PUSH0 DUP2 GT PUSH2 0x2EC JUMPI PUSH1 0x40 MLOAD PUSH32 0x8C379A000000000000000000000000000000000000000000000000000000000 DUP2 MSTORE PUSH1 0x4 ADD PUSH2 0x2E3 SWAP1 PUSH2 0x1608 JUMP JUMPDEST PUSH1 0x40 MLOAD DUP1 SWAP2 SUB SWAP1 REVERT JUMPDEST PUSH0 PUSH20 0xFFFFFFFFFFFFFFFFFFFFFFFFFFFFFFFFFFFFFFFF AND DUP3 PUSH20 0xFFFFFFFFFFFFFFFFFFFFFFFFFFFFFFFFFFFFFFFF AND SUB PUSH2 0x35A JUMPI PUSH1 0x40 MLOAD PUSH32 0x8C379A000000000000000000000000000000000000000000000000000000000 DUP2 MSTORE PUSH1 0x4 ADD PUSH2 0x351 SWAP1 PUSH2 0x1670 JUMP JUMPDEST PUSH1 0x40 MLOAD DUP1 SWAP2 SUB SWAP1 REVERT JUMPDEST CALLER PUSH20 0xFFFFFFFFFFFFFFFFFFFFFFFFFFFFFFFFFFFFFFFF AND DUP3 PUSH20 0xFFFFFFFFFFFFFFFFFFFFFFFFFFFFFFFFFFFFFFFF AND SUB PUSH2 0x3C8 JUMPI PUSH1 0x40 MLOAD PUSH32 0x8C379A000000000000000000000000000000000000000000000000000000000 DUP2 MSTORE PUSH1 0x4 ADD PUSH2 0x3BF SWAP1 PUSH2 0x16D8 JUMP JUMPDEST PUSH1 0x40 MLOAD DUP1 SWAP2 SUB SWAP1 REVERT JUMPDEST PUSH0 PUSH0 PUSH0 CALLER PUSH20 0xFFFFFFFFFFFFFFFFFFFFFFFFFFFFFFFFFFFFFFFF AND PUSH20 0xFFFFFFFFFFFFFFFFFFFFFFFFFFFFFFFFFFFFFFFF AND DUP2 MSTORE PUSH1 0x20 ADD SWAP1 DUP2 MSTORE PUSH1 0x20 ADD PUSH0 KECCAK256 SWAP1 POP PUSH0 PUSH0 PUSH0 DUP6 PUSH20 0xFFFFFFFFFFFFFFFFFFFFFFFFFFFFFFFFFFFFFFFF AND PUSH20 0xFFFFFFFFFFFFFFFFFFFFFFFFFFFFFFFFFFFFFFFF AND DUP2 MSTORE PUSH1 0x20 ADD SWAP1 DUP2 MSTORE PUSH1 0x20 ADD PUSH0 KECCAK256 SWAP1 POP DUP2 PUSH1 0x3 ADD PUSH0 SWAP1 SLOAD SWAP1 PUSH2 0x100 EXP SWAP1 DIV PUSH1 0xFF AND PUSH2 0x496 JUMPI PUSH1 0x40 MLOAD PUSH32 0x8C379A000000000000000000000000000000000000000000000000000000000 DUP2 MSTORE PUSH1 0x4 ADD PUSH2 0x48D SWAP1 PUSH2 0x1740 JUMP JUMPDEST PUSH1 0x40 MLOAD DUP1 SWAP2 SUB SWAP1 REVERT JUMPDEST DUP1 PUSH1 0x3 ADD PUSH0 SWAP1 SLOAD SWAP1 PUSH2 0x100 EXP SWAP1 DIV PUSH1 0xFF AND PUSH2 0x4E6 JUMPI PUSH1 0x40 MLOAD PUSH32 0x8C379A000000000000000000000000000000000000000000000000000000000 DUP2 MSTORE PUSH1 0x4 ADD PUSH2 0x4DD SWAP1 PUSH2 0x17A8 JUMP JUMPDEST PUSH1 0x40 MLOAD DUP1 SWAP2 SUB SWAP1 REVERT JUMPDEST PUSH0 DUP3 PUSH1 0x1 ADD SLOAD SLT PUSH2 0x52C JUMPI PUSH1 0x40 MLOAD PUSH32 0x8C379A000000000000000000000000000000000000000000000000000000000 DUP2 MSTORE PUSH1 0x4 ADD PUSH2 0x523 SWAP1 PUSH2 0x1810 JUMP JUMPDEST PUSH1 0x40 MLOAD DUP1 SWAP2 SUB SWAP1 REVERT JUMPDEST PUSH0 DUP2 PUSH1 0x1 ADD SLOAD SGT PUSH2 0x572 JUMPI PUSH1 0x40 MLOAD PUSH32 0x8C379A000000000000000000000000000000000000000000000000000000000 DUP2 MSTORE PUSH1 0x4 ADD PUSH2 0x569 SWAP1 PUSH2 0x1878 JUMP JUMPDEST PUSH1 0x40 MLOAD DUP1 SWAP2 SUB SWAP1 REVERT JUMPDEST PUSH0 DUP3 PUSH1 0x1 ADD SLOAD PUSH2 0x581 SWAP1 PUSH2 0x18C3 JUMP JUMPDEST SWAP1 POP DUP1 DUP5 GT ISZERO PUSH2 0x5C6 JUMPI PUSH1 0x40 MLOAD PUSH32 0x8C379A000000000000000000000000000000000000000000000000000000000 DUP2 MSTORE PUSH1 0x4 ADD PUSH2 0x5BD SWAP1 PUSH2 0x1979 JUMP JUMPDEST PUSH1 0x40 MLOAD DUP1 SWAP2 SUB SWAP1 REVERT JUMPDEST PUSH0 DUP3 PUSH1 0x1 ADD SLOAD SWAP1 POP DUP1 DUP6 GT ISZERO PUSH2 0x611 JUMPI PUSH1 0x40 MLOAD PUSH32 0x8C379A000000000000000000000000000000000000000000000000000000000 DUP2 MSTORE PUSH1 0x4 ADD PUSH2 0x608 SWAP1 PUSH2 0x1A07 JUMP JUMPDEST PUSH1 0x40 MLOAD DUP1 SWAP2 SUB SWAP1 REVERT JUMPDEST PUSH0 PUSH1 0x1 SLOAD DUP7 PUSH2 0x620 SWAP2 SWAP1 PUSH2 0x1A25 JUMP JUMPDEST SWAP1 POP DUP1 DUP6 PUSH1 0x2 ADD SLOAD LT ISZERO PUSH2 0x669 JUMPI PUSH1 0x40 MLOAD PUSH32 0x8C379A000000000000000000000000000000000000000000000000000000000 DUP2 MSTORE PUSH1 0x4 ADD PUSH2 0x660 SWAP1 PUSH2 0x1AB0 JUMP JUMPDEST PUSH1 0x40 MLOAD DUP1 SWAP2 SUB SWAP1 REVERT JUMPDEST DUP1 DUP6 PUSH1 0x2 ADD PUSH0 DUP3 DUP3 SLOAD PUSH2 0x67C SWAP2 SWAP1 PUSH2 0x1ACE JUMP JUMPDEST SWAP3 POP POP DUP2 SWAP1 SSTORE POP DUP1 DUP5 PUSH1 0x2 ADD PUSH0 DUP3 DUP3 SLOAD PUSH2 0x696 SWAP2 SWAP1 PUSH2 0x1B01 JUMP JUMPDEST SWAP3 POP POP DUP2 SWAP1 SSTORE POP DUP6 DUP6 PUSH1 0x1 ADD PUSH0 DUP3 DUP3 SLOAD PUSH2 0x6B0 SWAP2 SWAP1 PUSH2 0x1B34 JUMP JUMPDEST SWAP3 POP POP DUP2 SWAP1 SSTORE POP DUP6 DUP5 PUSH1 0x1 ADD PUSH0 DUP3 DUP3 SLOAD PUSH2 0x6CA SWAP2 SWAP1 PUSH2 0x1B75 JUMP JUMPDEST SWAP3 POP POP DUP2 SWAP1 SSTORE POP POP POP POP POP POP POP POP JUMP JUMPDEST PUSH0 PUSH1 0x20 MSTORE DUP1 PUSH0 MSTORE PUSH1 0x40 PUSH0 KECCAK256 PUSH0 SWAP2 POP SWAP1 POP DUP1 PUSH0 ADD PUSH0 SWAP1 SLOAD SWAP1 PUSH2 0x100 EXP SWAP1 DIV PUSH20 0xFFFFFFFFFFFFFFFFFFFFFFFFFFFFFFFFFFFFFFFF AND SWAP1 DUP1 PUSH1 0x1 ADD SLOAD SWAP1 DUP1 PUSH1 0x2 ADD SLOAD SWAP1 DUP1 PUSH1 0x3 ADD PUSH0 SWAP1 SLOAD SWAP1 PUSH2 0x100 EXP SWAP1 DIV PUSH1 0xFF AND SWAP1 POP DUP5 JUMP JUMPDEST PUSH0 CALLER SWAP1 POP PUSH0 PUSH0 DUP3 PUSH20 0xFFFFFFFFFFFFFFFFFFFFFFFFFFFFFFFFFFFFFFFF AND PUSH20 0xFFFFFFFFFFFFFFFFFFFFFFFFFFFFFFFFFFFFFFFF AND DUP2 MSTORE PUSH1 0x20 ADD SWAP1 DUP2 MSTORE PUSH1 0x20 ADD PUSH0 KECCAK256 PUSH1 0x3 ADD PUSH0 SWAP1 SLOAD SWAP1 PUSH2 0x100 EXP SWAP1 DIV PUSH1 0xFF AND PUSH2 0x7BF JUMPI PUSH1 0x40 MLOAD PUSH32 0x8C379A000000000000000000000000000000000000000000000000000000000 DUP2 MSTORE PUSH1 0x4 ADD PUSH2 0x7B6 SWAP1 PUSH2 0x1BFF JUMP JUMPDEST PUSH1 0x40 MLOAD DUP1 SWAP2 SUB SWAP1 REVERT JUMPDEST PUSH0 PUSH0 PUSH0 DUP4 PUSH20 0xFFFFFFFFFFFFFFFFFFFFFFFFFFFFFFFFFFFFFFFF AND PUSH20 0xFFFFFFFFFFFFFFFFFFFFFFFFFFFFFFFFFFFFFFFF AND DUP2 MSTORE PUSH1 0x20 ADD SWAP1 DUP2 MSTORE PUSH1 0x20 ADD PUSH0 KECCAK256 PUSH1 0x1 ADD SLOAD SLT ISZERO PUSH2 0x841 JUMPI PUSH1 0x40 MLOAD PUSH32 0x8C379A000000000000000000000000000000000000000000000000000000000 DUP2 MSTORE PUSH1 0x4 ADD PUSH2 0x838 SWAP1 PUSH2 0x1C67 JUMP JUMPDEST PUSH1 0x40 MLOAD DUP1 SWAP2 SUB SWAP1 REVERT JUMPDEST DUP2 PUSH0 PUSH0 DUP4 PUSH20 0xFFFFFFFFFFFFFFFFFFFFFFFFFFFFFFFFFFFFFFFF AND PUSH20 0xFFFFFFFFFFFFFFFFFFFFFFFFFFFFFFFFFFFFFFFF AND DUP2 MSTORE PUSH1 0x20 ADD SWAP1 DUP2 MSTORE PUSH1 0x20 ADD PUSH0 KECCAK256 PUSH1 0x2 ADD SLOAD PUSH2 0x88C SWAP2 SWAP1 PUSH2 0x1ACE JUMP JUMPDEST PUSH0 PUSH0 DUP4 PUSH20 0xFFFFFFFFFFFFFFFFFFFFFFFFFFFFFFFFFFFFFFFF AND PUSH20 0xFFFFFFFFFFFFFFFFFFFFFFFFFFFFFFFFFFFFFFFF AND DUP2 MSTORE PUSH1 0x20 ADD SWAP1 DUP2 MSTORE PUSH1 0x20 ADD PUSH0 KECCAK256 PUSH1 0x2 ADD DUP2 SWAP1 SSTORE POP POP POP JUMP JUMPDEST PUSH0 PUSH0 SWAP1 POP PUSH0 PUSH0 SWAP1 POP JUMPDEST PUSH1 0x3 DUP1 SLOAD SWAP1 POP DUP2 LT ISZERO PUSH2 0x983 JUMPI PUSH0 PUSH1 0x3 DUP3 DUP2 SLOAD DUP2 LT PUSH2 0x8FE JUMPI PUSH2 0x8FD PUSH2 0x1C85 JUMP JUMPDEST JUMPDEST SWAP1 PUSH0 MSTORE PUSH1 0x20 PUSH0 KECCAK256 ADD PUSH0 SWAP1 SLOAD SWAP1 PUSH2 0x100 EXP SWAP1 DIV PUSH20 0xFFFFFFFFFFFFFFFFFFFFFFFFFFFFFFFFFFFFFFFF AND SWAP1 POP PUSH0 PUSH0 DUP3 PUSH20 0xFFFFFFFFFFFFFFFFFFFFFFFFFFFFFFFFFFFFFFFF AND PUSH20 0xFFFFFFFFFFFFFFFFFFFFFFFFFFFFFFFFFFFFFFFF AND DUP2 MSTORE PUSH1 0x20 ADD SWAP1 DUP2 MSTORE PUSH1 0x20 ADD PUSH0 KECCAK256 PUSH1 0x1 ADD SLOAD DUP4 PUSH2 0x973 SWAP2 SWAP1 PUSH2 0x1B34 JUMP JUMPDEST SWAP3 POP POP DUP1 DUP1 PUSH1 0x1 ADD SWAP2 POP POP PUSH2 0x8DC JUMP JUMPDEST POP PUSH0 PUSH8 0xDE0B6B3A7640000 SWAP1 POP PUSH0 PUSH0 DUP4 SLT ISZERO PUSH2 0x9CA JUMPI PUSH7 0x38D7EA4C68000 DUP4 PUSH2 0x9AB SWAP1 PUSH2 0x18C3 JUMP JUMPDEST PUSH2 0x9B5 SWAP2 SWAP1 PUSH2 0x1A25 JUMP JUMPDEST SWAP1 POP DUP1 DUP3 PUSH2 0x9C3 SWAP2 SWAP1 PUSH2 0x1B01 JUMP JUMPDEST SWAP2 POP PUSH2 0xA07 JUMP JUMPDEST PUSH0 DUP4 SGT ISZERO PUSH2 0xA06 JUMPI PUSH7 0x38D7EA4C68000 DUP4 PUSH2 0x9E5 SWAP2 SWAP1 PUSH2 0x1A25 JUMP JUMPDEST SWAP1 POP DUP2 DUP2 LT PUSH2 0x9F6 JUMPI PUSH0 SWAP2 POP PUSH2 0xA05 JUMP JUMPDEST DUP1 DUP3 PUSH2 0xA02 SWAP2 SWAP1 PUSH2 0x1ACE JUMP JUMPDEST SWAP2 POP JUMPDEST JUMPDEST JUMPDEST PUSH8 0x16345785D8A0000 DUP3 LT ISZERO PUSH2 0xA23 JUMPI PUSH8 0x16345785D8A0000 SWAP2 POP JUMPDEST PUSH8 0x4563918244F40000 DUP3 GT ISZERO PUSH2 0xA3F JUMPI PUSH8 0x4563918244F40000 SWAP2 POP JUMPDEST DUP2 PUSH1 0x1 DUP2 SWAP1 SSTORE POP PUSH32 0x999F531F5C660EA97B00B870FA2EAF696CF5C011CC53C3A68A866585105D6E56 DUP3 DUP5 PUSH1 0x40 MLOAD PUSH2 0xA77 SWAP3 SWAP2 SWAP1 PUSH2 0x1CB2 JUMP JUMPDEST PUSH1 0x40 MLOAD DUP1 SWAP2 SUB SWAP1 LOG1 POP POP POP JUMP JUMPDEST JUMP JUMPDEST PUSH0 DUP2 GT PUSH2 0xAC8 JUMPI PUSH1 0x40 MLOAD PUSH32 0x8C379A000000000000000000000000000000000000000000000000000000000 DUP2 MSTORE PUSH1 0x4 ADD PUSH2 0xABF SWAP1 PUSH2 0x1D23 JUMP JUMPDEST PUSH1 0x40 MLOAD DUP1 SWAP2 SUB SWAP1 REVERT JUMPDEST PUSH0 PUSH20 0xFFFFFFFFFFFFFFFFFFFFFFFFFFFFFFFFFFFFFFFF AND DUP3 PUSH20 0xFFFFFFFFFFFFFFFFFFFFFFFFFFFFFFFFFFFFFFFF AND SUB PUSH2 0xB36 JUMPI PUSH1 0x40 MLOAD PUSH32 0x8C379A000000000000000000000000000000000000000000000000000000000 DUP2 MSTORE PUSH1 0x4 ADD PUSH2 0xB2D SWAP1 PUSH2 0x1D8B JUMP JUMPDEST PUSH1 0x40 MLOAD DUP1 SWAP2 SUB SWAP1 REVERT JUMPDEST CALLER PUSH20 0xFFFFFFFFFFFFFFFFFFFFFFFFFFFFFFFFFFFFFFFF AND DUP3 PUSH20 0xFFFFFFFFFFFFFFFFFFFFFFFFFFFFFFFFFFFFFFFF AND SUB PUSH2 0xBA4 JUMPI PUSH1 0x40 MLOAD PUSH32 0x8C379A000000000000000000000000000000000000000000000000000000000 DUP2 MSTORE PUSH1 0x4 ADD PUSH2 0xB9B SWAP1 PUSH2 0x1DF3 JUMP JUMPDEST PUSH1 0x40 MLOAD DUP1 SWAP2 SUB SWAP1 REVERT JUMPDEST PUSH0 PUSH0 PUSH0 CALLER PUSH20 0xFFFFFFFFFFFFFFFFFFFFFFFFFFFFFFFFFFFFFFFF AND PUSH20 0xFFFFFFFFFFFFFFFFFFFFFFFFFFFFFFFFFFFFFFFF AND DUP2 MSTORE PUSH1 0x20 ADD SWAP1 DUP2 MSTORE PUSH1 0x20 ADD PUSH0 KECCAK256 SWAP1 POP PUSH0 PUSH0 PUSH0 DUP6 PUSH20 0xFFFFFFFFFFFFFFFFFFFFFFFFFFFFFFFFFFFFFFFF AND PUSH20 0xFFFFFFFFFFFFFFFFFFFFFFFFFFFFFFFFFFFFFFFF AND DUP2 MSTORE PUSH1 0x20 ADD SWAP1 DUP2 MSTORE PUSH1 0x20 ADD PUSH0 KECCAK256 SWAP1 POP DUP2 PUSH1 0x3 ADD PUSH0 SWAP1 SLOAD SWAP1 PUSH2 0x100 EXP SWAP1 DIV PUSH1 0xFF AND PUSH2 0xC72 JUMPI PUSH1 0x40 MLOAD PUSH32 0x8C379A000000000000000000000000000000000000000000000000000000000 DUP2 MSTORE PUSH1 0x4 ADD PUSH2 0xC69 SWAP1 PUSH2 0x17A8 JUMP JUMPDEST PUSH1 0x40 MLOAD DUP1 SWAP2 SUB SWAP1 REVERT JUMPDEST DUP1 PUSH1 0x3 ADD PUSH0 SWAP1 SLOAD SWAP1 PUSH2 0x100 EXP SWAP1 DIV PUSH1 0xFF AND PUSH2 0xCC2 JUMPI PUSH1 0x40 MLOAD PUSH32 0x8C379A000000000000000000000000000000000000000000000000000000000 DUP2 MSTORE PUSH1 0x4 ADD PUSH2 0xCB9 SWAP1 PUSH2 0x1740 JUMP JUMPDEST PUSH1 0x40 MLOAD DUP1 SWAP2 SUB SWAP1 REVERT JUMPDEST PUSH0 DUP3 PUSH1 0x1 ADD SLOAD SGT PUSH2 0xD08 JUMPI PUSH1 0x40 MLOAD PUSH32 0x8C379A000000000000000000000000000000000000000000000000000000000 DUP2 MSTORE PUSH1 0x4 ADD PUSH2 0xCFF SWAP1 PUSH2 0x1878 JUMP JUMPDEST PUSH1 0x40 MLOAD DUP1 SWAP2 SUB SWAP1 REVERT JUMPDEST PUSH0 DUP2 PUSH1 0x1 ADD SLOAD SLT PUSH2 0xD4E JUMPI PUSH1 0x40 MLOAD PUSH32 0x8C379A000000000000000000000000000000000000000000000000000000000 DUP2 MSTORE PUSH1 0x4 ADD PUSH2 0xD45 SWAP1 PUSH2 0x1810 JUMP JUMPDEST PUSH1 0x40 MLOAD DUP1 SWAP2 SUB SWAP1 REVERT JUMPDEST PUSH0 DUP3 PUSH1 0x1 ADD SLOAD SWAP1 POP DUP1 DUP5 GT ISZERO PUSH2 0xD99 JUMPI PUSH1 0x40 MLOAD PUSH32 0x8C379A000000000000000000000000000000000000000000000000000000000 DUP2 MSTORE PUSH1 0x4 ADD PUSH2 0xD90 SWAP1 PUSH2 0x1E5B JUMP JUMPDEST PUSH1 0x40 MLOAD DUP1 SWAP2 SUB SWAP1 REVERT JUMPDEST PUSH0 DUP3 PUSH1 0x1 ADD SLOAD PUSH2 0xDA8 SWAP1 PUSH2 0x18C3 JUMP JUMPDEST SWAP1 POP DUP1 DUP6 GT ISZERO PUSH2 0xDED JUMPI PUSH1 0x40 MLOAD PUSH32 0x8C379A000000000000000000000000000000000000000000000000000000000 DUP2 MSTORE PUSH1 0x4 ADD PUSH2 0xDE4 SWAP1 PUSH2 0x1EC3 JUMP JUMPDEST PUSH1 0x40 MLOAD DUP1 SWAP2 SUB SWAP1 REVERT JUMPDEST PUSH0 PUSH1 0x1 SLOAD DUP7 PUSH2 0xDFC SWAP2 SWAP1 PUSH2 0x1A25 JUMP JUMPDEST SWAP1 POP DUP1 DUP5 PUSH1 0x2 ADD SLOAD LT ISZERO PUSH2 0xE45 JUMPI PUSH1 0x40 MLOAD PUSH32 0x8C379A000000000000000000000000000000000000000000000000000000000 DUP2 MSTORE PUSH1 0x4 ADD PUSH2 0xE3C SWAP1 PUSH2 0x1AB0 JUMP JUMPDEST PUSH1 0x40 MLOAD DUP1 SWAP2 SUB SWAP1 REVERT JUMPDEST DUP1 DUP5 PUSH1 0x2 ADD PUSH0 DUP3 DUP3 SLOAD PUSH2 0xE58 SWAP2 SWAP1 PUSH2 0x1ACE JUMP JUMPDEST SWAP3 POP POP DUP2 SWAP1 SSTORE POP DUP1 DUP6 PUSH1 0x2 ADD PUSH0 DUP3 DUP3 SLOAD PUSH2 0xE72 SWAP2 SWAP1 PUSH2 0x1B01 JUMP JUMPDEST SWAP3 POP POP DUP2 SWAP1 SSTORE POP DUP6 DUP6 PUSH1 0x1 ADD PUSH0 DUP3 DUP3 SLOAD PUSH2 0xE8C SWAP2 SWAP1 PUSH2 0x1B75 JUMP JUMPDEST SWAP3 POP POP DUP2 SWAP1 SSTORE POP DUP6 DUP5 PUSH1 0x1 ADD PUSH0 DUP3 DUP3 SLOAD PUSH2 0xEA6 SWAP2 SWAP1 PUSH2 0x1B34 JUMP JUMPDEST SWAP3 POP POP DUP2 SWAP1 SSTORE POP POP POP POP POP POP POP POP JUMP JUMPDEST PUSH0 SELFBALANCE SWAP1 POP SWAP1 JUMP JUMPDEST PUSH0 PUSH0 CALLER PUSH20 0xFFFFFFFFFFFFFFFFFFFFFFFFFFFFFFFFFFFFFFFF AND PUSH20 0xFFFFFFFFFFFFFFFFFFFFFFFFFFFFFFFFFFFFFFFF AND DUP2 MSTORE PUSH1 0x20 ADD SWAP1 DUP2 MSTORE PUSH1 0x20 ADD PUSH0 KECCAK256 PUSH1 0x3 ADD PUSH0 SWAP1 SLOAD SWAP1 PUSH2 0x100 EXP SWAP1 DIV PUSH1 0xFF AND ISZERO PUSH2 0xF49 JUMPI PUSH1 0x40 MLOAD PUSH32 0x8C379A000000000000000000000000000000000000000000000000000000000 DUP2 MSTORE PUSH1 0x4 ADD PUSH2 0xF40 SWAP1 PUSH2 0x1F2B JUMP JUMPDEST PUSH1 0x40 MLOAD DUP1 SWAP2 SUB SWAP1 REVERT JUMPDEST PUSH1 0x40 MLOAD DUP1 PUSH1 0x80 ADD PUSH1 0x40 MSTORE DUP1 CALLER PUSH20 0xFFFFFFFFFFFFFFFFFFFFFFFFFFFFFFFFFFFFFFFF AND DUP2 MSTORE PUSH1 0x20 ADD PUSH0 DUP2 MSTORE PUSH1 0x20 ADD PUSH0 DUP2 MSTORE PUSH1 0x20 ADD PUSH1 0x1 ISZERO ISZERO DUP2 MSTORE POP PUSH0 PUSH0 CALLER PUSH20 0xFFFFFFFFFFFFFFFFFFFFFFFFFFFFFFFFFFFFFFFF AND PUSH20 0xFFFFFFFFFFFFFFFFFFFFFFFFFFFFFFFFFFFFFFFF AND DUP2 MSTORE PUSH1 0x20 ADD SWAP1 DUP2 MSTORE PUSH1 0x20 ADD PUSH0 KECCAK256 PUSH0 DUP3 ADD MLOAD DUP2 PUSH0 ADD PUSH0 PUSH2 0x100 EXP DUP2 SLOAD DUP2 PUSH20 0xFFFFFFFFFFFFFFFFFFFFFFFFFFFFFFFFFFFFFFFF MUL NOT AND SWAP1 DUP4 PUSH20 0xFFFFFFFFFFFFFFFFFFFFFFFFFFFFFFFFFFFFFFFF AND MUL OR SWAP1 SSTORE POP PUSH1 0x20 DUP3 ADD MLOAD DUP2 PUSH1 0x1 ADD SSTORE PUSH1 0x40 DUP3 ADD MLOAD DUP2 PUSH1 0x2 ADD SSTORE PUSH1 0x60 DUP3 ADD MLOAD DUP2 PUSH1 0x3 ADD PUSH0 PUSH2 0x100 EXP DUP2 SLOAD DUP2 PUSH1 0xFF MUL NOT AND SWAP1 DUP4 ISZERO ISZERO MUL OR SWAP1 SSTORE POP SWAP1 POP POP PUSH1 0x3 CALLER SWAP1 DUP1 PUSH1 0x1 DUP2 SLOAD ADD DUP1 DUP3 SSTORE DUP1 SWAP2 POP POP PUSH1 0x1 SWAP1 SUB SWAP1 PUSH0 MSTORE PUSH1 0x20 PUSH0 KECCAK256 ADD PUSH0 SWAP1 SWAP2 SWAP1 SWAP2 SWAP1 SWAP2 PUSH2 0x100 EXP DUP2 SLOAD DUP2 PUSH20 0xFFFFFFFFFFFFFFFFFFFFFFFFFFFFFFFFFFFFFFFF MUL NOT AND SWAP1 DUP4 PUSH20 0xFFFFFFFFFFFFFFFFFFFFFFFFFFFFFFFFFFFFFFFF AND MUL OR SWAP1 SSTORE POP JUMP JUMPDEST PUSH0 PUSH1 0x2 PUSH0 SWAP1 SLOAD SWAP1 PUSH2 0x100 EXP SWAP1 DIV PUSH20 0xFFFFFFFFFFFFFFFFFFFFFFFFFFFFFFFFFFFFFFFF AND SWAP1 POP SWAP1 JUMP JUMPDEST PUSH1 0x3 DUP2 DUP2 SLOAD DUP2 LT PUSH2 0x10D2 JUMPI PUSH0 DUP1 REVERT JUMPDEST SWAP1 PUSH0 MSTORE PUSH1 0x20 PUSH0 KECCAK256 ADD PUSH0 SWAP2 POP SLOAD SWAP1 PUSH2 0x100 EXP SWAP1 DIV PUSH20 0xFFFFFFFFFFFFFFFFFFFFFFFFFFFFFFFFFFFFFFFF AND DUP2 JUMP JUMPDEST PUSH0 PUSH1 0x1 SLOAD SWAP1 POP SWAP1 JUMP JUMPDEST PUSH1 0x2 PUSH0 SWAP1 SLOAD SWAP1 PUSH2 0x100 EXP SWAP1 DIV PUSH20 0xFFFFFFFFFFFFFFFFFFFFFFFFFFFFFFFFFFFFFFFF AND PUSH20 0xFFFFFFFFFFFFFFFFFFFFFFFFFFFFFFFFFFFFFFFF AND CALLER PUSH20 0xFFFFFFFFFFFFFFFFFFFFFFFFFFFFFFFFFFFFFFFF AND EQ PUSH2 0x1196 JUMPI PUSH1 0x40 MLOAD PUSH32 0x8C379A000000000000000000000000000000000000000000000000000000000 DUP2 MSTORE PUSH1 0x4 ADD PUSH2 0x118D SWAP1 PUSH2 0x1FB9 JUMP JUMPDEST PUSH1 0x40 MLOAD DUP1 SWAP2 SUB SWAP1 REVERT JUMPDEST PUSH0 PUSH0 DUP4 PUSH20 0xFFFFFFFFFFFFFFFFFFFFFFFFFFFFFFFFFFFFFFFF AND PUSH20 0xFFFFFFFFFFFFFFFFFFFFFFFFFFFFFFFFFFFFFFFF AND DUP2 MSTORE PUSH1 0x20 ADD SWAP1 DUP2 MSTORE PUSH1 0x20 ADD PUSH0 KECCAK256 PUSH1 0x3 ADD PUSH0 SWAP1 SLOAD SWAP1 PUSH2 0x100 EXP SWAP1 DIV PUSH1 0xFF AND PUSH2 0x1221 JUMPI PUSH1 0x40 MLOAD PUSH32 0x8C379A000000000000000000000000000000000000000000000000000000000 DUP2 MSTORE PUSH1 0x4 ADD PUSH2 0x1218 SWAP1 PUSH2 0x1BFF JUMP JUMPDEST PUSH1 0x40 MLOAD DUP1 SWAP2 SUB SWAP1 REVERT JUMPDEST DUP1 PUSH0 PUSH0 DUP5 PUSH20 0xFFFFFFFFFFFFFFFFFFFFFFFFFFFFFFFFFFFFFFFF AND PUSH20 0xFFFFFFFFFFFFFFFFFFFFFFFFFFFFFFFFFFFFFFFF AND DUP2 MSTORE PUSH1 0x20 ADD SWAP1 DUP2 MSTORE PUSH1 0x20 ADD PUSH0 KECCAK256 PUSH1 0x1 ADD PUSH0 DUP3 DUP3 SLOAD PUSH2 0x126F SWAP2 SWAP1 PUSH2 0x1B34 JUMP JUMPDEST SWAP3 POP POP DUP2 SWAP1 SSTORE POP POP POP JUMP JUMPDEST PUSH0 PUSH0 CALLER PUSH20 0xFFFFFFFFFFFFFFFFFFFFFFFFFFFFFFFFFFFFFFFF AND PUSH20 0xFFFFFFFFFFFFFFFFFFFFFFFFFFFFFFFFFFFFFFFF AND DUP2 MSTORE PUSH1 0x20 ADD SWAP1 DUP2 MSTORE PUSH1 0x20 ADD PUSH0 KECCAK256 PUSH1 0x3 ADD PUSH0 SWAP1 SLOAD SWAP1 PUSH2 0x100 EXP SWAP1 DIV PUSH1 0xFF AND PUSH2 0x1305 JUMPI PUSH1 0x40 MLOAD PUSH32 0x8C379A000000000000000000000000000000000000000000000000000000000 DUP2 MSTORE PUSH1 0x4 ADD PUSH2 0x12FC SWAP1 PUSH2 0x1BFF JUMP JUMPDEST PUSH1 0x40 MLOAD DUP1 SWAP2 SUB SWAP1 REVERT JUMPDEST CALLVALUE PUSH0 PUSH0 CALLER PUSH20 0xFFFFFFFFFFFFFFFFFFFFFFFFFFFFFFFFFFFFFFFF AND PUSH20 0xFFFFFFFFFFFFFFFFFFFFFFFFFFFFFFFFFFFFFFFF AND DUP2 MSTORE PUSH1 0x20 ADD SWAP1 DUP2 MSTORE PUSH1 0x20 ADD PUSH0 KECCAK256 PUSH1 0x2 ADD PUSH0 DUP3 DUP3 SLOAD PUSH2 0x1353 SWAP2 SWAP1 PUSH2 0x1B01 JUMP JUMPDEST SWAP3 POP POP DUP2 SWAP1 SSTORE POP JUMP JUMPDEST PUSH0 PUSH0 REVERT JUMPDEST PUSH0 PUSH20 0xFFFFFFFFFFFFFFFFFFFFFFFFFFFFFFFFFFFFFFFF DUP3 AND SWAP1 POP SWAP2 SWAP1 POP JUMP JUMPDEST PUSH0 PUSH2 0x1389 DUP3 PUSH2 0x1360 JUMP JUMPDEST SWAP1 POP SWAP2 SWAP1 POP JUMP JUMPDEST PUSH2 0x1399 DUP2 PUSH2 0x137F JUMP JUMPDEST DUP2 EQ PUSH2 0x13A3 JUMPI PUSH0 PUSH0 REVERT JUMPDEST POP JUMP JUMPDEST PUSH0 DUP2 CALLDATALOAD SWAP1 POP PUSH2 0x13B4 DUP2 PUSH2 0x1390 JUMP JUMPDEST SWAP3 SWAP2 POP POP JUMP JUMPDEST PUSH0 DUP2 SWAP1 POP SWAP2 SWAP1 POP JUMP JUMPDEST PUSH2 0x13CC DUP2 PUSH2 0x13BA JUMP JUMPDEST DUP2 EQ PUSH2 0x13D6 JUMPI PUSH0 PUSH0 REVERT JUMPDEST POP JUMP JUMPDEST PUSH0 DUP2 CALLDATALOAD SWAP1 POP PUSH2 0x13E7 DUP2 PUSH2 0x13C3 JUMP JUMPDEST SWAP3 SWAP2 POP POP JUMP JUMPDEST PUSH0 PUSH0 PUSH1 0x40 DUP4 DUP6 SUB SLT ISZERO PUSH2 0x1403 JUMPI PUSH2 0x1402 PUSH2 0x135C JUMP JUMPDEST JUMPDEST PUSH0 PUSH2 0x1410 DUP6 DUP3 DUP7 ADD PUSH2 0x13A6 JUMP JUMPDEST SWAP3 POP POP PUSH1 0x20 PUSH2 0x1421 DUP6 DUP3 DUP7 ADD PUSH2 0x13D9 JUMP JUMPDEST SWAP2 POP POP SWAP3 POP SWAP3 SWAP1 POP JUMP JUMPDEST PUSH0 PUSH1 0x20 DUP3 DUP5 SUB SLT ISZERO PUSH2 0x1440 JUMPI PUSH2 0x143F PUSH2 0x135C JUMP JUMPDEST JUMPDEST PUSH0 PUSH2 0x144D DUP5 DUP3 DUP6 ADD PUSH2 0x13A6 JUMP JUMPDEST SWAP2 POP POP SWAP3 SWAP2 POP POP JUMP JUMPDEST PUSH2 0x145F DUP2 PUSH2 0x137F JUMP JUMPDEST DUP3 MSTORE POP POP JUMP JUMPDEST PUSH0 DUP2 SWAP1 POP SWAP2 SWAP1 POP JUMP JUMPDEST PUSH2 0x1477 DUP2 PUSH2 0x1465 JUMP JUMPDEST DUP3 MSTORE POP POP JUMP JUMPDEST PUSH2 0x1486 DUP2 PUSH2 0x13BA JUMP JUMPDEST DUP3 MSTORE POP POP JUMP JUMPDEST PUSH0 DUP2 ISZERO ISZERO SWAP1 POP SWAP2 SWAP1 POP JUMP JUMPDEST PUSH2 0x14A0 DUP2 PUSH2 0x148C JUMP JUMPDEST DUP3 MSTORE POP POP JUMP JUMPDEST PUSH0 PUSH1 0x80 DUP3 ADD SWAP1 POP PUSH2 0x14B9 PUSH0 DUP4 ADD DUP8 PUSH2 0x1456 JUMP JUMPDEST PUSH2 0x14C6 PUSH1 0x20 DUP4 ADD DUP7 PUSH2 0x146E JUMP JUMPDEST PUSH2 0x14D3 PUSH1 0x40 DUP4 ADD DUP6 PUSH2 0x147D JUMP JUMPDEST PUSH2 0x14E0 PUSH1 0x60 DUP4 ADD DUP5 PUSH2 0x1497 JUMP JUMPDEST SWAP6 SWAP5 POP POP POP POP POP JUMP JUMPDEST PUSH0 PUSH1 0x20 DUP3 DUP5 SUB SLT ISZERO PUSH2 0x14FE JUMPI PUSH2 0x14FD PUSH2 0x135C JUMP JUMPDEST JUMPDEST PUSH0 PUSH2 0x150B DUP5 DUP3 DUP6 ADD PUSH2 0x13D9 JUMP JUMPDEST SWAP2 POP POP SWAP3 SWAP2 POP POP JUMP JUMPDEST PUSH0 PUSH1 0x20 DUP3 ADD SWAP1 POP PUSH2 0x1527 PUSH0 DUP4 ADD DUP5 PUSH2 0x147D JUMP JUMPDEST SWAP3 SWAP2 POP POP JUMP JUMPDEST PUSH0 PUSH1 0x20 DUP3 ADD SWAP1 POP PUSH2 0x1540 PUSH0 DUP4 ADD DUP5 PUSH2 0x1456 JUMP JUMPDEST SWAP3 SWAP2 POP POP JUMP JUMPDEST PUSH2 0x154F DUP2 PUSH2 0x1465 JUMP JUMPDEST DUP2 EQ PUSH2 0x1559 JUMPI PUSH0 PUSH0 REVERT JUMPDEST POP JUMP JUMPDEST PUSH0 DUP2 CALLDATALOAD SWAP1 POP PUSH2 0x156A DUP2 PUSH2 0x1546 JUMP JUMPDEST SWAP3 SWAP2 POP POP JUMP JUMPDEST PUSH0 PUSH0 PUSH1 0x40 DUP4 DUP6 SUB SLT ISZERO PUSH2 0x1586 JUMPI PUSH2 0x1585 PUSH2 0x135C JUMP JUMPDEST JUMPDEST PUSH0 PUSH2 0x1593 DUP6 DUP3 DUP7 ADD PUSH2 0x13A6 JUMP JUMPDEST SWAP3 POP POP PUSH1 0x20 PUSH2 0x15A4 DUP6 DUP3 DUP7 ADD PUSH2 0x155C JUMP JUMPDEST SWAP2 POP POP SWAP3 POP SWAP3 SWAP1 POP JUMP JUMPDEST PUSH0 DUP3 DUP3 MSTORE PUSH1 0x20 DUP3 ADD SWAP1 POP SWAP3 SWAP2 POP POP JUMP JUMPDEST PUSH32 0x52657175657374656420656E65726779206D757374206265203E203000000000 PUSH0 DUP3 ADD MSTORE POP JUMP JUMPDEST PUSH0 PUSH2 0x15F2 PUSH1 0x1C DUP4 PUSH2 0x15AE JUMP JUMPDEST SWAP2 POP PUSH2 0x15FD DUP3 PUSH2 0x15BE JUMP JUMPDEST PUSH1 0x20 DUP3 ADD SWAP1 POP SWAP2 SWAP1 POP JUMP JUMPDEST PUSH0 PUSH1 0x20 DUP3 ADD SWAP1 POP DUP2 DUP2 SUB PUSH0 DUP4 ADD MSTORE PUSH2 0x161F DUP2 PUSH2 0x15E6 JUMP JUMPDEST SWAP1 POP SWAP2 SWAP1 POP JUMP JUMPDEST PUSH32 0x496E76616C69642073656C6C6572000000000000000000000000000000000000 PUSH0 DUP3 ADD MSTORE POP JUMP JUMPDEST PUSH0 PUSH2 0x165A PUSH1 0xE DUP4 PUSH2 0x15AE JUMP JUMPDEST SWAP2 POP PUSH2 0x1665 DUP3 PUSH2 0x1626 JUMP JUMPDEST PUSH1 0x20 DUP3 ADD SWAP1 POP SWAP2 SWAP1 POP JUMP JUMPDEST PUSH0 PUSH1 0x20 DUP3 ADD SWAP1 POP DUP2 DUP2 SUB PUSH0 DUP4 ADD MSTORE PUSH2 0x1687 DUP2 PUSH2 0x164E JUMP JUMPDEST SWAP1 POP SWAP2 SWAP1 POP JUMP JUMPDEST PUSH32 0x43616E6E6F74206275792066726F6D2073656C66000000000000000000000000 PUSH0 DUP3 ADD MSTORE POP JUMP JUMPDEST PUSH0 PUSH2 0x16C2 PUSH1 0x14 DUP4 PUSH2 0x15AE JUMP JUMPDEST SWAP2 POP PUSH2 0x16CD DUP3 PUSH2 0x168E JUMP JUMPDEST PUSH1 0x20 DUP3 ADD SWAP1 POP SWAP2 SWAP1 POP JUMP JUMPDEST PUSH0 PUSH1 0x20 DUP3 ADD SWAP1 POP DUP2 DUP2 SUB PUSH0 DUP4 ADD MSTORE PUSH2 0x16EF DUP2 PUSH2 0x16B6 JUMP JUMPDEST SWAP1 POP SWAP2 SWAP1 POP JUMP JUMPDEST PUSH32 0x4275796572206E6F742072656769737465726564000000000000000000000000 PUSH0 DUP3 ADD MSTORE POP JUMP JUMPDEST PUSH0 PUSH2 0x172A PUSH1 0x14 DUP4 PUSH2 0x15AE JUMP JUMPDEST SWAP2 POP PUSH2 0x1735 DUP3 PUSH2 0x16F6 JUMP JUMPDEST PUSH1 0x20 DUP3 ADD SWAP1 POP SWAP2 SWAP1 POP JUMP JUMPDEST PUSH0 PUSH1 0x20 DUP3 ADD SWAP1 POP DUP2 DUP2 SUB PUSH0 DUP4 ADD MSTORE PUSH2 0x1757 DUP2 PUSH2 0x171E JUMP JUMPDEST SWAP1 POP SWAP2 SWAP1 POP JUMP JUMPDEST PUSH32 0x53656C6C6572206E6F7420726567697374657265640000000000000000000000 PUSH0 DUP3 ADD MSTORE POP JUMP JUMPDEST PUSH0 PUSH2 0x1792 PUSH1 0x15 DUP4 PUSH2 0x15AE JUMP JUMPDEST SWAP2 POP PUSH2 0x179D DUP3 PUSH2 0x175E JUMP JUMPDEST PUSH1 0x20 DUP3 ADD SWAP1 POP SWAP2 SWAP1 POP JUMP JUMPDEST PUSH0 PUSH1 0x20 DUP3 ADD SWAP1 POP DUP2 DUP2 SUB PUSH0 DUP4 ADD MSTORE PUSH2 0x17BF DUP2 PUSH2 0x1786 JUMP JUMPDEST SWAP1 POP SWAP2 SWAP1 POP JUMP JUMPDEST PUSH32 0x4275796572206973206E6F7420696E2064656669636974000000000000000000 PUSH0 DUP3 ADD MSTORE POP JUMP JUMPDEST PUSH0 PUSH2 0x17FA PUSH1 0x17 DUP4 PUSH2 0x15AE JUMP JUMPDEST SWAP2 POP PUSH2 0x1805 DUP3 PUSH2 0x17C6 JUMP JUMPDEST PUSH1 0x20 DUP3 ADD SWAP1 POP SWAP2 SWAP1 POP JUMP JUMPDEST PUSH0 PUSH1 0x20 DUP3 ADD SWAP1 POP DUP2 DUP2 SUB PUSH0 DUP4 ADD MSTORE PUSH2 0x1827 DUP2 PUSH2 0x17EE JUMP JUMPDEST SWAP1 POP SWAP2 SWAP1 POP JUMP JUMPDEST PUSH32 0x53656C6C6572206973206E6F7420696E20737572706C75730000000000000000 PUSH0 DUP3 ADD MSTORE POP JUMP JUMPDEST PUSH0 PUSH2 0x1862 PUSH1 0x18 DUP4 PUSH2 0x15AE JUMP JUMPDEST SWAP2 POP PUSH2 0x186D DUP3 PUSH2 0x182E JUMP JUMPDEST PUSH1 0x20 DUP3 ADD SWAP1 POP SWAP2 SWAP1 POP JUMP JUMPDEST PUSH0 PUSH1 0x20 DUP3 ADD SWAP1 POP DUP2 DUP2 SUB PUSH0 DUP4 ADD MSTORE PUSH2 0x188F DUP2 PUSH2 0x1856 JUMP JUMPDEST SWAP1 POP SWAP2 SWAP1 POP JUMP JUMPDEST PUSH32 0x4E487B7100000000000000000000000000000000000000000000000000000000 PUSH0 MSTORE PUSH1 0x11 PUSH1 0x4 MSTORE PUSH1 0x24 PUSH0 REVERT JUMPDEST PUSH0 PUSH2 0x18CD DUP3 PUSH2 0x1465 JUMP JUMPDEST SWAP2 POP PUSH32 0x8000000000000000000000000000000000000000000000000000000000000000 DUP3 SUB PUSH2 0x18FF JUMPI PUSH2 0x18FE PUSH2 0x1896 JUMP JUMPDEST JUMPDEST DUP2 PUSH0 SUB SWAP1 POP SWAP2 SWAP1 POP JUMP JUMPDEST PUSH32 0x52657175657374656420656E6572677920657863656564732062757965722064 PUSH0 DUP3 ADD MSTORE PUSH32 0x6566696369740000000000000000000000000000000000000000000000000000 PUSH1 0x20 DUP3 ADD MSTORE POP JUMP JUMPDEST PUSH0 PUSH2 0x1963 PUSH1 0x26 DUP4 PUSH2 0x15AE JUMP JUMPDEST SWAP2 POP PUSH2 0x196E DUP3 PUSH2 0x1909 JUMP JUMPDEST PUSH1 0x40 DUP3 ADD SWAP1 POP SWAP2 SWAP1 POP JUMP JUMPDEST PUSH0 PUSH1 0x20 DUP3 ADD SWAP1 POP DUP2 DUP2 SUB PUSH0 DUP4 ADD MSTORE PUSH2 0x1990 DUP2 PUSH2 0x1957 JUMP JUMPDEST SWAP1 POP SWAP2 SWAP1 POP JUMP JUMPDEST PUSH32 0x52657175657374656420656E6572677920657863656564732073656C6C657220 PUSH0 DUP3 ADD MSTORE PUSH32 0x737572706C757300000000000000000000000000000000000000000000000000 PUSH1 0x20 DUP3 ADD MSTORE POP JUMP JUMPDEST PUSH0 PUSH2 0x19F1 PUSH1 0x27 DUP4 PUSH2 0x15AE JUMP JUMPDEST SWAP2 POP PUSH2 0x19FC DUP3 PUSH2 0x1997 JUMP JUMPDEST PUSH1 0x40 DUP3 ADD SWAP1 POP SWAP2 SWAP1 POP JUMP JUMPDEST PUSH0 PUSH1 0x20 DUP3 ADD SWAP1 POP DUP2 DUP2 SUB PUSH0 DUP4 ADD MSTORE PUSH2 0x1A1E DUP2 PUSH2 0x19E5 JUMP JUMPDEST SWAP1 POP SWAP2 SWAP1 POP JUMP JUMPDEST PUSH0 PUSH2 0x1A2F DUP3 PUSH2 0x13BA JUMP JUMPDEST SWAP2 POP PUSH2 0x1A3A DUP4 PUSH2 0x13BA JUMP JUMPDEST SWAP3 POP DUP3 DUP3 MUL PUSH2 0x1A48 DUP2 PUSH2 0x13BA JUMP JUMPDEST SWAP2 POP DUP3 DUP3 DIV DUP5 EQ DUP4 ISZERO OR PUSH2 0x1A5F JUMPI PUSH2 0x1A5E PUSH2 0x1896 JUMP JUMPDEST JUMPDEST POP SWAP3 SWAP2 POP POP JUMP JUMPDEST PUSH32 0x496E73756666696369656E742062757965722062616C616E6365000000000000 PUSH0 DUP3 ADD MSTORE POP JUMP JUMPDEST PUSH0 PUSH2 0x1A9A PUSH1 0x1A DUP4 PUSH2 0x15AE JUMP JUMPDEST SWAP2 POP PUSH2 0x1AA5 DUP3 PUSH2 0x1A66 JUMP JUMPDEST PUSH1 0x20 DUP3 ADD SWAP1 POP SWAP2 SWAP1 POP JUMP JUMPDEST PUSH0 PUSH1 0x20 DUP3 ADD SWAP1 POP DUP2 DUP2 SUB PUSH0 DUP4 ADD MSTORE PUSH2 0x1AC7 DUP2 PUSH2 0x1A8E JUMP JUMPDEST SWAP1 POP SWAP2 SWAP1 POP JUMP JUMPDEST PUSH0 PUSH2 0x1AD8 DUP3 PUSH2 0x13BA JUMP JUMPDEST SWAP2 POP PUSH2 0x1AE3 DUP4 PUSH2 0x13BA JUMP JUMPDEST SWAP3 POP DUP3 DUP3 SUB SWAP1 POP DUP2 DUP2 GT ISZERO PUSH2 0x1AFB JUMPI PUSH2 0x1AFA PUSH2 0x1896 JUMP JUMPDEST JUMPDEST SWAP3 SWAP2 POP POP JUMP JUMPDEST PUSH0 PUSH2 0x1B0B DUP3 PUSH2 0x13BA JUMP JUMPDEST SWAP2 POP PUSH2 0x1B16 DUP4 PUSH2 0x13BA JUMP JUMPDEST SWAP3 POP DUP3 DUP3 ADD SWAP1 POP DUP1 DUP3 GT ISZERO PUSH2 0x1B2E JUMPI PUSH2 0x1B2D PUSH2 0x1896 JUMP JUMPDEST JUMPDEST SWAP3 SWAP2 POP POP JUMP JUMPDEST PUSH0 PUSH2 0x1B3E DUP3 PUSH2 0x1465 JUMP JUMPDEST SWAP2 POP PUSH2 0x1B49 DUP4 PUSH2 0x1465 JUMP JUMPDEST SWAP3 POP DUP3 DUP3 ADD SWAP1 POP DUP3 DUP2 SLT ISZERO PUSH0 DUP4 SLT AND DUP4 DUP3 SLT PUSH0 DUP5 SLT ISZERO AND OR ISZERO PUSH2 0x1B6F JUMPI PUSH2 0x1B6E PUSH2 0x1896 JUMP JUMPDEST JUMPDEST SWAP3 SWAP2 POP POP JUMP JUMPDEST PUSH0 PUSH2 0x1B7F DUP3 PUSH2 0x1465 JUMP JUMPDEST SWAP2 POP PUSH2 0x1B8A DUP4 PUSH2 0x1465 JUMP JUMPDEST SWAP3 POP DUP3 DUP3 SUB SWAP1 POP DUP2 DUP2 SLT PUSH0 DUP5 SLT AND DUP3 DUP3 SGT PUSH0 DUP6 SLT ISZERO AND OR ISZERO PUSH2 0x1BAF JUMPI PUSH2 0x1BAE PUSH2 0x1896 JUMP JUMPDEST JUMPDEST SWAP3 SWAP2 POP POP JUMP JUMPDEST PUSH32 0x50726F73756D6572206E6F742072656769737465726564000000000000000000 PUSH0 DUP3 ADD MSTORE POP JUMP JUMPDEST PUSH0 PUSH2 0x1BE9 PUSH1 0x17 DUP4 PUSH2 0x15AE JUMP JUMPDEST SWAP2 POP PUSH2 0x1BF4 DUP3 PUSH2 0x1BB5 JUMP JUMPDEST PUSH1 0x20 DUP3 ADD SWAP1 POP SWAP2 SWAP1 POP JUMP JUMPDEST PUSH0 PUSH1 0x20 DUP3 ADD SWAP1 POP DUP2 DUP2 SUB PUSH0 DUP4 ADD MSTORE PUSH2 0x1C16 DUP2 PUSH2 0x1BDD JUMP JUMPDEST SWAP1 POP SWAP2 SWAP1 POP JUMP JUMPDEST PUSH32 0x50726F73756D65722068617320616E20656E6572677920646566696369740000 PUSH0 DUP3 ADD MSTORE POP JUMP JUMPDEST PUSH0 PUSH2 0x1C51 PUSH1 0x1E DUP4 PUSH2 0x15AE JUMP JUMPDEST SWAP2 POP PUSH2 0x1C5C DUP3 PUSH2 0x1C1D JUMP JUMPDEST PUSH1 0x20 DUP3 ADD SWAP1 POP SWAP2 SWAP1 POP JUMP JUMPDEST PUSH0 PUSH1 0x20 DUP3 ADD SWAP1 POP DUP2 DUP2 SUB PUSH0 DUP4 ADD MSTORE PUSH2 0x1C7E DUP2 PUSH2 0x1C45 JUMP JUMPDEST SWAP1 POP SWAP2 SWAP1 POP JUMP JUMPDEST PUSH32 0x4E487B7100000000000000000000000000000000000000000000000000000000 PUSH0 MSTORE PUSH1 0x32 PUSH1 0x4 MSTORE PUSH1 0x24 PUSH0 REVERT JUMPDEST PUSH0 PUSH1 0x40 DUP3 ADD SWAP1 POP PUSH2 0x1CC5 PUSH0 DUP4 ADD DUP6 PUSH2 0x147D JUMP JUMPDEST PUSH2 0x1CD2 PUSH1 0x20 DUP4 ADD DUP5 PUSH2 0x146E JUMP JUMPDEST SWAP4 SWAP3 POP POP POP JUMP JUMPDEST PUSH32 0x4F66666572656420656E65726779206D757374206265203E2030000000000000 PUSH0 DUP3 ADD MSTORE POP JUMP JUMPDEST PUSH0 PUSH2 0x1D0D PUSH1 0x1A DUP4 PUSH2 0x15AE JUMP JUMPDEST SWAP2 POP PUSH2 0x1D18 DUP3 PUSH2 0x1CD9 JUMP JUMPDEST PUSH1 0x20 DUP3 ADD SWAP1 POP SWAP2 SWAP1 POP JUMP JUMPDEST PUSH0 PUSH1 0x20 DUP3 ADD SWAP1 POP DUP2 DUP2 SUB PUSH0 DUP4 ADD MSTORE PUSH2 0x1D3A DUP2 PUSH2 0x1D01 JUMP JUMPDEST SWAP1 POP SWAP2 SWAP1 POP JUMP JUMPDEST PUSH32 0x496E76616C696420627579657200000000000000000000000000000000000000 PUSH0 DUP3 ADD MSTORE POP JUMP JUMPDEST PUSH0 PUSH2 0x1D75 PUSH1 0xD DUP4 PUSH2 0x15AE JUMP JUMPDEST SWAP2 POP PUSH2 0x1D80 DUP3 PUSH2 0x1D41 JUMP JUMPDEST PUSH1 0x20 DUP3 ADD SWAP1 POP SWAP2 SWAP1 POP JUMP JUMPDEST PUSH0 PUSH1 0x20 DUP3 ADD SWAP1 POP DUP2 DUP2 SUB PUSH0 DUP4 ADD MSTORE PUSH2 0x1DA2 DUP2 PUSH2 0x1D69 JUMP JUMPDEST SWAP1 POP SWAP2 SWAP1 POP JUMP JUMPDEST PUSH32 0x43616E6E6F742073656C6C20746F2073656C6600000000000000000000000000 PUSH0 DUP3 ADD MSTORE POP JUMP JUMPDEST PUSH0 PUSH2 0x1DDD PUSH1 0x13 DUP4 PUSH2 0x15AE JUMP JUMPDEST SWAP2 POP PUSH2 0x1DE8 DUP3 PUSH2 0x1DA9 JUMP JUMPDEST PUSH1 0x20 DUP3 ADD SWAP1 POP SWAP2 SWAP1 POP JUMP JUMPDEST PUSH0 PUSH1 0x20 DUP3 ADD SWAP1 POP DUP2 DUP2 SUB PUSH0 DUP4 ADD MSTORE PUSH2 0x1E0A DUP2 PUSH2 0x1DD1 JUMP JUMPDEST SWAP1 POP SWAP2 SWAP1 POP JUMP JUMPDEST PUSH32 0x4F66666572656420657863656564732073656C6C657220737572706C75730000 PUSH0 DUP3 ADD MSTORE POP JUMP JUMPDEST PUSH0 PUSH2 0x1E45 PUSH1 0x1E DUP4 PUSH2 0x15AE JUMP JUMPDEST SWAP2 POP PUSH2 0x1E50 DUP3 PUSH2 0x1E11 JUMP JUMPDEST PUSH1 0x20 DUP3 ADD SWAP1 POP SWAP2 SWAP1 POP JUMP JUMPDEST PUSH0 PUSH1 0x20 DUP3 ADD SWAP1 POP DUP2 DUP2 SUB PUSH0 DUP4 ADD MSTORE PUSH2 0x1E72 DUP2 PUSH2 0x1E39 JUMP JUMPDEST SWAP1 POP SWAP2 SWAP1 POP JUMP JUMPDEST PUSH32 0x4F66666572656420657863656564732062757965722064656669636974000000 PUSH0 DUP3 ADD MSTORE POP JUMP JUMPDEST PUSH0 PUSH2 0x1EAD PUSH1 0x1D DUP4 PUSH2 0x15AE JUMP JUMPDEST SWAP2 POP PUSH2 0x1EB8 DUP3 PUSH2 0x1E79 JUMP JUMPDEST PUSH1 0x20 DUP3 ADD SWAP1 POP SWAP2 SWAP1 POP JUMP JUMPDEST PUSH0 PUSH1 0x20 DUP3 ADD SWAP1 POP DUP2 DUP2 SUB PUSH0 DUP4 ADD MSTORE PUSH2 0x1EDA DUP2 PUSH2 0x1EA1 JUMP JUMPDEST SWAP1 POP SWAP2 SWAP1 POP JUMP JUMPDEST PUSH32 0x50726F73756D657220616C726561647920726567697374657265642100000000 PUSH0 DUP3 ADD MSTORE POP JUMP JUMPDEST PUSH0 PUSH2 0x1F15 PUSH1 0x1C DUP4 PUSH2 0x15AE JUMP JUMPDEST SWAP2 POP PUSH2 0x1F20 DUP3 PUSH2 0x1EE1 JUMP JUMPDEST PUSH1 0x20 DUP3 ADD SWAP1 POP SWAP2 SWAP1 POP JUMP JUMPDEST PUSH0 PUSH1 0x20 DUP3 ADD SWAP1 POP DUP2 DUP2 SUB PUSH0 DUP4 ADD MSTORE PUSH2 0x1F42 DUP2 PUSH2 0x1F09 JUMP JUMPDEST SWAP1 POP SWAP2 SWAP1 POP JUMP JUMPDEST PUSH32 0x4F6E6C79207265636F726465722063616E2075706461746520656E6572677920 PUSH0 DUP3 ADD MSTORE PUSH32 0x7374617475730000000000000000000000000000000000000000000000000000 PUSH1 0x20 DUP3 ADD MSTORE POP JUMP JUMPDEST PUSH0 PUSH2 0x1FA3 PUSH1 0x26 DUP4 PUSH2 0x15AE JUMP JUMPDEST SWAP2 POP PUSH2 0x1FAE DUP3 PUSH2 0x1F49 JUMP JUMPDEST PUSH1 0x40 DUP3 ADD SWAP1 POP SWAP2 SWAP1 POP JUMP JUMPDEST PUSH0 PUSH1 0x20 DUP3 ADD SWAP1 POP DUP2 DUP2 SUB PUSH0 DUP4 ADD MSTORE PUSH2 0x1FD0 DUP2 PUSH2 0x1F97 JUMP JUMPDEST SWAP1 POP SWAP2 SWAP1 POP JUMP INVALID LOG2 PUSH5 0x6970667358 0x22 SLT KECCAK256 0xA7 0xC6 PUSH32 0xE4B2041709DBC26452F5F009EBA6940256FADCA1D07908CB67954757AD64736F PUSH13 0x634300081E0033000000000000 "
				},
				"gasEstimates": {
					"creation": {
						"codeDepositCost": "1641000",
						"executionCost": "infinite",
						"totalCost": "infinite"
					},
					"external": {
						"buyEnergyFrom(address,uint256)": "infinite",
						"contractBalance()": "357",
						"coordinateTrading()": "232",
						"deposit()": "infinite",
						"getEnergyPrice()": "2476",
						"getRecorder()": "2582",
						"prosumerAddresses(uint256)": "4966",
						"prosumers(address)": "infinite",
						"registerProsumer()": "109812",
						"sellEnergyTo(address,uint256)": "infinite",
						"updateEnergyPrice()": "26146",
						"updateEnergyStatus(address,int256)": "infinite",
						"withdraw(uint256)": "infinite"
					}
				},
				"methodIdentifiers": {
					"buyEnergyFrom(address,uint256)": "0f0fe598",
					"contractBalance()": "8b7afe2e",
					"coordinateTrading()": "45f80251",
					"deposit()": "d0e30db0",
					"getEnergyPrice()": "cab0f335",
					"getRecorder()": "b6c3afca",
					"prosumerAddresses(uint256)": "b8510a96",
					"prosumers(address)": "2c8d7c32",
					"registerProsumer()": "a3818880",
					"sellEnergyTo(address,uint256)": "7a6edb28",
					"updateEnergyPrice()": "2fbbf123",
					"updateEnergyStatus(address,int256)": "cb2fd8db",
					"withdraw(uint256)": "2e1a7d4d"
				}
			},
			"storageLayout": {
				"storage": [
					{
						"astId": 15,
						"contract": "contracts/contract_template.sol:EnergyTrading",
						"label": "prosumers",
						"offset": 0,
						"slot": "0",
						"type": "t_mapping(t_address,t_struct(Prosumer)10_storage)"
					},
					{
						"astId": 17,
						"contract": "contracts/contract_template.sol:EnergyTrading",
						"label": "energyPrice",
						"offset": 0,
						"slot": "1",
						"type": "t_uint256"
					},
					{
						"astId": 19,
						"contract": "contracts/contract_template.sol:EnergyTrading",
						"label": "recorder",
						"offset": 0,
						"slot": "2",
						"type": "t_address"
					},
					{
						"astId": 26,
						"contract": "contracts/contract_template.sol:EnergyTrading",
						"label": "prosumerAddresses",
						"offset": 0,
						"slot": "3",
						"type": "t_array(t_address)dyn_storage"
					}
				],
				"types": {
					"t_address": {
						"encoding": "inplace",
						"label": "address",
						"numberOfBytes": "20"
					},
					"t_array(t_address)dyn_storage": {
						"base": "t_address",
						"encoding": "dynamic_array",
						"label": "address[]",
						"numberOfBytes": "32"
					},
					"t_bool": {
						"encoding": "inplace",
						"label": "bool",
						"numberOfBytes": "1"
					},
					"t_int256": {
						"encoding": "inplace",
						"label": "int256",
						"numberOfBytes": "32"
					},
					"t_mapping(t_address,t_struct(Prosumer)10_storage)": {
						"encoding": "mapping",
						"key": "t_address",
						"label": "mapping(address => struct EnergyTrading.Prosumer)",
						"numberOfBytes": "32",
						"value": "t_struct(Prosumer)10_storage"
					},
					"t_struct(Prosumer)10_storage": {
						"encoding": "inplace",
						"label": "struct EnergyTrading.Prosumer",
						"members": [
							{
								"astId": 3,
								"contract": "contracts/contract_template.sol:EnergyTrading",
								"label": "prosumerAddress",
								"offset": 0,
								"slot": "0",
								"type": "t_address"
							},
							{
								"astId": 5,
								"contract": "contracts/contract_template.sol:EnergyTrading",
								"label": "prosumerEnergyStat",
								"offset": 0,
								"slot": "1",
								"type": "t_int256"
							},
							{
								"astId": 7,
								"contract": "contracts/contract_template.sol:EnergyTrading",
								"label": "prosumerBalance",
								"offset": 0,
								"slot": "2",
								"type": "t_uint256"
							},
							{
								"astId": 9,
								"contract": "contracts/contract_template.sol:EnergyTrading",
								"label": "isMember",
								"offset": 0,
								"slot": "3",
								"type": "t_bool"
							}
						],
						"numberOfBytes": "128"
					},
					"t_uint256": {
						"encoding": "inplace",
						"label": "uint256",
						"numberOfBytes": "32"
					}
				}
			},
			"userdoc": {
				"kind": "user",
				"methods": {
					"getRecorder()": {
						"notice": "DELETE ABOVE"
					}
				},
				"version": 1
			}
		}
	}
}