{
	"contracts/contract_template.sol": {
		"EnergyTrading": {
			"abi": [
				{
					"inputs": [
						{
							"internalType": "address",
							"name": "_recorder",
							"type": "address"
						}
					],
					"stateMutability": "payable",
					"type": "constructor"
				},
				{
					"anonymous": false,
					"inputs": [
						{
							"indexed": false,
							"internalType": "uint256",
							"name": "totalMatchedEnergy",
							"type": "uint256"
						}
					],
					"name": "CoordinationComplete",
					"type": "event"
				},
				{
					"anonymous": false,
					"inputs": [
						{
							"indexed": false,
							"internalType": "uint256",
							"name": "newPrice",
							"type": "uint256"
						},
						{
							"indexed": false,
							"internalType": "int256",
							"name": "totalEnergyStatus",
							"type": "int256"
						}
					],
					"name": "EnergyPriceUpdated",
					"type": "event"
				},
				{
					"inputs": [
						{
							"internalType": "address",
							"name": "_seller",
							"type": "address"
						},
						{
							"internalType": "uint256",
							"name": "_requestedEnergy",
							"type": "uint256"
						}
					],
					"name": "buyEnergyFrom",
					"outputs": [],
					"stateMutability": "nonpayable",
					"type": "function"
				},
				{
					"inputs": [],
					"name": "contractBalance",
					"outputs": [
						{
							"internalType": "uint256",
							"name": "",
							"type": "uint256"
						}
					],
					"stateMutability": "view",
					"type": "function"
				},
				{
					"inputs": [],
					"name": "coordinateTrading",
					"outputs": [],
					"stateMutability": "nonpayable",
					"type": "function"
				},
				{
					"inputs": [],
					"name": "deposit",
					"outputs": [],
					"stateMutability": "payable",
					"type": "function"
				},
				{
					"inputs": [],
					"name": "getEnergyPrice",
					"outputs": [
						{
							"internalType": "uint256",
							"name": "",
							"type": "uint256"
						}
					],
					"stateMutability": "view",
					"type": "function"
				},
				{
					"inputs": [],
					"name": "getRecorder",
					"outputs": [
						{
							"internalType": "address",
							"name": "",
							"type": "address"
						}
					],
					"stateMutability": "view",
					"type": "function"
				},
				{
					"inputs": [
						{
							"internalType": "uint256",
							"name": "",
							"type": "uint256"
						}
					],
					"name": "prosumerAddresses",
					"outputs": [
						{
							"internalType": "address",
							"name": "",
							"type": "address"
						}
					],
					"stateMutability": "view",
					"type": "function"
				},
				{
					"inputs": [
						{
							"internalType": "address",
							"name": "",
							"type": "address"
						}
					],
					"name": "prosumers",
					"outputs": [
						{
							"internalType": "address",
							"name": "prosumerAddress",
							"type": "address"
						},
						{
							"internalType": "int256",
							"name": "prosumerEnergyStat",
							"type": "int256"
						},
						{
							"internalType": "uint256",
							"name": "prosumerBalance",
							"type": "uint256"
						},
						{
							"internalType": "bool",
							"name": "isMember",
							"type": "bool"
						}
					],
					"stateMutability": "view",
					"type": "function"
				},
				{
					"inputs": [],
					"name": "registerProsumer",
					"outputs": [],
					"stateMutability": "nonpayable",
					"type": "function"
				},
				{
					"inputs": [
						{
							"internalType": "address",
							"name": "_buyer",
							"type": "address"
						},
						{
							"internalType": "uint256",
							"name": "_offeredEnergy",
							"type": "uint256"
						}
					],
					"name": "sellEnergyTo",
					"outputs": [],
					"stateMutability": "nonpayable",
					"type": "function"
				},
				{
					"inputs": [],
					"name": "updateEnergyPrice",
					"outputs": [],
					"stateMutability": "nonpayable",
					"type": "function"
				},
				{
					"inputs": [
						{
							"internalType": "address",
							"name": "_prosumer",
							"type": "address"
						},
						{
							"internalType": "int256",
							"name": "deltaEnergy",
							"type": "int256"
						}
					],
					"name": "updateEnergyStatus",
					"outputs": [],
					"stateMutability": "nonpayable",
					"type": "function"
				},
				{
					"inputs": [
						{
							"internalType": "uint256",
							"name": "_value",
							"type": "uint256"
						}
					],
					"name": "withdraw",
					"outputs": [],
					"stateMutability": "nonpayable",
					"type": "function"
				}
			],
			"devdoc": {
				"kind": "dev",
				"methods": {},
				"version": 1
			},
			"evm": {
				"assembly": "    /* \"contracts/contract_template.sol\":64:8580  contract EnergyTrading {... */\n  mstore(0x40, 0x80)\n    /* \"contracts/contract_template.sol\":1135:1244  constructor(address _recorder) payable {... */\n  mload(0x40)\n  sub(codesize, bytecodeSize)\n  dup1\n  bytecodeSize\n  dup4\n  codecopy\n  dup2\n  dup2\n  add\n  0x40\n  mstore\n  dup2\n  add\n  swap1\n  tag_1\n  swap2\n  swap1\n  tag_2\n  jump\t// in\ntag_1:\n    /* \"contracts/contract_template.sol\":1194:1203  _recorder */\n  dup1\n    /* \"contracts/contract_template.sol\":1185:1193  recorder */\n  0x02\n  0x00\n    /* \"contracts/contract_template.sol\":1185:1203  recorder=_recorder */\n  0x0100\n  exp\n  dup2\n  sload\n  dup2\n  0xffffffffffffffffffffffffffffffffffffffff\n  mul\n  not\n  and\n  swap1\n  dup4\n  0xffffffffffffffffffffffffffffffffffffffff\n  and\n  mul\n  or\n  swap1\n  sstore\n  pop\n    /* \"contracts/contract_template.sol\":1227:1234  1 ether */\n  0x0de0b6b3a7640000\n    /* \"contracts/contract_template.sol\":1214:1225  energyPrice */\n  0x01\n    /* \"contracts/contract_template.sol\":1214:1234  energyPrice= 1 ether */\n  dup2\n  swap1\n  sstore\n  pop\n    /* \"contracts/contract_template.sol\":1135:1244  constructor(address _recorder) payable {... */\n  pop\n    /* \"contracts/contract_template.sol\":64:8580  contract EnergyTrading {... */\n  jump(tag_5)\n    /* \"#utility.yul\":88:205   */\ntag_7:\n    /* \"#utility.yul\":197:198   */\n  0x00\n    /* \"#utility.yul\":194:195   */\n  0x00\n    /* \"#utility.yul\":187:199   */\n  revert\n    /* \"#utility.yul\":334:460   */\ntag_9:\n    /* \"#utility.yul\":371:378   */\n  0x00\n    /* \"#utility.yul\":411:453   */\n  0xffffffffffffffffffffffffffffffffffffffff\n    /* \"#utility.yul\":404:409   */\n  dup3\n    /* \"#utility.yul\":400:454   */\n  and\n    /* \"#utility.yul\":389:454   */\n  swap1\n  pop\n    /* \"#utility.yul\":334:460   */\n  swap2\n  swap1\n  pop\n  jump\t// out\n    /* \"#utility.yul\":466:562   */\ntag_10:\n    /* \"#utility.yul\":503:510   */\n  0x00\n    /* \"#utility.yul\":532:556   */\n  tag_19\n    /* \"#utility.yul\":550:555   */\n  dup3\n    /* \"#utility.yul\":532:556   */\n  tag_9\n  jump\t// in\ntag_19:\n    /* \"#utility.yul\":521:556   */\n  swap1\n  pop\n    /* \"#utility.yul\":466:562   */\n  swap2\n  swap1\n  pop\n  jump\t// out\n    /* \"#utility.yul\":568:690   */\ntag_11:\n    /* \"#utility.yul\":641:665   */\n  tag_21\n    /* \"#utility.yul\":659:664   */\n  dup2\n    /* \"#utility.yul\":641:665   */\n  tag_10\n  jump\t// in\ntag_21:\n    /* \"#utility.yul\":634:639   */\n  dup2\n    /* \"#utility.yul\":631:666   */\n  eq\n    /* \"#utility.yul\":621:684   */\n  tag_22\n  jumpi\n    /* \"#utility.yul\":680:681   */\n  0x00\n    /* \"#utility.yul\":677:678   */\n  0x00\n    /* \"#utility.yul\":670:682   */\n  revert\n    /* \"#utility.yul\":621:684   */\ntag_22:\n    /* \"#utility.yul\":568:690   */\n  pop\n  jump\t// out\n    /* \"#utility.yul\":696:839   */\ntag_12:\n    /* \"#utility.yul\":753:758   */\n  0x00\n    /* \"#utility.yul\":784:790   */\n  dup2\n    /* \"#utility.yul\":778:791   */\n  mload\n    /* \"#utility.yul\":769:791   */\n  swap1\n  pop\n    /* \"#utility.yul\":800:833   */\n  tag_24\n    /* \"#utility.yul\":827:832   */\n  dup2\n    /* \"#utility.yul\":800:833   */\n  tag_11\n  jump\t// in\ntag_24:\n    /* \"#utility.yul\":696:839   */\n  swap3\n  swap2\n  pop\n  pop\n  jump\t// out\n    /* \"#utility.yul\":845:1196   */\ntag_2:\n    /* \"#utility.yul\":915:921   */\n  0x00\n    /* \"#utility.yul\":964:966   */\n  0x20\n    /* \"#utility.yul\":952:961   */\n  dup3\n    /* \"#utility.yul\":943:950   */\n  dup5\n    /* \"#utility.yul\":939:962   */\n  sub\n    /* \"#utility.yul\":935:967   */\n  slt\n    /* \"#utility.yul\":932:1051   */\n  iszero\n  tag_26\n  jumpi\n    /* \"#utility.yul\":970:1049   */\n  tag_27\n  tag_7\n  jump\t// in\ntag_27:\n    /* \"#utility.yul\":932:1051   */\ntag_26:\n    /* \"#utility.yul\":1090:1091   */\n  0x00\n    /* \"#utility.yul\":1115:1179   */\n  tag_28\n    /* \"#utility.yul\":1171:1178   */\n  dup5\n    /* \"#utility.yul\":1162:1168   */\n  dup3\n    /* \"#utility.yul\":1151:1160   */\n  dup6\n    /* \"#utility.yul\":1147:1169   */\n  add\n    /* \"#utility.yul\":1115:1179   */\n  tag_12\n  jump\t// in\ntag_28:\n    /* \"#utility.yul\":1105:1179   */\n  swap2\n  pop\n    /* \"#utility.yul\":1061:1189   */\n  pop\n    /* \"#utility.yul\":845:1196   */\n  swap3\n  swap2\n  pop\n  pop\n  jump\t// out\n    /* \"contracts/contract_template.sol\":64:8580  contract EnergyTrading {... */\ntag_5:\n  dataSize(sub_0)\n  dup1\n  dataOffset(sub_0)\n  0x00\n  codecopy\n  0x00\n  return\nstop\n\nsub_0: assembly {\n        /* \"contracts/contract_template.sol\":64:8580  contract EnergyTrading {... */\n      mstore(0x40, 0x80)\n      jumpi(tag_1, lt(calldatasize, 0x04))\n      shr(0xe0, calldataload(0x00))\n      dup1\n      0x8b7afe2e\n      gt\n      tag_15\n      jumpi\n      dup1\n      0xb8510a96\n      gt\n      tag_16\n      jumpi\n      dup1\n      0xb8510a96\n      eq\n      tag_11\n      jumpi\n      dup1\n      0xcab0f335\n      eq\n      tag_12\n      jumpi\n      dup1\n      0xcb2fd8db\n      eq\n      tag_13\n      jumpi\n      dup1\n      0xd0e30db0\n      eq\n      tag_14\n      jumpi\n      jump(tag_1)\n    tag_16:\n      dup1\n      0x8b7afe2e\n      eq\n      tag_8\n      jumpi\n      dup1\n      0xa3818880\n      eq\n      tag_9\n      jumpi\n      dup1\n      0xb6c3afca\n      eq\n      tag_10\n      jumpi\n      jump(tag_1)\n    tag_15:\n      dup1\n      0x0f0fe598\n      eq\n      tag_2\n      jumpi\n      dup1\n      0x2c8d7c32\n      eq\n      tag_3\n      jumpi\n      dup1\n      0x2e1a7d4d\n      eq\n      tag_4\n      jumpi\n      dup1\n      0x2fbbf123\n      eq\n      tag_5\n      jumpi\n      dup1\n      0x45f80251\n      eq\n      tag_6\n      jumpi\n      dup1\n      0x7a6edb28\n      eq\n      tag_7\n      jumpi\n    tag_1:\n      revert(0x00, 0x00)\n        /* \"contracts/contract_template.sol\":5669:7826  function buyEnergyFrom(address _seller, uint _requestedEnergy) external {... */\n    tag_2:\n      callvalue\n      dup1\n      iszero\n      tag_17\n      jumpi\n      revert(0x00, 0x00)\n    tag_17:\n      pop\n      tag_18\n      0x04\n      dup1\n      calldatasize\n      sub\n      dup2\n      add\n      swap1\n      tag_19\n      swap2\n      swap1\n      tag_20\n      jump\t// in\n    tag_19:\n      tag_21\n      jump\t// in\n    tag_18:\n      stop\n        /* \"contracts/contract_template.sol\":582:628  mapping (address => Prosumer) public prosumers */\n    tag_3:\n      callvalue\n      dup1\n      iszero\n      tag_22\n      jumpi\n      revert(0x00, 0x00)\n    tag_22:\n      pop\n      tag_23\n      0x04\n      dup1\n      calldatasize\n      sub\n      dup2\n      add\n      swap1\n      tag_24\n      swap2\n      swap1\n      tag_25\n      jump\t// in\n    tag_24:\n      tag_26\n      jump\t// in\n    tag_23:\n      mload(0x40)\n      tag_27\n      swap5\n      swap4\n      swap3\n      swap2\n      swap1\n      tag_28\n      jump\t// in\n    tag_27:\n      mload(0x40)\n      dup1\n      swap2\n      sub\n      swap1\n      return\n        /* \"contracts/contract_template.sol\":2260:2850  function withdraw(uint256 _value) external {... */\n    tag_4:\n      callvalue\n      dup1\n      iszero\n      tag_29\n      jumpi\n      revert(0x00, 0x00)\n    tag_29:\n      pop\n      tag_30\n      0x04\n      dup1\n      calldatasize\n      sub\n      dup2\n      add\n      swap1\n      tag_31\n      swap2\n      swap1\n      tag_32\n      jump\t// in\n    tag_31:\n      tag_33\n      jump\t// in\n    tag_30:\n      stop\n        /* \"contracts/contract_template.sol\":3823:5661  function updateEnergyPrice() public {... */\n    tag_5:\n      callvalue\n      dup1\n      iszero\n      tag_34\n      jumpi\n      revert(0x00, 0x00)\n    tag_34:\n      pop\n      tag_35\n      tag_36\n      jump\t// in\n    tag_35:\n      stop\n        /* \"contracts/contract_template.sol\":7957:8038  function coordinateTrading() public {... */\n    tag_6:\n      callvalue\n      dup1\n      iszero\n      tag_37\n      jumpi\n      revert(0x00, 0x00)\n    tag_37:\n      pop\n      tag_38\n      tag_39\n      jump\t// in\n    tag_38:\n      stop\n        /* \"contracts/contract_template.sol\":7834:7947  function sellEnergyTo(address _buyer, uint _offeredEnergy) external {... */\n    tag_7:\n      callvalue\n      dup1\n      iszero\n      tag_40\n      jumpi\n      revert(0x00, 0x00)\n    tag_40:\n      pop\n      tag_41\n      0x04\n      dup1\n      calldatasize\n      sub\n      dup2\n      add\n      swap1\n      tag_42\n      swap2\n      swap1\n      tag_20\n      jump\t// in\n    tag_42:\n      tag_43\n      jump\t// in\n    tag_41:\n      stop\n        /* \"contracts/contract_template.sol\":8082:8221  function contractBalance() external view returns (uint256) {... */\n    tag_8:\n      callvalue\n      dup1\n      iszero\n      tag_44\n      jumpi\n      revert(0x00, 0x00)\n    tag_44:\n      pop\n      tag_45\n      tag_46\n      jump\t// in\n    tag_45:\n      mload(0x40)\n      tag_47\n      swap2\n      swap1\n      tag_48\n      jump\t// in\n    tag_47:\n      mload(0x40)\n      dup1\n      swap2\n      sub\n      swap1\n      return\n        /* \"contracts/contract_template.sol\":1252:1860  function registerProsumer() external {... */\n    tag_9:\n      callvalue\n      dup1\n      iszero\n      tag_49\n      jumpi\n      revert(0x00, 0x00)\n    tag_49:\n      pop\n      tag_50\n      tag_51\n      jump\t// in\n    tag_50:\n      stop\n        /* \"contracts/contract_template.sol\":8389:8476  function getRecorder() public view returns (address) {... */\n    tag_10:\n      callvalue\n      dup1\n      iszero\n      tag_52\n      jumpi\n      revert(0x00, 0x00)\n    tag_52:\n      pop\n      tag_53\n      tag_54\n      jump\t// in\n    tag_53:\n      mload(0x40)\n      tag_55\n      swap2\n      swap1\n      tag_56\n      jump\t// in\n    tag_55:\n      mload(0x40)\n      dup1\n      swap2\n      sub\n      swap1\n      return\n        /* \"contracts/contract_template.sol\":1017:1051  address[] public prosumerAddresses */\n    tag_11:\n      callvalue\n      dup1\n      iszero\n      tag_57\n      jumpi\n      revert(0x00, 0x00)\n    tag_57:\n      pop\n      tag_58\n      0x04\n      dup1\n      calldatasize\n      sub\n      dup2\n      add\n      swap1\n      tag_59\n      swap2\n      swap1\n      tag_32\n      jump\t// in\n    tag_59:\n      tag_60\n      jump\t// in\n    tag_58:\n      mload(0x40)\n      tag_61\n      swap2\n      swap1\n      tag_56\n      jump\t// in\n    tag_61:\n      mload(0x40)\n      dup1\n      swap2\n      sub\n      swap1\n      return\n        /* \"contracts/contract_template.sol\":8484:8577  function getEnergyPrice() public view returns (uint256) {... */\n    tag_12:\n      callvalue\n      dup1\n      iszero\n      tag_62\n      jumpi\n      revert(0x00, 0x00)\n    tag_62:\n      pop\n      tag_63\n      tag_64\n      jump\t// in\n    tag_63:\n      mload(0x40)\n      tag_65\n      swap2\n      swap1\n      tag_48\n      jump\t// in\n    tag_65:\n      mload(0x40)\n      dup1\n      swap2\n      sub\n      swap1\n      return\n        /* \"contracts/contract_template.sol\":2858:3815  function updateEnergyStatus(address _prosumer, int256 deltaEnergy) external {... */\n    tag_13:\n      callvalue\n      dup1\n      iszero\n      tag_66\n      jumpi\n      revert(0x00, 0x00)\n    tag_66:\n      pop\n      tag_67\n      0x04\n      dup1\n      calldatasize\n      sub\n      dup2\n      add\n      swap1\n      tag_68\n      swap2\n      swap1\n      tag_69\n      jump\t// in\n    tag_68:\n      tag_70\n      jump\t// in\n    tag_67:\n      stop\n        /* \"contracts/contract_template.sol\":1868:2252  function deposit() external payable {... */\n    tag_14:\n      tag_71\n      tag_72\n      jump\t// in\n    tag_71:\n      stop\n        /* \"contracts/contract_template.sol\":5669:7826  function buyEnergyFrom(address _seller, uint _requestedEnergy) external {... */\n    tag_21:\n        /* \"contracts/contract_template.sol\":6069:6070  0 */\n      0x00\n        /* \"contracts/contract_template.sol\":6050:6066  _requestedEnergy */\n      dup2\n        /* \"contracts/contract_template.sol\":6050:6070  _requestedEnergy > 0 */\n      gt\n        /* \"contracts/contract_template.sol\":6042:6103  require(_requestedEnergy > 0, \"Requested energy must be > 0\") */\n      tag_74\n      jumpi\n      mload(0x40)\n      0x08c379a000000000000000000000000000000000000000000000000000000000\n      dup2\n      mstore\n      0x04\n      add\n      tag_75\n      swap1\n      tag_76\n      jump\t// in\n    tag_75:\n      mload(0x40)\n      dup1\n      swap2\n      sub\n      swap1\n      revert\n    tag_74:\n        /* \"contracts/contract_template.sol\":6141:6142  0 */\n      0x00\n        /* \"contracts/contract_template.sol\":6122:6143  _seller != address(0) */\n      0xffffffffffffffffffffffffffffffffffffffff\n      and\n        /* \"contracts/contract_template.sol\":6122:6129  _seller */\n      dup3\n        /* \"contracts/contract_template.sol\":6122:6143  _seller != address(0) */\n      0xffffffffffffffffffffffffffffffffffffffff\n      and\n      sub\n        /* \"contracts/contract_template.sol\":6114:6162  require(_seller != address(0), \"Invalid seller\") */\n      tag_77\n      jumpi\n      mload(0x40)\n      0x08c379a000000000000000000000000000000000000000000000000000000000\n      dup2\n      mstore\n      0x04\n      add\n      tag_78\n      swap1\n      tag_79\n      jump\t// in\n    tag_78:\n      mload(0x40)\n      dup1\n      swap2\n      sub\n      swap1\n      revert\n    tag_77:\n        /* \"contracts/contract_template.sol\":6192:6202  msg.sender */\n      caller\n        /* \"contracts/contract_template.sol\":6181:6202  _seller != msg.sender */\n      0xffffffffffffffffffffffffffffffffffffffff\n      and\n        /* \"contracts/contract_template.sol\":6181:6188  _seller */\n      dup3\n        /* \"contracts/contract_template.sol\":6181:6202  _seller != msg.sender */\n      0xffffffffffffffffffffffffffffffffffffffff\n      and\n      sub\n        /* \"contracts/contract_template.sol\":6173:6227  require(_seller != msg.sender, \"Cannot buy from self\") */\n      tag_80\n      jumpi\n      mload(0x40)\n      0x08c379a000000000000000000000000000000000000000000000000000000000\n      dup2\n      mstore\n      0x04\n      add\n      tag_81\n      swap1\n      tag_82\n      jump\t// in\n    tag_81:\n      mload(0x40)\n      dup1\n      swap2\n      sub\n      swap1\n      revert\n    tag_80:\n        /* \"contracts/contract_template.sol\":6240:6262  Prosumer storage buyer */\n      0x00\n        /* \"contracts/contract_template.sol\":6265:6274  prosumers */\n      0x00\n        /* \"contracts/contract_template.sol\":6265:6286  prosumers[msg.sender] */\n      0x00\n        /* \"contracts/contract_template.sol\":6275:6285  msg.sender */\n      caller\n        /* \"contracts/contract_template.sol\":6265:6286  prosumers[msg.sender] */\n      0xffffffffffffffffffffffffffffffffffffffff\n      and\n      0xffffffffffffffffffffffffffffffffffffffff\n      and\n      dup2\n      mstore\n      0x20\n      add\n      swap1\n      dup2\n      mstore\n      0x20\n      add\n      0x00\n      keccak256\n        /* \"contracts/contract_template.sol\":6240:6286  Prosumer storage buyer = prosumers[msg.sender] */\n      swap1\n      pop\n        /* \"contracts/contract_template.sol\":6297:6320  Prosumer storage seller */\n      0x00\n        /* \"contracts/contract_template.sol\":6323:6332  prosumers */\n      0x00\n        /* \"contracts/contract_template.sol\":6323:6341  prosumers[_seller] */\n      0x00\n        /* \"contracts/contract_template.sol\":6333:6340  _seller */\n      dup6\n        /* \"contracts/contract_template.sol\":6323:6341  prosumers[_seller] */\n      0xffffffffffffffffffffffffffffffffffffffff\n      and\n      0xffffffffffffffffffffffffffffffffffffffff\n      and\n      dup2\n      mstore\n      0x20\n      add\n      swap1\n      dup2\n      mstore\n      0x20\n      add\n      0x00\n      keccak256\n        /* \"contracts/contract_template.sol\":6297:6341  Prosumer storage seller = prosumers[_seller] */\n      swap1\n      pop\n        /* \"contracts/contract_template.sol\":6362:6367  buyer */\n      dup2\n        /* \"contracts/contract_template.sol\":6362:6376  buyer.isMember */\n      0x03\n      add\n      0x00\n      swap1\n      sload\n      swap1\n      0x0100\n      exp\n      swap1\n      div\n      0xff\n      and\n        /* \"contracts/contract_template.sol\":6354:6401  require(buyer.isMember, \"Buyer not registered\") */\n      tag_83\n      jumpi\n      mload(0x40)\n      0x08c379a000000000000000000000000000000000000000000000000000000000\n      dup2\n      mstore\n      0x04\n      add\n      tag_84\n      swap1\n      tag_85\n      jump\t// in\n    tag_84:\n      mload(0x40)\n      dup1\n      swap2\n      sub\n      swap1\n      revert\n    tag_83:\n        /* \"contracts/contract_template.sol\":6420:6426  seller */\n      dup1\n        /* \"contracts/contract_template.sol\":6420:6435  seller.isMember */\n      0x03\n      add\n      0x00\n      swap1\n      sload\n      swap1\n      0x0100\n      exp\n      swap1\n      div\n      0xff\n      and\n        /* \"contracts/contract_template.sol\":6412:6461  require(seller.isMember, \"Seller not registered\") */\n      tag_86\n      jumpi\n      mload(0x40)\n      0x08c379a000000000000000000000000000000000000000000000000000000000\n      dup2\n      mstore\n      0x04\n      add\n      tag_87\n      swap1\n      tag_88\n      jump\t// in\n    tag_87:\n      mload(0x40)\n      dup1\n      swap2\n      sub\n      swap1\n      revert\n    tag_86:\n        /* \"contracts/contract_template.sol\":6557:6558  0 */\n      0x00\n        /* \"contracts/contract_template.sol\":6530:6535  buyer */\n      dup3\n        /* \"contracts/contract_template.sol\":6530:6554  buyer.prosumerEnergyStat */\n      0x01\n      add\n      sload\n        /* \"contracts/contract_template.sol\":6530:6558  buyer.prosumerEnergyStat < 0 */\n      slt\n        /* \"contracts/contract_template.sol\":6522:6586  require(buyer.prosumerEnergyStat < 0, \"Buyer is not in deficit\") */\n      tag_89\n      jumpi\n      mload(0x40)\n      0x08c379a000000000000000000000000000000000000000000000000000000000\n      dup2\n      mstore\n      0x04\n      add\n      tag_90\n      swap1\n      tag_91\n      jump\t// in\n    tag_90:\n      mload(0x40)\n      dup1\n      swap2\n      sub\n      swap1\n      revert\n    tag_89:\n        /* \"contracts/contract_template.sol\":6684:6685  0 */\n      0x00\n        /* \"contracts/contract_template.sol\":6656:6662  seller */\n      dup2\n        /* \"contracts/contract_template.sol\":6656:6681  seller.prosumerEnergyStat */\n      0x01\n      add\n      sload\n        /* \"contracts/contract_template.sol\":6656:6685  seller.prosumerEnergyStat > 0 */\n      sgt\n        /* \"contracts/contract_template.sol\":6648:6714  require(seller.prosumerEnergyStat > 0, \"Seller is not in surplus\") */\n      tag_92\n      jumpi\n      mload(0x40)\n      0x08c379a000000000000000000000000000000000000000000000000000000000\n      dup2\n      mstore\n      0x04\n      add\n      tag_93\n      swap1\n      tag_94\n      jump\t// in\n    tag_93:\n      mload(0x40)\n      dup1\n      swap2\n      sub\n      swap1\n      revert\n    tag_92:\n        /* \"contracts/contract_template.sol\":6776:6796  uint256 buyerDeficit */\n      0x00\n        /* \"contracts/contract_template.sol\":6808:6813  buyer */\n      dup3\n        /* \"contracts/contract_template.sol\":6808:6832  buyer.prosumerEnergyStat */\n      0x01\n      add\n      sload\n        /* \"contracts/contract_template.sol\":6807:6832  -buyer.prosumerEnergyStat */\n      tag_95\n      swap1\n      tag_96\n      jump\t// in\n    tag_95:\n        /* \"contracts/contract_template.sol\":6776:6833  uint256 buyerDeficit = uint256(-buyer.prosumerEnergyStat) */\n      swap1\n      pop\n        /* \"contracts/contract_template.sol\":6908:6920  buyerDeficit */\n      dup1\n        /* \"contracts/contract_template.sol\":6888:6904  _requestedEnergy */\n      dup5\n        /* \"contracts/contract_template.sol\":6888:6920  _requestedEnergy <= buyerDeficit */\n      gt\n      iszero\n        /* \"contracts/contract_template.sol\":6880:6956  require(_requestedEnergy <= buyerDeficit, \"Requested exceeds buyer deficit\") */\n      tag_97\n      jumpi\n      mload(0x40)\n      0x08c379a000000000000000000000000000000000000000000000000000000000\n      dup2\n      mstore\n      0x04\n      add\n      tag_98\n      swap1\n      tag_99\n      jump\t// in\n    tag_98:\n      mload(0x40)\n      dup1\n      swap2\n      sub\n      swap1\n      revert\n    tag_97:\n        /* \"contracts/contract_template.sol\":7013:7034  uint256 sellerSurplus */\n      0x00\n        /* \"contracts/contract_template.sol\":7045:7051  seller */\n      dup3\n        /* \"contracts/contract_template.sol\":7045:7070  seller.prosumerEnergyStat */\n      0x01\n      add\n      sload\n        /* \"contracts/contract_template.sol\":7013:7071  uint256 sellerSurplus = uint256(seller.prosumerEnergyStat) */\n      swap1\n      pop\n        /* \"contracts/contract_template.sol\":7130:7143  sellerSurplus */\n      dup1\n        /* \"contracts/contract_template.sol\":7110:7126  _requestedEnergy */\n      dup6\n        /* \"contracts/contract_template.sol\":7110:7143  _requestedEnergy <= sellerSurplus */\n      gt\n      iszero\n        /* \"contracts/contract_template.sol\":7102:7180  require(_requestedEnergy <= sellerSurplus, \"Requested exceeds seller surplus\") */\n      tag_100\n      jumpi\n      mload(0x40)\n      0x08c379a000000000000000000000000000000000000000000000000000000000\n      dup2\n      mstore\n      0x04\n      add\n      tag_101\n      swap1\n      tag_102\n      jump\t// in\n    tag_101:\n      mload(0x40)\n      dup1\n      swap2\n      sub\n      swap1\n      revert\n    tag_100:\n        /* \"contracts/contract_template.sol\":7250:7262  uint256 cost */\n      0x00\n        /* \"contracts/contract_template.sol\":7284:7295  energyPrice */\n      sload(0x01)\n        /* \"contracts/contract_template.sol\":7265:7281  _requestedEnergy */\n      dup7\n        /* \"contracts/contract_template.sol\":7265:7295  _requestedEnergy * energyPrice */\n      tag_103\n      swap2\n      swap1\n      tag_104\n      jump\t// in\n    tag_103:\n        /* \"contracts/contract_template.sol\":7250:7295  uint256 cost = _requestedEnergy * energyPrice */\n      swap1\n      pop\n        /* \"contracts/contract_template.sol\":7339:7343  cost */\n      dup1\n        /* \"contracts/contract_template.sol\":7314:7319  buyer */\n      dup6\n        /* \"contracts/contract_template.sol\":7314:7335  buyer.prosumerBalance */\n      0x02\n      add\n      sload\n        /* \"contracts/contract_template.sol\":7314:7343  buyer.prosumerBalance >= cost */\n      lt\n      iszero\n        /* \"contracts/contract_template.sol\":7306:7374  require(buyer.prosumerBalance >= cost, \"Insufficient buyer balance\") */\n      tag_105\n      jumpi\n      mload(0x40)\n      0x08c379a000000000000000000000000000000000000000000000000000000000\n      dup2\n      mstore\n      0x04\n      add\n      tag_106\n      swap1\n      tag_107\n      jump\t// in\n    tag_106:\n      mload(0x40)\n      dup1\n      swap2\n      sub\n      swap1\n      revert\n    tag_105:\n        /* \"contracts/contract_template.sol\":7464:7468  cost */\n      dup1\n        /* \"contracts/contract_template.sol\":7439:7444  buyer */\n      dup6\n        /* \"contracts/contract_template.sol\":7439:7460  buyer.prosumerBalance */\n      0x02\n      add\n      0x00\n        /* \"contracts/contract_template.sol\":7439:7468  buyer.prosumerBalance -= cost */\n      dup3\n      dup3\n      sload\n      tag_108\n      swap2\n      swap1\n      tag_109\n      jump\t// in\n    tag_108:\n      swap3\n      pop\n      pop\n      dup2\n      swap1\n      sstore\n      pop\n        /* \"contracts/contract_template.sol\":7505:7509  cost */\n      dup1\n        /* \"contracts/contract_template.sol\":7479:7485  seller */\n      dup5\n        /* \"contracts/contract_template.sol\":7479:7501  seller.prosumerBalance */\n      0x02\n      add\n      0x00\n        /* \"contracts/contract_template.sol\":7479:7509  seller.prosumerBalance += cost */\n      dup3\n      dup3\n      sload\n      tag_110\n      swap2\n      swap1\n      tag_111\n      jump\t// in\n    tag_110:\n      swap3\n      pop\n      pop\n      dup2\n      swap1\n      sstore\n      pop\n        /* \"contracts/contract_template.sol\":7636:7652  _requestedEnergy */\n      dup6\n        /* \"contracts/contract_template.sol\":7601:7606  buyer */\n      dup6\n        /* \"contracts/contract_template.sol\":7601:7625  buyer.prosumerEnergyStat */\n      0x01\n      add\n      0x00\n        /* \"contracts/contract_template.sol\":7601:7653  buyer.prosumerEnergyStat += int256(_requestedEnergy) */\n      dup3\n      dup3\n      sload\n      tag_112\n      swap2\n      swap1\n      tag_113\n      jump\t// in\n    tag_112:\n      swap3\n      pop\n      pop\n      dup2\n      swap1\n      sstore\n      pop\n        /* \"contracts/contract_template.sol\":7700:7716  _requestedEnergy */\n      dup6\n        /* \"contracts/contract_template.sol\":7664:7670  seller */\n      dup5\n        /* \"contracts/contract_template.sol\":7664:7689  seller.prosumerEnergyStat */\n      0x01\n      add\n      0x00\n        /* \"contracts/contract_template.sol\":7664:7717  seller.prosumerEnergyStat -= int256(_requestedEnergy) */\n      dup3\n      dup3\n      sload\n      tag_114\n      swap2\n      swap1\n      tag_115\n      jump\t// in\n    tag_114:\n      swap3\n      pop\n      pop\n      dup2\n      swap1\n      sstore\n      pop\n        /* \"contracts/contract_template.sol\":5741:7826  {... */\n      pop\n      pop\n      pop\n      pop\n      pop\n        /* \"contracts/contract_template.sol\":5669:7826  function buyEnergyFrom(address _seller, uint _requestedEnergy) external {... */\n      pop\n      pop\n      jump\t// out\n        /* \"contracts/contract_template.sol\":582:628  mapping (address => Prosumer) public prosumers */\n    tag_26:\n      mstore(0x20, 0x00)\n      dup1\n      0x00\n      mstore\n      keccak256(0x00, 0x40)\n      0x00\n      swap2\n      pop\n      swap1\n      pop\n      dup1\n      0x00\n      add\n      0x00\n      swap1\n      sload\n      swap1\n      0x0100\n      exp\n      swap1\n      div\n      0xffffffffffffffffffffffffffffffffffffffff\n      and\n      swap1\n      dup1\n      0x01\n      add\n      sload\n      swap1\n      dup1\n      0x02\n      add\n      sload\n      swap1\n      dup1\n      0x03\n      add\n      0x00\n      swap1\n      sload\n      swap1\n      0x0100\n      exp\n      swap1\n      div\n      0xff\n      and\n      swap1\n      pop\n      dup5\n      jump\t// out\n        /* \"contracts/contract_template.sol\":2260:2850  function withdraw(uint256 _value) external {... */\n    tag_33:\n        /* \"contracts/contract_template.sol\":2504:2520  address mySender */\n      0x00\n        /* \"contracts/contract_template.sol\":2521:2531  msg.sender */\n      caller\n        /* \"contracts/contract_template.sol\":2504:2531  address mySender=msg.sender */\n      swap1\n      pop\n        /* \"contracts/contract_template.sol\":2550:2559  prosumers */\n      0x00\n        /* \"contracts/contract_template.sol\":2550:2569  prosumers[mySender] */\n      0x00\n        /* \"contracts/contract_template.sol\":2560:2568  mySender */\n      dup3\n        /* \"contracts/contract_template.sol\":2550:2569  prosumers[mySender] */\n      0xffffffffffffffffffffffffffffffffffffffff\n      and\n      0xffffffffffffffffffffffffffffffffffffffff\n      and\n      dup2\n      mstore\n      0x20\n      add\n      swap1\n      dup2\n      mstore\n      0x20\n      add\n      0x00\n      keccak256\n        /* \"contracts/contract_template.sol\":2550:2578  prosumers[mySender].isMember */\n      0x03\n      add\n      0x00\n      swap1\n      sload\n      swap1\n      0x0100\n      exp\n      swap1\n      div\n      0xff\n      and\n        /* \"contracts/contract_template.sol\":2542:2606  require(prosumers[mySender].isMember, \"Prosumer not registered\") */\n      tag_117\n      jumpi\n      mload(0x40)\n      0x08c379a000000000000000000000000000000000000000000000000000000000\n      dup2\n      mstore\n      0x04\n      add\n      tag_118\n      swap1\n      tag_119\n      jump\t// in\n    tag_118:\n      mload(0x40)\n      dup1\n      swap2\n      sub\n      swap1\n      revert\n    tag_117:\n        /* \"contracts/contract_template.sol\":2667:2668  0 */\n      0x00\n        /* \"contracts/contract_template.sol\":2625:2634  prosumers */\n      0x00\n        /* \"contracts/contract_template.sol\":2625:2644  prosumers[mySender] */\n      0x00\n        /* \"contracts/contract_template.sol\":2635:2643  mySender */\n      dup4\n        /* \"contracts/contract_template.sol\":2625:2644  prosumers[mySender] */\n      0xffffffffffffffffffffffffffffffffffffffff\n      and\n      0xffffffffffffffffffffffffffffffffffffffff\n      and\n      dup2\n      mstore\n      0x20\n      add\n      swap1\n      dup2\n      mstore\n      0x20\n      add\n      0x00\n      keccak256\n        /* \"contracts/contract_template.sol\":2625:2663  prosumers[mySender].prosumerEnergyStat */\n      0x01\n      add\n      sload\n        /* \"contracts/contract_template.sol\":2625:2668  prosumers[mySender].prosumerEnergyStat >= 0 */\n      slt\n      iszero\n        /* \"contracts/contract_template.sol\":2617:2703  require(prosumers[mySender].prosumerEnergyStat >= 0,\"Prosumer has an energy deficit\" ) */\n      tag_120\n      jumpi\n      mload(0x40)\n      0x08c379a000000000000000000000000000000000000000000000000000000000\n      dup2\n      mstore\n      0x04\n      add\n      tag_121\n      swap1\n      tag_122\n      jump\t// in\n    tag_121:\n      mload(0x40)\n      dup1\n      swap2\n      sub\n      swap1\n      revert\n    tag_120:\n        /* \"contracts/contract_template.sol\":2836:2842  _value */\n      dup2\n        /* \"contracts/contract_template.sol\":2798:2807  prosumers */\n      0x00\n        /* \"contracts/contract_template.sol\":2798:2817  prosumers[mySender] */\n      0x00\n        /* \"contracts/contract_template.sol\":2808:2816  mySender */\n      dup4\n        /* \"contracts/contract_template.sol\":2798:2817  prosumers[mySender] */\n      0xffffffffffffffffffffffffffffffffffffffff\n      and\n      0xffffffffffffffffffffffffffffffffffffffff\n      and\n      dup2\n      mstore\n      0x20\n      add\n      swap1\n      dup2\n      mstore\n      0x20\n      add\n      0x00\n      keccak256\n        /* \"contracts/contract_template.sol\":2798:2833  prosumers[mySender].prosumerBalance */\n      0x02\n      add\n      sload\n        /* \"contracts/contract_template.sol\":2798:2842  prosumers[mySender].prosumerBalance - _value */\n      tag_123\n      swap2\n      swap1\n      tag_109\n      jump\t// in\n    tag_123:\n        /* \"contracts/contract_template.sol\":2760:2769  prosumers */\n      0x00\n        /* \"contracts/contract_template.sol\":2760:2779  prosumers[mySender] */\n      0x00\n        /* \"contracts/contract_template.sol\":2770:2778  mySender */\n      dup4\n        /* \"contracts/contract_template.sol\":2760:2779  prosumers[mySender] */\n      0xffffffffffffffffffffffffffffffffffffffff\n      and\n      0xffffffffffffffffffffffffffffffffffffffff\n      and\n      dup2\n      mstore\n      0x20\n      add\n      swap1\n      dup2\n      mstore\n      0x20\n      add\n      0x00\n      keccak256\n        /* \"contracts/contract_template.sol\":2760:2795  prosumers[mySender].prosumerBalance */\n      0x02\n      add\n        /* \"contracts/contract_template.sol\":2760:2842  prosumers[mySender].prosumerBalance = prosumers[mySender].prosumerBalance - _value */\n      dup2\n      swap1\n      sstore\n      pop\n        /* \"contracts/contract_template.sol\":2303:2850  {... */\n      pop\n        /* \"contracts/contract_template.sol\":2260:2850  function withdraw(uint256 _value) external {... */\n      pop\n      jump\t// out\n        /* \"contracts/contract_template.sol\":3823:5661  function updateEnergyPrice() public {... */\n    tag_36:\n        /* \"contracts/contract_template.sol\":4507:4519  int256 total */\n      0x00\n        /* \"contracts/contract_template.sol\":4522:4523  0 */\n      0x00\n        /* \"contracts/contract_template.sol\":4507:4523  int256 total = 0 */\n      swap1\n      pop\n        /* \"contracts/contract_template.sol\":4580:4589  uint256 i */\n      0x00\n        /* \"contracts/contract_template.sol\":4592:4593  0 */\n      0x00\n        /* \"contracts/contract_template.sol\":4580:4593  uint256 i = 0 */\n      swap1\n      pop\n        /* \"contracts/contract_template.sol\":4575:4744  for (uint256 i = 0; i < prosumerAddresses.length; i++) {... */\n    tag_125:\n        /* \"contracts/contract_template.sol\":4599:4616  prosumerAddresses */\n      0x03\n        /* \"contracts/contract_template.sol\":4599:4623  prosumerAddresses.length */\n      dup1\n      sload\n      swap1\n      pop\n        /* \"contracts/contract_template.sol\":4595:4596  i */\n      dup2\n        /* \"contracts/contract_template.sol\":4595:4623  i < prosumerAddresses.length */\n      lt\n        /* \"contracts/contract_template.sol\":4575:4744  for (uint256 i = 0; i < prosumerAddresses.length; i++) {... */\n      iszero\n      tag_126\n      jumpi\n        /* \"contracts/contract_template.sol\":4645:4654  address a */\n      0x00\n        /* \"contracts/contract_template.sol\":4657:4674  prosumerAddresses */\n      0x03\n        /* \"contracts/contract_template.sol\":4675:4676  i */\n      dup3\n        /* \"contracts/contract_template.sol\":4657:4677  prosumerAddresses[i] */\n      dup2\n      sload\n      dup2\n      lt\n      tag_128\n      jumpi\n      tag_129\n      tag_130\n      jump\t// in\n    tag_129:\n    tag_128:\n      swap1\n      0x00\n      mstore\n      keccak256(0x00, 0x20)\n      add\n      0x00\n      swap1\n      sload\n      swap1\n      0x0100\n      exp\n      swap1\n      div\n      0xffffffffffffffffffffffffffffffffffffffff\n      and\n        /* \"contracts/contract_template.sol\":4645:4677  address a = prosumerAddresses[i] */\n      swap1\n      pop\n        /* \"contracts/contract_template.sol\":4701:4710  prosumers */\n      0x00\n        /* \"contracts/contract_template.sol\":4701:4713  prosumers[a] */\n      0x00\n        /* \"contracts/contract_template.sol\":4711:4712  a */\n      dup3\n        /* \"contracts/contract_template.sol\":4701:4713  prosumers[a] */\n      0xffffffffffffffffffffffffffffffffffffffff\n      and\n      0xffffffffffffffffffffffffffffffffffffffff\n      and\n      dup2\n      mstore\n      0x20\n      add\n      swap1\n      dup2\n      mstore\n      0x20\n      add\n      0x00\n      keccak256\n        /* \"contracts/contract_template.sol\":4701:4732  prosumers[a].prosumerEnergyStat */\n      0x01\n      add\n      sload\n        /* \"contracts/contract_template.sol\":4692:4732  total += prosumers[a].prosumerEnergyStat */\n      dup4\n      tag_132\n      swap2\n      swap1\n      tag_113\n      jump\t// in\n    tag_132:\n      swap3\n      pop\n        /* \"contracts/contract_template.sol\":4630:4744  {... */\n      pop\n        /* \"contracts/contract_template.sol\":4625:4628  i++ */\n      dup1\n      dup1\n      0x01\n      add\n      swap2\n      pop\n      pop\n        /* \"contracts/contract_template.sol\":4575:4744  for (uint256 i = 0; i < prosumerAddresses.length; i++) {... */\n      jump(tag_125)\n    tag_126:\n      pop\n        /* \"contracts/contract_template.sol\":4803:4816  uint256 price */\n      0x00\n        /* \"contracts/contract_template.sol\":4819:4826  1 ether */\n      0x0de0b6b3a7640000\n        /* \"contracts/contract_template.sol\":4803:4826  uint256 price = 1 ether */\n      swap1\n      pop\n        /* \"contracts/contract_template.sol\":4889:4907  uint256 adjustment */\n      0x00\n        /* \"contracts/contract_template.sol\":4930:4931  0 */\n      0x00\n        /* \"contracts/contract_template.sol\":4922:4927  total */\n      dup4\n        /* \"contracts/contract_template.sol\":4922:4931  total < 0 */\n      slt\n        /* \"contracts/contract_template.sol\":4918:5422  if (total < 0) {... */\n      iszero\n      tag_133\n      jumpi\n        /* \"contracts/contract_template.sol\":4979:4990  0.001 ether */\n      0x038d7ea4c68000\n        /* \"contracts/contract_template.sol\":4970:4975  total */\n      dup4\n        /* \"contracts/contract_template.sol\":4969:4975  -total */\n      tag_134\n      swap1\n      tag_96\n      jump\t// in\n    tag_134:\n        /* \"contracts/contract_template.sol\":4961:4990  uint256(-total) * 0.001 ether */\n      tag_135\n      swap2\n      swap1\n      tag_104\n      jump\t// in\n    tag_135:\n        /* \"contracts/contract_template.sol\":4948:4990  adjustment = uint256(-total) * 0.001 ether */\n      swap1\n      pop\n        /* \"contracts/contract_template.sol\":5044:5054  adjustment */\n      dup1\n        /* \"contracts/contract_template.sol\":5036:5041  price */\n      dup3\n        /* \"contracts/contract_template.sol\":5036:5054  price + adjustment */\n      tag_136\n      swap2\n      swap1\n      tag_111\n      jump\t// in\n    tag_136:\n        /* \"contracts/contract_template.sol\":5028:5054  price = price + adjustment */\n      swap2\n      pop\n        /* \"contracts/contract_template.sol\":4918:5422  if (total < 0) {... */\n      jump(tag_137)\n    tag_133:\n        /* \"contracts/contract_template.sol\":5084:5085  0 */\n      0x00\n        /* \"contracts/contract_template.sol\":5076:5081  total */\n      dup4\n        /* \"contracts/contract_template.sol\":5076:5085  total > 0 */\n      sgt\n        /* \"contracts/contract_template.sol\":5072:5422  if (total > 0) {... */\n      iszero\n      tag_138\n      jumpi\n        /* \"contracts/contract_template.sol\":5132:5143  0.001 ether */\n      0x038d7ea4c68000\n        /* \"contracts/contract_template.sol\":5123:5128  total */\n      dup4\n        /* \"contracts/contract_template.sol\":5115:5143  uint256(total) * 0.001 ether */\n      tag_139\n      swap2\n      swap1\n      tag_104\n      jump\t// in\n    tag_139:\n        /* \"contracts/contract_template.sol\":5102:5143  adjustment = uint256(total) * 0.001 ether */\n      swap1\n      pop\n        /* \"contracts/contract_template.sol\":5256:5261  price */\n      dup2\n        /* \"contracts/contract_template.sol\":5242:5252  adjustment */\n      dup2\n        /* \"contracts/contract_template.sol\":5242:5261  adjustment >= price */\n      lt\n        /* \"contracts/contract_template.sol\":5238:5411  if (adjustment >= price) {... */\n      tag_140\n      jumpi\n        /* \"contracts/contract_template.sol\":5290:5291  0 */\n      0x00\n        /* \"contracts/contract_template.sol\":5282:5291  price = 0 */\n      swap2\n      pop\n        /* \"contracts/contract_template.sol\":5238:5411  if (adjustment >= price) {... */\n      jump(tag_141)\n    tag_140:\n        /* \"contracts/contract_template.sol\":5385:5395  adjustment */\n      dup1\n        /* \"contracts/contract_template.sol\":5377:5382  price */\n      dup3\n        /* \"contracts/contract_template.sol\":5377:5395  price - adjustment */\n      tag_142\n      swap2\n      swap1\n      tag_109\n      jump\t// in\n    tag_142:\n        /* \"contracts/contract_template.sol\":5369:5395  price = price - adjustment */\n      swap2\n      pop\n        /* \"contracts/contract_template.sol\":5238:5411  if (adjustment >= price) {... */\n    tag_141:\n        /* \"contracts/contract_template.sol\":5072:5422  if (total > 0) {... */\n    tag_138:\n        /* \"contracts/contract_template.sol\":4918:5422  if (total < 0) {... */\n    tag_137:\n        /* \"contracts/contract_template.sol\":5493:5502  0.1 ether */\n      0x016345785d8a0000\n        /* \"contracts/contract_template.sol\":5485:5490  price */\n      dup3\n        /* \"contracts/contract_template.sol\":5485:5502  price < 0.1 ether */\n      lt\n        /* \"contracts/contract_template.sol\":5481:5521  if (price < 0.1 ether) price = 0.1 ether */\n      iszero\n      tag_143\n      jumpi\n        /* \"contracts/contract_template.sol\":5512:5521  0.1 ether */\n      0x016345785d8a0000\n        /* \"contracts/contract_template.sol\":5504:5521  price = 0.1 ether */\n      swap2\n      pop\n        /* \"contracts/contract_template.sol\":5481:5521  if (price < 0.1 ether) price = 0.1 ether */\n    tag_143:\n        /* \"contracts/contract_template.sol\":5544:5551  5 ether */\n      0x4563918244f40000\n        /* \"contracts/contract_template.sol\":5536:5541  price */\n      dup3\n        /* \"contracts/contract_template.sol\":5536:5551  price > 5 ether */\n      gt\n        /* \"contracts/contract_template.sol\":5532:5570  if (price > 5 ether)   price = 5 ether */\n      iszero\n      tag_144\n      jumpi\n        /* \"contracts/contract_template.sol\":5563:5570  5 ether */\n      0x4563918244f40000\n        /* \"contracts/contract_template.sol\":5555:5570  price = 5 ether */\n      swap2\n      pop\n        /* \"contracts/contract_template.sol\":5532:5570  if (price > 5 ether)   price = 5 ether */\n    tag_144:\n        /* \"contracts/contract_template.sol\":5597:5602  price */\n      dup2\n        /* \"contracts/contract_template.sol\":5583:5594  energyPrice */\n      0x01\n        /* \"contracts/contract_template.sol\":5583:5602  energyPrice = price */\n      dup2\n      swap1\n      sstore\n      pop\n        /* \"contracts/contract_template.sol\":5621:5653  EnergyPriceUpdated(price, total) */\n      0x999f531f5c660ea97b00b870fa2eaf696cf5c011cc53c3a68a866585105d6e56\n        /* \"contracts/contract_template.sol\":5640:5645  price */\n      dup3\n        /* \"contracts/contract_template.sol\":5647:5652  total */\n      dup5\n        /* \"contracts/contract_template.sol\":5621:5653  EnergyPriceUpdated(price, total) */\n      mload(0x40)\n      tag_145\n      swap3\n      swap2\n      swap1\n      tag_146\n      jump\t// in\n    tag_145:\n      mload(0x40)\n      dup1\n      swap2\n      sub\n      swap1\n      log1\n        /* \"contracts/contract_template.sol\":3859:5661  {... */\n      pop\n      pop\n      pop\n        /* \"contracts/contract_template.sol\":3823:5661  function updateEnergyPrice() public {... */\n      jump\t// out\n        /* \"contracts/contract_template.sol\":7957:8038  function coordinateTrading() public {... */\n    tag_39:\n      jump\t// out\n        /* \"contracts/contract_template.sol\":7834:7947  function sellEnergyTo(address _buyer, uint _offeredEnergy) external {... */\n    tag_43:\n      pop\n      pop\n      jump\t// out\n        /* \"contracts/contract_template.sol\":8082:8221  function contractBalance() external view returns (uint256) {... */\n    tag_46:\n        /* \"contracts/contract_template.sol\":8132:8139  uint256 */\n      0x00\n        /* \"contracts/contract_template.sol\":8192:8213  address(this).balance */\n      selfbalance\n        /* \"contracts/contract_template.sol\":8185:8213  return address(this).balance */\n      swap1\n      pop\n        /* \"contracts/contract_template.sol\":8082:8221  function contractBalance() external view returns (uint256) {... */\n      swap1\n      jump\t// out\n        /* \"contracts/contract_template.sol\":1252:1860  function registerProsumer() external {... */\n    tag_51:\n        /* \"contracts/contract_template.sol\":1560:1569  prosumers */\n      0x00\n        /* \"contracts/contract_template.sol\":1560:1581  prosumers[msg.sender] */\n      0x00\n        /* \"contracts/contract_template.sol\":1570:1580  msg.sender */\n      caller\n        /* \"contracts/contract_template.sol\":1560:1581  prosumers[msg.sender] */\n      0xffffffffffffffffffffffffffffffffffffffff\n      and\n      0xffffffffffffffffffffffffffffffffffffffff\n      and\n      dup2\n      mstore\n      0x20\n      add\n      swap1\n      dup2\n      mstore\n      0x20\n      add\n      0x00\n      keccak256\n        /* \"contracts/contract_template.sol\":1560:1590  prosumers[msg.sender].isMember */\n      0x03\n      add\n      0x00\n      swap1\n      sload\n      swap1\n      0x0100\n      exp\n      swap1\n      div\n      0xff\n      and\n        /* \"contracts/contract_template.sol\":1559:1590  !prosumers[msg.sender].isMember */\n      iszero\n        /* \"contracts/contract_template.sol\":1551:1622  require(!prosumers[msg.sender].isMember,\"Prosumer already registered!\") */\n      tag_151\n      jumpi\n      mload(0x40)\n      0x08c379a000000000000000000000000000000000000000000000000000000000\n      dup2\n      mstore\n      0x04\n      add\n      tag_152\n      swap1\n      tag_153\n      jump\t// in\n    tag_152:\n      mload(0x40)\n      dup1\n      swap2\n      sub\n      swap1\n      revert\n    tag_151:\n        /* \"contracts/contract_template.sol\":1655:1805  Prosumer({... */\n      mload(0x40)\n      dup1\n      0x80\n      add\n      0x40\n      mstore\n      dup1\n        /* \"contracts/contract_template.sol\":1696:1706  msg.sender */\n      caller\n        /* \"contracts/contract_template.sol\":1655:1805  Prosumer({... */\n      0xffffffffffffffffffffffffffffffffffffffff\n      and\n      dup2\n      mstore\n      0x20\n      add\n        /* \"contracts/contract_template.sol\":1740:1741  0 */\n      0x00\n        /* \"contracts/contract_template.sol\":1655:1805  Prosumer({... */\n      dup2\n      mstore\n      0x20\n      add\n        /* \"contracts/contract_template.sol\":1773:1774  0 */\n      0x00\n        /* \"contracts/contract_template.sol\":1655:1805  Prosumer({... */\n      dup2\n      mstore\n      0x20\n      add\n        /* \"contracts/contract_template.sol\":1799:1803  true */\n      0x01\n        /* \"contracts/contract_template.sol\":1655:1805  Prosumer({... */\n      iszero\n      iszero\n      dup2\n      mstore\n      pop\n        /* \"contracts/contract_template.sol\":1633:1642  prosumers */\n      0x00\n        /* \"contracts/contract_template.sol\":1633:1654  prosumers[msg.sender] */\n      0x00\n        /* \"contracts/contract_template.sol\":1643:1653  msg.sender */\n      caller\n        /* \"contracts/contract_template.sol\":1633:1654  prosumers[msg.sender] */\n      0xffffffffffffffffffffffffffffffffffffffff\n      and\n      0xffffffffffffffffffffffffffffffffffffffff\n      and\n      dup2\n      mstore\n      0x20\n      add\n      swap1\n      dup2\n      mstore\n      0x20\n      add\n      0x00\n      keccak256\n        /* \"contracts/contract_template.sol\":1633:1805  prosumers[msg.sender]=Prosumer({... */\n      0x00\n      dup3\n      add\n      mload\n      dup2\n      0x00\n      add\n      exp(0x0100, 0x00)\n      dup2\n      sload\n      dup2\n      0xffffffffffffffffffffffffffffffffffffffff\n      mul\n      not\n      and\n      swap1\n      dup4\n      0xffffffffffffffffffffffffffffffffffffffff\n      and\n      mul\n      or\n      swap1\n      sstore\n      pop\n      0x20\n      dup3\n      add\n      mload\n      dup2\n      0x01\n      add\n      sstore\n      0x40\n      dup3\n      add\n      mload\n      dup2\n      0x02\n      add\n      sstore\n      0x60\n      dup3\n      add\n      mload\n      dup2\n      0x03\n      add\n      exp(0x0100, 0x00)\n      dup2\n      sload\n      dup2\n      0xff\n      mul\n      not\n      and\n      swap1\n      dup4\n      iszero\n      iszero\n      mul\n      or\n      swap1\n      sstore\n      pop\n      swap1\n      pop\n      pop\n        /* \"contracts/contract_template.sol\":1818:1835  prosumerAddresses */\n      0x03\n        /* \"contracts/contract_template.sol\":1841:1851  msg.sender */\n      caller\n        /* \"contracts/contract_template.sol\":1818:1852  prosumerAddresses.push(msg.sender) */\n      swap1\n      dup1\n      0x01\n      dup2\n      sload\n      add\n      dup1\n      dup3\n      sstore\n      dup1\n      swap2\n      pop\n      pop\n      0x01\n      swap1\n      sub\n      swap1\n      0x00\n      mstore\n      keccak256(0x00, 0x20)\n      add\n      0x00\n      swap1\n      swap2\n      swap1\n      swap2\n      swap1\n      swap2\n      0x0100\n      exp\n      dup2\n      sload\n      dup2\n      0xffffffffffffffffffffffffffffffffffffffff\n      mul\n      not\n      and\n      swap1\n      dup4\n      0xffffffffffffffffffffffffffffffffffffffff\n      and\n      mul\n      or\n      swap1\n      sstore\n      pop\n        /* \"contracts/contract_template.sol\":1252:1860  function registerProsumer() external {... */\n      jump\t// out\n        /* \"contracts/contract_template.sol\":8389:8476  function getRecorder() public view returns (address) {... */\n    tag_54:\n        /* \"contracts/contract_template.sol\":8433:8440  address */\n      0x00\n        /* \"contracts/contract_template.sol\":8460:8468  recorder */\n      0x02\n      0x00\n      swap1\n      sload\n      swap1\n      0x0100\n      exp\n      swap1\n      div\n      0xffffffffffffffffffffffffffffffffffffffff\n      and\n        /* \"contracts/contract_template.sol\":8453:8468  return recorder */\n      swap1\n      pop\n        /* \"contracts/contract_template.sol\":8389:8476  function getRecorder() public view returns (address) {... */\n      swap1\n      jump\t// out\n        /* \"contracts/contract_template.sol\":1017:1051  address[] public prosumerAddresses */\n    tag_60:\n      0x03\n      dup2\n      dup2\n      sload\n      dup2\n      lt\n      tag_156\n      jumpi\n      0x00\n      dup1\n      revert\n    tag_156:\n      swap1\n      0x00\n      mstore\n      keccak256(0x00, 0x20)\n      add\n      0x00\n      swap2\n      pop\n      sload\n      swap1\n      0x0100\n      exp\n      swap1\n      div\n      0xffffffffffffffffffffffffffffffffffffffff\n      and\n      dup2\n      jump\t// out\n        /* \"contracts/contract_template.sol\":8484:8577  function getEnergyPrice() public view returns (uint256) {... */\n    tag_64:\n        /* \"contracts/contract_template.sol\":8531:8538  uint256 */\n      0x00\n        /* \"contracts/contract_template.sol\":8558:8569  energyPrice */\n      sload(0x01)\n        /* \"contracts/contract_template.sol\":8551:8569  return energyPrice */\n      swap1\n      pop\n        /* \"contracts/contract_template.sol\":8484:8577  function getEnergyPrice() public view returns (uint256) {... */\n      swap1\n      jump\t// out\n        /* \"contracts/contract_template.sol\":2858:3815  function updateEnergyStatus(address _prosumer, int256 deltaEnergy) external {... */\n    tag_70:\n        /* \"contracts/contract_template.sol\":3458:3466  recorder */\n      0x02\n      0x00\n      swap1\n      sload\n      swap1\n      0x0100\n      exp\n      swap1\n      div\n      0xffffffffffffffffffffffffffffffffffffffff\n      and\n        /* \"contracts/contract_template.sol\":3444:3466  msg.sender == recorder */\n      0xffffffffffffffffffffffffffffffffffffffff\n      and\n        /* \"contracts/contract_template.sol\":3444:3454  msg.sender */\n      caller\n        /* \"contracts/contract_template.sol\":3444:3466  msg.sender == recorder */\n      0xffffffffffffffffffffffffffffffffffffffff\n      and\n      eq\n        /* \"contracts/contract_template.sol\":3436:3509  require(msg.sender == recorder, \"Only recorder can update energy status\") */\n      tag_160\n      jumpi\n      mload(0x40)\n      0x08c379a000000000000000000000000000000000000000000000000000000000\n      dup2\n      mstore\n      0x04\n      add\n      tag_161\n      swap1\n      tag_162\n      jump\t// in\n    tag_161:\n      mload(0x40)\n      dup1\n      swap2\n      sub\n      swap1\n      revert\n    tag_160:\n        /* \"contracts/contract_template.sol\":3528:3537  prosumers */\n      0x00\n        /* \"contracts/contract_template.sol\":3528:3548  prosumers[_prosumer] */\n      0x00\n        /* \"contracts/contract_template.sol\":3538:3547  _prosumer */\n      dup4\n        /* \"contracts/contract_template.sol\":3528:3548  prosumers[_prosumer] */\n      0xffffffffffffffffffffffffffffffffffffffff\n      and\n      0xffffffffffffffffffffffffffffffffffffffff\n      and\n      dup2\n      mstore\n      0x20\n      add\n      swap1\n      dup2\n      mstore\n      0x20\n      add\n      0x00\n      keccak256\n        /* \"contracts/contract_template.sol\":3528:3557  prosumers[_prosumer].isMember */\n      0x03\n      add\n      0x00\n      swap1\n      sload\n      swap1\n      0x0100\n      exp\n      swap1\n      div\n      0xff\n      and\n        /* \"contracts/contract_template.sol\":3520:3585  require(prosumers[_prosumer].isMember, \"Prosumer not registered\") */\n      tag_163\n      jumpi\n      mload(0x40)\n      0x08c379a000000000000000000000000000000000000000000000000000000000\n      dup2\n      mstore\n      0x04\n      add\n      tag_164\n      swap1\n      tag_119\n      jump\t// in\n    tag_164:\n      mload(0x40)\n      dup1\n      swap2\n      sub\n      swap1\n      revert\n    tag_163:\n        /* \"contracts/contract_template.sol\":3641:3652  deltaEnergy */\n      dup1\n        /* \"contracts/contract_template.sol\":3598:3607  prosumers */\n      0x00\n        /* \"contracts/contract_template.sol\":3598:3618  prosumers[_prosumer] */\n      0x00\n        /* \"contracts/contract_template.sol\":3608:3617  _prosumer */\n      dup5\n        /* \"contracts/contract_template.sol\":3598:3618  prosumers[_prosumer] */\n      0xffffffffffffffffffffffffffffffffffffffff\n      and\n      0xffffffffffffffffffffffffffffffffffffffff\n      and\n      dup2\n      mstore\n      0x20\n      add\n      swap1\n      dup2\n      mstore\n      0x20\n      add\n      0x00\n      keccak256\n        /* \"contracts/contract_template.sol\":3598:3637  prosumers[_prosumer].prosumerEnergyStat */\n      0x01\n      add\n      0x00\n        /* \"contracts/contract_template.sol\":3598:3652  prosumers[_prosumer].prosumerEnergyStat += deltaEnergy */\n      dup3\n      dup3\n      sload\n      tag_165\n      swap2\n      swap1\n      tag_113\n      jump\t// in\n    tag_165:\n      swap3\n      pop\n      pop\n      dup2\n      swap1\n      sstore\n      pop\n        /* \"contracts/contract_template.sol\":2858:3815  function updateEnergyStatus(address _prosumer, int256 deltaEnergy) external {... */\n      pop\n      pop\n      jump\t// out\n        /* \"contracts/contract_template.sol\":1868:2252  function deposit() external payable {... */\n    tag_72:\n        /* \"contracts/contract_template.sol\":2125:2134  prosumers */\n      0x00\n        /* \"contracts/contract_template.sol\":2125:2146  prosumers[msg.sender] */\n      0x00\n        /* \"contracts/contract_template.sol\":2135:2145  msg.sender */\n      caller\n        /* \"contracts/contract_template.sol\":2125:2146  prosumers[msg.sender] */\n      0xffffffffffffffffffffffffffffffffffffffff\n      and\n      0xffffffffffffffffffffffffffffffffffffffff\n      and\n      dup2\n      mstore\n      0x20\n      add\n      swap1\n      dup2\n      mstore\n      0x20\n      add\n      0x00\n      keccak256\n        /* \"contracts/contract_template.sol\":2125:2155  prosumers[msg.sender].isMember */\n      0x03\n      add\n      0x00\n      swap1\n      sload\n      swap1\n      0x0100\n      exp\n      swap1\n      div\n      0xff\n      and\n        /* \"contracts/contract_template.sol\":2117:2183  require(prosumers[msg.sender].isMember, \"Prosumer not registered\") */\n      tag_167\n      jumpi\n      mload(0x40)\n      0x08c379a000000000000000000000000000000000000000000000000000000000\n      dup2\n      mstore\n      0x04\n      add\n      tag_168\n      swap1\n      tag_119\n      jump\t// in\n    tag_168:\n      mload(0x40)\n      dup1\n      swap2\n      sub\n      swap1\n      revert\n    tag_167:\n        /* \"contracts/contract_template.sol\":2235:2244  msg.value */\n      callvalue\n        /* \"contracts/contract_template.sol\":2194:2203  prosumers */\n      0x00\n        /* \"contracts/contract_template.sol\":2194:2215  prosumers[msg.sender] */\n      0x00\n        /* \"contracts/contract_template.sol\":2204:2214  msg.sender */\n      caller\n        /* \"contracts/contract_template.sol\":2194:2215  prosumers[msg.sender] */\n      0xffffffffffffffffffffffffffffffffffffffff\n      and\n      0xffffffffffffffffffffffffffffffffffffffff\n      and\n      dup2\n      mstore\n      0x20\n      add\n      swap1\n      dup2\n      mstore\n      0x20\n      add\n      0x00\n      keccak256\n        /* \"contracts/contract_template.sol\":2194:2231  prosumers[msg.sender].prosumerBalance */\n      0x02\n      add\n      0x00\n        /* \"contracts/contract_template.sol\":2194:2244  prosumers[msg.sender].prosumerBalance += msg.value */\n      dup3\n      dup3\n      sload\n      tag_169\n      swap2\n      swap1\n      tag_111\n      jump\t// in\n    tag_169:\n      swap3\n      pop\n      pop\n      dup2\n      swap1\n      sstore\n      pop\n        /* \"contracts/contract_template.sol\":1868:2252  function deposit() external payable {... */\n      jump\t// out\n        /* \"#utility.yul\":88:205   */\n    tag_171:\n        /* \"#utility.yul\":197:198   */\n      0x00\n        /* \"#utility.yul\":194:195   */\n      0x00\n        /* \"#utility.yul\":187:199   */\n      revert\n        /* \"#utility.yul\":334:460   */\n    tag_173:\n        /* \"#utility.yul\":371:378   */\n      0x00\n        /* \"#utility.yul\":411:453   */\n      0xffffffffffffffffffffffffffffffffffffffff\n        /* \"#utility.yul\":404:409   */\n      dup3\n        /* \"#utility.yul\":400:454   */\n      and\n        /* \"#utility.yul\":389:454   */\n      swap1\n      pop\n        /* \"#utility.yul\":334:460   */\n      swap2\n      swap1\n      pop\n      jump\t// out\n        /* \"#utility.yul\":466:562   */\n    tag_174:\n        /* \"#utility.yul\":503:510   */\n      0x00\n        /* \"#utility.yul\":532:556   */\n      tag_224\n        /* \"#utility.yul\":550:555   */\n      dup3\n        /* \"#utility.yul\":532:556   */\n      tag_173\n      jump\t// in\n    tag_224:\n        /* \"#utility.yul\":521:556   */\n      swap1\n      pop\n        /* \"#utility.yul\":466:562   */\n      swap2\n      swap1\n      pop\n      jump\t// out\n        /* \"#utility.yul\":568:690   */\n    tag_175:\n        /* \"#utility.yul\":641:665   */\n      tag_226\n        /* \"#utility.yul\":659:664   */\n      dup2\n        /* \"#utility.yul\":641:665   */\n      tag_174\n      jump\t// in\n    tag_226:\n        /* \"#utility.yul\":634:639   */\n      dup2\n        /* \"#utility.yul\":631:666   */\n      eq\n        /* \"#utility.yul\":621:684   */\n      tag_227\n      jumpi\n        /* \"#utility.yul\":680:681   */\n      0x00\n        /* \"#utility.yul\":677:678   */\n      0x00\n        /* \"#utility.yul\":670:682   */\n      revert\n        /* \"#utility.yul\":621:684   */\n    tag_227:\n        /* \"#utility.yul\":568:690   */\n      pop\n      jump\t// out\n        /* \"#utility.yul\":696:835   */\n    tag_176:\n        /* \"#utility.yul\":742:747   */\n      0x00\n        /* \"#utility.yul\":780:786   */\n      dup2\n        /* \"#utility.yul\":767:787   */\n      calldataload\n        /* \"#utility.yul\":758:787   */\n      swap1\n      pop\n        /* \"#utility.yul\":796:829   */\n      tag_229\n        /* \"#utility.yul\":823:828   */\n      dup2\n        /* \"#utility.yul\":796:829   */\n      tag_175\n      jump\t// in\n    tag_229:\n        /* \"#utility.yul\":696:835   */\n      swap3\n      swap2\n      pop\n      pop\n      jump\t// out\n        /* \"#utility.yul\":841:918   */\n    tag_177:\n        /* \"#utility.yul\":878:885   */\n      0x00\n        /* \"#utility.yul\":907:912   */\n      dup2\n        /* \"#utility.yul\":896:912   */\n      swap1\n      pop\n        /* \"#utility.yul\":841:918   */\n      swap2\n      swap1\n      pop\n      jump\t// out\n        /* \"#utility.yul\":924:1046   */\n    tag_178:\n        /* \"#utility.yul\":997:1021   */\n      tag_232\n        /* \"#utility.yul\":1015:1020   */\n      dup2\n        /* \"#utility.yul\":997:1021   */\n      tag_177\n      jump\t// in\n    tag_232:\n        /* \"#utility.yul\":990:995   */\n      dup2\n        /* \"#utility.yul\":987:1022   */\n      eq\n        /* \"#utility.yul\":977:1040   */\n      tag_233\n      jumpi\n        /* \"#utility.yul\":1036:1037   */\n      0x00\n        /* \"#utility.yul\":1033:1034   */\n      0x00\n        /* \"#utility.yul\":1026:1038   */\n      revert\n        /* \"#utility.yul\":977:1040   */\n    tag_233:\n        /* \"#utility.yul\":924:1046   */\n      pop\n      jump\t// out\n        /* \"#utility.yul\":1052:1191   */\n    tag_179:\n        /* \"#utility.yul\":1098:1103   */\n      0x00\n        /* \"#utility.yul\":1136:1142   */\n      dup2\n        /* \"#utility.yul\":1123:1143   */\n      calldataload\n        /* \"#utility.yul\":1114:1143   */\n      swap1\n      pop\n        /* \"#utility.yul\":1152:1185   */\n      tag_235\n        /* \"#utility.yul\":1179:1184   */\n      dup2\n        /* \"#utility.yul\":1152:1185   */\n      tag_178\n      jump\t// in\n    tag_235:\n        /* \"#utility.yul\":1052:1191   */\n      swap3\n      swap2\n      pop\n      pop\n      jump\t// out\n        /* \"#utility.yul\":1197:1671   */\n    tag_20:\n        /* \"#utility.yul\":1265:1271   */\n      0x00\n        /* \"#utility.yul\":1273:1279   */\n      0x00\n        /* \"#utility.yul\":1322:1324   */\n      0x40\n        /* \"#utility.yul\":1310:1319   */\n      dup4\n        /* \"#utility.yul\":1301:1308   */\n      dup6\n        /* \"#utility.yul\":1297:1320   */\n      sub\n        /* \"#utility.yul\":1293:1325   */\n      slt\n        /* \"#utility.yul\":1290:1409   */\n      iszero\n      tag_237\n      jumpi\n        /* \"#utility.yul\":1328:1407   */\n      tag_238\n      tag_171\n      jump\t// in\n    tag_238:\n        /* \"#utility.yul\":1290:1409   */\n    tag_237:\n        /* \"#utility.yul\":1448:1449   */\n      0x00\n        /* \"#utility.yul\":1473:1526   */\n      tag_239\n        /* \"#utility.yul\":1518:1525   */\n      dup6\n        /* \"#utility.yul\":1509:1515   */\n      dup3\n        /* \"#utility.yul\":1498:1507   */\n      dup7\n        /* \"#utility.yul\":1494:1516   */\n      add\n        /* \"#utility.yul\":1473:1526   */\n      tag_176\n      jump\t// in\n    tag_239:\n        /* \"#utility.yul\":1463:1526   */\n      swap3\n      pop\n        /* \"#utility.yul\":1419:1536   */\n      pop\n        /* \"#utility.yul\":1575:1577   */\n      0x20\n        /* \"#utility.yul\":1601:1654   */\n      tag_240\n        /* \"#utility.yul\":1646:1653   */\n      dup6\n        /* \"#utility.yul\":1637:1643   */\n      dup3\n        /* \"#utility.yul\":1626:1635   */\n      dup7\n        /* \"#utility.yul\":1622:1644   */\n      add\n        /* \"#utility.yul\":1601:1654   */\n      tag_179\n      jump\t// in\n    tag_240:\n        /* \"#utility.yul\":1591:1654   */\n      swap2\n      pop\n        /* \"#utility.yul\":1546:1664   */\n      pop\n        /* \"#utility.yul\":1197:1671   */\n      swap3\n      pop\n      swap3\n      swap1\n      pop\n      jump\t// out\n        /* \"#utility.yul\":1677:2006   */\n    tag_25:\n        /* \"#utility.yul\":1736:1742   */\n      0x00\n        /* \"#utility.yul\":1785:1787   */\n      0x20\n        /* \"#utility.yul\":1773:1782   */\n      dup3\n        /* \"#utility.yul\":1764:1771   */\n      dup5\n        /* \"#utility.yul\":1760:1783   */\n      sub\n        /* \"#utility.yul\":1756:1788   */\n      slt\n        /* \"#utility.yul\":1753:1872   */\n      iszero\n      tag_242\n      jumpi\n        /* \"#utility.yul\":1791:1870   */\n      tag_243\n      tag_171\n      jump\t// in\n    tag_243:\n        /* \"#utility.yul\":1753:1872   */\n    tag_242:\n        /* \"#utility.yul\":1911:1912   */\n      0x00\n        /* \"#utility.yul\":1936:1989   */\n      tag_244\n        /* \"#utility.yul\":1981:1988   */\n      dup5\n        /* \"#utility.yul\":1972:1978   */\n      dup3\n        /* \"#utility.yul\":1961:1970   */\n      dup6\n        /* \"#utility.yul\":1957:1979   */\n      add\n        /* \"#utility.yul\":1936:1989   */\n      tag_176\n      jump\t// in\n    tag_244:\n        /* \"#utility.yul\":1926:1989   */\n      swap2\n      pop\n        /* \"#utility.yul\":1882:1999   */\n      pop\n        /* \"#utility.yul\":1677:2006   */\n      swap3\n      swap2\n      pop\n      pop\n      jump\t// out\n        /* \"#utility.yul\":2012:2130   */\n    tag_180:\n        /* \"#utility.yul\":2099:2123   */\n      tag_246\n        /* \"#utility.yul\":2117:2122   */\n      dup2\n        /* \"#utility.yul\":2099:2123   */\n      tag_174\n      jump\t// in\n    tag_246:\n        /* \"#utility.yul\":2094:2097   */\n      dup3\n        /* \"#utility.yul\":2087:2124   */\n      mstore\n        /* \"#utility.yul\":2012:2130   */\n      pop\n      pop\n      jump\t// out\n        /* \"#utility.yul\":2136:2212   */\n    tag_181:\n        /* \"#utility.yul\":2172:2179   */\n      0x00\n        /* \"#utility.yul\":2201:2206   */\n      dup2\n        /* \"#utility.yul\":2190:2206   */\n      swap1\n      pop\n        /* \"#utility.yul\":2136:2212   */\n      swap2\n      swap1\n      pop\n      jump\t// out\n        /* \"#utility.yul\":2218:2333   */\n    tag_182:\n        /* \"#utility.yul\":2303:2326   */\n      tag_249\n        /* \"#utility.yul\":2320:2325   */\n      dup2\n        /* \"#utility.yul\":2303:2326   */\n      tag_181\n      jump\t// in\n    tag_249:\n        /* \"#utility.yul\":2298:2301   */\n      dup3\n        /* \"#utility.yul\":2291:2327   */\n      mstore\n        /* \"#utility.yul\":2218:2333   */\n      pop\n      pop\n      jump\t// out\n        /* \"#utility.yul\":2339:2457   */\n    tag_183:\n        /* \"#utility.yul\":2426:2450   */\n      tag_251\n        /* \"#utility.yul\":2444:2449   */\n      dup2\n        /* \"#utility.yul\":2426:2450   */\n      tag_177\n      jump\t// in\n    tag_251:\n        /* \"#utility.yul\":2421:2424   */\n      dup3\n        /* \"#utility.yul\":2414:2451   */\n      mstore\n        /* \"#utility.yul\":2339:2457   */\n      pop\n      pop\n      jump\t// out\n        /* \"#utility.yul\":2463:2553   */\n    tag_184:\n        /* \"#utility.yul\":2497:2504   */\n      0x00\n        /* \"#utility.yul\":2540:2545   */\n      dup2\n        /* \"#utility.yul\":2533:2546   */\n      iszero\n        /* \"#utility.yul\":2526:2547   */\n      iszero\n        /* \"#utility.yul\":2515:2547   */\n      swap1\n      pop\n        /* \"#utility.yul\":2463:2553   */\n      swap2\n      swap1\n      pop\n      jump\t// out\n        /* \"#utility.yul\":2559:2668   */\n    tag_185:\n        /* \"#utility.yul\":2640:2661   */\n      tag_254\n        /* \"#utility.yul\":2655:2660   */\n      dup2\n        /* \"#utility.yul\":2640:2661   */\n      tag_184\n      jump\t// in\n    tag_254:\n        /* \"#utility.yul\":2635:2638   */\n      dup3\n        /* \"#utility.yul\":2628:2662   */\n      mstore\n        /* \"#utility.yul\":2559:2668   */\n      pop\n      pop\n      jump\t// out\n        /* \"#utility.yul\":2674:3211   */\n    tag_28:\n        /* \"#utility.yul\":2843:2847   */\n      0x00\n        /* \"#utility.yul\":2881:2884   */\n      0x80\n        /* \"#utility.yul\":2870:2879   */\n      dup3\n        /* \"#utility.yul\":2866:2885   */\n      add\n        /* \"#utility.yul\":2858:2885   */\n      swap1\n      pop\n        /* \"#utility.yul\":2895:2966   */\n      tag_256\n        /* \"#utility.yul\":2963:2964   */\n      0x00\n        /* \"#utility.yul\":2952:2961   */\n      dup4\n        /* \"#utility.yul\":2948:2965   */\n      add\n        /* \"#utility.yul\":2939:2945   */\n      dup8\n        /* \"#utility.yul\":2895:2966   */\n      tag_180\n      jump\t// in\n    tag_256:\n        /* \"#utility.yul\":2976:3046   */\n      tag_257\n        /* \"#utility.yul\":3042:3044   */\n      0x20\n        /* \"#utility.yul\":3031:3040   */\n      dup4\n        /* \"#utility.yul\":3027:3045   */\n      add\n        /* \"#utility.yul\":3018:3024   */\n      dup7\n        /* \"#utility.yul\":2976:3046   */\n      tag_182\n      jump\t// in\n    tag_257:\n        /* \"#utility.yul\":3056:3128   */\n      tag_258\n        /* \"#utility.yul\":3124:3126   */\n      0x40\n        /* \"#utility.yul\":3113:3122   */\n      dup4\n        /* \"#utility.yul\":3109:3127   */\n      add\n        /* \"#utility.yul\":3100:3106   */\n      dup6\n        /* \"#utility.yul\":3056:3128   */\n      tag_183\n      jump\t// in\n    tag_258:\n        /* \"#utility.yul\":3138:3204   */\n      tag_259\n        /* \"#utility.yul\":3200:3202   */\n      0x60\n        /* \"#utility.yul\":3189:3198   */\n      dup4\n        /* \"#utility.yul\":3185:3203   */\n      add\n        /* \"#utility.yul\":3176:3182   */\n      dup5\n        /* \"#utility.yul\":3138:3204   */\n      tag_185\n      jump\t// in\n    tag_259:\n        /* \"#utility.yul\":2674:3211   */\n      swap6\n      swap5\n      pop\n      pop\n      pop\n      pop\n      pop\n      jump\t// out\n        /* \"#utility.yul\":3217:3546   */\n    tag_32:\n        /* \"#utility.yul\":3276:3282   */\n      0x00\n        /* \"#utility.yul\":3325:3327   */\n      0x20\n        /* \"#utility.yul\":3313:3322   */\n      dup3\n        /* \"#utility.yul\":3304:3311   */\n      dup5\n        /* \"#utility.yul\":3300:3323   */\n      sub\n        /* \"#utility.yul\":3296:3328   */\n      slt\n        /* \"#utility.yul\":3293:3412   */\n      iszero\n      tag_261\n      jumpi\n        /* \"#utility.yul\":3331:3410   */\n      tag_262\n      tag_171\n      jump\t// in\n    tag_262:\n        /* \"#utility.yul\":3293:3412   */\n    tag_261:\n        /* \"#utility.yul\":3451:3452   */\n      0x00\n        /* \"#utility.yul\":3476:3529   */\n      tag_263\n        /* \"#utility.yul\":3521:3528   */\n      dup5\n        /* \"#utility.yul\":3512:3518   */\n      dup3\n        /* \"#utility.yul\":3501:3510   */\n      dup6\n        /* \"#utility.yul\":3497:3519   */\n      add\n        /* \"#utility.yul\":3476:3529   */\n      tag_179\n      jump\t// in\n    tag_263:\n        /* \"#utility.yul\":3466:3529   */\n      swap2\n      pop\n        /* \"#utility.yul\":3422:3539   */\n      pop\n        /* \"#utility.yul\":3217:3546   */\n      swap3\n      swap2\n      pop\n      pop\n      jump\t// out\n        /* \"#utility.yul\":3552:3774   */\n    tag_48:\n        /* \"#utility.yul\":3645:3649   */\n      0x00\n        /* \"#utility.yul\":3683:3685   */\n      0x20\n        /* \"#utility.yul\":3672:3681   */\n      dup3\n        /* \"#utility.yul\":3668:3686   */\n      add\n        /* \"#utility.yul\":3660:3686   */\n      swap1\n      pop\n        /* \"#utility.yul\":3696:3767   */\n      tag_265\n        /* \"#utility.yul\":3764:3765   */\n      0x00\n        /* \"#utility.yul\":3753:3762   */\n      dup4\n        /* \"#utility.yul\":3749:3766   */\n      add\n        /* \"#utility.yul\":3740:3746   */\n      dup5\n        /* \"#utility.yul\":3696:3767   */\n      tag_183\n      jump\t// in\n    tag_265:\n        /* \"#utility.yul\":3552:3774   */\n      swap3\n      swap2\n      pop\n      pop\n      jump\t// out\n        /* \"#utility.yul\":3780:4002   */\n    tag_56:\n        /* \"#utility.yul\":3873:3877   */\n      0x00\n        /* \"#utility.yul\":3911:3913   */\n      0x20\n        /* \"#utility.yul\":3900:3909   */\n      dup3\n        /* \"#utility.yul\":3896:3914   */\n      add\n        /* \"#utility.yul\":3888:3914   */\n      swap1\n      pop\n        /* \"#utility.yul\":3924:3995   */\n      tag_267\n        /* \"#utility.yul\":3992:3993   */\n      0x00\n        /* \"#utility.yul\":3981:3990   */\n      dup4\n        /* \"#utility.yul\":3977:3994   */\n      add\n        /* \"#utility.yul\":3968:3974   */\n      dup5\n        /* \"#utility.yul\":3924:3995   */\n      tag_180\n      jump\t// in\n    tag_267:\n        /* \"#utility.yul\":3780:4002   */\n      swap3\n      swap2\n      pop\n      pop\n      jump\t// out\n        /* \"#utility.yul\":4008:4128   */\n    tag_186:\n        /* \"#utility.yul\":4080:4103   */\n      tag_269\n        /* \"#utility.yul\":4097:4102   */\n      dup2\n        /* \"#utility.yul\":4080:4103   */\n      tag_181\n      jump\t// in\n    tag_269:\n        /* \"#utility.yul\":4073:4078   */\n      dup2\n        /* \"#utility.yul\":4070:4104   */\n      eq\n        /* \"#utility.yul\":4060:4122   */\n      tag_270\n      jumpi\n        /* \"#utility.yul\":4118:4119   */\n      0x00\n        /* \"#utility.yul\":4115:4116   */\n      0x00\n        /* \"#utility.yul\":4108:4120   */\n      revert\n        /* \"#utility.yul\":4060:4122   */\n    tag_270:\n        /* \"#utility.yul\":4008:4128   */\n      pop\n      jump\t// out\n        /* \"#utility.yul\":4134:4271   */\n    tag_187:\n        /* \"#utility.yul\":4179:4184   */\n      0x00\n        /* \"#utility.yul\":4217:4223   */\n      dup2\n        /* \"#utility.yul\":4204:4224   */\n      calldataload\n        /* \"#utility.yul\":4195:4224   */\n      swap1\n      pop\n        /* \"#utility.yul\":4233:4265   */\n      tag_272\n        /* \"#utility.yul\":4259:4264   */\n      dup2\n        /* \"#utility.yul\":4233:4265   */\n      tag_186\n      jump\t// in\n    tag_272:\n        /* \"#utility.yul\":4134:4271   */\n      swap3\n      swap2\n      pop\n      pop\n      jump\t// out\n        /* \"#utility.yul\":4277:4749   */\n    tag_69:\n        /* \"#utility.yul\":4344:4350   */\n      0x00\n        /* \"#utility.yul\":4352:4358   */\n      0x00\n        /* \"#utility.yul\":4401:4403   */\n      0x40\n        /* \"#utility.yul\":4389:4398   */\n      dup4\n        /* \"#utility.yul\":4380:4387   */\n      dup6\n        /* \"#utility.yul\":4376:4399   */\n      sub\n        /* \"#utility.yul\":4372:4404   */\n      slt\n        /* \"#utility.yul\":4369:4488   */\n      iszero\n      tag_274\n      jumpi\n        /* \"#utility.yul\":4407:4486   */\n      tag_275\n      tag_171\n      jump\t// in\n    tag_275:\n        /* \"#utility.yul\":4369:4488   */\n    tag_274:\n        /* \"#utility.yul\":4527:4528   */\n      0x00\n        /* \"#utility.yul\":4552:4605   */\n      tag_276\n        /* \"#utility.yul\":4597:4604   */\n      dup6\n        /* \"#utility.yul\":4588:4594   */\n      dup3\n        /* \"#utility.yul\":4577:4586   */\n      dup7\n        /* \"#utility.yul\":4573:4595   */\n      add\n        /* \"#utility.yul\":4552:4605   */\n      tag_176\n      jump\t// in\n    tag_276:\n        /* \"#utility.yul\":4542:4605   */\n      swap3\n      pop\n        /* \"#utility.yul\":4498:4615   */\n      pop\n        /* \"#utility.yul\":4654:4656   */\n      0x20\n        /* \"#utility.yul\":4680:4732   */\n      tag_277\n        /* \"#utility.yul\":4724:4731   */\n      dup6\n        /* \"#utility.yul\":4715:4721   */\n      dup3\n        /* \"#utility.yul\":4704:4713   */\n      dup7\n        /* \"#utility.yul\":4700:4722   */\n      add\n        /* \"#utility.yul\":4680:4732   */\n      tag_187\n      jump\t// in\n    tag_277:\n        /* \"#utility.yul\":4670:4732   */\n      swap2\n      pop\n        /* \"#utility.yul\":4625:4742   */\n      pop\n        /* \"#utility.yul\":4277:4749   */\n      swap3\n      pop\n      swap3\n      swap1\n      pop\n      jump\t// out\n        /* \"#utility.yul\":4755:4924   */\n    tag_188:\n        /* \"#utility.yul\":4839:4850   */\n      0x00\n        /* \"#utility.yul\":4873:4879   */\n      dup3\n        /* \"#utility.yul\":4868:4871   */\n      dup3\n        /* \"#utility.yul\":4861:4880   */\n      mstore\n        /* \"#utility.yul\":4913:4917   */\n      0x20\n        /* \"#utility.yul\":4908:4911   */\n      dup3\n        /* \"#utility.yul\":4904:4918   */\n      add\n        /* \"#utility.yul\":4889:4918   */\n      swap1\n      pop\n        /* \"#utility.yul\":4755:4924   */\n      swap3\n      swap2\n      pop\n      pop\n      jump\t// out\n        /* \"#utility.yul\":4930:5108   */\n    tag_189:\n        /* \"#utility.yul\":5070:5100   */\n      0x52657175657374656420656e65726779206d757374206265203e203000000000\n        /* \"#utility.yul\":5066:5067   */\n      0x00\n        /* \"#utility.yul\":5058:5064   */\n      dup3\n        /* \"#utility.yul\":5054:5068   */\n      add\n        /* \"#utility.yul\":5047:5101   */\n      mstore\n        /* \"#utility.yul\":4930:5108   */\n      pop\n      jump\t// out\n        /* \"#utility.yul\":5114:5480   */\n    tag_190:\n        /* \"#utility.yul\":5256:5259   */\n      0x00\n        /* \"#utility.yul\":5277:5344   */\n      tag_281\n        /* \"#utility.yul\":5341:5343   */\n      0x1c\n        /* \"#utility.yul\":5336:5339   */\n      dup4\n        /* \"#utility.yul\":5277:5344   */\n      tag_188\n      jump\t// in\n    tag_281:\n        /* \"#utility.yul\":5270:5344   */\n      swap2\n      pop\n        /* \"#utility.yul\":5353:5446   */\n      tag_282\n        /* \"#utility.yul\":5442:5445   */\n      dup3\n        /* \"#utility.yul\":5353:5446   */\n      tag_189\n      jump\t// in\n    tag_282:\n        /* \"#utility.yul\":5471:5473   */\n      0x20\n        /* \"#utility.yul\":5466:5469   */\n      dup3\n        /* \"#utility.yul\":5462:5474   */\n      add\n        /* \"#utility.yul\":5455:5474   */\n      swap1\n      pop\n        /* \"#utility.yul\":5114:5480   */\n      swap2\n      swap1\n      pop\n      jump\t// out\n        /* \"#utility.yul\":5486:5905   */\n    tag_76:\n        /* \"#utility.yul\":5652:5656   */\n      0x00\n        /* \"#utility.yul\":5690:5692   */\n      0x20\n        /* \"#utility.yul\":5679:5688   */\n      dup3\n        /* \"#utility.yul\":5675:5693   */\n      add\n        /* \"#utility.yul\":5667:5693   */\n      swap1\n      pop\n        /* \"#utility.yul\":5739:5748   */\n      dup2\n        /* \"#utility.yul\":5733:5737   */\n      dup2\n        /* \"#utility.yul\":5729:5749   */\n      sub\n        /* \"#utility.yul\":5725:5726   */\n      0x00\n        /* \"#utility.yul\":5714:5723   */\n      dup4\n        /* \"#utility.yul\":5710:5727   */\n      add\n        /* \"#utility.yul\":5703:5750   */\n      mstore\n        /* \"#utility.yul\":5767:5898   */\n      tag_284\n        /* \"#utility.yul\":5893:5897   */\n      dup2\n        /* \"#utility.yul\":5767:5898   */\n      tag_190\n      jump\t// in\n    tag_284:\n        /* \"#utility.yul\":5759:5898   */\n      swap1\n      pop\n        /* \"#utility.yul\":5486:5905   */\n      swap2\n      swap1\n      pop\n      jump\t// out\n        /* \"#utility.yul\":5911:6075   */\n    tag_191:\n        /* \"#utility.yul\":6051:6067   */\n      0x496e76616c69642073656c6c6572000000000000000000000000000000000000\n        /* \"#utility.yul\":6047:6048   */\n      0x00\n        /* \"#utility.yul\":6039:6045   */\n      dup3\n        /* \"#utility.yul\":6035:6049   */\n      add\n        /* \"#utility.yul\":6028:6068   */\n      mstore\n        /* \"#utility.yul\":5911:6075   */\n      pop\n      jump\t// out\n        /* \"#utility.yul\":6081:6447   */\n    tag_192:\n        /* \"#utility.yul\":6223:6226   */\n      0x00\n        /* \"#utility.yul\":6244:6311   */\n      tag_287\n        /* \"#utility.yul\":6308:6310   */\n      0x0e\n        /* \"#utility.yul\":6303:6306   */\n      dup4\n        /* \"#utility.yul\":6244:6311   */\n      tag_188\n      jump\t// in\n    tag_287:\n        /* \"#utility.yul\":6237:6311   */\n      swap2\n      pop\n        /* \"#utility.yul\":6320:6413   */\n      tag_288\n        /* \"#utility.yul\":6409:6412   */\n      dup3\n        /* \"#utility.yul\":6320:6413   */\n      tag_191\n      jump\t// in\n    tag_288:\n        /* \"#utility.yul\":6438:6440   */\n      0x20\n        /* \"#utility.yul\":6433:6436   */\n      dup3\n        /* \"#utility.yul\":6429:6441   */\n      add\n        /* \"#utility.yul\":6422:6441   */\n      swap1\n      pop\n        /* \"#utility.yul\":6081:6447   */\n      swap2\n      swap1\n      pop\n      jump\t// out\n        /* \"#utility.yul\":6453:6872   */\n    tag_79:\n        /* \"#utility.yul\":6619:6623   */\n      0x00\n        /* \"#utility.yul\":6657:6659   */\n      0x20\n        /* \"#utility.yul\":6646:6655   */\n      dup3\n        /* \"#utility.yul\":6642:6660   */\n      add\n        /* \"#utility.yul\":6634:6660   */\n      swap1\n      pop\n        /* \"#utility.yul\":6706:6715   */\n      dup2\n        /* \"#utility.yul\":6700:6704   */\n      dup2\n        /* \"#utility.yul\":6696:6716   */\n      sub\n        /* \"#utility.yul\":6692:6693   */\n      0x00\n        /* \"#utility.yul\":6681:6690   */\n      dup4\n        /* \"#utility.yul\":6677:6694   */\n      add\n        /* \"#utility.yul\":6670:6717   */\n      mstore\n        /* \"#utility.yul\":6734:6865   */\n      tag_290\n        /* \"#utility.yul\":6860:6864   */\n      dup2\n        /* \"#utility.yul\":6734:6865   */\n      tag_192\n      jump\t// in\n    tag_290:\n        /* \"#utility.yul\":6726:6865   */\n      swap1\n      pop\n        /* \"#utility.yul\":6453:6872   */\n      swap2\n      swap1\n      pop\n      jump\t// out\n        /* \"#utility.yul\":6878:7048   */\n    tag_193:\n        /* \"#utility.yul\":7018:7040   */\n      0x43616e6e6f74206275792066726f6d2073656c66000000000000000000000000\n        /* \"#utility.yul\":7014:7015   */\n      0x00\n        /* \"#utility.yul\":7006:7012   */\n      dup3\n        /* \"#utility.yul\":7002:7016   */\n      add\n        /* \"#utility.yul\":6995:7041   */\n      mstore\n        /* \"#utility.yul\":6878:7048   */\n      pop\n      jump\t// out\n        /* \"#utility.yul\":7054:7420   */\n    tag_194:\n        /* \"#utility.yul\":7196:7199   */\n      0x00\n        /* \"#utility.yul\":7217:7284   */\n      tag_293\n        /* \"#utility.yul\":7281:7283   */\n      0x14\n        /* \"#utility.yul\":7276:7279   */\n      dup4\n        /* \"#utility.yul\":7217:7284   */\n      tag_188\n      jump\t// in\n    tag_293:\n        /* \"#utility.yul\":7210:7284   */\n      swap2\n      pop\n        /* \"#utility.yul\":7293:7386   */\n      tag_294\n        /* \"#utility.yul\":7382:7385   */\n      dup3\n        /* \"#utility.yul\":7293:7386   */\n      tag_193\n      jump\t// in\n    tag_294:\n        /* \"#utility.yul\":7411:7413   */\n      0x20\n        /* \"#utility.yul\":7406:7409   */\n      dup3\n        /* \"#utility.yul\":7402:7414   */\n      add\n        /* \"#utility.yul\":7395:7414   */\n      swap1\n      pop\n        /* \"#utility.yul\":7054:7420   */\n      swap2\n      swap1\n      pop\n      jump\t// out\n        /* \"#utility.yul\":7426:7845   */\n    tag_82:\n        /* \"#utility.yul\":7592:7596   */\n      0x00\n        /* \"#utility.yul\":7630:7632   */\n      0x20\n        /* \"#utility.yul\":7619:7628   */\n      dup3\n        /* \"#utility.yul\":7615:7633   */\n      add\n        /* \"#utility.yul\":7607:7633   */\n      swap1\n      pop\n        /* \"#utility.yul\":7679:7688   */\n      dup2\n        /* \"#utility.yul\":7673:7677   */\n      dup2\n        /* \"#utility.yul\":7669:7689   */\n      sub\n        /* \"#utility.yul\":7665:7666   */\n      0x00\n        /* \"#utility.yul\":7654:7663   */\n      dup4\n        /* \"#utility.yul\":7650:7667   */\n      add\n        /* \"#utility.yul\":7643:7690   */\n      mstore\n        /* \"#utility.yul\":7707:7838   */\n      tag_296\n        /* \"#utility.yul\":7833:7837   */\n      dup2\n        /* \"#utility.yul\":7707:7838   */\n      tag_194\n      jump\t// in\n    tag_296:\n        /* \"#utility.yul\":7699:7838   */\n      swap1\n      pop\n        /* \"#utility.yul\":7426:7845   */\n      swap2\n      swap1\n      pop\n      jump\t// out\n        /* \"#utility.yul\":7851:8021   */\n    tag_195:\n        /* \"#utility.yul\":7991:8013   */\n      0x4275796572206e6f742072656769737465726564000000000000000000000000\n        /* \"#utility.yul\":7987:7988   */\n      0x00\n        /* \"#utility.yul\":7979:7985   */\n      dup3\n        /* \"#utility.yul\":7975:7989   */\n      add\n        /* \"#utility.yul\":7968:8014   */\n      mstore\n        /* \"#utility.yul\":7851:8021   */\n      pop\n      jump\t// out\n        /* \"#utility.yul\":8027:8393   */\n    tag_196:\n        /* \"#utility.yul\":8169:8172   */\n      0x00\n        /* \"#utility.yul\":8190:8257   */\n      tag_299\n        /* \"#utility.yul\":8254:8256   */\n      0x14\n        /* \"#utility.yul\":8249:8252   */\n      dup4\n        /* \"#utility.yul\":8190:8257   */\n      tag_188\n      jump\t// in\n    tag_299:\n        /* \"#utility.yul\":8183:8257   */\n      swap2\n      pop\n        /* \"#utility.yul\":8266:8359   */\n      tag_300\n        /* \"#utility.yul\":8355:8358   */\n      dup3\n        /* \"#utility.yul\":8266:8359   */\n      tag_195\n      jump\t// in\n    tag_300:\n        /* \"#utility.yul\":8384:8386   */\n      0x20\n        /* \"#utility.yul\":8379:8382   */\n      dup3\n        /* \"#utility.yul\":8375:8387   */\n      add\n        /* \"#utility.yul\":8368:8387   */\n      swap1\n      pop\n        /* \"#utility.yul\":8027:8393   */\n      swap2\n      swap1\n      pop\n      jump\t// out\n        /* \"#utility.yul\":8399:8818   */\n    tag_85:\n        /* \"#utility.yul\":8565:8569   */\n      0x00\n        /* \"#utility.yul\":8603:8605   */\n      0x20\n        /* \"#utility.yul\":8592:8601   */\n      dup3\n        /* \"#utility.yul\":8588:8606   */\n      add\n        /* \"#utility.yul\":8580:8606   */\n      swap1\n      pop\n        /* \"#utility.yul\":8652:8661   */\n      dup2\n        /* \"#utility.yul\":8646:8650   */\n      dup2\n        /* \"#utility.yul\":8642:8662   */\n      sub\n        /* \"#utility.yul\":8638:8639   */\n      0x00\n        /* \"#utility.yul\":8627:8636   */\n      dup4\n        /* \"#utility.yul\":8623:8640   */\n      add\n        /* \"#utility.yul\":8616:8663   */\n      mstore\n        /* \"#utility.yul\":8680:8811   */\n      tag_302\n        /* \"#utility.yul\":8806:8810   */\n      dup2\n        /* \"#utility.yul\":8680:8811   */\n      tag_196\n      jump\t// in\n    tag_302:\n        /* \"#utility.yul\":8672:8811   */\n      swap1\n      pop\n        /* \"#utility.yul\":8399:8818   */\n      swap2\n      swap1\n      pop\n      jump\t// out\n        /* \"#utility.yul\":8824:8995   */\n    tag_197:\n        /* \"#utility.yul\":8964:8987   */\n      0x53656c6c6572206e6f7420726567697374657265640000000000000000000000\n        /* \"#utility.yul\":8960:8961   */\n      0x00\n        /* \"#utility.yul\":8952:8958   */\n      dup3\n        /* \"#utility.yul\":8948:8962   */\n      add\n        /* \"#utility.yul\":8941:8988   */\n      mstore\n        /* \"#utility.yul\":8824:8995   */\n      pop\n      jump\t// out\n        /* \"#utility.yul\":9001:9367   */\n    tag_198:\n        /* \"#utility.yul\":9143:9146   */\n      0x00\n        /* \"#utility.yul\":9164:9231   */\n      tag_305\n        /* \"#utility.yul\":9228:9230   */\n      0x15\n        /* \"#utility.yul\":9223:9226   */\n      dup4\n        /* \"#utility.yul\":9164:9231   */\n      tag_188\n      jump\t// in\n    tag_305:\n        /* \"#utility.yul\":9157:9231   */\n      swap2\n      pop\n        /* \"#utility.yul\":9240:9333   */\n      tag_306\n        /* \"#utility.yul\":9329:9332   */\n      dup3\n        /* \"#utility.yul\":9240:9333   */\n      tag_197\n      jump\t// in\n    tag_306:\n        /* \"#utility.yul\":9358:9360   */\n      0x20\n        /* \"#utility.yul\":9353:9356   */\n      dup3\n        /* \"#utility.yul\":9349:9361   */\n      add\n        /* \"#utility.yul\":9342:9361   */\n      swap1\n      pop\n        /* \"#utility.yul\":9001:9367   */\n      swap2\n      swap1\n      pop\n      jump\t// out\n        /* \"#utility.yul\":9373:9792   */\n    tag_88:\n        /* \"#utility.yul\":9539:9543   */\n      0x00\n        /* \"#utility.yul\":9577:9579   */\n      0x20\n        /* \"#utility.yul\":9566:9575   */\n      dup3\n        /* \"#utility.yul\":9562:9580   */\n      add\n        /* \"#utility.yul\":9554:9580   */\n      swap1\n      pop\n        /* \"#utility.yul\":9626:9635   */\n      dup2\n        /* \"#utility.yul\":9620:9624   */\n      dup2\n        /* \"#utility.yul\":9616:9636   */\n      sub\n        /* \"#utility.yul\":9612:9613   */\n      0x00\n        /* \"#utility.yul\":9601:9610   */\n      dup4\n        /* \"#utility.yul\":9597:9614   */\n      add\n        /* \"#utility.yul\":9590:9637   */\n      mstore\n        /* \"#utility.yul\":9654:9785   */\n      tag_308\n        /* \"#utility.yul\":9780:9784   */\n      dup2\n        /* \"#utility.yul\":9654:9785   */\n      tag_198\n      jump\t// in\n    tag_308:\n        /* \"#utility.yul\":9646:9785   */\n      swap1\n      pop\n        /* \"#utility.yul\":9373:9792   */\n      swap2\n      swap1\n      pop\n      jump\t// out\n        /* \"#utility.yul\":9798:9971   */\n    tag_199:\n        /* \"#utility.yul\":9938:9963   */\n      0x4275796572206973206e6f7420696e2064656669636974000000000000000000\n        /* \"#utility.yul\":9934:9935   */\n      0x00\n        /* \"#utility.yul\":9926:9932   */\n      dup3\n        /* \"#utility.yul\":9922:9936   */\n      add\n        /* \"#utility.yul\":9915:9964   */\n      mstore\n        /* \"#utility.yul\":9798:9971   */\n      pop\n      jump\t// out\n        /* \"#utility.yul\":9977:10343   */\n    tag_200:\n        /* \"#utility.yul\":10119:10122   */\n      0x00\n        /* \"#utility.yul\":10140:10207   */\n      tag_311\n        /* \"#utility.yul\":10204:10206   */\n      0x17\n        /* \"#utility.yul\":10199:10202   */\n      dup4\n        /* \"#utility.yul\":10140:10207   */\n      tag_188\n      jump\t// in\n    tag_311:\n        /* \"#utility.yul\":10133:10207   */\n      swap2\n      pop\n        /* \"#utility.yul\":10216:10309   */\n      tag_312\n        /* \"#utility.yul\":10305:10308   */\n      dup3\n        /* \"#utility.yul\":10216:10309   */\n      tag_199\n      jump\t// in\n    tag_312:\n        /* \"#utility.yul\":10334:10336   */\n      0x20\n        /* \"#utility.yul\":10329:10332   */\n      dup3\n        /* \"#utility.yul\":10325:10337   */\n      add\n        /* \"#utility.yul\":10318:10337   */\n      swap1\n      pop\n        /* \"#utility.yul\":9977:10343   */\n      swap2\n      swap1\n      pop\n      jump\t// out\n        /* \"#utility.yul\":10349:10768   */\n    tag_91:\n        /* \"#utility.yul\":10515:10519   */\n      0x00\n        /* \"#utility.yul\":10553:10555   */\n      0x20\n        /* \"#utility.yul\":10542:10551   */\n      dup3\n        /* \"#utility.yul\":10538:10556   */\n      add\n        /* \"#utility.yul\":10530:10556   */\n      swap1\n      pop\n        /* \"#utility.yul\":10602:10611   */\n      dup2\n        /* \"#utility.yul\":10596:10600   */\n      dup2\n        /* \"#utility.yul\":10592:10612   */\n      sub\n        /* \"#utility.yul\":10588:10589   */\n      0x00\n        /* \"#utility.yul\":10577:10586   */\n      dup4\n        /* \"#utility.yul\":10573:10590   */\n      add\n        /* \"#utility.yul\":10566:10613   */\n      mstore\n        /* \"#utility.yul\":10630:10761   */\n      tag_314\n        /* \"#utility.yul\":10756:10760   */\n      dup2\n        /* \"#utility.yul\":10630:10761   */\n      tag_200\n      jump\t// in\n    tag_314:\n        /* \"#utility.yul\":10622:10761   */\n      swap1\n      pop\n        /* \"#utility.yul\":10349:10768   */\n      swap2\n      swap1\n      pop\n      jump\t// out\n        /* \"#utility.yul\":10774:10948   */\n    tag_201:\n        /* \"#utility.yul\":10914:10940   */\n      0x53656c6c6572206973206e6f7420696e20737572706c75730000000000000000\n        /* \"#utility.yul\":10910:10911   */\n      0x00\n        /* \"#utility.yul\":10902:10908   */\n      dup3\n        /* \"#utility.yul\":10898:10912   */\n      add\n        /* \"#utility.yul\":10891:10941   */\n      mstore\n        /* \"#utility.yul\":10774:10948   */\n      pop\n      jump\t// out\n        /* \"#utility.yul\":10954:11320   */\n    tag_202:\n        /* \"#utility.yul\":11096:11099   */\n      0x00\n        /* \"#utility.yul\":11117:11184   */\n      tag_317\n        /* \"#utility.yul\":11181:11183   */\n      0x18\n        /* \"#utility.yul\":11176:11179   */\n      dup4\n        /* \"#utility.yul\":11117:11184   */\n      tag_188\n      jump\t// in\n    tag_317:\n        /* \"#utility.yul\":11110:11184   */\n      swap2\n      pop\n        /* \"#utility.yul\":11193:11286   */\n      tag_318\n        /* \"#utility.yul\":11282:11285   */\n      dup3\n        /* \"#utility.yul\":11193:11286   */\n      tag_201\n      jump\t// in\n    tag_318:\n        /* \"#utility.yul\":11311:11313   */\n      0x20\n        /* \"#utility.yul\":11306:11309   */\n      dup3\n        /* \"#utility.yul\":11302:11314   */\n      add\n        /* \"#utility.yul\":11295:11314   */\n      swap1\n      pop\n        /* \"#utility.yul\":10954:11320   */\n      swap2\n      swap1\n      pop\n      jump\t// out\n        /* \"#utility.yul\":11326:11745   */\n    tag_94:\n        /* \"#utility.yul\":11492:11496   */\n      0x00\n        /* \"#utility.yul\":11530:11532   */\n      0x20\n        /* \"#utility.yul\":11519:11528   */\n      dup3\n        /* \"#utility.yul\":11515:11533   */\n      add\n        /* \"#utility.yul\":11507:11533   */\n      swap1\n      pop\n        /* \"#utility.yul\":11579:11588   */\n      dup2\n        /* \"#utility.yul\":11573:11577   */\n      dup2\n        /* \"#utility.yul\":11569:11589   */\n      sub\n        /* \"#utility.yul\":11565:11566   */\n      0x00\n        /* \"#utility.yul\":11554:11563   */\n      dup4\n        /* \"#utility.yul\":11550:11567   */\n      add\n        /* \"#utility.yul\":11543:11590   */\n      mstore\n        /* \"#utility.yul\":11607:11738   */\n      tag_320\n        /* \"#utility.yul\":11733:11737   */\n      dup2\n        /* \"#utility.yul\":11607:11738   */\n      tag_202\n      jump\t// in\n    tag_320:\n        /* \"#utility.yul\":11599:11738   */\n      swap1\n      pop\n        /* \"#utility.yul\":11326:11745   */\n      swap2\n      swap1\n      pop\n      jump\t// out\n        /* \"#utility.yul\":11751:11931   */\n    tag_203:\n        /* \"#utility.yul\":11799:11876   */\n      0x4e487b7100000000000000000000000000000000000000000000000000000000\n        /* \"#utility.yul\":11796:11797   */\n      0x00\n        /* \"#utility.yul\":11789:11877   */\n      mstore\n        /* \"#utility.yul\":11896:11900   */\n      0x11\n        /* \"#utility.yul\":11893:11894   */\n      0x04\n        /* \"#utility.yul\":11886:11901   */\n      mstore\n        /* \"#utility.yul\":11920:11924   */\n      0x24\n        /* \"#utility.yul\":11917:11918   */\n      0x00\n        /* \"#utility.yul\":11910:11925   */\n      revert\n        /* \"#utility.yul\":11937:12165   */\n    tag_96:\n        /* \"#utility.yul\":11972:11975   */\n      0x00\n        /* \"#utility.yul\":11995:12018   */\n      tag_323\n        /* \"#utility.yul\":12012:12017   */\n      dup3\n        /* \"#utility.yul\":11995:12018   */\n      tag_181\n      jump\t// in\n    tag_323:\n        /* \"#utility.yul\":11986:12018   */\n      swap2\n      pop\n        /* \"#utility.yul\":12040:12106   */\n      0x8000000000000000000000000000000000000000000000000000000000000000\n        /* \"#utility.yul\":12033:12038   */\n      dup3\n        /* \"#utility.yul\":12030:12107   */\n      sub\n        /* \"#utility.yul\":12027:12130   */\n      tag_324\n      jumpi\n        /* \"#utility.yul\":12110:12128   */\n      tag_325\n      tag_203\n      jump\t// in\n    tag_325:\n        /* \"#utility.yul\":12027:12130   */\n    tag_324:\n        /* \"#utility.yul\":12153:12158   */\n      dup2\n        /* \"#utility.yul\":12150:12151   */\n      0x00\n        /* \"#utility.yul\":12146:12159   */\n      sub\n        /* \"#utility.yul\":12139:12159   */\n      swap1\n      pop\n        /* \"#utility.yul\":11937:12165   */\n      swap2\n      swap1\n      pop\n      jump\t// out\n        /* \"#utility.yul\":12171:12352   */\n    tag_204:\n        /* \"#utility.yul\":12311:12344   */\n      0x5265717565737465642065786365656473206275796572206465666963697400\n        /* \"#utility.yul\":12307:12308   */\n      0x00\n        /* \"#utility.yul\":12299:12305   */\n      dup3\n        /* \"#utility.yul\":12295:12309   */\n      add\n        /* \"#utility.yul\":12288:12345   */\n      mstore\n        /* \"#utility.yul\":12171:12352   */\n      pop\n      jump\t// out\n        /* \"#utility.yul\":12358:12724   */\n    tag_205:\n        /* \"#utility.yul\":12500:12503   */\n      0x00\n        /* \"#utility.yul\":12521:12588   */\n      tag_328\n        /* \"#utility.yul\":12585:12587   */\n      0x1f\n        /* \"#utility.yul\":12580:12583   */\n      dup4\n        /* \"#utility.yul\":12521:12588   */\n      tag_188\n      jump\t// in\n    tag_328:\n        /* \"#utility.yul\":12514:12588   */\n      swap2\n      pop\n        /* \"#utility.yul\":12597:12690   */\n      tag_329\n        /* \"#utility.yul\":12686:12689   */\n      dup3\n        /* \"#utility.yul\":12597:12690   */\n      tag_204\n      jump\t// in\n    tag_329:\n        /* \"#utility.yul\":12715:12717   */\n      0x20\n        /* \"#utility.yul\":12710:12713   */\n      dup3\n        /* \"#utility.yul\":12706:12718   */\n      add\n        /* \"#utility.yul\":12699:12718   */\n      swap1\n      pop\n        /* \"#utility.yul\":12358:12724   */\n      swap2\n      swap1\n      pop\n      jump\t// out\n        /* \"#utility.yul\":12730:13149   */\n    tag_99:\n        /* \"#utility.yul\":12896:12900   */\n      0x00\n        /* \"#utility.yul\":12934:12936   */\n      0x20\n        /* \"#utility.yul\":12923:12932   */\n      dup3\n        /* \"#utility.yul\":12919:12937   */\n      add\n        /* \"#utility.yul\":12911:12937   */\n      swap1\n      pop\n        /* \"#utility.yul\":12983:12992   */\n      dup2\n        /* \"#utility.yul\":12977:12981   */\n      dup2\n        /* \"#utility.yul\":12973:12993   */\n      sub\n        /* \"#utility.yul\":12969:12970   */\n      0x00\n        /* \"#utility.yul\":12958:12967   */\n      dup4\n        /* \"#utility.yul\":12954:12971   */\n      add\n        /* \"#utility.yul\":12947:12994   */\n      mstore\n        /* \"#utility.yul\":13011:13142   */\n      tag_331\n        /* \"#utility.yul\":13137:13141   */\n      dup2\n        /* \"#utility.yul\":13011:13142   */\n      tag_205\n      jump\t// in\n    tag_331:\n        /* \"#utility.yul\":13003:13142   */\n      swap1\n      pop\n        /* \"#utility.yul\":12730:13149   */\n      swap2\n      swap1\n      pop\n      jump\t// out\n        /* \"#utility.yul\":13155:13337   */\n    tag_206:\n        /* \"#utility.yul\":13295:13329   */\n      0x52657175657374656420657863656564732073656c6c657220737572706c7573\n        /* \"#utility.yul\":13291:13292   */\n      0x00\n        /* \"#utility.yul\":13283:13289   */\n      dup3\n        /* \"#utility.yul\":13279:13293   */\n      add\n        /* \"#utility.yul\":13272:13330   */\n      mstore\n        /* \"#utility.yul\":13155:13337   */\n      pop\n      jump\t// out\n        /* \"#utility.yul\":13343:13709   */\n    tag_207:\n        /* \"#utility.yul\":13485:13488   */\n      0x00\n        /* \"#utility.yul\":13506:13573   */\n      tag_334\n        /* \"#utility.yul\":13570:13572   */\n      0x20\n        /* \"#utility.yul\":13565:13568   */\n      dup4\n        /* \"#utility.yul\":13506:13573   */\n      tag_188\n      jump\t// in\n    tag_334:\n        /* \"#utility.yul\":13499:13573   */\n      swap2\n      pop\n        /* \"#utility.yul\":13582:13675   */\n      tag_335\n        /* \"#utility.yul\":13671:13674   */\n      dup3\n        /* \"#utility.yul\":13582:13675   */\n      tag_206\n      jump\t// in\n    tag_335:\n        /* \"#utility.yul\":13700:13702   */\n      0x20\n        /* \"#utility.yul\":13695:13698   */\n      dup3\n        /* \"#utility.yul\":13691:13703   */\n      add\n        /* \"#utility.yul\":13684:13703   */\n      swap1\n      pop\n        /* \"#utility.yul\":13343:13709   */\n      swap2\n      swap1\n      pop\n      jump\t// out\n        /* \"#utility.yul\":13715:14134   */\n    tag_102:\n        /* \"#utility.yul\":13881:13885   */\n      0x00\n        /* \"#utility.yul\":13919:13921   */\n      0x20\n        /* \"#utility.yul\":13908:13917   */\n      dup3\n        /* \"#utility.yul\":13904:13922   */\n      add\n        /* \"#utility.yul\":13896:13922   */\n      swap1\n      pop\n        /* \"#utility.yul\":13968:13977   */\n      dup2\n        /* \"#utility.yul\":13962:13966   */\n      dup2\n        /* \"#utility.yul\":13958:13978   */\n      sub\n        /* \"#utility.yul\":13954:13955   */\n      0x00\n        /* \"#utility.yul\":13943:13952   */\n      dup4\n        /* \"#utility.yul\":13939:13956   */\n      add\n        /* \"#utility.yul\":13932:13979   */\n      mstore\n        /* \"#utility.yul\":13996:14127   */\n      tag_337\n        /* \"#utility.yul\":14122:14126   */\n      dup2\n        /* \"#utility.yul\":13996:14127   */\n      tag_207\n      jump\t// in\n    tag_337:\n        /* \"#utility.yul\":13988:14127   */\n      swap1\n      pop\n        /* \"#utility.yul\":13715:14134   */\n      swap2\n      swap1\n      pop\n      jump\t// out\n        /* \"#utility.yul\":14140:14550   */\n    tag_104:\n        /* \"#utility.yul\":14180:14187   */\n      0x00\n        /* \"#utility.yul\":14203:14223   */\n      tag_339\n        /* \"#utility.yul\":14221:14222   */\n      dup3\n        /* \"#utility.yul\":14203:14223   */\n      tag_177\n      jump\t// in\n    tag_339:\n        /* \"#utility.yul\":14198:14223   */\n      swap2\n      pop\n        /* \"#utility.yul\":14237:14257   */\n      tag_340\n        /* \"#utility.yul\":14255:14256   */\n      dup4\n        /* \"#utility.yul\":14237:14257   */\n      tag_177\n      jump\t// in\n    tag_340:\n        /* \"#utility.yul\":14232:14257   */\n      swap3\n      pop\n        /* \"#utility.yul\":14292:14293   */\n      dup3\n        /* \"#utility.yul\":14289:14290   */\n      dup3\n        /* \"#utility.yul\":14285:14294   */\n      mul\n        /* \"#utility.yul\":14314:14344   */\n      tag_341\n        /* \"#utility.yul\":14332:14343   */\n      dup2\n        /* \"#utility.yul\":14314:14344   */\n      tag_177\n      jump\t// in\n    tag_341:\n        /* \"#utility.yul\":14303:14344   */\n      swap2\n      pop\n        /* \"#utility.yul\":14493:14494   */\n      dup3\n        /* \"#utility.yul\":14484:14491   */\n      dup3\n        /* \"#utility.yul\":14480:14495   */\n      div\n        /* \"#utility.yul\":14477:14478   */\n      dup5\n        /* \"#utility.yul\":14474:14496   */\n      eq\n        /* \"#utility.yul\":14454:14455   */\n      dup4\n        /* \"#utility.yul\":14447:14456   */\n      iszero\n        /* \"#utility.yul\":14427:14510   */\n      or\n        /* \"#utility.yul\":14404:14543   */\n      tag_342\n      jumpi\n        /* \"#utility.yul\":14523:14541   */\n      tag_343\n      tag_203\n      jump\t// in\n    tag_343:\n        /* \"#utility.yul\":14404:14543   */\n    tag_342:\n        /* \"#utility.yul\":14188:14550   */\n      pop\n        /* \"#utility.yul\":14140:14550   */\n      swap3\n      swap2\n      pop\n      pop\n      jump\t// out\n        /* \"#utility.yul\":14556:14732   */\n    tag_208:\n        /* \"#utility.yul\":14696:14724   */\n      0x496e73756666696369656e742062757965722062616c616e6365000000000000\n        /* \"#utility.yul\":14692:14693   */\n      0x00\n        /* \"#utility.yul\":14684:14690   */\n      dup3\n        /* \"#utility.yul\":14680:14694   */\n      add\n        /* \"#utility.yul\":14673:14725   */\n      mstore\n        /* \"#utility.yul\":14556:14732   */\n      pop\n      jump\t// out\n        /* \"#utility.yul\":14738:15104   */\n    tag_209:\n        /* \"#utility.yul\":14880:14883   */\n      0x00\n        /* \"#utility.yul\":14901:14968   */\n      tag_346\n        /* \"#utility.yul\":14965:14967   */\n      0x1a\n        /* \"#utility.yul\":14960:14963   */\n      dup4\n        /* \"#utility.yul\":14901:14968   */\n      tag_188\n      jump\t// in\n    tag_346:\n        /* \"#utility.yul\":14894:14968   */\n      swap2\n      pop\n        /* \"#utility.yul\":14977:15070   */\n      tag_347\n        /* \"#utility.yul\":15066:15069   */\n      dup3\n        /* \"#utility.yul\":14977:15070   */\n      tag_208\n      jump\t// in\n    tag_347:\n        /* \"#utility.yul\":15095:15097   */\n      0x20\n        /* \"#utility.yul\":15090:15093   */\n      dup3\n        /* \"#utility.yul\":15086:15098   */\n      add\n        /* \"#utility.yul\":15079:15098   */\n      swap1\n      pop\n        /* \"#utility.yul\":14738:15104   */\n      swap2\n      swap1\n      pop\n      jump\t// out\n        /* \"#utility.yul\":15110:15529   */\n    tag_107:\n        /* \"#utility.yul\":15276:15280   */\n      0x00\n        /* \"#utility.yul\":15314:15316   */\n      0x20\n        /* \"#utility.yul\":15303:15312   */\n      dup3\n        /* \"#utility.yul\":15299:15317   */\n      add\n        /* \"#utility.yul\":15291:15317   */\n      swap1\n      pop\n        /* \"#utility.yul\":15363:15372   */\n      dup2\n        /* \"#utility.yul\":15357:15361   */\n      dup2\n        /* \"#utility.yul\":15353:15373   */\n      sub\n        /* \"#utility.yul\":15349:15350   */\n      0x00\n        /* \"#utility.yul\":15338:15347   */\n      dup4\n        /* \"#utility.yul\":15334:15351   */\n      add\n        /* \"#utility.yul\":15327:15374   */\n      mstore\n        /* \"#utility.yul\":15391:15522   */\n      tag_349\n        /* \"#utility.yul\":15517:15521   */\n      dup2\n        /* \"#utility.yul\":15391:15522   */\n      tag_209\n      jump\t// in\n    tag_349:\n        /* \"#utility.yul\":15383:15522   */\n      swap1\n      pop\n        /* \"#utility.yul\":15110:15529   */\n      swap2\n      swap1\n      pop\n      jump\t// out\n        /* \"#utility.yul\":15535:15729   */\n    tag_109:\n        /* \"#utility.yul\":15575:15579   */\n      0x00\n        /* \"#utility.yul\":15595:15615   */\n      tag_351\n        /* \"#utility.yul\":15613:15614   */\n      dup3\n        /* \"#utility.yul\":15595:15615   */\n      tag_177\n      jump\t// in\n    tag_351:\n        /* \"#utility.yul\":15590:15615   */\n      swap2\n      pop\n        /* \"#utility.yul\":15629:15649   */\n      tag_352\n        /* \"#utility.yul\":15647:15648   */\n      dup4\n        /* \"#utility.yul\":15629:15649   */\n      tag_177\n      jump\t// in\n    tag_352:\n        /* \"#utility.yul\":15624:15649   */\n      swap3\n      pop\n        /* \"#utility.yul\":15673:15674   */\n      dup3\n        /* \"#utility.yul\":15670:15671   */\n      dup3\n        /* \"#utility.yul\":15666:15675   */\n      sub\n        /* \"#utility.yul\":15658:15675   */\n      swap1\n      pop\n        /* \"#utility.yul\":15697:15698   */\n      dup2\n        /* \"#utility.yul\":15691:15695   */\n      dup2\n        /* \"#utility.yul\":15688:15699   */\n      gt\n        /* \"#utility.yul\":15685:15722   */\n      iszero\n      tag_353\n      jumpi\n        /* \"#utility.yul\":15702:15720   */\n      tag_354\n      tag_203\n      jump\t// in\n    tag_354:\n        /* \"#utility.yul\":15685:15722   */\n    tag_353:\n        /* \"#utility.yul\":15535:15729   */\n      swap3\n      swap2\n      pop\n      pop\n      jump\t// out\n        /* \"#utility.yul\":15735:15926   */\n    tag_111:\n        /* \"#utility.yul\":15775:15778   */\n      0x00\n        /* \"#utility.yul\":15794:15814   */\n      tag_356\n        /* \"#utility.yul\":15812:15813   */\n      dup3\n        /* \"#utility.yul\":15794:15814   */\n      tag_177\n      jump\t// in\n    tag_356:\n        /* \"#utility.yul\":15789:15814   */\n      swap2\n      pop\n        /* \"#utility.yul\":15828:15848   */\n      tag_357\n        /* \"#utility.yul\":15846:15847   */\n      dup4\n        /* \"#utility.yul\":15828:15848   */\n      tag_177\n      jump\t// in\n    tag_357:\n        /* \"#utility.yul\":15823:15848   */\n      swap3\n      pop\n        /* \"#utility.yul\":15871:15872   */\n      dup3\n        /* \"#utility.yul\":15868:15869   */\n      dup3\n        /* \"#utility.yul\":15864:15873   */\n      add\n        /* \"#utility.yul\":15857:15873   */\n      swap1\n      pop\n        /* \"#utility.yul\":15892:15895   */\n      dup1\n        /* \"#utility.yul\":15889:15890   */\n      dup3\n        /* \"#utility.yul\":15886:15896   */\n      gt\n        /* \"#utility.yul\":15883:15919   */\n      iszero\n      tag_358\n      jumpi\n        /* \"#utility.yul\":15899:15917   */\n      tag_359\n      tag_203\n      jump\t// in\n    tag_359:\n        /* \"#utility.yul\":15883:15919   */\n    tag_358:\n        /* \"#utility.yul\":15735:15926   */\n      swap3\n      swap2\n      pop\n      pop\n      jump\t// out\n        /* \"#utility.yul\":15932:16307   */\n    tag_113:\n        /* \"#utility.yul\":15971:15974   */\n      0x00\n        /* \"#utility.yul\":15990:16009   */\n      tag_361\n        /* \"#utility.yul\":16007:16008   */\n      dup3\n        /* \"#utility.yul\":15990:16009   */\n      tag_181\n      jump\t// in\n    tag_361:\n        /* \"#utility.yul\":15985:16009   */\n      swap2\n      pop\n        /* \"#utility.yul\":16023:16042   */\n      tag_362\n        /* \"#utility.yul\":16040:16041   */\n      dup4\n        /* \"#utility.yul\":16023:16042   */\n      tag_181\n      jump\t// in\n    tag_362:\n        /* \"#utility.yul\":16018:16042   */\n      swap3\n      pop\n        /* \"#utility.yul\":16065:16066   */\n      dup3\n        /* \"#utility.yul\":16062:16063   */\n      dup3\n        /* \"#utility.yul\":16058:16067   */\n      add\n        /* \"#utility.yul\":16051:16067   */\n      swap1\n      pop\n        /* \"#utility.yul\":16263:16264   */\n      dup3\n        /* \"#utility.yul\":16258:16261   */\n      dup2\n        /* \"#utility.yul\":16254:16265   */\n      slt\n        /* \"#utility.yul\":16247:16266   */\n      iszero\n        /* \"#utility.yul\":16243:16244   */\n      0x00\n        /* \"#utility.yul\":16240:16241   */\n      dup4\n        /* \"#utility.yul\":16236:16245   */\n      slt\n        /* \"#utility.yul\":16232:16267   */\n      and\n        /* \"#utility.yul\":16215:16216   */\n      dup4\n        /* \"#utility.yul\":16210:16213   */\n      dup3\n        /* \"#utility.yul\":16206:16217   */\n      slt\n        /* \"#utility.yul\":16201:16202   */\n      0x00\n        /* \"#utility.yul\":16198:16199   */\n      dup5\n        /* \"#utility.yul\":16194:16203   */\n      slt\n        /* \"#utility.yul\":16187:16204   */\n      iszero\n        /* \"#utility.yul\":16183:16218   */\n      and\n        /* \"#utility.yul\":16167:16277   */\n      or\n        /* \"#utility.yul\":16164:16300   */\n      iszero\n      tag_363\n      jumpi\n        /* \"#utility.yul\":16280:16298   */\n      tag_364\n      tag_203\n      jump\t// in\n    tag_364:\n        /* \"#utility.yul\":16164:16300   */\n    tag_363:\n        /* \"#utility.yul\":15932:16307   */\n      swap3\n      swap2\n      pop\n      pop\n      jump\t// out\n        /* \"#utility.yul\":16313:16685   */\n    tag_115:\n        /* \"#utility.yul\":16352:16356   */\n      0x00\n        /* \"#utility.yul\":16372:16391   */\n      tag_366\n        /* \"#utility.yul\":16389:16390   */\n      dup3\n        /* \"#utility.yul\":16372:16391   */\n      tag_181\n      jump\t// in\n    tag_366:\n        /* \"#utility.yul\":16367:16391   */\n      swap2\n      pop\n        /* \"#utility.yul\":16405:16424   */\n      tag_367\n        /* \"#utility.yul\":16422:16423   */\n      dup4\n        /* \"#utility.yul\":16405:16424   */\n      tag_181\n      jump\t// in\n    tag_367:\n        /* \"#utility.yul\":16400:16424   */\n      swap3\n      pop\n        /* \"#utility.yul\":16448:16449   */\n      dup3\n        /* \"#utility.yul\":16445:16446   */\n      dup3\n        /* \"#utility.yul\":16441:16450   */\n      sub\n        /* \"#utility.yul\":16433:16450   */\n      swap1\n      pop\n        /* \"#utility.yul\":16642:16643   */\n      dup2\n        /* \"#utility.yul\":16636:16640   */\n      dup2\n        /* \"#utility.yul\":16632:16644   */\n      slt\n        /* \"#utility.yul\":16628:16629   */\n      0x00\n        /* \"#utility.yul\":16625:16626   */\n      dup5\n        /* \"#utility.yul\":16621:16630   */\n      slt\n        /* \"#utility.yul\":16617:16645   */\n      and\n        /* \"#utility.yul\":16600:16601   */\n      dup3\n        /* \"#utility.yul\":16594:16598   */\n      dup3\n        /* \"#utility.yul\":16590:16602   */\n      sgt\n        /* \"#utility.yul\":16585:16586   */\n      0x00\n        /* \"#utility.yul\":16582:16583   */\n      dup6\n        /* \"#utility.yul\":16578:16587   */\n      slt\n        /* \"#utility.yul\":16571:16588   */\n      iszero\n        /* \"#utility.yul\":16567:16603   */\n      and\n        /* \"#utility.yul\":16551:16655   */\n      or\n        /* \"#utility.yul\":16548:16678   */\n      iszero\n      tag_368\n      jumpi\n        /* \"#utility.yul\":16658:16676   */\n      tag_369\n      tag_203\n      jump\t// in\n    tag_369:\n        /* \"#utility.yul\":16548:16678   */\n    tag_368:\n        /* \"#utility.yul\":16313:16685   */\n      swap3\n      swap2\n      pop\n      pop\n      jump\t// out\n        /* \"#utility.yul\":16691:16864   */\n    tag_210:\n        /* \"#utility.yul\":16831:16856   */\n      0x50726f73756d6572206e6f742072656769737465726564000000000000000000\n        /* \"#utility.yul\":16827:16828   */\n      0x00\n        /* \"#utility.yul\":16819:16825   */\n      dup3\n        /* \"#utility.yul\":16815:16829   */\n      add\n        /* \"#utility.yul\":16808:16857   */\n      mstore\n        /* \"#utility.yul\":16691:16864   */\n      pop\n      jump\t// out\n        /* \"#utility.yul\":16870:17236   */\n    tag_211:\n        /* \"#utility.yul\":17012:17015   */\n      0x00\n        /* \"#utility.yul\":17033:17100   */\n      tag_372\n        /* \"#utility.yul\":17097:17099   */\n      0x17\n        /* \"#utility.yul\":17092:17095   */\n      dup4\n        /* \"#utility.yul\":17033:17100   */\n      tag_188\n      jump\t// in\n    tag_372:\n        /* \"#utility.yul\":17026:17100   */\n      swap2\n      pop\n        /* \"#utility.yul\":17109:17202   */\n      tag_373\n        /* \"#utility.yul\":17198:17201   */\n      dup3\n        /* \"#utility.yul\":17109:17202   */\n      tag_210\n      jump\t// in\n    tag_373:\n        /* \"#utility.yul\":17227:17229   */\n      0x20\n        /* \"#utility.yul\":17222:17225   */\n      dup3\n        /* \"#utility.yul\":17218:17230   */\n      add\n        /* \"#utility.yul\":17211:17230   */\n      swap1\n      pop\n        /* \"#utility.yul\":16870:17236   */\n      swap2\n      swap1\n      pop\n      jump\t// out\n        /* \"#utility.yul\":17242:17661   */\n    tag_119:\n        /* \"#utility.yul\":17408:17412   */\n      0x00\n        /* \"#utility.yul\":17446:17448   */\n      0x20\n        /* \"#utility.yul\":17435:17444   */\n      dup3\n        /* \"#utility.yul\":17431:17449   */\n      add\n        /* \"#utility.yul\":17423:17449   */\n      swap1\n      pop\n        /* \"#utility.yul\":17495:17504   */\n      dup2\n        /* \"#utility.yul\":17489:17493   */\n      dup2\n        /* \"#utility.yul\":17485:17505   */\n      sub\n        /* \"#utility.yul\":17481:17482   */\n      0x00\n        /* \"#utility.yul\":17470:17479   */\n      dup4\n        /* \"#utility.yul\":17466:17483   */\n      add\n        /* \"#utility.yul\":17459:17506   */\n      mstore\n        /* \"#utility.yul\":17523:17654   */\n      tag_375\n        /* \"#utility.yul\":17649:17653   */\n      dup2\n        /* \"#utility.yul\":17523:17654   */\n      tag_211\n      jump\t// in\n    tag_375:\n        /* \"#utility.yul\":17515:17654   */\n      swap1\n      pop\n        /* \"#utility.yul\":17242:17661   */\n      swap2\n      swap1\n      pop\n      jump\t// out\n        /* \"#utility.yul\":17667:17847   */\n    tag_212:\n        /* \"#utility.yul\":17807:17839   */\n      0x50726f73756d65722068617320616e20656e6572677920646566696369740000\n        /* \"#utility.yul\":17803:17804   */\n      0x00\n        /* \"#utility.yul\":17795:17801   */\n      dup3\n        /* \"#utility.yul\":17791:17805   */\n      add\n        /* \"#utility.yul\":17784:17840   */\n      mstore\n        /* \"#utility.yul\":17667:17847   */\n      pop\n      jump\t// out\n        /* \"#utility.yul\":17853:18219   */\n    tag_213:\n        /* \"#utility.yul\":17995:17998   */\n      0x00\n        /* \"#utility.yul\":18016:18083   */\n      tag_378\n        /* \"#utility.yul\":18080:18082   */\n      0x1e\n        /* \"#utility.yul\":18075:18078   */\n      dup4\n        /* \"#utility.yul\":18016:18083   */\n      tag_188\n      jump\t// in\n    tag_378:\n        /* \"#utility.yul\":18009:18083   */\n      swap2\n      pop\n        /* \"#utility.yul\":18092:18185   */\n      tag_379\n        /* \"#utility.yul\":18181:18184   */\n      dup3\n        /* \"#utility.yul\":18092:18185   */\n      tag_212\n      jump\t// in\n    tag_379:\n        /* \"#utility.yul\":18210:18212   */\n      0x20\n        /* \"#utility.yul\":18205:18208   */\n      dup3\n        /* \"#utility.yul\":18201:18213   */\n      add\n        /* \"#utility.yul\":18194:18213   */\n      swap1\n      pop\n        /* \"#utility.yul\":17853:18219   */\n      swap2\n      swap1\n      pop\n      jump\t// out\n        /* \"#utility.yul\":18225:18644   */\n    tag_122:\n        /* \"#utility.yul\":18391:18395   */\n      0x00\n        /* \"#utility.yul\":18429:18431   */\n      0x20\n        /* \"#utility.yul\":18418:18427   */\n      dup3\n        /* \"#utility.yul\":18414:18432   */\n      add\n        /* \"#utility.yul\":18406:18432   */\n      swap1\n      pop\n        /* \"#utility.yul\":18478:18487   */\n      dup2\n        /* \"#utility.yul\":18472:18476   */\n      dup2\n        /* \"#utility.yul\":18468:18488   */\n      sub\n        /* \"#utility.yul\":18464:18465   */\n      0x00\n        /* \"#utility.yul\":18453:18462   */\n      dup4\n        /* \"#utility.yul\":18449:18466   */\n      add\n        /* \"#utility.yul\":18442:18489   */\n      mstore\n        /* \"#utility.yul\":18506:18637   */\n      tag_381\n        /* \"#utility.yul\":18632:18636   */\n      dup2\n        /* \"#utility.yul\":18506:18637   */\n      tag_213\n      jump\t// in\n    tag_381:\n        /* \"#utility.yul\":18498:18637   */\n      swap1\n      pop\n        /* \"#utility.yul\":18225:18644   */\n      swap2\n      swap1\n      pop\n      jump\t// out\n        /* \"#utility.yul\":18650:18830   */\n    tag_130:\n        /* \"#utility.yul\":18698:18775   */\n      0x4e487b7100000000000000000000000000000000000000000000000000000000\n        /* \"#utility.yul\":18695:18696   */\n      0x00\n        /* \"#utility.yul\":18688:18776   */\n      mstore\n        /* \"#utility.yul\":18795:18799   */\n      0x32\n        /* \"#utility.yul\":18792:18793   */\n      0x04\n        /* \"#utility.yul\":18785:18800   */\n      mstore\n        /* \"#utility.yul\":18819:18823   */\n      0x24\n        /* \"#utility.yul\":18816:18817   */\n      0x00\n        /* \"#utility.yul\":18809:18824   */\n      revert\n        /* \"#utility.yul\":18836:19164   */\n    tag_146:\n        /* \"#utility.yul\":18955:18959   */\n      0x00\n        /* \"#utility.yul\":18993:18995   */\n      0x40\n        /* \"#utility.yul\":18982:18991   */\n      dup3\n        /* \"#utility.yul\":18978:18996   */\n      add\n        /* \"#utility.yul\":18970:18996   */\n      swap1\n      pop\n        /* \"#utility.yul\":19006:19077   */\n      tag_384\n        /* \"#utility.yul\":19074:19075   */\n      0x00\n        /* \"#utility.yul\":19063:19072   */\n      dup4\n        /* \"#utility.yul\":19059:19076   */\n      add\n        /* \"#utility.yul\":19050:19056   */\n      dup6\n        /* \"#utility.yul\":19006:19077   */\n      tag_183\n      jump\t// in\n    tag_384:\n        /* \"#utility.yul\":19087:19157   */\n      tag_385\n        /* \"#utility.yul\":19153:19155   */\n      0x20\n        /* \"#utility.yul\":19142:19151   */\n      dup4\n        /* \"#utility.yul\":19138:19156   */\n      add\n        /* \"#utility.yul\":19129:19135   */\n      dup5\n        /* \"#utility.yul\":19087:19157   */\n      tag_182\n      jump\t// in\n    tag_385:\n        /* \"#utility.yul\":18836:19164   */\n      swap4\n      swap3\n      pop\n      pop\n      pop\n      jump\t// out\n        /* \"#utility.yul\":19170:19348   */\n    tag_214:\n        /* \"#utility.yul\":19310:19340   */\n      0x50726f73756d657220616c726561647920726567697374657265642100000000\n        /* \"#utility.yul\":19306:19307   */\n      0x00\n        /* \"#utility.yul\":19298:19304   */\n      dup3\n        /* \"#utility.yul\":19294:19308   */\n      add\n        /* \"#utility.yul\":19287:19341   */\n      mstore\n        /* \"#utility.yul\":19170:19348   */\n      pop\n      jump\t// out\n        /* \"#utility.yul\":19354:19720   */\n    tag_215:\n        /* \"#utility.yul\":19496:19499   */\n      0x00\n        /* \"#utility.yul\":19517:19584   */\n      tag_388\n        /* \"#utility.yul\":19581:19583   */\n      0x1c\n        /* \"#utility.yul\":19576:19579   */\n      dup4\n        /* \"#utility.yul\":19517:19584   */\n      tag_188\n      jump\t// in\n    tag_388:\n        /* \"#utility.yul\":19510:19584   */\n      swap2\n      pop\n        /* \"#utility.yul\":19593:19686   */\n      tag_389\n        /* \"#utility.yul\":19682:19685   */\n      dup3\n        /* \"#utility.yul\":19593:19686   */\n      tag_214\n      jump\t// in\n    tag_389:\n        /* \"#utility.yul\":19711:19713   */\n      0x20\n        /* \"#utility.yul\":19706:19709   */\n      dup3\n        /* \"#utility.yul\":19702:19714   */\n      add\n        /* \"#utility.yul\":19695:19714   */\n      swap1\n      pop\n        /* \"#utility.yul\":19354:19720   */\n      swap2\n      swap1\n      pop\n      jump\t// out\n        /* \"#utility.yul\":19726:20145   */\n    tag_153:\n        /* \"#utility.yul\":19892:19896   */\n      0x00\n        /* \"#utility.yul\":19930:19932   */\n      0x20\n        /* \"#utility.yul\":19919:19928   */\n      dup3\n        /* \"#utility.yul\":19915:19933   */\n      add\n        /* \"#utility.yul\":19907:19933   */\n      swap1\n      pop\n        /* \"#utility.yul\":19979:19988   */\n      dup2\n        /* \"#utility.yul\":19973:19977   */\n      dup2\n        /* \"#utility.yul\":19969:19989   */\n      sub\n        /* \"#utility.yul\":19965:19966   */\n      0x00\n        /* \"#utility.yul\":19954:19963   */\n      dup4\n        /* \"#utility.yul\":19950:19967   */\n      add\n        /* \"#utility.yul\":19943:19990   */\n      mstore\n        /* \"#utility.yul\":20007:20138   */\n      tag_391\n        /* \"#utility.yul\":20133:20137   */\n      dup2\n        /* \"#utility.yul\":20007:20138   */\n      tag_215\n      jump\t// in\n    tag_391:\n        /* \"#utility.yul\":19999:20138   */\n      swap1\n      pop\n        /* \"#utility.yul\":19726:20145   */\n      swap2\n      swap1\n      pop\n      jump\t// out\n        /* \"#utility.yul\":20151:20376   */\n    tag_216:\n        /* \"#utility.yul\":20291:20325   */\n      0x4f6e6c79207265636f726465722063616e2075706461746520656e6572677920\n        /* \"#utility.yul\":20287:20288   */\n      0x00\n        /* \"#utility.yul\":20279:20285   */\n      dup3\n        /* \"#utility.yul\":20275:20289   */\n      add\n        /* \"#utility.yul\":20268:20326   */\n      mstore\n        /* \"#utility.yul\":20360:20368   */\n      0x7374617475730000000000000000000000000000000000000000000000000000\n        /* \"#utility.yul\":20355:20357   */\n      0x20\n        /* \"#utility.yul\":20347:20353   */\n      dup3\n        /* \"#utility.yul\":20343:20358   */\n      add\n        /* \"#utility.yul\":20336:20369   */\n      mstore\n        /* \"#utility.yul\":20151:20376   */\n      pop\n      jump\t// out\n        /* \"#utility.yul\":20382:20748   */\n    tag_217:\n        /* \"#utility.yul\":20524:20527   */\n      0x00\n        /* \"#utility.yul\":20545:20612   */\n      tag_394\n        /* \"#utility.yul\":20609:20611   */\n      0x26\n        /* \"#utility.yul\":20604:20607   */\n      dup4\n        /* \"#utility.yul\":20545:20612   */\n      tag_188\n      jump\t// in\n    tag_394:\n        /* \"#utility.yul\":20538:20612   */\n      swap2\n      pop\n        /* \"#utility.yul\":20621:20714   */\n      tag_395\n        /* \"#utility.yul\":20710:20713   */\n      dup3\n        /* \"#utility.yul\":20621:20714   */\n      tag_216\n      jump\t// in\n    tag_395:\n        /* \"#utility.yul\":20739:20741   */\n      0x40\n        /* \"#utility.yul\":20734:20737   */\n      dup3\n        /* \"#utility.yul\":20730:20742   */\n      add\n        /* \"#utility.yul\":20723:20742   */\n      swap1\n      pop\n        /* \"#utility.yul\":20382:20748   */\n      swap2\n      swap1\n      pop\n      jump\t// out\n        /* \"#utility.yul\":20754:21173   */\n    tag_162:\n        /* \"#utility.yul\":20920:20924   */\n      0x00\n        /* \"#utility.yul\":20958:20960   */\n      0x20\n        /* \"#utility.yul\":20947:20956   */\n      dup3\n        /* \"#utility.yul\":20943:20961   */\n      add\n        /* \"#utility.yul\":20935:20961   */\n      swap1\n      pop\n        /* \"#utility.yul\":21007:21016   */\n      dup2\n        /* \"#utility.yul\":21001:21005   */\n      dup2\n        /* \"#utility.yul\":20997:21017   */\n      sub\n        /* \"#utility.yul\":20993:20994   */\n      0x00\n        /* \"#utility.yul\":20982:20991   */\n      dup4\n        /* \"#utility.yul\":20978:20995   */\n      add\n        /* \"#utility.yul\":20971:21018   */\n      mstore\n        /* \"#utility.yul\":21035:21166   */\n      tag_397\n        /* \"#utility.yul\":21161:21165   */\n      dup2\n        /* \"#utility.yul\":21035:21166   */\n      tag_217\n      jump\t// in\n    tag_397:\n        /* \"#utility.yul\":21027:21166   */\n      swap1\n      pop\n        /* \"#utility.yul\":20754:21173   */\n      swap2\n      swap1\n      pop\n      jump\t// out\n\n    auxdata: 0xa2646970667358221220ec2ef2512c0bbb880d575d21301192c8a243099bb02e0c9f5a9a27ccfaa3d73364736f6c634300081e0033\n}\n",
				"bytecode": {
					"linkReferences": {},
					"object": "6080604052604051611a9d380380611a9d833981810160405281019061002591906100d8565b8060025f6101000a81548173ffffffffffffffffffffffffffffffffffffffff021916908373ffffffffffffffffffffffffffffffffffffffff160217905550670de0b6b3a764000060018190555050610103565b5f5ffd5b5f73ffffffffffffffffffffffffffffffffffffffff82169050919050565b5f6100a78261007e565b9050919050565b6100b78161009d565b81146100c1575f5ffd5b50565b5f815190506100d2816100ae565b92915050565b5f602082840312156100ed576100ec61007a565b5b5f6100fa848285016100c4565b91505092915050565b61198d806101105f395ff3fe6080604052600436106100c1575f3560e01c80638b7afe2e1161007e578063b8510a9611610058578063b8510a9614610212578063cab0f3351461024e578063cb2fd8db14610278578063d0e30db0146102a0576100c1565b80638b7afe2e146101a8578063a3818880146101d2578063b6c3afca146101e8576100c1565b80630f0fe598146100c55780632c8d7c32146100ed5780632e1a7d4d1461012c5780632fbbf1231461015457806345f802511461016a5780637a6edb2814610180575b5f5ffd5b3480156100d0575f5ffd5b506100eb60048036038101906100e69190610fc1565b6102aa565b005b3480156100f8575f5ffd5b50610113600480360381019061010e9190610fff565b6106da565b604051610123949392919061107a565b60405180910390f35b348015610137575f5ffd5b50610152600480360381019061014d91906110bd565b610730565b005b34801561015f575f5ffd5b506101686108d3565b005b348015610175575f5ffd5b5061017e610a84565b005b34801561018b575f5ffd5b506101a660048036038101906101a19190610fc1565b610a86565b005b3480156101b3575f5ffd5b506101bc610a8a565b6040516101c991906110e8565b60405180910390f35b3480156101dd575f5ffd5b506101e6610a91565b005b3480156101f3575f5ffd5b506101fc610c6f565b6040516102099190611101565b60405180910390f35b34801561021d575f5ffd5b50610238600480360381019061023391906110bd565b610c97565b6040516102459190611101565b60405180910390f35b348015610259575f5ffd5b50610262610cd2565b60405161026f91906110e8565b60405180910390f35b348015610283575f5ffd5b5061029e60048036038101906102999190611144565b610cdb565b005b6102a8610e4e565b005b5f81116102ec576040517f08c379a00000000000000000000000000000000000000000000000000000000081526004016102e3906111dc565b60405180910390fd5b5f73ffffffffffffffffffffffffffffffffffffffff168273ffffffffffffffffffffffffffffffffffffffff160361035a576040517f08c379a000000000000000000000000000000000000000000000000000000000815260040161035190611244565b60405180910390fd5b3373ffffffffffffffffffffffffffffffffffffffff168273ffffffffffffffffffffffffffffffffffffffff16036103c8576040517f08c379a00000000000000000000000000000000000000000000000000000000081526004016103bf906112ac565b60405180910390fd5b5f5f5f3373ffffffffffffffffffffffffffffffffffffffff1673ffffffffffffffffffffffffffffffffffffffff1681526020019081526020015f2090505f5f5f8573ffffffffffffffffffffffffffffffffffffffff1673ffffffffffffffffffffffffffffffffffffffff1681526020019081526020015f209050816003015f9054906101000a900460ff16610496576040517f08c379a000000000000000000000000000000000000000000000000000000000815260040161048d90611314565b60405180910390fd5b806003015f9054906101000a900460ff166104e6576040517f08c379a00000000000000000000000000000000000000000000000000000000081526004016104dd9061137c565b60405180910390fd5b5f82600101541261052c576040517f08c379a0000000000000000000000000000000000000000000000000000000008152600401610523906113e4565b60405180910390fd5b5f816001015413610572576040517f08c379a00000000000000000000000000000000000000000000000000000000081526004016105699061144c565b60405180910390fd5b5f826001015461058190611497565b9050808411156105c6576040517f08c379a00000000000000000000000000000000000000000000000000000000081526004016105bd90611527565b60405180910390fd5b5f8260010154905080851115610611576040517f08c379a00000000000000000000000000000000000000000000000000000000081526004016106089061158f565b60405180910390fd5b5f6001548661062091906115ad565b90508085600201541015610669576040517f08c379a000000000000000000000000000000000000000000000000000000000815260040161066090611638565b60405180910390fd5b80856002015f82825461067c9190611656565b9250508190555080846002015f8282546106969190611689565b9250508190555085856001015f8282546106b091906116bc565b9250508190555085846001015f8282546106ca91906116fd565b9250508190555050505050505050565b5f602052805f5260405f205f91509050805f015f9054906101000a900473ffffffffffffffffffffffffffffffffffffffff1690806001015490806002015490806003015f9054906101000a900460ff16905084565b5f3390505f5f8273ffffffffffffffffffffffffffffffffffffffff1673ffffffffffffffffffffffffffffffffffffffff1681526020019081526020015f206003015f9054906101000a900460ff166107bf576040517f08c379a00000000000000000000000000000000000000000000000000000000081526004016107b690611787565b60405180910390fd5b5f5f5f8373ffffffffffffffffffffffffffffffffffffffff1673ffffffffffffffffffffffffffffffffffffffff1681526020019081526020015f20600101541215610841576040517f08c379a0000000000000000000000000000000000000000000000000000000008152600401610838906117ef565b60405180910390fd5b815f5f8373ffffffffffffffffffffffffffffffffffffffff1673ffffffffffffffffffffffffffffffffffffffff1681526020019081526020015f206002015461088c9190611656565b5f5f8373ffffffffffffffffffffffffffffffffffffffff1673ffffffffffffffffffffffffffffffffffffffff1681526020019081526020015f20600201819055505050565b5f5f90505f5f90505b600380549050811015610983575f600382815481106108fe576108fd61180d565b5b905f5260205f20015f9054906101000a900473ffffffffffffffffffffffffffffffffffffffff1690505f5f8273ffffffffffffffffffffffffffffffffffffffff1673ffffffffffffffffffffffffffffffffffffffff1681526020019081526020015f20600101548361097391906116bc565b92505080806001019150506108dc565b505f670de0b6b3a764000090505f5f8312156109ca5766038d7ea4c68000836109ab90611497565b6109b591906115ad565b905080826109c39190611689565b9150610a07565b5f831315610a065766038d7ea4c68000836109e591906115ad565b90508181106109f6575f9150610a05565b8082610a029190611656565b91505b5b5b67016345785d8a0000821015610a235767016345785d8a000091505b674563918244f40000821115610a3f57674563918244f4000091505b816001819055507f999f531f5c660ea97b00b870fa2eaf696cf5c011cc53c3a68a866585105d6e568284604051610a7792919061183a565b60405180910390a1505050565b565b5050565b5f47905090565b5f5f3373ffffffffffffffffffffffffffffffffffffffff1673ffffffffffffffffffffffffffffffffffffffff1681526020019081526020015f206003015f9054906101000a900460ff1615610b1d576040517f08c379a0000000000000000000000000000000000000000000000000000000008152600401610b14906118ab565b60405180910390fd5b60405180608001604052803373ffffffffffffffffffffffffffffffffffffffff1681526020015f81526020015f8152602001600115158152505f5f3373ffffffffffffffffffffffffffffffffffffffff1673ffffffffffffffffffffffffffffffffffffffff1681526020019081526020015f205f820151815f015f6101000a81548173ffffffffffffffffffffffffffffffffffffffff021916908373ffffffffffffffffffffffffffffffffffffffff16021790555060208201518160010155604082015181600201556060820151816003015f6101000a81548160ff021916908315150217905550905050600333908060018154018082558091505060019003905f5260205f20015f9091909190916101000a81548173ffffffffffffffffffffffffffffffffffffffff021916908373ffffffffffffffffffffffffffffffffffffffff160217905550565b5f60025f9054906101000a900473ffffffffffffffffffffffffffffffffffffffff16905090565b60038181548110610ca6575f80fd5b905f5260205f20015f915054906101000a900473ffffffffffffffffffffffffffffffffffffffff1681565b5f600154905090565b60025f9054906101000a900473ffffffffffffffffffffffffffffffffffffffff1673ffffffffffffffffffffffffffffffffffffffff163373ffffffffffffffffffffffffffffffffffffffff1614610d6a576040517f08c379a0000000000000000000000000000000000000000000000000000000008152600401610d6190611939565b60405180910390fd5b5f5f8373ffffffffffffffffffffffffffffffffffffffff1673ffffffffffffffffffffffffffffffffffffffff1681526020019081526020015f206003015f9054906101000a900460ff16610df5576040517f08c379a0000000000000000000000000000000000000000000000000000000008152600401610dec90611787565b60405180910390fd5b805f5f8473ffffffffffffffffffffffffffffffffffffffff1673ffffffffffffffffffffffffffffffffffffffff1681526020019081526020015f206001015f828254610e4391906116bc565b925050819055505050565b5f5f3373ffffffffffffffffffffffffffffffffffffffff1673ffffffffffffffffffffffffffffffffffffffff1681526020019081526020015f206003015f9054906101000a900460ff16610ed9576040517f08c379a0000000000000000000000000000000000000000000000000000000008152600401610ed090611787565b60405180910390fd5b345f5f3373ffffffffffffffffffffffffffffffffffffffff1673ffffffffffffffffffffffffffffffffffffffff1681526020019081526020015f206002015f828254610f279190611689565b92505081905550565b5f5ffd5b5f73ffffffffffffffffffffffffffffffffffffffff82169050919050565b5f610f5d82610f34565b9050919050565b610f6d81610f53565b8114610f77575f5ffd5b50565b5f81359050610f8881610f64565b92915050565b5f819050919050565b610fa081610f8e565b8114610faa575f5ffd5b50565b5f81359050610fbb81610f97565b92915050565b5f5f60408385031215610fd757610fd6610f30565b5b5f610fe485828601610f7a565b9250506020610ff585828601610fad565b9150509250929050565b5f6020828403121561101457611013610f30565b5b5f61102184828501610f7a565b91505092915050565b61103381610f53565b82525050565b5f819050919050565b61104b81611039565b82525050565b61105a81610f8e565b82525050565b5f8115159050919050565b61107481611060565b82525050565b5f60808201905061108d5f83018761102a565b61109a6020830186611042565b6110a76040830185611051565b6110b4606083018461106b565b95945050505050565b5f602082840312156110d2576110d1610f30565b5b5f6110df84828501610fad565b91505092915050565b5f6020820190506110fb5f830184611051565b92915050565b5f6020820190506111145f83018461102a565b92915050565b61112381611039565b811461112d575f5ffd5b50565b5f8135905061113e8161111a565b92915050565b5f5f6040838503121561115a57611159610f30565b5b5f61116785828601610f7a565b925050602061117885828601611130565b9150509250929050565b5f82825260208201905092915050565b7f52657175657374656420656e65726779206d757374206265203e2030000000005f82015250565b5f6111c6601c83611182565b91506111d182611192565b602082019050919050565b5f6020820190508181035f8301526111f3816111ba565b9050919050565b7f496e76616c69642073656c6c65720000000000000000000000000000000000005f82015250565b5f61122e600e83611182565b9150611239826111fa565b602082019050919050565b5f6020820190508181035f83015261125b81611222565b9050919050565b7f43616e6e6f74206275792066726f6d2073656c660000000000000000000000005f82015250565b5f611296601483611182565b91506112a182611262565b602082019050919050565b5f6020820190508181035f8301526112c38161128a565b9050919050565b7f4275796572206e6f7420726567697374657265640000000000000000000000005f82015250565b5f6112fe601483611182565b9150611309826112ca565b602082019050919050565b5f6020820190508181035f83015261132b816112f2565b9050919050565b7f53656c6c6572206e6f74207265676973746572656400000000000000000000005f82015250565b5f611366601583611182565b915061137182611332565b602082019050919050565b5f6020820190508181035f8301526113938161135a565b9050919050565b7f4275796572206973206e6f7420696e20646566696369740000000000000000005f82015250565b5f6113ce601783611182565b91506113d98261139a565b602082019050919050565b5f6020820190508181035f8301526113fb816113c2565b9050919050565b7f53656c6c6572206973206e6f7420696e20737572706c757300000000000000005f82015250565b5f611436601883611182565b915061144182611402565b602082019050919050565b5f6020820190508181035f8301526114638161142a565b9050919050565b7f4e487b71000000000000000000000000000000000000000000000000000000005f52601160045260245ffd5b5f6114a182611039565b91507f800000000000000000000000000000000000000000000000000000000000000082036114d3576114d261146a565b5b815f039050919050565b7f52657175657374656420657863656564732062757965722064656669636974005f82015250565b5f611511601f83611182565b915061151c826114dd565b602082019050919050565b5f6020820190508181035f83015261153e81611505565b9050919050565b7f52657175657374656420657863656564732073656c6c657220737572706c75735f82015250565b5f611579602083611182565b915061158482611545565b602082019050919050565b5f6020820190508181035f8301526115a68161156d565b9050919050565b5f6115b782610f8e565b91506115c283610f8e565b92508282026115d081610f8e565b915082820484148315176115e7576115e661146a565b5b5092915050565b7f496e73756666696369656e742062757965722062616c616e63650000000000005f82015250565b5f611622601a83611182565b915061162d826115ee565b602082019050919050565b5f6020820190508181035f83015261164f81611616565b9050919050565b5f61166082610f8e565b915061166b83610f8e565b92508282039050818111156116835761168261146a565b5b92915050565b5f61169382610f8e565b915061169e83610f8e565b92508282019050808211156116b6576116b561146a565b5b92915050565b5f6116c682611039565b91506116d183611039565b92508282019050828112155f8312168382125f8412151617156116f7576116f661146a565b5b92915050565b5f61170782611039565b915061171283611039565b925082820390508181125f8412168282135f8512151617156117375761173661146a565b5b92915050565b7f50726f73756d6572206e6f7420726567697374657265640000000000000000005f82015250565b5f611771601783611182565b915061177c8261173d565b602082019050919050565b5f6020820190508181035f83015261179e81611765565b9050919050565b7f50726f73756d65722068617320616e20656e65726779206465666963697400005f82015250565b5f6117d9601e83611182565b91506117e4826117a5565b602082019050919050565b5f6020820190508181035f830152611806816117cd565b9050919050565b7f4e487b71000000000000000000000000000000000000000000000000000000005f52603260045260245ffd5b5f60408201905061184d5f830185611051565b61185a6020830184611042565b9392505050565b7f50726f73756d657220616c7265616479207265676973746572656421000000005f82015250565b5f611895601c83611182565b91506118a082611861565b602082019050919050565b5f6020820190508181035f8301526118c281611889565b9050919050565b7f4f6e6c79207265636f726465722063616e2075706461746520656e65726779205f8201527f7374617475730000000000000000000000000000000000000000000000000000602082015250565b5f611923602683611182565b915061192e826118c9565b604082019050919050565b5f6020820190508181035f83015261195081611917565b905091905056fea2646970667358221220ec2ef2512c0bbb880d575d21301192c8a243099bb02e0c9f5a9a27ccfaa3d73364736f6c634300081e0033",
					"opcodes": "PUSH1 0x80 PUSH1 0x40 MSTORE PUSH1 0x40 MLOAD PUSH2 0x1A9D CODESIZE SUB DUP1 PUSH2 0x1A9D DUP4 CODECOPY DUP2 DUP2 ADD PUSH1 0x40 MSTORE DUP2 ADD SWAP1 PUSH2 0x25 SWAP2 SWAP1 PUSH2 0xD8 JUMP JUMPDEST DUP1 PUSH1 0x2 PUSH0 PUSH2 0x100 EXP DUP2 SLOAD DUP2 PUSH20 0xFFFFFFFFFFFFFFFFFFFFFFFFFFFFFFFFFFFFFFFF MUL NOT AND SWAP1 DUP4 PUSH20 0xFFFFFFFFFFFFFFFFFFFFFFFFFFFFFFFFFFFFFFFF AND MUL OR SWAP1 SSTORE POP PUSH8 0xDE0B6B3A7640000 PUSH1 0x1 DUP2 SWAP1 SSTORE POP POP PUSH2 0x103 JUMP JUMPDEST PUSH0 PUSH0 REVERT JUMPDEST PUSH0 PUSH20 0xFFFFFFFFFFFFFFFFFFFFFFFFFFFFFFFFFFFFFFFF DUP3 AND SWAP1 POP SWAP2 SWAP1 POP JUMP JUMPDEST PUSH0 PUSH2 0xA7 DUP3 PUSH2 0x7E JUMP JUMPDEST SWAP1 POP SWAP2 SWAP1 POP JUMP JUMPDEST PUSH2 0xB7 DUP2 PUSH2 0x9D JUMP JUMPDEST DUP2 EQ PUSH2 0xC1 JUMPI PUSH0 PUSH0 REVERT JUMPDEST POP JUMP JUMPDEST PUSH0 DUP2 MLOAD SWAP1 POP PUSH2 0xD2 DUP2 PUSH2 0xAE JUMP JUMPDEST SWAP3 SWAP2 POP POP JUMP JUMPDEST PUSH0 PUSH1 0x20 DUP3 DUP5 SUB SLT ISZERO PUSH2 0xED JUMPI PUSH2 0xEC PUSH2 0x7A JUMP JUMPDEST JUMPDEST PUSH0 PUSH2 0xFA DUP5 DUP3 DUP6 ADD PUSH2 0xC4 JUMP JUMPDEST SWAP2 POP POP SWAP3 SWAP2 POP POP JUMP JUMPDEST PUSH2 0x198D DUP1 PUSH2 0x110 PUSH0 CODECOPY PUSH0 RETURN INVALID PUSH1 0x80 PUSH1 0x40 MSTORE PUSH1 0x4 CALLDATASIZE LT PUSH2 0xC1 JUMPI PUSH0 CALLDATALOAD PUSH1 0xE0 SHR DUP1 PUSH4 0x8B7AFE2E GT PUSH2 0x7E JUMPI DUP1 PUSH4 0xB8510A96 GT PUSH2 0x58 JUMPI DUP1 PUSH4 0xB8510A96 EQ PUSH2 0x212 JUMPI DUP1 PUSH4 0xCAB0F335 EQ PUSH2 0x24E JUMPI DUP1 PUSH4 0xCB2FD8DB EQ PUSH2 0x278 JUMPI DUP1 PUSH4 0xD0E30DB0 EQ PUSH2 0x2A0 JUMPI PUSH2 0xC1 JUMP JUMPDEST DUP1 PUSH4 0x8B7AFE2E EQ PUSH2 0x1A8 JUMPI DUP1 PUSH4 0xA3818880 EQ PUSH2 0x1D2 JUMPI DUP1 PUSH4 0xB6C3AFCA EQ PUSH2 0x1E8 JUMPI PUSH2 0xC1 JUMP JUMPDEST DUP1 PUSH4 0xF0FE598 EQ PUSH2 0xC5 JUMPI DUP1 PUSH4 0x2C8D7C32 EQ PUSH2 0xED JUMPI DUP1 PUSH4 0x2E1A7D4D EQ PUSH2 0x12C JUMPI DUP1 PUSH4 0x2FBBF123 EQ PUSH2 0x154 JUMPI DUP1 PUSH4 0x45F80251 EQ PUSH2 0x16A JUMPI DUP1 PUSH4 0x7A6EDB28 EQ PUSH2 0x180 JUMPI JUMPDEST PUSH0 PUSH0 REVERT JUMPDEST CALLVALUE DUP1 ISZERO PUSH2 0xD0 JUMPI PUSH0 PUSH0 REVERT JUMPDEST POP PUSH2 0xEB PUSH1 0x4 DUP1 CALLDATASIZE SUB DUP2 ADD SWAP1 PUSH2 0xE6 SWAP2 SWAP1 PUSH2 0xFC1 JUMP JUMPDEST PUSH2 0x2AA JUMP JUMPDEST STOP JUMPDEST CALLVALUE DUP1 ISZERO PUSH2 0xF8 JUMPI PUSH0 PUSH0 REVERT JUMPDEST POP PUSH2 0x113 PUSH1 0x4 DUP1 CALLDATASIZE SUB DUP2 ADD SWAP1 PUSH2 0x10E SWAP2 SWAP1 PUSH2 0xFFF JUMP JUMPDEST PUSH2 0x6DA JUMP JUMPDEST PUSH1 0x40 MLOAD PUSH2 0x123 SWAP5 SWAP4 SWAP3 SWAP2 SWAP1 PUSH2 0x107A JUMP JUMPDEST PUSH1 0x40 MLOAD DUP1 SWAP2 SUB SWAP1 RETURN JUMPDEST CALLVALUE DUP1 ISZERO PUSH2 0x137 JUMPI PUSH0 PUSH0 REVERT JUMPDEST POP PUSH2 0x152 PUSH1 0x4 DUP1 CALLDATASIZE SUB DUP2 ADD SWAP1 PUSH2 0x14D SWAP2 SWAP1 PUSH2 0x10BD JUMP JUMPDEST PUSH2 0x730 JUMP JUMPDEST STOP JUMPDEST CALLVALUE DUP1 ISZERO PUSH2 0x15F JUMPI PUSH0 PUSH0 REVERT JUMPDEST POP PUSH2 0x168 PUSH2 0x8D3 JUMP JUMPDEST STOP JUMPDEST CALLVALUE DUP1 ISZERO PUSH2 0x175 JUMPI PUSH0 PUSH0 REVERT JUMPDEST POP PUSH2 0x17E PUSH2 0xA84 JUMP JUMPDEST STOP JUMPDEST CALLVALUE DUP1 ISZERO PUSH2 0x18B JUMPI PUSH0 PUSH0 REVERT JUMPDEST POP PUSH2 0x1A6 PUSH1 0x4 DUP1 CALLDATASIZE SUB DUP2 ADD SWAP1 PUSH2 0x1A1 SWAP2 SWAP1 PUSH2 0xFC1 JUMP JUMPDEST PUSH2 0xA86 JUMP JUMPDEST STOP JUMPDEST CALLVALUE DUP1 ISZERO PUSH2 0x1B3 JUMPI PUSH0 PUSH0 REVERT JUMPDEST POP PUSH2 0x1BC PUSH2 0xA8A JUMP JUMPDEST PUSH1 0x40 MLOAD PUSH2 0x1C9 SWAP2 SWAP1 PUSH2 0x10E8 JUMP JUMPDEST PUSH1 0x40 MLOAD DUP1 SWAP2 SUB SWAP1 RETURN JUMPDEST CALLVALUE DUP1 ISZERO PUSH2 0x1DD JUMPI PUSH0 PUSH0 REVERT JUMPDEST POP PUSH2 0x1E6 PUSH2 0xA91 JUMP JUMPDEST STOP JUMPDEST CALLVALUE DUP1 ISZERO PUSH2 0x1F3 JUMPI PUSH0 PUSH0 REVERT JUMPDEST POP PUSH2 0x1FC PUSH2 0xC6F JUMP JUMPDEST PUSH1 0x40 MLOAD PUSH2 0x209 SWAP2 SWAP1 PUSH2 0x1101 JUMP JUMPDEST PUSH1 0x40 MLOAD DUP1 SWAP2 SUB SWAP1 RETURN JUMPDEST CALLVALUE DUP1 ISZERO PUSH2 0x21D JUMPI PUSH0 PUSH0 REVERT JUMPDEST POP PUSH2 0x238 PUSH1 0x4 DUP1 CALLDATASIZE SUB DUP2 ADD SWAP1 PUSH2 0x233 SWAP2 SWAP1 PUSH2 0x10BD JUMP JUMPDEST PUSH2 0xC97 JUMP JUMPDEST PUSH1 0x40 MLOAD PUSH2 0x245 SWAP2 SWAP1 PUSH2 0x1101 JUMP JUMPDEST PUSH1 0x40 MLOAD DUP1 SWAP2 SUB SWAP1 RETURN JUMPDEST CALLVALUE DUP1 ISZERO PUSH2 0x259 JUMPI PUSH0 PUSH0 REVERT JUMPDEST POP PUSH2 0x262 PUSH2 0xCD2 JUMP JUMPDEST PUSH1 0x40 MLOAD PUSH2 0x26F SWAP2 SWAP1 PUSH2 0x10E8 JUMP JUMPDEST PUSH1 0x40 MLOAD DUP1 SWAP2 SUB SWAP1 RETURN JUMPDEST CALLVALUE DUP1 ISZERO PUSH2 0x283 JUMPI PUSH0 PUSH0 REVERT JUMPDEST POP PUSH2 0x29E PUSH1 0x4 DUP1 CALLDATASIZE SUB DUP2 ADD SWAP1 PUSH2 0x299 SWAP2 SWAP1 PUSH2 0x1144 JUMP JUMPDEST PUSH2 0xCDB JUMP JUMPDEST STOP JUMPDEST PUSH2 0x2A8 PUSH2 0xE4E JUMP JUMPDEST STOP JUMPDEST PUSH0 DUP2 GT PUSH2 0x2EC JUMPI PUSH1 0x40 MLOAD PUSH32 0x8C379A000000000000000000000000000000000000000000000000000000000 DUP2 MSTORE PUSH1 0x4 ADD PUSH2 0x2E3 SWAP1 PUSH2 0x11DC JUMP JUMPDEST PUSH1 0x40 MLOAD DUP1 SWAP2 SUB SWAP1 REVERT JUMPDEST PUSH0 PUSH20 0xFFFFFFFFFFFFFFFFFFFFFFFFFFFFFFFFFFFFFFFF AND DUP3 PUSH20 0xFFFFFFFFFFFFFFFFFFFFFFFFFFFFFFFFFFFFFFFF AND SUB PUSH2 0x35A JUMPI PUSH1 0x40 MLOAD PUSH32 0x8C379A000000000000000000000000000000000000000000000000000000000 DUP2 MSTORE PUSH1 0x4 ADD PUSH2 0x351 SWAP1 PUSH2 0x1244 JUMP JUMPDEST PUSH1 0x40 MLOAD DUP1 SWAP2 SUB SWAP1 REVERT JUMPDEST CALLER PUSH20 0xFFFFFFFFFFFFFFFFFFFFFFFFFFFFFFFFFFFFFFFF AND DUP3 PUSH20 0xFFFFFFFFFFFFFFFFFFFFFFFFFFFFFFFFFFFFFFFF AND SUB PUSH2 0x3C8 JUMPI PUSH1 0x40 MLOAD PUSH32 0x8C379A000000000000000000000000000000000000000000000000000000000 DUP2 MSTORE PUSH1 0x4 ADD PUSH2 0x3BF SWAP1 PUSH2 0x12AC JUMP JUMPDEST PUSH1 0x40 MLOAD DUP1 SWAP2 SUB SWAP1 REVERT JUMPDEST PUSH0 PUSH0 PUSH0 CALLER PUSH20 0xFFFFFFFFFFFFFFFFFFFFFFFFFFFFFFFFFFFFFFFF AND PUSH20 0xFFFFFFFFFFFFFFFFFFFFFFFFFFFFFFFFFFFFFFFF AND DUP2 MSTORE PUSH1 0x20 ADD SWAP1 DUP2 MSTORE PUSH1 0x20 ADD PUSH0 KECCAK256 SWAP1 POP PUSH0 PUSH0 PUSH0 DUP6 PUSH20 0xFFFFFFFFFFFFFFFFFFFFFFFFFFFFFFFFFFFFFFFF AND PUSH20 0xFFFFFFFFFFFFFFFFFFFFFFFFFFFFFFFFFFFFFFFF AND DUP2 MSTORE PUSH1 0x20 ADD SWAP1 DUP2 MSTORE PUSH1 0x20 ADD PUSH0 KECCAK256 SWAP1 POP DUP2 PUSH1 0x3 ADD PUSH0 SWAP1 SLOAD SWAP1 PUSH2 0x100 EXP SWAP1 DIV PUSH1 0xFF AND PUSH2 0x496 JUMPI PUSH1 0x40 MLOAD PUSH32 0x8C379A000000000000000000000000000000000000000000000000000000000 DUP2 MSTORE PUSH1 0x4 ADD PUSH2 0x48D SWAP1 PUSH2 0x1314 JUMP JUMPDEST PUSH1 0x40 MLOAD DUP1 SWAP2 SUB SWAP1 REVERT JUMPDEST DUP1 PUSH1 0x3 ADD PUSH0 SWAP1 SLOAD SWAP1 PUSH2 0x100 EXP SWAP1 DIV PUSH1 0xFF AND PUSH2 0x4E6 JUMPI PUSH1 0x40 MLOAD PUSH32 0x8C379A000000000000000000000000000000000000000000000000000000000 DUP2 MSTORE PUSH1 0x4 ADD PUSH2 0x4DD SWAP1 PUSH2 0x137C JUMP JUMPDEST PUSH1 0x40 MLOAD DUP1 SWAP2 SUB SWAP1 REVERT JUMPDEST PUSH0 DUP3 PUSH1 0x1 ADD SLOAD SLT PUSH2 0x52C JUMPI PUSH1 0x40 MLOAD PUSH32 0x8C379A000000000000000000000000000000000000000000000000000000000 DUP2 MSTORE PUSH1 0x4 ADD PUSH2 0x523 SWAP1 PUSH2 0x13E4 JUMP JUMPDEST PUSH1 0x40 MLOAD DUP1 SWAP2 SUB SWAP1 REVERT JUMPDEST PUSH0 DUP2 PUSH1 0x1 ADD SLOAD SGT PUSH2 0x572 JUMPI PUSH1 0x40 MLOAD PUSH32 0x8C379A000000000000000000000000000000000000000000000000000000000 DUP2 MSTORE PUSH1 0x4 ADD PUSH2 0x569 SWAP1 PUSH2 0x144C JUMP JUMPDEST PUSH1 0x40 MLOAD DUP1 SWAP2 SUB SWAP1 REVERT JUMPDEST PUSH0 DUP3 PUSH1 0x1 ADD SLOAD PUSH2 0x581 SWAP1 PUSH2 0x1497 JUMP JUMPDEST SWAP1 POP DUP1 DUP5 GT ISZERO PUSH2 0x5C6 JUMPI PUSH1 0x40 MLOAD PUSH32 0x8C379A000000000000000000000000000000000000000000000000000000000 DUP2 MSTORE PUSH1 0x4 ADD PUSH2 0x5BD SWAP1 PUSH2 0x1527 JUMP JUMPDEST PUSH1 0x40 MLOAD DUP1 SWAP2 SUB SWAP1 REVERT JUMPDEST PUSH0 DUP3 PUSH1 0x1 ADD SLOAD SWAP1 POP DUP1 DUP6 GT ISZERO PUSH2 0x611 JUMPI PUSH1 0x40 MLOAD PUSH32 0x8C379A000000000000000000000000000000000000000000000000000000000 DUP2 MSTORE PUSH1 0x4 ADD PUSH2 0x608 SWAP1 PUSH2 0x158F JUMP JUMPDEST PUSH1 0x40 MLOAD DUP1 SWAP2 SUB SWAP1 REVERT JUMPDEST PUSH0 PUSH1 0x1 SLOAD DUP7 PUSH2 0x620 SWAP2 SWAP1 PUSH2 0x15AD JUMP JUMPDEST SWAP1 POP DUP1 DUP6 PUSH1 0x2 ADD SLOAD LT ISZERO PUSH2 0x669 JUMPI PUSH1 0x40 MLOAD PUSH32 0x8C379A000000000000000000000000000000000000000000000000000000000 DUP2 MSTORE PUSH1 0x4 ADD PUSH2 0x660 SWAP1 PUSH2 0x1638 JUMP JUMPDEST PUSH1 0x40 MLOAD DUP1 SWAP2 SUB SWAP1 REVERT JUMPDEST DUP1 DUP6 PUSH1 0x2 ADD PUSH0 DUP3 DUP3 SLOAD PUSH2 0x67C SWAP2 SWAP1 PUSH2 0x1656 JUMP JUMPDEST SWAP3 POP POP DUP2 SWAP1 SSTORE POP DUP1 DUP5 PUSH1 0x2 ADD PUSH0 DUP3 DUP3 SLOAD PUSH2 0x696 SWAP2 SWAP1 PUSH2 0x1689 JUMP JUMPDEST SWAP3 POP POP DUP2 SWAP1 SSTORE POP DUP6 DUP6 PUSH1 0x1 ADD PUSH0 DUP3 DUP3 SLOAD PUSH2 0x6B0 SWAP2 SWAP1 PUSH2 0x16BC JUMP JUMPDEST SWAP3 POP POP DUP2 SWAP1 SSTORE POP DUP6 DUP5 PUSH1 0x1 ADD PUSH0 DUP3 DUP3 SLOAD PUSH2 0x6CA SWAP2 SWAP1 PUSH2 0x16FD JUMP JUMPDEST SWAP3 POP POP DUP2 SWAP1 SSTORE POP POP POP POP POP POP POP POP JUMP JUMPDEST PUSH0 PUSH1 0x20 MSTORE DUP1 PUSH0 MSTORE PUSH1 0x40 PUSH0 KECCAK256 PUSH0 SWAP2 POP SWAP1 POP DUP1 PUSH0 ADD PUSH0 SWAP1 SLOAD SWAP1 PUSH2 0x100 EXP SWAP1 DIV PUSH20 0xFFFFFFFFFFFFFFFFFFFFFFFFFFFFFFFFFFFFFFFF AND SWAP1 DUP1 PUSH1 0x1 ADD SLOAD SWAP1 DUP1 PUSH1 0x2 ADD SLOAD SWAP1 DUP1 PUSH1 0x3 ADD PUSH0 SWAP1 SLOAD SWAP1 PUSH2 0x100 EXP SWAP1 DIV PUSH1 0xFF AND SWAP1 POP DUP5 JUMP JUMPDEST PUSH0 CALLER SWAP1 POP PUSH0 PUSH0 DUP3 PUSH20 0xFFFFFFFFFFFFFFFFFFFFFFFFFFFFFFFFFFFFFFFF AND PUSH20 0xFFFFFFFFFFFFFFFFFFFFFFFFFFFFFFFFFFFFFFFF AND DUP2 MSTORE PUSH1 0x20 ADD SWAP1 DUP2 MSTORE PUSH1 0x20 ADD PUSH0 KECCAK256 PUSH1 0x3 ADD PUSH0 SWAP1 SLOAD SWAP1 PUSH2 0x100 EXP SWAP1 DIV PUSH1 0xFF AND PUSH2 0x7BF JUMPI PUSH1 0x40 MLOAD PUSH32 0x8C379A000000000000000000000000000000000000000000000000000000000 DUP2 MSTORE PUSH1 0x4 ADD PUSH2 0x7B6 SWAP1 PUSH2 0x1787 JUMP JUMPDEST PUSH1 0x40 MLOAD DUP1 SWAP2 SUB SWAP1 REVERT JUMPDEST PUSH0 PUSH0 PUSH0 DUP4 PUSH20 0xFFFFFFFFFFFFFFFFFFFFFFFFFFFFFFFFFFFFFFFF AND PUSH20 0xFFFFFFFFFFFFFFFFFFFFFFFFFFFFFFFFFFFFFFFF AND DUP2 MSTORE PUSH1 0x20 ADD SWAP1 DUP2 MSTORE PUSH1 0x20 ADD PUSH0 KECCAK256 PUSH1 0x1 ADD SLOAD SLT ISZERO PUSH2 0x841 JUMPI PUSH1 0x40 MLOAD PUSH32 0x8C379A000000000000000000000000000000000000000000000000000000000 DUP2 MSTORE PUSH1 0x4 ADD PUSH2 0x838 SWAP1 PUSH2 0x17EF JUMP JUMPDEST PUSH1 0x40 MLOAD DUP1 SWAP2 SUB SWAP1 REVERT JUMPDEST DUP2 PUSH0 PUSH0 DUP4 PUSH20 0xFFFFFFFFFFFFFFFFFFFFFFFFFFFFFFFFFFFFFFFF AND PUSH20 0xFFFFFFFFFFFFFFFFFFFFFFFFFFFFFFFFFFFFFFFF AND DUP2 MSTORE PUSH1 0x20 ADD SWAP1 DUP2 MSTORE PUSH1 0x20 ADD PUSH0 KECCAK256 PUSH1 0x2 ADD SLOAD PUSH2 0x88C SWAP2 SWAP1 PUSH2 0x1656 JUMP JUMPDEST PUSH0 PUSH0 DUP4 PUSH20 0xFFFFFFFFFFFFFFFFFFFFFFFFFFFFFFFFFFFFFFFF AND PUSH20 0xFFFFFFFFFFFFFFFFFFFFFFFFFFFFFFFFFFFFFFFF AND DUP2 MSTORE PUSH1 0x20 ADD SWAP1 DUP2 MSTORE PUSH1 0x20 ADD PUSH0 KECCAK256 PUSH1 0x2 ADD DUP2 SWAP1 SSTORE POP POP POP JUMP JUMPDEST PUSH0 PUSH0 SWAP1 POP PUSH0 PUSH0 SWAP1 POP JUMPDEST PUSH1 0x3 DUP1 SLOAD SWAP1 POP DUP2 LT ISZERO PUSH2 0x983 JUMPI PUSH0 PUSH1 0x3 DUP3 DUP2 SLOAD DUP2 LT PUSH2 0x8FE JUMPI PUSH2 0x8FD PUSH2 0x180D JUMP JUMPDEST JUMPDEST SWAP1 PUSH0 MSTORE PUSH1 0x20 PUSH0 KECCAK256 ADD PUSH0 SWAP1 SLOAD SWAP1 PUSH2 0x100 EXP SWAP1 DIV PUSH20 0xFFFFFFFFFFFFFFFFFFFFFFFFFFFFFFFFFFFFFFFF AND SWAP1 POP PUSH0 PUSH0 DUP3 PUSH20 0xFFFFFFFFFFFFFFFFFFFFFFFFFFFFFFFFFFFFFFFF AND PUSH20 0xFFFFFFFFFFFFFFFFFFFFFFFFFFFFFFFFFFFFFFFF AND DUP2 MSTORE PUSH1 0x20 ADD SWAP1 DUP2 MSTORE PUSH1 0x20 ADD PUSH0 KECCAK256 PUSH1 0x1 ADD SLOAD DUP4 PUSH2 0x973 SWAP2 SWAP1 PUSH2 0x16BC JUMP JUMPDEST SWAP3 POP POP DUP1 DUP1 PUSH1 0x1 ADD SWAP2 POP POP PUSH2 0x8DC JUMP JUMPDEST POP PUSH0 PUSH8 0xDE0B6B3A7640000 SWAP1 POP PUSH0 PUSH0 DUP4 SLT ISZERO PUSH2 0x9CA JUMPI PUSH7 0x38D7EA4C68000 DUP4 PUSH2 0x9AB SWAP1 PUSH2 0x1497 JUMP JUMPDEST PUSH2 0x9B5 SWAP2 SWAP1 PUSH2 0x15AD JUMP JUMPDEST SWAP1 POP DUP1 DUP3 PUSH2 0x9C3 SWAP2 SWAP1 PUSH2 0x1689 JUMP JUMPDEST SWAP2 POP PUSH2 0xA07 JUMP JUMPDEST PUSH0 DUP4 SGT ISZERO PUSH2 0xA06 JUMPI PUSH7 0x38D7EA4C68000 DUP4 PUSH2 0x9E5 SWAP2 SWAP1 PUSH2 0x15AD JUMP JUMPDEST SWAP1 POP DUP2 DUP2 LT PUSH2 0x9F6 JUMPI PUSH0 SWAP2 POP PUSH2 0xA05 JUMP JUMPDEST DUP1 DUP3 PUSH2 0xA02 SWAP2 SWAP1 PUSH2 0x1656 JUMP JUMPDEST SWAP2 POP JUMPDEST JUMPDEST JUMPDEST PUSH8 0x16345785D8A0000 DUP3 LT ISZERO PUSH2 0xA23 JUMPI PUSH8 0x16345785D8A0000 SWAP2 POP JUMPDEST PUSH8 0x4563918244F40000 DUP3 GT ISZERO PUSH2 0xA3F JUMPI PUSH8 0x4563918244F40000 SWAP2 POP JUMPDEST DUP2 PUSH1 0x1 DUP2 SWAP1 SSTORE POP PUSH32 0x999F531F5C660EA97B00B870FA2EAF696CF5C011CC53C3A68A866585105D6E56 DUP3 DUP5 PUSH1 0x40 MLOAD PUSH2 0xA77 SWAP3 SWAP2 SWAP1 PUSH2 0x183A JUMP JUMPDEST PUSH1 0x40 MLOAD DUP1 SWAP2 SUB SWAP1 LOG1 POP POP POP JUMP JUMPDEST JUMP JUMPDEST POP POP JUMP JUMPDEST PUSH0 SELFBALANCE SWAP1 POP SWAP1 JUMP JUMPDEST PUSH0 PUSH0 CALLER PUSH20 0xFFFFFFFFFFFFFFFFFFFFFFFFFFFFFFFFFFFFFFFF AND PUSH20 0xFFFFFFFFFFFFFFFFFFFFFFFFFFFFFFFFFFFFFFFF AND DUP2 MSTORE PUSH1 0x20 ADD SWAP1 DUP2 MSTORE PUSH1 0x20 ADD PUSH0 KECCAK256 PUSH1 0x3 ADD PUSH0 SWAP1 SLOAD SWAP1 PUSH2 0x100 EXP SWAP1 DIV PUSH1 0xFF AND ISZERO PUSH2 0xB1D JUMPI PUSH1 0x40 MLOAD PUSH32 0x8C379A000000000000000000000000000000000000000000000000000000000 DUP2 MSTORE PUSH1 0x4 ADD PUSH2 0xB14 SWAP1 PUSH2 0x18AB JUMP JUMPDEST PUSH1 0x40 MLOAD DUP1 SWAP2 SUB SWAP1 REVERT JUMPDEST PUSH1 0x40 MLOAD DUP1 PUSH1 0x80 ADD PUSH1 0x40 MSTORE DUP1 CALLER PUSH20 0xFFFFFFFFFFFFFFFFFFFFFFFFFFFFFFFFFFFFFFFF AND DUP2 MSTORE PUSH1 0x20 ADD PUSH0 DUP2 MSTORE PUSH1 0x20 ADD PUSH0 DUP2 MSTORE PUSH1 0x20 ADD PUSH1 0x1 ISZERO ISZERO DUP2 MSTORE POP PUSH0 PUSH0 CALLER PUSH20 0xFFFFFFFFFFFFFFFFFFFFFFFFFFFFFFFFFFFFFFFF AND PUSH20 0xFFFFFFFFFFFFFFFFFFFFFFFFFFFFFFFFFFFFFFFF AND DUP2 MSTORE PUSH1 0x20 ADD SWAP1 DUP2 MSTORE PUSH1 0x20 ADD PUSH0 KECCAK256 PUSH0 DUP3 ADD MLOAD DUP2 PUSH0 ADD PUSH0 PUSH2 0x100 EXP DUP2 SLOAD DUP2 PUSH20 0xFFFFFFFFFFFFFFFFFFFFFFFFFFFFFFFFFFFFFFFF MUL NOT AND SWAP1 DUP4 PUSH20 0xFFFFFFFFFFFFFFFFFFFFFFFFFFFFFFFFFFFFFFFF AND MUL OR SWAP1 SSTORE POP PUSH1 0x20 DUP3 ADD MLOAD DUP2 PUSH1 0x1 ADD SSTORE PUSH1 0x40 DUP3 ADD MLOAD DUP2 PUSH1 0x2 ADD SSTORE PUSH1 0x60 DUP3 ADD MLOAD DUP2 PUSH1 0x3 ADD PUSH0 PUSH2 0x100 EXP DUP2 SLOAD DUP2 PUSH1 0xFF MUL NOT AND SWAP1 DUP4 ISZERO ISZERO MUL OR SWAP1 SSTORE POP SWAP1 POP POP PUSH1 0x3 CALLER SWAP1 DUP1 PUSH1 0x1 DUP2 SLOAD ADD DUP1 DUP3 SSTORE DUP1 SWAP2 POP POP PUSH1 0x1 SWAP1 SUB SWAP1 PUSH0 MSTORE PUSH1 0x20 PUSH0 KECCAK256 ADD PUSH0 SWAP1 SWAP2 SWAP1 SWAP2 SWAP1 SWAP2 PUSH2 0x100 EXP DUP2 SLOAD DUP2 PUSH20 0xFFFFFFFFFFFFFFFFFFFFFFFFFFFFFFFFFFFFFFFF MUL NOT AND SWAP1 DUP4 PUSH20 0xFFFFFFFFFFFFFFFFFFFFFFFFFFFFFFFFFFFFFFFF AND MUL OR SWAP1 SSTORE POP JUMP JUMPDEST PUSH0 PUSH1 0x2 PUSH0 SWAP1 SLOAD SWAP1 PUSH2 0x100 EXP SWAP1 DIV PUSH20 0xFFFFFFFFFFFFFFFFFFFFFFFFFFFFFFFFFFFFFFFF AND SWAP1 POP SWAP1 JUMP JUMPDEST PUSH1 0x3 DUP2 DUP2 SLOAD DUP2 LT PUSH2 0xCA6 JUMPI PUSH0 DUP1 REVERT JUMPDEST SWAP1 PUSH0 MSTORE PUSH1 0x20 PUSH0 KECCAK256 ADD PUSH0 SWAP2 POP SLOAD SWAP1 PUSH2 0x100 EXP SWAP1 DIV PUSH20 0xFFFFFFFFFFFFFFFFFFFFFFFFFFFFFFFFFFFFFFFF AND DUP2 JUMP JUMPDEST PUSH0 PUSH1 0x1 SLOAD SWAP1 POP SWAP1 JUMP JUMPDEST PUSH1 0x2 PUSH0 SWAP1 SLOAD SWAP1 PUSH2 0x100 EXP SWAP1 DIV PUSH20 0xFFFFFFFFFFFFFFFFFFFFFFFFFFFFFFFFFFFFFFFF AND PUSH20 0xFFFFFFFFFFFFFFFFFFFFFFFFFFFFFFFFFFFFFFFF AND CALLER PUSH20 0xFFFFFFFFFFFFFFFFFFFFFFFFFFFFFFFFFFFFFFFF AND EQ PUSH2 0xD6A JUMPI PUSH1 0x40 MLOAD PUSH32 0x8C379A000000000000000000000000000000000000000000000000000000000 DUP2 MSTORE PUSH1 0x4 ADD PUSH2 0xD61 SWAP1 PUSH2 0x1939 JUMP JUMPDEST PUSH1 0x40 MLOAD DUP1 SWAP2 SUB SWAP1 REVERT JUMPDEST PUSH0 PUSH0 DUP4 PUSH20 0xFFFFFFFFFFFFFFFFFFFFFFFFFFFFFFFFFFFFFFFF AND PUSH20 0xFFFFFFFFFFFFFFFFFFFFFFFFFFFFFFFFFFFFFFFF AND DUP2 MSTORE PUSH1 0x20 ADD SWAP1 DUP2 MSTORE PUSH1 0x20 ADD PUSH0 KECCAK256 PUSH1 0x3 ADD PUSH0 SWAP1 SLOAD SWAP1 PUSH2 0x100 EXP SWAP1 DIV PUSH1 0xFF AND PUSH2 0xDF5 JUMPI PUSH1 0x40 MLOAD PUSH32 0x8C379A000000000000000000000000000000000000000000000000000000000 DUP2 MSTORE PUSH1 0x4 ADD PUSH2 0xDEC SWAP1 PUSH2 0x1787 JUMP JUMPDEST PUSH1 0x40 MLOAD DUP1 SWAP2 SUB SWAP1 REVERT JUMPDEST DUP1 PUSH0 PUSH0 DUP5 PUSH20 0xFFFFFFFFFFFFFFFFFFFFFFFFFFFFFFFFFFFFFFFF AND PUSH20 0xFFFFFFFFFFFFFFFFFFFFFFFFFFFFFFFFFFFFFFFF AND DUP2 MSTORE PUSH1 0x20 ADD SWAP1 DUP2 MSTORE PUSH1 0x20 ADD PUSH0 KECCAK256 PUSH1 0x1 ADD PUSH0 DUP3 DUP3 SLOAD PUSH2 0xE43 SWAP2 SWAP1 PUSH2 0x16BC JUMP JUMPDEST SWAP3 POP POP DUP2 SWAP1 SSTORE POP POP POP JUMP JUMPDEST PUSH0 PUSH0 CALLER PUSH20 0xFFFFFFFFFFFFFFFFFFFFFFFFFFFFFFFFFFFFFFFF AND PUSH20 0xFFFFFFFFFFFFFFFFFFFFFFFFFFFFFFFFFFFFFFFF AND DUP2 MSTORE PUSH1 0x20 ADD SWAP1 DUP2 MSTORE PUSH1 0x20 ADD PUSH0 KECCAK256 PUSH1 0x3 ADD PUSH0 SWAP1 SLOAD SWAP1 PUSH2 0x100 EXP SWAP1 DIV PUSH1 0xFF AND PUSH2 0xED9 JUMPI PUSH1 0x40 MLOAD PUSH32 0x8C379A000000000000000000000000000000000000000000000000000000000 DUP2 MSTORE PUSH1 0x4 ADD PUSH2 0xED0 SWAP1 PUSH2 0x1787 JUMP JUMPDEST PUSH1 0x40 MLOAD DUP1 SWAP2 SUB SWAP1 REVERT JUMPDEST CALLVALUE PUSH0 PUSH0 CALLER PUSH20 0xFFFFFFFFFFFFFFFFFFFFFFFFFFFFFFFFFFFFFFFF AND PUSH20 0xFFFFFFFFFFFFFFFFFFFFFFFFFFFFFFFFFFFFFFFF AND DUP2 MSTORE PUSH1 0x20 ADD SWAP1 DUP2 MSTORE PUSH1 0x20 ADD PUSH0 KECCAK256 PUSH1 0x2 ADD PUSH0 DUP3 DUP3 SLOAD PUSH2 0xF27 SWAP2 SWAP1 PUSH2 0x1689 JUMP JUMPDEST SWAP3 POP POP DUP2 SWAP1 SSTORE POP JUMP JUMPDEST PUSH0 PUSH0 REVERT JUMPDEST PUSH0 PUSH20 0xFFFFFFFFFFFFFFFFFFFFFFFFFFFFFFFFFFFFFFFF DUP3 AND SWAP1 POP SWAP2 SWAP1 POP JUMP JUMPDEST PUSH0 PUSH2 0xF5D DUP3 PUSH2 0xF34 JUMP JUMPDEST SWAP1 POP SWAP2 SWAP1 POP JUMP JUMPDEST PUSH2 0xF6D DUP2 PUSH2 0xF53 JUMP JUMPDEST DUP2 EQ PUSH2 0xF77 JUMPI PUSH0 PUSH0 REVERT JUMPDEST POP JUMP JUMPDEST PUSH0 DUP2 CALLDATALOAD SWAP1 POP PUSH2 0xF88 DUP2 PUSH2 0xF64 JUMP JUMPDEST SWAP3 SWAP2 POP POP JUMP JUMPDEST PUSH0 DUP2 SWAP1 POP SWAP2 SWAP1 POP JUMP JUMPDEST PUSH2 0xFA0 DUP2 PUSH2 0xF8E JUMP JUMPDEST DUP2 EQ PUSH2 0xFAA JUMPI PUSH0 PUSH0 REVERT JUMPDEST POP JUMP JUMPDEST PUSH0 DUP2 CALLDATALOAD SWAP1 POP PUSH2 0xFBB DUP2 PUSH2 0xF97 JUMP JUMPDEST SWAP3 SWAP2 POP POP JUMP JUMPDEST PUSH0 PUSH0 PUSH1 0x40 DUP4 DUP6 SUB SLT ISZERO PUSH2 0xFD7 JUMPI PUSH2 0xFD6 PUSH2 0xF30 JUMP JUMPDEST JUMPDEST PUSH0 PUSH2 0xFE4 DUP6 DUP3 DUP7 ADD PUSH2 0xF7A JUMP JUMPDEST SWAP3 POP POP PUSH1 0x20 PUSH2 0xFF5 DUP6 DUP3 DUP7 ADD PUSH2 0xFAD JUMP JUMPDEST SWAP2 POP POP SWAP3 POP SWAP3 SWAP1 POP JUMP JUMPDEST PUSH0 PUSH1 0x20 DUP3 DUP5 SUB SLT ISZERO PUSH2 0x1014 JUMPI PUSH2 0x1013 PUSH2 0xF30 JUMP JUMPDEST JUMPDEST PUSH0 PUSH2 0x1021 DUP5 DUP3 DUP6 ADD PUSH2 0xF7A JUMP JUMPDEST SWAP2 POP POP SWAP3 SWAP2 POP POP JUMP JUMPDEST PUSH2 0x1033 DUP2 PUSH2 0xF53 JUMP JUMPDEST DUP3 MSTORE POP POP JUMP JUMPDEST PUSH0 DUP2 SWAP1 POP SWAP2 SWAP1 POP JUMP JUMPDEST PUSH2 0x104B DUP2 PUSH2 0x1039 JUMP JUMPDEST DUP3 MSTORE POP POP JUMP JUMPDEST PUSH2 0x105A DUP2 PUSH2 0xF8E JUMP JUMPDEST DUP3 MSTORE POP POP JUMP JUMPDEST PUSH0 DUP2 ISZERO ISZERO SWAP1 POP SWAP2 SWAP1 POP JUMP JUMPDEST PUSH2 0x1074 DUP2 PUSH2 0x1060 JUMP JUMPDEST DUP3 MSTORE POP POP JUMP JUMPDEST PUSH0 PUSH1 0x80 DUP3 ADD SWAP1 POP PUSH2 0x108D PUSH0 DUP4 ADD DUP8 PUSH2 0x102A JUMP JUMPDEST PUSH2 0x109A PUSH1 0x20 DUP4 ADD DUP7 PUSH2 0x1042 JUMP JUMPDEST PUSH2 0x10A7 PUSH1 0x40 DUP4 ADD DUP6 PUSH2 0x1051 JUMP JUMPDEST PUSH2 0x10B4 PUSH1 0x60 DUP4 ADD DUP5 PUSH2 0x106B JUMP JUMPDEST SWAP6 SWAP5 POP POP POP POP POP JUMP JUMPDEST PUSH0 PUSH1 0x20 DUP3 DUP5 SUB SLT ISZERO PUSH2 0x10D2 JUMPI PUSH2 0x10D1 PUSH2 0xF30 JUMP JUMPDEST JUMPDEST PUSH0 PUSH2 0x10DF DUP5 DUP3 DUP6 ADD PUSH2 0xFAD JUMP JUMPDEST SWAP2 POP POP SWAP3 SWAP2 POP POP JUMP JUMPDEST PUSH0 PUSH1 0x20 DUP3 ADD SWAP1 POP PUSH2 0x10FB PUSH0 DUP4 ADD DUP5 PUSH2 0x1051 JUMP JUMPDEST SWAP3 SWAP2 POP POP JUMP JUMPDEST PUSH0 PUSH1 0x20 DUP3 ADD SWAP1 POP PUSH2 0x1114 PUSH0 DUP4 ADD DUP5 PUSH2 0x102A JUMP JUMPDEST SWAP3 SWAP2 POP POP JUMP JUMPDEST PUSH2 0x1123 DUP2 PUSH2 0x1039 JUMP JUMPDEST DUP2 EQ PUSH2 0x112D JUMPI PUSH0 PUSH0 REVERT JUMPDEST POP JUMP JUMPDEST PUSH0 DUP2 CALLDATALOAD SWAP1 POP PUSH2 0x113E DUP2 PUSH2 0x111A JUMP JUMPDEST SWAP3 SWAP2 POP POP JUMP JUMPDEST PUSH0 PUSH0 PUSH1 0x40 DUP4 DUP6 SUB SLT ISZERO PUSH2 0x115A JUMPI PUSH2 0x1159 PUSH2 0xF30 JUMP JUMPDEST JUMPDEST PUSH0 PUSH2 0x1167 DUP6 DUP3 DUP7 ADD PUSH2 0xF7A JUMP JUMPDEST SWAP3 POP POP PUSH1 0x20 PUSH2 0x1178 DUP6 DUP3 DUP7 ADD PUSH2 0x1130 JUMP JUMPDEST SWAP2 POP POP SWAP3 POP SWAP3 SWAP1 POP JUMP JUMPDEST PUSH0 DUP3 DUP3 MSTORE PUSH1 0x20 DUP3 ADD SWAP1 POP SWAP3 SWAP2 POP POP JUMP JUMPDEST PUSH32 0x52657175657374656420656E65726779206D757374206265203E203000000000 PUSH0 DUP3 ADD MSTORE POP JUMP JUMPDEST PUSH0 PUSH2 0x11C6 PUSH1 0x1C DUP4 PUSH2 0x1182 JUMP JUMPDEST SWAP2 POP PUSH2 0x11D1 DUP3 PUSH2 0x1192 JUMP JUMPDEST PUSH1 0x20 DUP3 ADD SWAP1 POP SWAP2 SWAP1 POP JUMP JUMPDEST PUSH0 PUSH1 0x20 DUP3 ADD SWAP1 POP DUP2 DUP2 SUB PUSH0 DUP4 ADD MSTORE PUSH2 0x11F3 DUP2 PUSH2 0x11BA JUMP JUMPDEST SWAP1 POP SWAP2 SWAP1 POP JUMP JUMPDEST PUSH32 0x496E76616C69642073656C6C6572000000000000000000000000000000000000 PUSH0 DUP3 ADD MSTORE POP JUMP JUMPDEST PUSH0 PUSH2 0x122E PUSH1 0xE DUP4 PUSH2 0x1182 JUMP JUMPDEST SWAP2 POP PUSH2 0x1239 DUP3 PUSH2 0x11FA JUMP JUMPDEST PUSH1 0x20 DUP3 ADD SWAP1 POP SWAP2 SWAP1 POP JUMP JUMPDEST PUSH0 PUSH1 0x20 DUP3 ADD SWAP1 POP DUP2 DUP2 SUB PUSH0 DUP4 ADD MSTORE PUSH2 0x125B DUP2 PUSH2 0x1222 JUMP JUMPDEST SWAP1 POP SWAP2 SWAP1 POP JUMP JUMPDEST PUSH32 0x43616E6E6F74206275792066726F6D2073656C66000000000000000000000000 PUSH0 DUP3 ADD MSTORE POP JUMP JUMPDEST PUSH0 PUSH2 0x1296 PUSH1 0x14 DUP4 PUSH2 0x1182 JUMP JUMPDEST SWAP2 POP PUSH2 0x12A1 DUP3 PUSH2 0x1262 JUMP JUMPDEST PUSH1 0x20 DUP3 ADD SWAP1 POP SWAP2 SWAP1 POP JUMP JUMPDEST PUSH0 PUSH1 0x20 DUP3 ADD SWAP1 POP DUP2 DUP2 SUB PUSH0 DUP4 ADD MSTORE PUSH2 0x12C3 DUP2 PUSH2 0x128A JUMP JUMPDEST SWAP1 POP SWAP2 SWAP1 POP JUMP JUMPDEST PUSH32 0x4275796572206E6F742072656769737465726564000000000000000000000000 PUSH0 DUP3 ADD MSTORE POP JUMP JUMPDEST PUSH0 PUSH2 0x12FE PUSH1 0x14 DUP4 PUSH2 0x1182 JUMP JUMPDEST SWAP2 POP PUSH2 0x1309 DUP3 PUSH2 0x12CA JUMP JUMPDEST PUSH1 0x20 DUP3 ADD SWAP1 POP SWAP2 SWAP1 POP JUMP JUMPDEST PUSH0 PUSH1 0x20 DUP3 ADD SWAP1 POP DUP2 DUP2 SUB PUSH0 DUP4 ADD MSTORE PUSH2 0x132B DUP2 PUSH2 0x12F2 JUMP JUMPDEST SWAP1 POP SWAP2 SWAP1 POP JUMP JUMPDEST PUSH32 0x53656C6C6572206E6F7420726567697374657265640000000000000000000000 PUSH0 DUP3 ADD MSTORE POP JUMP JUMPDEST PUSH0 PUSH2 0x1366 PUSH1 0x15 DUP4 PUSH2 0x1182 JUMP JUMPDEST SWAP2 POP PUSH2 0x1371 DUP3 PUSH2 0x1332 JUMP JUMPDEST PUSH1 0x20 DUP3 ADD SWAP1 POP SWAP2 SWAP1 POP JUMP JUMPDEST PUSH0 PUSH1 0x20 DUP3 ADD SWAP1 POP DUP2 DUP2 SUB PUSH0 DUP4 ADD MSTORE PUSH2 0x1393 DUP2 PUSH2 0x135A JUMP JUMPDEST SWAP1 POP SWAP2 SWAP1 POP JUMP JUMPDEST PUSH32 0x4275796572206973206E6F7420696E2064656669636974000000000000000000 PUSH0 DUP3 ADD MSTORE POP JUMP JUMPDEST PUSH0 PUSH2 0x13CE PUSH1 0x17 DUP4 PUSH2 0x1182 JUMP JUMPDEST SWAP2 POP PUSH2 0x13D9 DUP3 PUSH2 0x139A JUMP JUMPDEST PUSH1 0x20 DUP3 ADD SWAP1 POP SWAP2 SWAP1 POP JUMP JUMPDEST PUSH0 PUSH1 0x20 DUP3 ADD SWAP1 POP DUP2 DUP2 SUB PUSH0 DUP4 ADD MSTORE PUSH2 0x13FB DUP2 PUSH2 0x13C2 JUMP JUMPDEST SWAP1 POP SWAP2 SWAP1 POP JUMP JUMPDEST PUSH32 0x53656C6C6572206973206E6F7420696E20737572706C75730000000000000000 PUSH0 DUP3 ADD MSTORE POP JUMP JUMPDEST PUSH0 PUSH2 0x1436 PUSH1 0x18 DUP4 PUSH2 0x1182 JUMP JUMPDEST SWAP2 POP PUSH2 0x1441 DUP3 PUSH2 0x1402 JUMP JUMPDEST PUSH1 0x20 DUP3 ADD SWAP1 POP SWAP2 SWAP1 POP JUMP JUMPDEST PUSH0 PUSH1 0x20 DUP3 ADD SWAP1 POP DUP2 DUP2 SUB PUSH0 DUP4 ADD MSTORE PUSH2 0x1463 DUP2 PUSH2 0x142A JUMP JUMPDEST SWAP1 POP SWAP2 SWAP1 POP JUMP JUMPDEST PUSH32 0x4E487B7100000000000000000000000000000000000000000000000000000000 PUSH0 MSTORE PUSH1 0x11 PUSH1 0x4 MSTORE PUSH1 0x24 PUSH0 REVERT JUMPDEST PUSH0 PUSH2 0x14A1 DUP3 PUSH2 0x1039 JUMP JUMPDEST SWAP2 POP PUSH32 0x8000000000000000000000000000000000000000000000000000000000000000 DUP3 SUB PUSH2 0x14D3 JUMPI PUSH2 0x14D2 PUSH2 0x146A JUMP JUMPDEST JUMPDEST DUP2 PUSH0 SUB SWAP1 POP SWAP2 SWAP1 POP JUMP JUMPDEST PUSH32 0x5265717565737465642065786365656473206275796572206465666963697400 PUSH0 DUP3 ADD MSTORE POP JUMP JUMPDEST PUSH0 PUSH2 0x1511 PUSH1 0x1F DUP4 PUSH2 0x1182 JUMP JUMPDEST SWAP2 POP PUSH2 0x151C DUP3 PUSH2 0x14DD JUMP JUMPDEST PUSH1 0x20 DUP3 ADD SWAP1 POP SWAP2 SWAP1 POP JUMP JUMPDEST PUSH0 PUSH1 0x20 DUP3 ADD SWAP1 POP DUP2 DUP2 SUB PUSH0 DUP4 ADD MSTORE PUSH2 0x153E DUP2 PUSH2 0x1505 JUMP JUMPDEST SWAP1 POP SWAP2 SWAP1 POP JUMP JUMPDEST PUSH32 0x52657175657374656420657863656564732073656C6C657220737572706C7573 PUSH0 DUP3 ADD MSTORE POP JUMP JUMPDEST PUSH0 PUSH2 0x1579 PUSH1 0x20 DUP4 PUSH2 0x1182 JUMP JUMPDEST SWAP2 POP PUSH2 0x1584 DUP3 PUSH2 0x1545 JUMP JUMPDEST PUSH1 0x20 DUP3 ADD SWAP1 POP SWAP2 SWAP1 POP JUMP JUMPDEST PUSH0 PUSH1 0x20 DUP3 ADD SWAP1 POP DUP2 DUP2 SUB PUSH0 DUP4 ADD MSTORE PUSH2 0x15A6 DUP2 PUSH2 0x156D JUMP JUMPDEST SWAP1 POP SWAP2 SWAP1 POP JUMP JUMPDEST PUSH0 PUSH2 0x15B7 DUP3 PUSH2 0xF8E JUMP JUMPDEST SWAP2 POP PUSH2 0x15C2 DUP4 PUSH2 0xF8E JUMP JUMPDEST SWAP3 POP DUP3 DUP3 MUL PUSH2 0x15D0 DUP2 PUSH2 0xF8E JUMP JUMPDEST SWAP2 POP DUP3 DUP3 DIV DUP5 EQ DUP4 ISZERO OR PUSH2 0x15E7 JUMPI PUSH2 0x15E6 PUSH2 0x146A JUMP JUMPDEST JUMPDEST POP SWAP3 SWAP2 POP POP JUMP JUMPDEST PUSH32 0x496E73756666696369656E742062757965722062616C616E6365000000000000 PUSH0 DUP3 ADD MSTORE POP JUMP JUMPDEST PUSH0 PUSH2 0x1622 PUSH1 0x1A DUP4 PUSH2 0x1182 JUMP JUMPDEST SWAP2 POP PUSH2 0x162D DUP3 PUSH2 0x15EE JUMP JUMPDEST PUSH1 0x20 DUP3 ADD SWAP1 POP SWAP2 SWAP1 POP JUMP JUMPDEST PUSH0 PUSH1 0x20 DUP3 ADD SWAP1 POP DUP2 DUP2 SUB PUSH0 DUP4 ADD MSTORE PUSH2 0x164F DUP2 PUSH2 0x1616 JUMP JUMPDEST SWAP1 POP SWAP2 SWAP1 POP JUMP JUMPDEST PUSH0 PUSH2 0x1660 DUP3 PUSH2 0xF8E JUMP JUMPDEST SWAP2 POP PUSH2 0x166B DUP4 PUSH2 0xF8E JUMP JUMPDEST SWAP3 POP DUP3 DUP3 SUB SWAP1 POP DUP2 DUP2 GT ISZERO PUSH2 0x1683 JUMPI PUSH2 0x1682 PUSH2 0x146A JUMP JUMPDEST JUMPDEST SWAP3 SWAP2 POP POP JUMP JUMPDEST PUSH0 PUSH2 0x1693 DUP3 PUSH2 0xF8E JUMP JUMPDEST SWAP2 POP PUSH2 0x169E DUP4 PUSH2 0xF8E JUMP JUMPDEST SWAP3 POP DUP3 DUP3 ADD SWAP1 POP DUP1 DUP3 GT ISZERO PUSH2 0x16B6 JUMPI PUSH2 0x16B5 PUSH2 0x146A JUMP JUMPDEST JUMPDEST SWAP3 SWAP2 POP POP JUMP JUMPDEST PUSH0 PUSH2 0x16C6 DUP3 PUSH2 0x1039 JUMP JUMPDEST SWAP2 POP PUSH2 0x16D1 DUP4 PUSH2 0x1039 JUMP JUMPDEST SWAP3 POP DUP3 DUP3 ADD SWAP1 POP DUP3 DUP2 SLT ISZERO PUSH0 DUP4 SLT AND DUP4 DUP3 SLT PUSH0 DUP5 SLT ISZERO AND OR ISZERO PUSH2 0x16F7 JUMPI PUSH2 0x16F6 PUSH2 0x146A JUMP JUMPDEST JUMPDEST SWAP3 SWAP2 POP POP JUMP JUMPDEST PUSH0 PUSH2 0x1707 DUP3 PUSH2 0x1039 JUMP JUMPDEST SWAP2 POP PUSH2 0x1712 DUP4 PUSH2 0x1039 JUMP JUMPDEST SWAP3 POP DUP3 DUP3 SUB SWAP1 POP DUP2 DUP2 SLT PUSH0 DUP5 SLT AND DUP3 DUP3 SGT PUSH0 DUP6 SLT ISZERO AND OR ISZERO PUSH2 0x1737 JUMPI PUSH2 0x1736 PUSH2 0x146A JUMP JUMPDEST JUMPDEST SWAP3 SWAP2 POP POP JUMP JUMPDEST PUSH32 0x50726F73756D6572206E6F742072656769737465726564000000000000000000 PUSH0 DUP3 ADD MSTORE POP JUMP JUMPDEST PUSH0 PUSH2 0x1771 PUSH1 0x17 DUP4 PUSH2 0x1182 JUMP JUMPDEST SWAP2 POP PUSH2 0x177C DUP3 PUSH2 0x173D JUMP JUMPDEST PUSH1 0x20 DUP3 ADD SWAP1 POP SWAP2 SWAP1 POP JUMP JUMPDEST PUSH0 PUSH1 0x20 DUP3 ADD SWAP1 POP DUP2 DUP2 SUB PUSH0 DUP4 ADD MSTORE PUSH2 0x179E DUP2 PUSH2 0x1765 JUMP JUMPDEST SWAP1 POP SWAP2 SWAP1 POP JUMP JUMPDEST PUSH32 0x50726F73756D65722068617320616E20656E6572677920646566696369740000 PUSH0 DUP3 ADD MSTORE POP JUMP JUMPDEST PUSH0 PUSH2 0x17D9 PUSH1 0x1E DUP4 PUSH2 0x1182 JUMP JUMPDEST SWAP2 POP PUSH2 0x17E4 DUP3 PUSH2 0x17A5 JUMP JUMPDEST PUSH1 0x20 DUP3 ADD SWAP1 POP SWAP2 SWAP1 POP JUMP JUMPDEST PUSH0 PUSH1 0x20 DUP3 ADD SWAP1 POP DUP2 DUP2 SUB PUSH0 DUP4 ADD MSTORE PUSH2 0x1806 DUP2 PUSH2 0x17CD JUMP JUMPDEST SWAP1 POP SWAP2 SWAP1 POP JUMP JUMPDEST PUSH32 0x4E487B7100000000000000000000000000000000000000000000000000000000 PUSH0 MSTORE PUSH1 0x32 PUSH1 0x4 MSTORE PUSH1 0x24 PUSH0 REVERT JUMPDEST PUSH0 PUSH1 0x40 DUP3 ADD SWAP1 POP PUSH2 0x184D PUSH0 DUP4 ADD DUP6 PUSH2 0x1051 JUMP JUMPDEST PUSH2 0x185A PUSH1 0x20 DUP4 ADD DUP5 PUSH2 0x1042 JUMP JUMPDEST SWAP4 SWAP3 POP POP POP JUMP JUMPDEST PUSH32 0x50726F73756D657220616C726561647920726567697374657265642100000000 PUSH0 DUP3 ADD MSTORE POP JUMP JUMPDEST PUSH0 PUSH2 0x1895 PUSH1 0x1C DUP4 PUSH2 0x1182 JUMP JUMPDEST SWAP2 POP PUSH2 0x18A0 DUP3 PUSH2 0x1861 JUMP JUMPDEST PUSH1 0x20 DUP3 ADD SWAP1 POP SWAP2 SWAP1 POP JUMP JUMPDEST PUSH0 PUSH1 0x20 DUP3 ADD SWAP1 POP DUP2 DUP2 SUB PUSH0 DUP4 ADD MSTORE PUSH2 0x18C2 DUP2 PUSH2 0x1889 JUMP JUMPDEST SWAP1 POP SWAP2 SWAP1 POP JUMP JUMPDEST PUSH32 0x4F6E6C79207265636F726465722063616E2075706461746520656E6572677920 PUSH0 DUP3 ADD MSTORE PUSH32 0x7374617475730000000000000000000000000000000000000000000000000000 PUSH1 0x20 DUP3 ADD MSTORE POP JUMP JUMPDEST PUSH0 PUSH2 0x1923 PUSH1 0x26 DUP4 PUSH2 0x1182 JUMP JUMPDEST SWAP2 POP PUSH2 0x192E DUP3 PUSH2 0x18C9 JUMP JUMPDEST PUSH1 0x40 DUP3 ADD SWAP1 POP SWAP2 SWAP1 POP JUMP JUMPDEST PUSH0 PUSH1 0x20 DUP3 ADD SWAP1 POP DUP2 DUP2 SUB PUSH0 DUP4 ADD MSTORE PUSH2 0x1950 DUP2 PUSH2 0x1917 JUMP JUMPDEST SWAP1 POP SWAP2 SWAP1 POP JUMP INVALID LOG2 PUSH5 0x6970667358 0x22 SLT KECCAK256 EOFCREATE 0x2E CALLCODE MLOAD 0x2C SIGNEXTEND 0xBB DUP9 0xD JUMPI TSTORE 0x21 ADDRESS GT SWAP3 0xC8 LOG2 NUMBER MULMOD SWAP12 0xB0 0x2E 0xC SWAP16 GAS SWAP11 0x27 0xCC STATICCALL LOG3 0xD7 CALLER PUSH5 0x736F6C6343 STOP ADDMOD 0x1E STOP CALLER "
				},
				"gasEstimates": {
					"creation": {
						"codeDepositCost": "1308200",
						"executionCost": "infinite",
						"totalCost": "infinite"
					},
					"external": {
						"buyEnergyFrom(address,uint256)": "infinite",
						"contractBalance()": "357",
						"coordinateTrading()": "232",
						"deposit()": "infinite",
						"getEnergyPrice()": "2476",
						"getRecorder()": "2582",
						"prosumerAddresses(uint256)": "4966",
						"prosumers(address)": "infinite",
						"registerProsumer()": "109812",
						"sellEnergyTo(address,uint256)": "730",
						"updateEnergyPrice()": "26146",
						"updateEnergyStatus(address,int256)": "infinite",
						"withdraw(uint256)": "infinite"
					}
				},
				"methodIdentifiers": {
					"buyEnergyFrom(address,uint256)": "0f0fe598",
					"contractBalance()": "8b7afe2e",
					"coordinateTrading()": "45f80251",
					"deposit()": "d0e30db0",
					"getEnergyPrice()": "cab0f335",
					"getRecorder()": "b6c3afca",
					"prosumerAddresses(uint256)": "b8510a96",
					"prosumers(address)": "2c8d7c32",
					"registerProsumer()": "a3818880",
					"sellEnergyTo(address,uint256)": "7a6edb28",
					"updateEnergyPrice()": "2fbbf123",
					"updateEnergyStatus(address,int256)": "cb2fd8db",
					"withdraw(uint256)": "2e1a7d4d"
				}
			},
			"storageLayout": {
				"storage": [
					{
						"astId": 15,
						"contract": "contracts/contract_template.sol:EnergyTrading",
						"label": "prosumers",
						"offset": 0,
						"slot": "0",
						"type": "t_mapping(t_address,t_struct(Prosumer)10_storage)"
					},
					{
						"astId": 17,
						"contract": "contracts/contract_template.sol:EnergyTrading",
						"label": "energyPrice",
						"offset": 0,
						"slot": "1",
						"type": "t_uint256"
					},
					{
						"astId": 19,
						"contract": "contracts/contract_template.sol:EnergyTrading",
						"label": "recorder",
						"offset": 0,
						"slot": "2",
						"type": "t_address"
					},
					{
						"astId": 26,
						"contract": "contracts/contract_template.sol:EnergyTrading",
						"label": "prosumerAddresses",
						"offset": 0,
						"slot": "3",
						"type": "t_array(t_address)dyn_storage"
					}
				],
				"types": {
					"t_address": {
						"encoding": "inplace",
						"label": "address",
						"numberOfBytes": "20"
					},
					"t_array(t_address)dyn_storage": {
						"base": "t_address",
						"encoding": "dynamic_array",
						"label": "address[]",
						"numberOfBytes": "32"
					},
					"t_bool": {
						"encoding": "inplace",
						"label": "bool",
						"numberOfBytes": "1"
					},
					"t_int256": {
						"encoding": "inplace",
						"label": "int256",
						"numberOfBytes": "32"
					},
					"t_mapping(t_address,t_struct(Prosumer)10_storage)": {
						"encoding": "mapping",
						"key": "t_address",
						"label": "mapping(address => struct EnergyTrading.Prosumer)",
						"numberOfBytes": "32",
						"value": "t_struct(Prosumer)10_storage"
					},
					"t_struct(Prosumer)10_storage": {
						"encoding": "inplace",
						"label": "struct EnergyTrading.Prosumer",
						"members": [
							{
								"astId": 3,
								"contract": "contracts/contract_template.sol:EnergyTrading",
								"label": "prosumerAddress",
								"offset": 0,
								"slot": "0",
								"type": "t_address"
							},
							{
								"astId": 5,
								"contract": "contracts/contract_template.sol:EnergyTrading",
								"label": "prosumerEnergyStat",
								"offset": 0,
								"slot": "1",
								"type": "t_int256"
							},
							{
								"astId": 7,
								"contract": "contracts/contract_template.sol:EnergyTrading",
								"label": "prosumerBalance",
								"offset": 0,
								"slot": "2",
								"type": "t_uint256"
							},
							{
								"astId": 9,
								"contract": "contracts/contract_template.sol:EnergyTrading",
								"label": "isMember",
								"offset": 0,
								"slot": "3",
								"type": "t_bool"
							}
						],
						"numberOfBytes": "128"
					},
					"t_uint256": {
						"encoding": "inplace",
						"label": "uint256",
						"numberOfBytes": "32"
					}
				}
			},
			"userdoc": {
				"kind": "user",
				"methods": {
					"getRecorder()": {
						"notice": "DELETE ABOVE"
					}
				},
				"version": 1
			}
		}
	}
}