{
	"data": {
		"bytecode": {
			"linkReferences": {},
			"object": "608060405260405161211d38038061211d833981810160405281019061002591906100d8565b8060025f6101000a81548173ffffffffffffffffffffffffffffffffffffffff021916908373ffffffffffffffffffffffffffffffffffffffff160217905550670de0b6b3a764000060018190555050610103565b5f5ffd5b5f73ffffffffffffffffffffffffffffffffffffffff82169050919050565b5f6100a78261007e565b9050919050565b6100b78161009d565b81146100c1575f5ffd5b50565b5f815190506100d2816100ae565b92915050565b5f602082840312156100ed576100ec61007a565b5b5f6100fa848285016100c4565b91505092915050565b61200d806101105f395ff3fe6080604052600436106100c1575f3560e01c80638b7afe2e1161007e578063b8510a9611610058578063b8510a9614610212578063cab0f3351461024e578063cb2fd8db14610278578063d0e30db0146102a0576100c1565b80638b7afe2e146101a8578063a3818880146101d2578063b6c3afca146101e8576100c1565b80630f0fe598146100c55780632c8d7c32146100ed5780632e1a7d4d1461012c5780632fbbf1231461015457806345f802511461016a5780637a6edb2814610180575b5f5ffd5b3480156100d0575f5ffd5b506100eb60048036038101906100e691906113ed565b6102aa565b005b3480156100f8575f5ffd5b50610113600480360381019061010e919061142b565b6106da565b60405161012394939291906114a6565b60405180910390f35b348015610137575f5ffd5b50610152600480360381019061014d91906114e9565b610730565b005b34801561015f575f5ffd5b506101686108d3565b005b348015610175575f5ffd5b5061017e610a84565b005b34801561018b575f5ffd5b506101a660048036038101906101a191906113ed565b610a86565b005b3480156101b3575f5ffd5b506101bc610eb6565b6040516101c99190611514565b60405180910390f35b3480156101dd575f5ffd5b506101e6610ebd565b005b3480156101f3575f5ffd5b506101fc61109b565b604051610209919061152d565b60405180910390f35b34801561021d575f5ffd5b50610238600480360381019061023391906114e9565b6110c3565b604051610245919061152d565b60405180910390f35b348015610259575f5ffd5b506102626110fe565b60405161026f9190611514565b60405180910390f35b348015610283575f5ffd5b5061029e60048036038101906102999190611570565b611107565b005b6102a861127a565b005b5f81116102ec576040517f08c379a00000000000000000000000000000000000000000000000000000000081526004016102e390611608565b60405180910390fd5b5f73ffffffffffffffffffffffffffffffffffffffff168273ffffffffffffffffffffffffffffffffffffffff160361035a576040517f08c379a000000000000000000000000000000000000000000000000000000000815260040161035190611670565b60405180910390fd5b3373ffffffffffffffffffffffffffffffffffffffff168273ffffffffffffffffffffffffffffffffffffffff16036103c8576040517f08c379a00000000000000000000000000000000000000000000000000000000081526004016103bf906116d8565b60405180910390fd5b5f5f5f3373ffffffffffffffffffffffffffffffffffffffff1673ffffffffffffffffffffffffffffffffffffffff1681526020019081526020015f2090505f5f5f8573ffffffffffffffffffffffffffffffffffffffff1673ffffffffffffffffffffffffffffffffffffffff1681526020019081526020015f209050816003015f9054906101000a900460ff16610496576040517f08c379a000000000000000000000000000000000000000000000000000000000815260040161048d90611740565b60405180910390fd5b806003015f9054906101000a900460ff166104e6576040517f08c379a00000000000000000000000000000000000000000000000000000000081526004016104dd906117a8565b60405180910390fd5b5f82600101541261052c576040517f08c379a000000000000000000000000000000000000000000000000000000000815260040161052390611810565b60405180910390fd5b5f816001015413610572576040517f08c379a000000000000000000000000000000000000000000000000000000000815260040161056990611878565b60405180910390fd5b5f8260010154610581906118c3565b9050808411156105c6576040517f08c379a00000000000000000000000000000000000000000000000000000000081526004016105bd90611979565b60405180910390fd5b5f8260010154905080851115610611576040517f08c379a000000000000000000000000000000000000000000000000000000000815260040161060890611a07565b60405180910390fd5b5f600154866106209190611a25565b90508085600201541015610669576040517f08c379a000000000000000000000000000000000000000000000000000000000815260040161066090611ab0565b60405180910390fd5b80856002015f82825461067c9190611ace565b9250508190555080846002015f8282546106969190611b01565b9250508190555085856001015f8282546106b09190611b34565b9250508190555085846001015f8282546106ca9190611b75565b9250508190555050505050505050565b5f602052805f5260405f205f91509050805f015f9054906101000a900473ffffffffffffffffffffffffffffffffffffffff1690806001015490806002015490806003015f9054906101000a900460ff16905084565b5f3390505f5f8273ffffffffffffffffffffffffffffffffffffffff1673ffffffffffffffffffffffffffffffffffffffff1681526020019081526020015f206003015f9054906101000a900460ff166107bf576040517f08c379a00000000000000000000000000000000000000000000000000000000081526004016107b690611bff565b60405180910390fd5b5f5f5f8373ffffffffffffffffffffffffffffffffffffffff1673ffffffffffffffffffffffffffffffffffffffff1681526020019081526020015f20600101541215610841576040517f08c379a000000000000000000000000000000000000000000000000000000000815260040161083890611c67565b60405180910390fd5b815f5f8373ffffffffffffffffffffffffffffffffffffffff1673ffffffffffffffffffffffffffffffffffffffff1681526020019081526020015f206002015461088c9190611ace565b5f5f8373ffffffffffffffffffffffffffffffffffffffff1673ffffffffffffffffffffffffffffffffffffffff1681526020019081526020015f20600201819055505050565b5f5f90505f5f90505b600380549050811015610983575f600382815481106108fe576108fd611c85565b5b905f5260205f20015f9054906101000a900473ffffffffffffffffffffffffffffffffffffffff1690505f5f8273ffffffffffffffffffffffffffffffffffffffff1673ffffffffffffffffffffffffffffffffffffffff1681526020019081526020015f2060010154836109739190611b34565b92505080806001019150506108dc565b505f670de0b6b3a764000090505f5f8312156109ca5766038d7ea4c68000836109ab906118c3565b6109b59190611a25565b905080826109c39190611b01565b9150610a07565b5f831315610a065766038d7ea4c68000836109e59190611a25565b90508181106109f6575f9150610a05565b8082610a029190611ace565b91505b5b5b67016345785d8a0000821015610a235767016345785d8a000091505b674563918244f40000821115610a3f57674563918244f4000091505b816001819055507f999f531f5c660ea97b00b870fa2eaf696cf5c011cc53c3a68a866585105d6e568284604051610a77929190611cb2565b60405180910390a1505050565b565b5f8111610ac8576040517f08c379a0000000000000000000000000000000000000000000000000000000008152600401610abf90611d23565b60405180910390fd5b5f73ffffffffffffffffffffffffffffffffffffffff168273ffffffffffffffffffffffffffffffffffffffff1603610b36576040517f08c379a0000000000000000000000000000000000000000000000000000000008152600401610b2d90611d8b565b60405180910390fd5b3373ffffffffffffffffffffffffffffffffffffffff168273ffffffffffffffffffffffffffffffffffffffff1603610ba4576040517f08c379a0000000000000000000000000000000000000000000000000000000008152600401610b9b90611df3565b60405180910390fd5b5f5f5f3373ffffffffffffffffffffffffffffffffffffffff1673ffffffffffffffffffffffffffffffffffffffff1681526020019081526020015f2090505f5f5f8573ffffffffffffffffffffffffffffffffffffffff1673ffffffffffffffffffffffffffffffffffffffff1681526020019081526020015f209050816003015f9054906101000a900460ff16610c72576040517f08c379a0000000000000000000000000000000000000000000000000000000008152600401610c69906117a8565b60405180910390fd5b806003015f9054906101000a900460ff16610cc2576040517f08c379a0000000000000000000000000000000000000000000000000000000008152600401610cb990611740565b60405180910390fd5b5f826001015413610d08576040517f08c379a0000000000000000000000000000000000000000000000000000000008152600401610cff90611878565b60405180910390fd5b5f816001015412610d4e576040517f08c379a0000000000000000000000000000000000000000000000000000000008152600401610d4590611810565b60405180910390fd5b5f8260010154905080841115610d99576040517f08c379a0000000000000000000000000000000000000000000000000000000008152600401610d9090611e5b565b60405180910390fd5b5f8260010154610da8906118c3565b905080851115610ded576040517f08c379a0000000000000000000000000000000000000000000000000000000008152600401610de490611ec3565b60405180910390fd5b5f60015486610dfc9190611a25565b90508084600201541015610e45576040517f08c379a0000000000000000000000000000000000000000000000000000000008152600401610e3c90611ab0565b60405180910390fd5b80846002015f828254610e589190611ace565b9250508190555080856002015f828254610e729190611b01565b9250508190555085856001015f828254610e8c9190611b75565b9250508190555085846001015f828254610ea69190611b34565b9250508190555050505050505050565b5f47905090565b5f5f3373ffffffffffffffffffffffffffffffffffffffff1673ffffffffffffffffffffffffffffffffffffffff1681526020019081526020015f206003015f9054906101000a900460ff1615610f49576040517f08c379a0000000000000000000000000000000000000000000000000000000008152600401610f4090611f2b565b60405180910390fd5b60405180608001604052803373ffffffffffffffffffffffffffffffffffffffff1681526020015f81526020015f8152602001600115158152505f5f3373ffffffffffffffffffffffffffffffffffffffff1673ffffffffffffffffffffffffffffffffffffffff1681526020019081526020015f205f820151815f015f6101000a81548173ffffffffffffffffffffffffffffffffffffffff021916908373ffffffffffffffffffffffffffffffffffffffff16021790555060208201518160010155604082015181600201556060820151816003015f6101000a81548160ff021916908315150217905550905050600333908060018154018082558091505060019003905f5260205f20015f9091909190916101000a81548173ffffffffffffffffffffffffffffffffffffffff021916908373ffffffffffffffffffffffffffffffffffffffff160217905550565b5f60025f9054906101000a900473ffffffffffffffffffffffffffffffffffffffff16905090565b600381815481106110d2575f80fd5b905f5260205f20015f915054906101000a900473ffffffffffffffffffffffffffffffffffffffff1681565b5f600154905090565b60025f9054906101000a900473ffffffffffffffffffffffffffffffffffffffff1673ffffffffffffffffffffffffffffffffffffffff163373ffffffffffffffffffffffffffffffffffffffff1614611196576040517f08c379a000000000000000000000000000000000000000000000000000000000815260040161118d90611fb9565b60405180910390fd5b5f5f8373ffffffffffffffffffffffffffffffffffffffff1673ffffffffffffffffffffffffffffffffffffffff1681526020019081526020015f206003015f9054906101000a900460ff16611221576040517f08c379a000000000000000000000000000000000000000000000000000000000815260040161121890611bff565b60405180910390fd5b805f5f8473ffffffffffffffffffffffffffffffffffffffff1673ffffffffffffffffffffffffffffffffffffffff1681526020019081526020015f206001015f82825461126f9190611b34565b925050819055505050565b5f5f3373ffffffffffffffffffffffffffffffffffffffff1673ffffffffffffffffffffffffffffffffffffffff1681526020019081526020015f206003015f9054906101000a900460ff16611305576040517f08c379a00000000000000000000000000000000000000000000000000000000081526004016112fc90611bff565b60405180910390fd5b345f5f3373ffffffffffffffffffffffffffffffffffffffff1673ffffffffffffffffffffffffffffffffffffffff1681526020019081526020015f206002015f8282546113539190611b01565b92505081905550565b5f5ffd5b5f73ffffffffffffffffffffffffffffffffffffffff82169050919050565b5f61138982611360565b9050919050565b6113998161137f565b81146113a3575f5ffd5b50565b5f813590506113b481611390565b92915050565b5f819050919050565b6113cc816113ba565b81146113d6575f5ffd5b50565b5f813590506113e7816113c3565b92915050565b5f5f604083850312156114035761140261135c565b5b5f611410858286016113a6565b9250506020611421858286016113d9565b9150509250929050565b5f602082840312156114405761143f61135c565b5b5f61144d848285016113a6565b91505092915050565b61145f8161137f565b82525050565b5f819050919050565b61147781611465565b82525050565b611486816113ba565b82525050565b5f8115159050919050565b6114a08161148c565b82525050565b5f6080820190506114b95f830187611456565b6114c6602083018661146e565b6114d3604083018561147d565b6114e06060830184611497565b95945050505050565b5f602082840312156114fe576114fd61135c565b5b5f61150b848285016113d9565b91505092915050565b5f6020820190506115275f83018461147d565b92915050565b5f6020820190506115405f830184611456565b92915050565b61154f81611465565b8114611559575f5ffd5b50565b5f8135905061156a81611546565b92915050565b5f5f604083850312156115865761158561135c565b5b5f611593858286016113a6565b92505060206115a48582860161155c565b9150509250929050565b5f82825260208201905092915050565b7f52657175657374656420656e65726779206d757374206265203e2030000000005f82015250565b5f6115f2601c836115ae565b91506115fd826115be565b602082019050919050565b5f6020820190508181035f83015261161f816115e6565b9050919050565b7f496e76616c69642073656c6c65720000000000000000000000000000000000005f82015250565b5f61165a600e836115ae565b915061166582611626565b602082019050919050565b5f6020820190508181035f8301526116878161164e565b9050919050565b7f43616e6e6f74206275792066726f6d2073656c660000000000000000000000005f82015250565b5f6116c26014836115ae565b91506116cd8261168e565b602082019050919050565b5f6020820190508181035f8301526116ef816116b6565b9050919050565b7f4275796572206e6f7420726567697374657265640000000000000000000000005f82015250565b5f61172a6014836115ae565b9150611735826116f6565b602082019050919050565b5f6020820190508181035f8301526117578161171e565b9050919050565b7f53656c6c6572206e6f74207265676973746572656400000000000000000000005f82015250565b5f6117926015836115ae565b915061179d8261175e565b602082019050919050565b5f6020820190508181035f8301526117bf81611786565b9050919050565b7f4275796572206973206e6f7420696e20646566696369740000000000000000005f82015250565b5f6117fa6017836115ae565b9150611805826117c6565b602082019050919050565b5f6020820190508181035f830152611827816117ee565b9050919050565b7f53656c6c6572206973206e6f7420696e20737572706c757300000000000000005f82015250565b5f6118626018836115ae565b915061186d8261182e565b602082019050919050565b5f6020820190508181035f83015261188f81611856565b9050919050565b7f4e487b71000000000000000000000000000000000000000000000000000000005f52601160045260245ffd5b5f6118cd82611465565b91507f800000000000000000000000000000000000000000000000000000000000000082036118ff576118fe611896565b5b815f039050919050565b7f52657175657374656420656e65726779206578636565647320627579657220645f8201527f6566696369740000000000000000000000000000000000000000000000000000602082015250565b5f6119636026836115ae565b915061196e82611909565b604082019050919050565b5f6020820190508181035f83015261199081611957565b9050919050565b7f52657175657374656420656e6572677920657863656564732073656c6c6572205f8201527f737572706c757300000000000000000000000000000000000000000000000000602082015250565b5f6119f16027836115ae565b91506119fc82611997565b604082019050919050565b5f6020820190508181035f830152611a1e816119e5565b9050919050565b5f611a2f826113ba565b9150611a3a836113ba565b9250828202611a48816113ba565b91508282048414831517611a5f57611a5e611896565b5b5092915050565b7f496e73756666696369656e742062757965722062616c616e63650000000000005f82015250565b5f611a9a601a836115ae565b9150611aa582611a66565b602082019050919050565b5f6020820190508181035f830152611ac781611a8e565b9050919050565b5f611ad8826113ba565b9150611ae3836113ba565b9250828203905081811115611afb57611afa611896565b5b92915050565b5f611b0b826113ba565b9150611b16836113ba565b9250828201905080821115611b2e57611b2d611896565b5b92915050565b5f611b3e82611465565b9150611b4983611465565b92508282019050828112155f8312168382125f841215161715611b6f57611b6e611896565b5b92915050565b5f611b7f82611465565b9150611b8a83611465565b925082820390508181125f8412168282135f851215161715611baf57611bae611896565b5b92915050565b7f50726f73756d6572206e6f7420726567697374657265640000000000000000005f82015250565b5f611be96017836115ae565b9150611bf482611bb5565b602082019050919050565b5f6020820190508181035f830152611c1681611bdd565b9050919050565b7f50726f73756d65722068617320616e20656e65726779206465666963697400005f82015250565b5f611c51601e836115ae565b9150611c5c82611c1d565b602082019050919050565b5f6020820190508181035f830152611c7e81611c45565b9050919050565b7f4e487b71000000000000000000000000000000000000000000000000000000005f52603260045260245ffd5b5f604082019050611cc55f83018561147d565b611cd2602083018461146e565b9392505050565b7f4f66666572656420656e65726779206d757374206265203e20300000000000005f82015250565b5f611d0d601a836115ae565b9150611d1882611cd9565b602082019050919050565b5f6020820190508181035f830152611d3a81611d01565b9050919050565b7f496e76616c6964206275796572000000000000000000000000000000000000005f82015250565b5f611d75600d836115ae565b9150611d8082611d41565b602082019050919050565b5f6020820190508181035f830152611da281611d69565b9050919050565b7f43616e6e6f742073656c6c20746f2073656c66000000000000000000000000005f82015250565b5f611ddd6013836115ae565b9150611de882611da9565b602082019050919050565b5f6020820190508181035f830152611e0a81611dd1565b9050919050565b7f4f66666572656420657863656564732073656c6c657220737572706c757300005f82015250565b5f611e45601e836115ae565b9150611e5082611e11565b602082019050919050565b5f6020820190508181035f830152611e7281611e39565b9050919050565b7f4f666665726564206578636565647320627579657220646566696369740000005f82015250565b5f611ead601d836115ae565b9150611eb882611e79565b602082019050919050565b5f6020820190508181035f830152611eda81611ea1565b9050919050565b7f50726f73756d657220616c7265616479207265676973746572656421000000005f82015250565b5f611f15601c836115ae565b9150611f2082611ee1565b602082019050919050565b5f6020820190508181035f830152611f4281611f09565b9050919050565b7f4f6e6c79207265636f726465722063616e2075706461746520656e65726779205f8201527f7374617475730000000000000000000000000000000000000000000000000000602082015250565b5f611fa36026836115ae565b9150611fae82611f49565b604082019050919050565b5f6020820190508181035f830152611fd081611f97565b905091905056fea2646970667358221220a7c67fe4b2041709dbc26452f5f009eba6940256fadca1d07908cb67954757ad64736f6c634300081e0033",
			"opcodes": "PUSH1 0x80 PUSH1 0x40 MSTORE PUSH1 0x40 MLOAD PUSH2 0x211D CODESIZE SUB DUP1 PUSH2 0x211D DUP4 CODECOPY DUP2 DUP2 ADD PUSH1 0x40 MSTORE DUP2 ADD SWAP1 PUSH2 0x25 SWAP2 SWAP1 PUSH2 0xD8 JUMP JUMPDEST DUP1 PUSH1 0x2 PUSH0 PUSH2 0x100 EXP DUP2 SLOAD DUP2 PUSH20 0xFFFFFFFFFFFFFFFFFFFFFFFFFFFFFFFFFFFFFFFF MUL NOT AND SWAP1 DUP4 PUSH20 0xFFFFFFFFFFFFFFFFFFFFFFFFFFFFFFFFFFFFFFFF AND MUL OR SWAP1 SSTORE POP PUSH8 0xDE0B6B3A7640000 PUSH1 0x1 DUP2 SWAP1 SSTORE POP POP PUSH2 0x103 JUMP JUMPDEST PUSH0 PUSH0 REVERT JUMPDEST PUSH0 PUSH20 0xFFFFFFFFFFFFFFFFFFFFFFFFFFFFFFFFFFFFFFFF DUP3 AND SWAP1 POP SWAP2 SWAP1 POP JUMP JUMPDEST PUSH0 PUSH2 0xA7 DUP3 PUSH2 0x7E JUMP JUMPDEST SWAP1 POP SWAP2 SWAP1 POP JUMP JUMPDEST PUSH2 0xB7 DUP2 PUSH2 0x9D JUMP JUMPDEST DUP2 EQ PUSH2 0xC1 JUMPI PUSH0 PUSH0 REVERT JUMPDEST POP JUMP JUMPDEST PUSH0 DUP2 MLOAD SWAP1 POP PUSH2 0xD2 DUP2 PUSH2 0xAE JUMP JUMPDEST SWAP3 SWAP2 POP POP JUMP JUMPDEST PUSH0 PUSH1 0x20 DUP3 DUP5 SUB SLT ISZERO PUSH2 0xED JUMPI PUSH2 0xEC PUSH2 0x7A JUMP JUMPDEST JUMPDEST PUSH0 PUSH2 0xFA DUP5 DUP3 DUP6 ADD PUSH2 0xC4 JUMP JUMPDEST SWAP2 POP POP SWAP3 SWAP2 POP POP JUMP JUMPDEST PUSH2 0x200D DUP1 PUSH2 0x110 PUSH0 CODECOPY PUSH0 RETURN INVALID PUSH1 0x80 PUSH1 0x40 MSTORE PUSH1 0x4 CALLDATASIZE LT PUSH2 0xC1 JUMPI PUSH0 CALLDATALOAD PUSH1 0xE0 SHR DUP1 PUSH4 0x8B7AFE2E GT PUSH2 0x7E JUMPI DUP1 PUSH4 0xB8510A96 GT PUSH2 0x58 JUMPI DUP1 PUSH4 0xB8510A96 EQ PUSH2 0x212 JUMPI DUP1 PUSH4 0xCAB0F335 EQ PUSH2 0x24E JUMPI DUP1 PUSH4 0xCB2FD8DB EQ PUSH2 0x278 JUMPI DUP1 PUSH4 0xD0E30DB0 EQ PUSH2 0x2A0 JUMPI PUSH2 0xC1 JUMP JUMPDEST DUP1 PUSH4 0x8B7AFE2E EQ PUSH2 0x1A8 JUMPI DUP1 PUSH4 0xA3818880 EQ PUSH2 0x1D2 JUMPI DUP1 PUSH4 0xB6C3AFCA EQ PUSH2 0x1E8 JUMPI PUSH2 0xC1 JUMP JUMPDEST DUP1 PUSH4 0xF0FE598 EQ PUSH2 0xC5 JUMPI DUP1 PUSH4 0x2C8D7C32 EQ PUSH2 0xED JUMPI DUP1 PUSH4 0x2E1A7D4D EQ PUSH2 0x12C JUMPI DUP1 PUSH4 0x2FBBF123 EQ PUSH2 0x154 JUMPI DUP1 PUSH4 0x45F80251 EQ PUSH2 0x16A JUMPI DUP1 PUSH4 0x7A6EDB28 EQ PUSH2 0x180 JUMPI JUMPDEST PUSH0 PUSH0 REVERT JUMPDEST CALLVALUE DUP1 ISZERO PUSH2 0xD0 JUMPI PUSH0 PUSH0 REVERT JUMPDEST POP PUSH2 0xEB PUSH1 0x4 DUP1 CALLDATASIZE SUB DUP2 ADD SWAP1 PUSH2 0xE6 SWAP2 SWAP1 PUSH2 0x13ED JUMP JUMPDEST PUSH2 0x2AA JUMP JUMPDEST STOP JUMPDEST CALLVALUE DUP1 ISZERO PUSH2 0xF8 JUMPI PUSH0 PUSH0 REVERT JUMPDEST POP PUSH2 0x113 PUSH1 0x4 DUP1 CALLDATASIZE SUB DUP2 ADD SWAP1 PUSH2 0x10E SWAP2 SWAP1 PUSH2 0x142B JUMP JUMPDEST PUSH2 0x6DA JUMP JUMPDEST PUSH1 0x40 MLOAD PUSH2 0x123 SWAP5 SWAP4 SWAP3 SWAP2 SWAP1 PUSH2 0x14A6 JUMP JUMPDEST PUSH1 0x40 MLOAD DUP1 SWAP2 SUB SWAP1 RETURN JUMPDEST CALLVALUE DUP1 ISZERO PUSH2 0x137 JUMPI PUSH0 PUSH0 REVERT JUMPDEST POP PUSH2 0x152 PUSH1 0x4 DUP1 CALLDATASIZE SUB DUP2 ADD SWAP1 PUSH2 0x14D SWAP2 SWAP1 PUSH2 0x14E9 JUMP JUMPDEST PUSH2 0x730 JUMP JUMPDEST STOP JUMPDEST CALLVALUE DUP1 ISZERO PUSH2 0x15F JUMPI PUSH0 PUSH0 REVERT JUMPDEST POP PUSH2 0x168 PUSH2 0x8D3 JUMP JUMPDEST STOP JUMPDEST CALLVALUE DUP1 ISZERO PUSH2 0x175 JUMPI PUSH0 PUSH0 REVERT JUMPDEST POP PUSH2 0x17E PUSH2 0xA84 JUMP JUMPDEST STOP JUMPDEST CALLVALUE DUP1 ISZERO PUSH2 0x18B JUMPI PUSH0 PUSH0 REVERT JUMPDEST POP PUSH2 0x1A6 PUSH1 0x4 DUP1 CALLDATASIZE SUB DUP2 ADD SWAP1 PUSH2 0x1A1 SWAP2 SWAP1 PUSH2 0x13ED JUMP JUMPDEST PUSH2 0xA86 JUMP JUMPDEST STOP JUMPDEST CALLVALUE DUP1 ISZERO PUSH2 0x1B3 JUMPI PUSH0 PUSH0 REVERT JUMPDEST POP PUSH2 0x1BC PUSH2 0xEB6 JUMP JUMPDEST PUSH1 0x40 MLOAD PUSH2 0x1C9 SWAP2 SWAP1 PUSH2 0x1514 JUMP JUMPDEST PUSH1 0x40 MLOAD DUP1 SWAP2 SUB SWAP1 RETURN JUMPDEST CALLVALUE DUP1 ISZERO PUSH2 0x1DD JUMPI PUSH0 PUSH0 REVERT JUMPDEST POP PUSH2 0x1E6 PUSH2 0xEBD JUMP JUMPDEST STOP JUMPDEST CALLVALUE DUP1 ISZERO PUSH2 0x1F3 JUMPI PUSH0 PUSH0 REVERT JUMPDEST POP PUSH2 0x1FC PUSH2 0x109B JUMP JUMPDEST PUSH1 0x40 MLOAD PUSH2 0x209 SWAP2 SWAP1 PUSH2 0x152D JUMP JUMPDEST PUSH1 0x40 MLOAD DUP1 SWAP2 SUB SWAP1 RETURN JUMPDEST CALLVALUE DUP1 ISZERO PUSH2 0x21D JUMPI PUSH0 PUSH0 REVERT JUMPDEST POP PUSH2 0x238 PUSH1 0x4 DUP1 CALLDATASIZE SUB DUP2 ADD SWAP1 PUSH2 0x233 SWAP2 SWAP1 PUSH2 0x14E9 JUMP JUMPDEST PUSH2 0x10C3 JUMP JUMPDEST PUSH1 0x40 MLOAD PUSH2 0x245 SWAP2 SWAP1 PUSH2 0x152D JUMP JUMPDEST PUSH1 0x40 MLOAD DUP1 SWAP2 SUB SWAP1 RETURN JUMPDEST CALLVALUE DUP1 ISZERO PUSH2 0x259 JUMPI PUSH0 PUSH0 REVERT JUMPDEST POP PUSH2 0x262 PUSH2 0x10FE JUMP JUMPDEST PUSH1 0x40 MLOAD PUSH2 0x26F SWAP2 SWAP1 PUSH2 0x1514 JUMP JUMPDEST PUSH1 0x40 MLOAD DUP1 SWAP2 SUB SWAP1 RETURN JUMPDEST CALLVALUE DUP1 ISZERO PUSH2 0x283 JUMPI PUSH0 PUSH0 REVERT JUMPDEST POP PUSH2 0x29E PUSH1 0x4 DUP1 CALLDATASIZE SUB DUP2 ADD SWAP1 PUSH2 0x299 SWAP2 SWAP1 PUSH2 0x1570 JUMP JUMPDEST PUSH2 0x1107 JUMP JUMPDEST STOP JUMPDEST PUSH2 0x2A8 PUSH2 0x127A JUMP JUMPDEST STOP JUMPDEST PUSH0 DUP2 GT PUSH2 0x2EC JUMPI PUSH1 0x40 MLOAD PUSH32 0x8C379A000000000000000000000000000000000000000000000000000000000 DUP2 MSTORE PUSH1 0x4 ADD PUSH2 0x2E3 SWAP1 PUSH2 0x1608 JUMP JUMPDEST PUSH1 0x40 MLOAD DUP1 SWAP2 SUB SWAP1 REVERT JUMPDEST PUSH0 PUSH20 0xFFFFFFFFFFFFFFFFFFFFFFFFFFFFFFFFFFFFFFFF AND DUP3 PUSH20 0xFFFFFFFFFFFFFFFFFFFFFFFFFFFFFFFFFFFFFFFF AND SUB PUSH2 0x35A JUMPI PUSH1 0x40 MLOAD PUSH32 0x8C379A000000000000000000000000000000000000000000000000000000000 DUP2 MSTORE PUSH1 0x4 ADD PUSH2 0x351 SWAP1 PUSH2 0x1670 JUMP JUMPDEST PUSH1 0x40 MLOAD DUP1 SWAP2 SUB SWAP1 REVERT JUMPDEST CALLER PUSH20 0xFFFFFFFFFFFFFFFFFFFFFFFFFFFFFFFFFFFFFFFF AND DUP3 PUSH20 0xFFFFFFFFFFFFFFFFFFFFFFFFFFFFFFFFFFFFFFFF AND SUB PUSH2 0x3C8 JUMPI PUSH1 0x40 MLOAD PUSH32 0x8C379A000000000000000000000000000000000000000000000000000000000 DUP2 MSTORE PUSH1 0x4 ADD PUSH2 0x3BF SWAP1 PUSH2 0x16D8 JUMP JUMPDEST PUSH1 0x40 MLOAD DUP1 SWAP2 SUB SWAP1 REVERT JUMPDEST PUSH0 PUSH0 PUSH0 CALLER PUSH20 0xFFFFFFFFFFFFFFFFFFFFFFFFFFFFFFFFFFFFFFFF AND PUSH20 0xFFFFFFFFFFFFFFFFFFFFFFFFFFFFFFFFFFFFFFFF AND DUP2 MSTORE PUSH1 0x20 ADD SWAP1 DUP2 MSTORE PUSH1 0x20 ADD PUSH0 KECCAK256 SWAP1 POP PUSH0 PUSH0 PUSH0 DUP6 PUSH20 0xFFFFFFFFFFFFFFFFFFFFFFFFFFFFFFFFFFFFFFFF AND PUSH20 0xFFFFFFFFFFFFFFFFFFFFFFFFFFFFFFFFFFFFFFFF AND DUP2 MSTORE PUSH1 0x20 ADD SWAP1 DUP2 MSTORE PUSH1 0x20 ADD PUSH0 KECCAK256 SWAP1 POP DUP2 PUSH1 0x3 ADD PUSH0 SWAP1 SLOAD SWAP1 PUSH2 0x100 EXP SWAP1 DIV PUSH1 0xFF AND PUSH2 0x496 JUMPI PUSH1 0x40 MLOAD PUSH32 0x8C379A000000000000000000000000000000000000000000000000000000000 DUP2 MSTORE PUSH1 0x4 ADD PUSH2 0x48D SWAP1 PUSH2 0x1740 JUMP JUMPDEST PUSH1 0x40 MLOAD DUP1 SWAP2 SUB SWAP1 REVERT JUMPDEST DUP1 PUSH1 0x3 ADD PUSH0 SWAP1 SLOAD SWAP1 PUSH2 0x100 EXP SWAP1 DIV PUSH1 0xFF AND PUSH2 0x4E6 JUMPI PUSH1 0x40 MLOAD PUSH32 0x8C379A000000000000000000000000000000000000000000000000000000000 DUP2 MSTORE PUSH1 0x4 ADD PUSH2 0x4DD SWAP1 PUSH2 0x17A8 JUMP JUMPDEST PUSH1 0x40 MLOAD DUP1 SWAP2 SUB SWAP1 REVERT JUMPDEST PUSH0 DUP3 PUSH1 0x1 ADD SLOAD SLT PUSH2 0x52C JUMPI PUSH1 0x40 MLOAD PUSH32 0x8C379A000000000000000000000000000000000000000000000000000000000 DUP2 MSTORE PUSH1 0x4 ADD PUSH2 0x523 SWAP1 PUSH2 0x1810 JUMP JUMPDEST PUSH1 0x40 MLOAD DUP1 SWAP2 SUB SWAP1 REVERT JUMPDEST PUSH0 DUP2 PUSH1 0x1 ADD SLOAD SGT PUSH2 0x572 JUMPI PUSH1 0x40 MLOAD PUSH32 0x8C379A000000000000000000000000000000000000000000000000000000000 DUP2 MSTORE PUSH1 0x4 ADD PUSH2 0x569 SWAP1 PUSH2 0x1878 JUMP JUMPDEST PUSH1 0x40 MLOAD DUP1 SWAP2 SUB SWAP1 REVERT JUMPDEST PUSH0 DUP3 PUSH1 0x1 ADD SLOAD PUSH2 0x581 SWAP1 PUSH2 0x18C3 JUMP JUMPDEST SWAP1 POP DUP1 DUP5 GT ISZERO PUSH2 0x5C6 JUMPI PUSH1 0x40 MLOAD PUSH32 0x8C379A000000000000000000000000000000000000000000000000000000000 DUP2 MSTORE PUSH1 0x4 ADD PUSH2 0x5BD SWAP1 PUSH2 0x1979 JUMP JUMPDEST PUSH1 0x40 MLOAD DUP1 SWAP2 SUB SWAP1 REVERT JUMPDEST PUSH0 DUP3 PUSH1 0x1 ADD SLOAD SWAP1 POP DUP1 DUP6 GT ISZERO PUSH2 0x611 JUMPI PUSH1 0x40 MLOAD PUSH32 0x8C379A000000000000000000000000000000000000000000000000000000000 DUP2 MSTORE PUSH1 0x4 ADD PUSH2 0x608 SWAP1 PUSH2 0x1A07 JUMP JUMPDEST PUSH1 0x40 MLOAD DUP1 SWAP2 SUB SWAP1 REVERT JUMPDEST PUSH0 PUSH1 0x1 SLOAD DUP7 PUSH2 0x620 SWAP2 SWAP1 PUSH2 0x1A25 JUMP JUMPDEST SWAP1 POP DUP1 DUP6 PUSH1 0x2 ADD SLOAD LT ISZERO PUSH2 0x669 JUMPI PUSH1 0x40 MLOAD PUSH32 0x8C379A000000000000000000000000000000000000000000000000000000000 DUP2 MSTORE PUSH1 0x4 ADD PUSH2 0x660 SWAP1 PUSH2 0x1AB0 JUMP JUMPDEST PUSH1 0x40 MLOAD DUP1 SWAP2 SUB SWAP1 REVERT JUMPDEST DUP1 DUP6 PUSH1 0x2 ADD PUSH0 DUP3 DUP3 SLOAD PUSH2 0x67C SWAP2 SWAP1 PUSH2 0x1ACE JUMP JUMPDEST SWAP3 POP POP DUP2 SWAP1 SSTORE POP DUP1 DUP5 PUSH1 0x2 ADD PUSH0 DUP3 DUP3 SLOAD PUSH2 0x696 SWAP2 SWAP1 PUSH2 0x1B01 JUMP JUMPDEST SWAP3 POP POP DUP2 SWAP1 SSTORE POP DUP6 DUP6 PUSH1 0x1 ADD PUSH0 DUP3 DUP3 SLOAD PUSH2 0x6B0 SWAP2 SWAP1 PUSH2 0x1B34 JUMP JUMPDEST SWAP3 POP POP DUP2 SWAP1 SSTORE POP DUP6 DUP5 PUSH1 0x1 ADD PUSH0 DUP3 DUP3 SLOAD PUSH2 0x6CA SWAP2 SWAP1 PUSH2 0x1B75 JUMP JUMPDEST SWAP3 POP POP DUP2 SWAP1 SSTORE POP POP POP POP POP POP POP POP JUMP JUMPDEST PUSH0 PUSH1 0x20 MSTORE DUP1 PUSH0 MSTORE PUSH1 0x40 PUSH0 KECCAK256 PUSH0 SWAP2 POP SWAP1 POP DUP1 PUSH0 ADD PUSH0 SWAP1 SLOAD SWAP1 PUSH2 0x100 EXP SWAP1 DIV PUSH20 0xFFFFFFFFFFFFFFFFFFFFFFFFFFFFFFFFFFFFFFFF AND SWAP1 DUP1 PUSH1 0x1 ADD SLOAD SWAP1 DUP1 PUSH1 0x2 ADD SLOAD SWAP1 DUP1 PUSH1 0x3 ADD PUSH0 SWAP1 SLOAD SWAP1 PUSH2 0x100 EXP SWAP1 DIV PUSH1 0xFF AND SWAP1 POP DUP5 JUMP JUMPDEST PUSH0 CALLER SWAP1 POP PUSH0 PUSH0 DUP3 PUSH20 0xFFFFFFFFFFFFFFFFFFFFFFFFFFFFFFFFFFFFFFFF AND PUSH20 0xFFFFFFFFFFFFFFFFFFFFFFFFFFFFFFFFFFFFFFFF AND DUP2 MSTORE PUSH1 0x20 ADD SWAP1 DUP2 MSTORE PUSH1 0x20 ADD PUSH0 KECCAK256 PUSH1 0x3 ADD PUSH0 SWAP1 SLOAD SWAP1 PUSH2 0x100 EXP SWAP1 DIV PUSH1 0xFF AND PUSH2 0x7BF JUMPI PUSH1 0x40 MLOAD PUSH32 0x8C379A000000000000000000000000000000000000000000000000000000000 DUP2 MSTORE PUSH1 0x4 ADD PUSH2 0x7B6 SWAP1 PUSH2 0x1BFF JUMP JUMPDEST PUSH1 0x40 MLOAD DUP1 SWAP2 SUB SWAP1 REVERT JUMPDEST PUSH0 PUSH0 PUSH0 DUP4 PUSH20 0xFFFFFFFFFFFFFFFFFFFFFFFFFFFFFFFFFFFFFFFF AND PUSH20 0xFFFFFFFFFFFFFFFFFFFFFFFFFFFFFFFFFFFFFFFF AND DUP2 MSTORE PUSH1 0x20 ADD SWAP1 DUP2 MSTORE PUSH1 0x20 ADD PUSH0 KECCAK256 PUSH1 0x1 ADD SLOAD SLT ISZERO PUSH2 0x841 JUMPI PUSH1 0x40 MLOAD PUSH32 0x8C379A000000000000000000000000000000000000000000000000000000000 DUP2 MSTORE PUSH1 0x4 ADD PUSH2 0x838 SWAP1 PUSH2 0x1C67 JUMP JUMPDEST PUSH1 0x40 MLOAD DUP1 SWAP2 SUB SWAP1 REVERT JUMPDEST DUP2 PUSH0 PUSH0 DUP4 PUSH20 0xFFFFFFFFFFFFFFFFFFFFFFFFFFFFFFFFFFFFFFFF AND PUSH20 0xFFFFFFFFFFFFFFFFFFFFFFFFFFFFFFFFFFFFFFFF AND DUP2 MSTORE PUSH1 0x20 ADD SWAP1 DUP2 MSTORE PUSH1 0x20 ADD PUSH0 KECCAK256 PUSH1 0x2 ADD SLOAD PUSH2 0x88C SWAP2 SWAP1 PUSH2 0x1ACE JUMP JUMPDEST PUSH0 PUSH0 DUP4 PUSH20 0xFFFFFFFFFFFFFFFFFFFFFFFFFFFFFFFFFFFFFFFF AND PUSH20 0xFFFFFFFFFFFFFFFFFFFFFFFFFFFFFFFFFFFFFFFF AND DUP2 MSTORE PUSH1 0x20 ADD SWAP1 DUP2 MSTORE PUSH1 0x20 ADD PUSH0 KECCAK256 PUSH1 0x2 ADD DUP2 SWAP1 SSTORE POP POP POP JUMP JUMPDEST PUSH0 PUSH0 SWAP1 POP PUSH0 PUSH0 SWAP1 POP JUMPDEST PUSH1 0x3 DUP1 SLOAD SWAP1 POP DUP2 LT ISZERO PUSH2 0x983 JUMPI PUSH0 PUSH1 0x3 DUP3 DUP2 SLOAD DUP2 LT PUSH2 0x8FE JUMPI PUSH2 0x8FD PUSH2 0x1C85 JUMP JUMPDEST JUMPDEST SWAP1 PUSH0 MSTORE PUSH1 0x20 PUSH0 KECCAK256 ADD PUSH0 SWAP1 SLOAD SWAP1 PUSH2 0x100 EXP SWAP1 DIV PUSH20 0xFFFFFFFFFFFFFFFFFFFFFFFFFFFFFFFFFFFFFFFF AND SWAP1 POP PUSH0 PUSH0 DUP3 PUSH20 0xFFFFFFFFFFFFFFFFFFFFFFFFFFFFFFFFFFFFFFFF AND PUSH20 0xFFFFFFFFFFFFFFFFFFFFFFFFFFFFFFFFFFFFFFFF AND DUP2 MSTORE PUSH1 0x20 ADD SWAP1 DUP2 MSTORE PUSH1 0x20 ADD PUSH0 KECCAK256 PUSH1 0x1 ADD SLOAD DUP4 PUSH2 0x973 SWAP2 SWAP1 PUSH2 0x1B34 JUMP JUMPDEST SWAP3 POP POP DUP1 DUP1 PUSH1 0x1 ADD SWAP2 POP POP PUSH2 0x8DC JUMP JUMPDEST POP PUSH0 PUSH8 0xDE0B6B3A7640000 SWAP1 POP PUSH0 PUSH0 DUP4 SLT ISZERO PUSH2 0x9CA JUMPI PUSH7 0x38D7EA4C68000 DUP4 PUSH2 0x9AB SWAP1 PUSH2 0x18C3 JUMP JUMPDEST PUSH2 0x9B5 SWAP2 SWAP1 PUSH2 0x1A25 JUMP JUMPDEST SWAP1 POP DUP1 DUP3 PUSH2 0x9C3 SWAP2 SWAP1 PUSH2 0x1B01 JUMP JUMPDEST SWAP2 POP PUSH2 0xA07 JUMP JUMPDEST PUSH0 DUP4 SGT ISZERO PUSH2 0xA06 JUMPI PUSH7 0x38D7EA4C68000 DUP4 PUSH2 0x9E5 SWAP2 SWAP1 PUSH2 0x1A25 JUMP JUMPDEST SWAP1 POP DUP2 DUP2 LT PUSH2 0x9F6 JUMPI PUSH0 SWAP2 POP PUSH2 0xA05 JUMP JUMPDEST DUP1 DUP3 PUSH2 0xA02 SWAP2 SWAP1 PUSH2 0x1ACE JUMP JUMPDEST SWAP2 POP JUMPDEST JUMPDEST JUMPDEST PUSH8 0x16345785D8A0000 DUP3 LT ISZERO PUSH2 0xA23 JUMPI PUSH8 0x16345785D8A0000 SWAP2 POP JUMPDEST PUSH8 0x4563918244F40000 DUP3 GT ISZERO PUSH2 0xA3F JUMPI PUSH8 0x4563918244F40000 SWAP2 POP JUMPDEST DUP2 PUSH1 0x1 DUP2 SWAP1 SSTORE POP PUSH32 0x999F531F5C660EA97B00B870FA2EAF696CF5C011CC53C3A68A866585105D6E56 DUP3 DUP5 PUSH1 0x40 MLOAD PUSH2 0xA77 SWAP3 SWAP2 SWAP1 PUSH2 0x1CB2 JUMP JUMPDEST PUSH1 0x40 MLOAD DUP1 SWAP2 SUB SWAP1 LOG1 POP POP POP JUMP JUMPDEST JUMP JUMPDEST PUSH0 DUP2 GT PUSH2 0xAC8 JUMPI PUSH1 0x40 MLOAD PUSH32 0x8C379A000000000000000000000000000000000000000000000000000000000 DUP2 MSTORE PUSH1 0x4 ADD PUSH2 0xABF SWAP1 PUSH2 0x1D23 JUMP JUMPDEST PUSH1 0x40 MLOAD DUP1 SWAP2 SUB SWAP1 REVERT JUMPDEST PUSH0 PUSH20 0xFFFFFFFFFFFFFFFFFFFFFFFFFFFFFFFFFFFFFFFF AND DUP3 PUSH20 0xFFFFFFFFFFFFFFFFFFFFFFFFFFFFFFFFFFFFFFFF AND SUB PUSH2 0xB36 JUMPI PUSH1 0x40 MLOAD PUSH32 0x8C379A000000000000000000000000000000000000000000000000000000000 DUP2 MSTORE PUSH1 0x4 ADD PUSH2 0xB2D SWAP1 PUSH2 0x1D8B JUMP JUMPDEST PUSH1 0x40 MLOAD DUP1 SWAP2 SUB SWAP1 REVERT JUMPDEST CALLER PUSH20 0xFFFFFFFFFFFFFFFFFFFFFFFFFFFFFFFFFFFFFFFF AND DUP3 PUSH20 0xFFFFFFFFFFFFFFFFFFFFFFFFFFFFFFFFFFFFFFFF AND SUB PUSH2 0xBA4 JUMPI PUSH1 0x40 MLOAD PUSH32 0x8C379A000000000000000000000000000000000000000000000000000000000 DUP2 MSTORE PUSH1 0x4 ADD PUSH2 0xB9B SWAP1 PUSH2 0x1DF3 JUMP JUMPDEST PUSH1 0x40 MLOAD DUP1 SWAP2 SUB SWAP1 REVERT JUMPDEST PUSH0 PUSH0 PUSH0 CALLER PUSH20 0xFFFFFFFFFFFFFFFFFFFFFFFFFFFFFFFFFFFFFFFF AND PUSH20 0xFFFFFFFFFFFFFFFFFFFFFFFFFFFFFFFFFFFFFFFF AND DUP2 MSTORE PUSH1 0x20 ADD SWAP1 DUP2 MSTORE PUSH1 0x20 ADD PUSH0 KECCAK256 SWAP1 POP PUSH0 PUSH0 PUSH0 DUP6 PUSH20 0xFFFFFFFFFFFFFFFFFFFFFFFFFFFFFFFFFFFFFFFF AND PUSH20 0xFFFFFFFFFFFFFFFFFFFFFFFFFFFFFFFFFFFFFFFF AND DUP2 MSTORE PUSH1 0x20 ADD SWAP1 DUP2 MSTORE PUSH1 0x20 ADD PUSH0 KECCAK256 SWAP1 POP DUP2 PUSH1 0x3 ADD PUSH0 SWAP1 SLOAD SWAP1 PUSH2 0x100 EXP SWAP1 DIV PUSH1 0xFF AND PUSH2 0xC72 JUMPI PUSH1 0x40 MLOAD PUSH32 0x8C379A000000000000000000000000000000000000000000000000000000000 DUP2 MSTORE PUSH1 0x4 ADD PUSH2 0xC69 SWAP1 PUSH2 0x17A8 JUMP JUMPDEST PUSH1 0x40 MLOAD DUP1 SWAP2 SUB SWAP1 REVERT JUMPDEST DUP1 PUSH1 0x3 ADD PUSH0 SWAP1 SLOAD SWAP1 PUSH2 0x100 EXP SWAP1 DIV PUSH1 0xFF AND PUSH2 0xCC2 JUMPI PUSH1 0x40 MLOAD PUSH32 0x8C379A000000000000000000000000000000000000000000000000000000000 DUP2 MSTORE PUSH1 0x4 ADD PUSH2 0xCB9 SWAP1 PUSH2 0x1740 JUMP JUMPDEST PUSH1 0x40 MLOAD DUP1 SWAP2 SUB SWAP1 REVERT JUMPDEST PUSH0 DUP3 PUSH1 0x1 ADD SLOAD SGT PUSH2 0xD08 JUMPI PUSH1 0x40 MLOAD PUSH32 0x8C379A000000000000000000000000000000000000000000000000000000000 DUP2 MSTORE PUSH1 0x4 ADD PUSH2 0xCFF SWAP1 PUSH2 0x1878 JUMP JUMPDEST PUSH1 0x40 MLOAD DUP1 SWAP2 SUB SWAP1 REVERT JUMPDEST PUSH0 DUP2 PUSH1 0x1 ADD SLOAD SLT PUSH2 0xD4E JUMPI PUSH1 0x40 MLOAD PUSH32 0x8C379A000000000000000000000000000000000000000000000000000000000 DUP2 MSTORE PUSH1 0x4 ADD PUSH2 0xD45 SWAP1 PUSH2 0x1810 JUMP JUMPDEST PUSH1 0x40 MLOAD DUP1 SWAP2 SUB SWAP1 REVERT JUMPDEST PUSH0 DUP3 PUSH1 0x1 ADD SLOAD SWAP1 POP DUP1 DUP5 GT ISZERO PUSH2 0xD99 JUMPI PUSH1 0x40 MLOAD PUSH32 0x8C379A000000000000000000000000000000000000000000000000000000000 DUP2 MSTORE PUSH1 0x4 ADD PUSH2 0xD90 SWAP1 PUSH2 0x1E5B JUMP JUMPDEST PUSH1 0x40 MLOAD DUP1 SWAP2 SUB SWAP1 REVERT JUMPDEST PUSH0 DUP3 PUSH1 0x1 ADD SLOAD PUSH2 0xDA8 SWAP1 PUSH2 0x18C3 JUMP JUMPDEST SWAP1 POP DUP1 DUP6 GT ISZERO PUSH2 0xDED JUMPI PUSH1 0x40 MLOAD PUSH32 0x8C379A000000000000000000000000000000000000000000000000000000000 DUP2 MSTORE PUSH1 0x4 ADD PUSH2 0xDE4 SWAP1 PUSH2 0x1EC3 JUMP JUMPDEST PUSH1 0x40 MLOAD DUP1 SWAP2 SUB SWAP1 REVERT JUMPDEST PUSH0 PUSH1 0x1 SLOAD DUP7 PUSH2 0xDFC SWAP2 SWAP1 PUSH2 0x1A25 JUMP JUMPDEST SWAP1 POP DUP1 DUP5 PUSH1 0x2 ADD SLOAD LT ISZERO PUSH2 0xE45 JUMPI PUSH1 0x40 MLOAD PUSH32 0x8C379A000000000000000000000000000000000000000000000000000000000 DUP2 MSTORE PUSH1 0x4 ADD PUSH2 0xE3C SWAP1 PUSH2 0x1AB0 JUMP JUMPDEST PUSH1 0x40 MLOAD DUP1 SWAP2 SUB SWAP1 REVERT JUMPDEST DUP1 DUP5 PUSH1 0x2 ADD PUSH0 DUP3 DUP3 SLOAD PUSH2 0xE58 SWAP2 SWAP1 PUSH2 0x1ACE JUMP JUMPDEST SWAP3 POP POP DUP2 SWAP1 SSTORE POP DUP1 DUP6 PUSH1 0x2 ADD PUSH0 DUP3 DUP3 SLOAD PUSH2 0xE72 SWAP2 SWAP1 PUSH2 0x1B01 JUMP JUMPDEST SWAP3 POP POP DUP2 SWAP1 SSTORE POP DUP6 DUP6 PUSH1 0x1 ADD PUSH0 DUP3 DUP3 SLOAD PUSH2 0xE8C SWAP2 SWAP1 PUSH2 0x1B75 JUMP JUMPDEST SWAP3 POP POP DUP2 SWAP1 SSTORE POP DUP6 DUP5 PUSH1 0x1 ADD PUSH0 DUP3 DUP3 SLOAD PUSH2 0xEA6 SWAP2 SWAP1 PUSH2 0x1B34 JUMP JUMPDEST SWAP3 POP POP DUP2 SWAP1 SSTORE POP POP POP POP POP POP POP POP JUMP JUMPDEST PUSH0 SELFBALANCE SWAP1 POP SWAP1 JUMP JUMPDEST PUSH0 PUSH0 CALLER PUSH20 0xFFFFFFFFFFFFFFFFFFFFFFFFFFFFFFFFFFFFFFFF AND PUSH20 0xFFFFFFFFFFFFFFFFFFFFFFFFFFFFFFFFFFFFFFFF AND DUP2 MSTORE PUSH1 0x20 ADD SWAP1 DUP2 MSTORE PUSH1 0x20 ADD PUSH0 KECCAK256 PUSH1 0x3 ADD PUSH0 SWAP1 SLOAD SWAP1 PUSH2 0x100 EXP SWAP1 DIV PUSH1 0xFF AND ISZERO PUSH2 0xF49 JUMPI PUSH1 0x40 MLOAD PUSH32 0x8C379A000000000000000000000000000000000000000000000000000000000 DUP2 MSTORE PUSH1 0x4 ADD PUSH2 0xF40 SWAP1 PUSH2 0x1F2B JUMP JUMPDEST PUSH1 0x40 MLOAD DUP1 SWAP2 SUB SWAP1 REVERT JUMPDEST PUSH1 0x40 MLOAD DUP1 PUSH1 0x80 ADD PUSH1 0x40 MSTORE DUP1 CALLER PUSH20 0xFFFFFFFFFFFFFFFFFFFFFFFFFFFFFFFFFFFFFFFF AND DUP2 MSTORE PUSH1 0x20 ADD PUSH0 DUP2 MSTORE PUSH1 0x20 ADD PUSH0 DUP2 MSTORE PUSH1 0x20 ADD PUSH1 0x1 ISZERO ISZERO DUP2 MSTORE POP PUSH0 PUSH0 CALLER PUSH20 0xFFFFFFFFFFFFFFFFFFFFFFFFFFFFFFFFFFFFFFFF AND PUSH20 0xFFFFFFFFFFFFFFFFFFFFFFFFFFFFFFFFFFFFFFFF AND DUP2 MSTORE PUSH1 0x20 ADD SWAP1 DUP2 MSTORE PUSH1 0x20 ADD PUSH0 KECCAK256 PUSH0 DUP3 ADD MLOAD DUP2 PUSH0 ADD PUSH0 PUSH2 0x100 EXP DUP2 SLOAD DUP2 PUSH20 0xFFFFFFFFFFFFFFFFFFFFFFFFFFFFFFFFFFFFFFFF MUL NOT AND SWAP1 DUP4 PUSH20 0xFFFFFFFFFFFFFFFFFFFFFFFFFFFFFFFFFFFFFFFF AND MUL OR SWAP1 SSTORE POP PUSH1 0x20 DUP3 ADD MLOAD DUP2 PUSH1 0x1 ADD SSTORE PUSH1 0x40 DUP3 ADD MLOAD DUP2 PUSH1 0x2 ADD SSTORE PUSH1 0x60 DUP3 ADD MLOAD DUP2 PUSH1 0x3 ADD PUSH0 PUSH2 0x100 EXP DUP2 SLOAD DUP2 PUSH1 0xFF MUL NOT AND SWAP1 DUP4 ISZERO ISZERO MUL OR SWAP1 SSTORE POP SWAP1 POP POP PUSH1 0x3 CALLER SWAP1 DUP1 PUSH1 0x1 DUP2 SLOAD ADD DUP1 DUP3 SSTORE DUP1 SWAP2 POP POP PUSH1 0x1 SWAP1 SUB SWAP1 PUSH0 MSTORE PUSH1 0x20 PUSH0 KECCAK256 ADD PUSH0 SWAP1 SWAP2 SWAP1 SWAP2 SWAP1 SWAP2 PUSH2 0x100 EXP DUP2 SLOAD DUP2 PUSH20 0xFFFFFFFFFFFFFFFFFFFFFFFFFFFFFFFFFFFFFFFF MUL NOT AND SWAP1 DUP4 PUSH20 0xFFFFFFFFFFFFFFFFFFFFFFFFFFFFFFFFFFFFFFFF AND MUL OR SWAP1 SSTORE POP JUMP JUMPDEST PUSH0 PUSH1 0x2 PUSH0 SWAP1 SLOAD SWAP1 PUSH2 0x100 EXP SWAP1 DIV PUSH20 0xFFFFFFFFFFFFFFFFFFFFFFFFFFFFFFFFFFFFFFFF AND SWAP1 POP SWAP1 JUMP JUMPDEST PUSH1 0x3 DUP2 DUP2 SLOAD DUP2 LT PUSH2 0x10D2 JUMPI PUSH0 DUP1 REVERT JUMPDEST SWAP1 PUSH0 MSTORE PUSH1 0x20 PUSH0 KECCAK256 ADD PUSH0 SWAP2 POP SLOAD SWAP1 PUSH2 0x100 EXP SWAP1 DIV PUSH20 0xFFFFFFFFFFFFFFFFFFFFFFFFFFFFFFFFFFFFFFFF AND DUP2 JUMP JUMPDEST PUSH0 PUSH1 0x1 SLOAD SWAP1 POP SWAP1 JUMP JUMPDEST PUSH1 0x2 PUSH0 SWAP1 SLOAD SWAP1 PUSH2 0x100 EXP SWAP1 DIV PUSH20 0xFFFFFFFFFFFFFFFFFFFFFFFFFFFFFFFFFFFFFFFF AND PUSH20 0xFFFFFFFFFFFFFFFFFFFFFFFFFFFFFFFFFFFFFFFF AND CALLER PUSH20 0xFFFFFFFFFFFFFFFFFFFFFFFFFFFFFFFFFFFFFFFF AND EQ PUSH2 0x1196 JUMPI PUSH1 0x40 MLOAD PUSH32 0x8C379A000000000000000000000000000000000000000000000000000000000 DUP2 MSTORE PUSH1 0x4 ADD PUSH2 0x118D SWAP1 PUSH2 0x1FB9 JUMP JUMPDEST PUSH1 0x40 MLOAD DUP1 SWAP2 SUB SWAP1 REVERT JUMPDEST PUSH0 PUSH0 DUP4 PUSH20 0xFFFFFFFFFFFFFFFFFFFFFFFFFFFFFFFFFFFFFFFF AND PUSH20 0xFFFFFFFFFFFFFFFFFFFFFFFFFFFFFFFFFFFFFFFF AND DUP2 MSTORE PUSH1 0x20 ADD SWAP1 DUP2 MSTORE PUSH1 0x20 ADD PUSH0 KECCAK256 PUSH1 0x3 ADD PUSH0 SWAP1 SLOAD SWAP1 PUSH2 0x100 EXP SWAP1 DIV PUSH1 0xFF AND PUSH2 0x1221 JUMPI PUSH1 0x40 MLOAD PUSH32 0x8C379A000000000000000000000000000000000000000000000000000000000 DUP2 MSTORE PUSH1 0x4 ADD PUSH2 0x1218 SWAP1 PUSH2 0x1BFF JUMP JUMPDEST PUSH1 0x40 MLOAD DUP1 SWAP2 SUB SWAP1 REVERT JUMPDEST DUP1 PUSH0 PUSH0 DUP5 PUSH20 0xFFFFFFFFFFFFFFFFFFFFFFFFFFFFFFFFFFFFFFFF AND PUSH20 0xFFFFFFFFFFFFFFFFFFFFFFFFFFFFFFFFFFFFFFFF AND DUP2 MSTORE PUSH1 0x20 ADD SWAP1 DUP2 MSTORE PUSH1 0x20 ADD PUSH0 KECCAK256 PUSH1 0x1 ADD PUSH0 DUP3 DUP3 SLOAD PUSH2 0x126F SWAP2 SWAP1 PUSH2 0x1B34 JUMP JUMPDEST SWAP3 POP POP DUP2 SWAP1 SSTORE POP POP POP JUMP JUMPDEST PUSH0 PUSH0 CALLER PUSH20 0xFFFFFFFFFFFFFFFFFFFFFFFFFFFFFFFFFFFFFFFF AND PUSH20 0xFFFFFFFFFFFFFFFFFFFFFFFFFFFFFFFFFFFFFFFF AND DUP2 MSTORE PUSH1 0x20 ADD SWAP1 DUP2 MSTORE PUSH1 0x20 ADD PUSH0 KECCAK256 PUSH1 0x3 ADD PUSH0 SWAP1 SLOAD SWAP1 PUSH2 0x100 EXP SWAP1 DIV PUSH1 0xFF AND PUSH2 0x1305 JUMPI PUSH1 0x40 MLOAD PUSH32 0x8C379A000000000000000000000000000000000000000000000000000000000 DUP2 MSTORE PUSH1 0x4 ADD PUSH2 0x12FC SWAP1 PUSH2 0x1BFF JUMP JUMPDEST PUSH1 0x40 MLOAD DUP1 SWAP2 SUB SWAP1 REVERT JUMPDEST CALLVALUE PUSH0 PUSH0 CALLER PUSH20 0xFFFFFFFFFFFFFFFFFFFFFFFFFFFFFFFFFFFFFFFF AND PUSH20 0xFFFFFFFFFFFFFFFFFFFFFFFFFFFFFFFFFFFFFFFF AND DUP2 MSTORE PUSH1 0x20 ADD SWAP1 DUP2 MSTORE PUSH1 0x20 ADD PUSH0 KECCAK256 PUSH1 0x2 ADD PUSH0 DUP3 DUP3 SLOAD PUSH2 0x1353 SWAP2 SWAP1 PUSH2 0x1B01 JUMP JUMPDEST SWAP3 POP POP DUP2 SWAP1 SSTORE POP JUMP JUMPDEST PUSH0 PUSH0 REVERT JUMPDEST PUSH0 PUSH20 0xFFFFFFFFFFFFFFFFFFFFFFFFFFFFFFFFFFFFFFFF DUP3 AND SWAP1 POP SWAP2 SWAP1 POP JUMP JUMPDEST PUSH0 PUSH2 0x1389 DUP3 PUSH2 0x1360 JUMP JUMPDEST SWAP1 POP SWAP2 SWAP1 POP JUMP JUMPDEST PUSH2 0x1399 DUP2 PUSH2 0x137F JUMP JUMPDEST DUP2 EQ PUSH2 0x13A3 JUMPI PUSH0 PUSH0 REVERT JUMPDEST POP JUMP JUMPDEST PUSH0 DUP2 CALLDATALOAD SWAP1 POP PUSH2 0x13B4 DUP2 PUSH2 0x1390 JUMP JUMPDEST SWAP3 SWAP2 POP POP JUMP JUMPDEST PUSH0 DUP2 SWAP1 POP SWAP2 SWAP1 POP JUMP JUMPDEST PUSH2 0x13CC DUP2 PUSH2 0x13BA JUMP JUMPDEST DUP2 EQ PUSH2 0x13D6 JUMPI PUSH0 PUSH0 REVERT JUMPDEST POP JUMP JUMPDEST PUSH0 DUP2 CALLDATALOAD SWAP1 POP PUSH2 0x13E7 DUP2 PUSH2 0x13C3 JUMP JUMPDEST SWAP3 SWAP2 POP POP JUMP JUMPDEST PUSH0 PUSH0 PUSH1 0x40 DUP4 DUP6 SUB SLT ISZERO PUSH2 0x1403 JUMPI PUSH2 0x1402 PUSH2 0x135C JUMP JUMPDEST JUMPDEST PUSH0 PUSH2 0x1410 DUP6 DUP3 DUP7 ADD PUSH2 0x13A6 JUMP JUMPDEST SWAP3 POP POP PUSH1 0x20 PUSH2 0x1421 DUP6 DUP3 DUP7 ADD PUSH2 0x13D9 JUMP JUMPDEST SWAP2 POP POP SWAP3 POP SWAP3 SWAP1 POP JUMP JUMPDEST PUSH0 PUSH1 0x20 DUP3 DUP5 SUB SLT ISZERO PUSH2 0x1440 JUMPI PUSH2 0x143F PUSH2 0x135C JUMP JUMPDEST JUMPDEST PUSH0 PUSH2 0x144D DUP5 DUP3 DUP6 ADD PUSH2 0x13A6 JUMP JUMPDEST SWAP2 POP POP SWAP3 SWAP2 POP POP JUMP JUMPDEST PUSH2 0x145F DUP2 PUSH2 0x137F JUMP JUMPDEST DUP3 MSTORE POP POP JUMP JUMPDEST PUSH0 DUP2 SWAP1 POP SWAP2 SWAP1 POP JUMP JUMPDEST PUSH2 0x1477 DUP2 PUSH2 0x1465 JUMP JUMPDEST DUP3 MSTORE POP POP JUMP JUMPDEST PUSH2 0x1486 DUP2 PUSH2 0x13BA JUMP JUMPDEST DUP3 MSTORE POP POP JUMP JUMPDEST PUSH0 DUP2 ISZERO ISZERO SWAP1 POP SWAP2 SWAP1 POP JUMP JUMPDEST PUSH2 0x14A0 DUP2 PUSH2 0x148C JUMP JUMPDEST DUP3 MSTORE POP POP JUMP JUMPDEST PUSH0 PUSH1 0x80 DUP3 ADD SWAP1 POP PUSH2 0x14B9 PUSH0 DUP4 ADD DUP8 PUSH2 0x1456 JUMP JUMPDEST PUSH2 0x14C6 PUSH1 0x20 DUP4 ADD DUP7 PUSH2 0x146E JUMP JUMPDEST PUSH2 0x14D3 PUSH1 0x40 DUP4 ADD DUP6 PUSH2 0x147D JUMP JUMPDEST PUSH2 0x14E0 PUSH1 0x60 DUP4 ADD DUP5 PUSH2 0x1497 JUMP JUMPDEST SWAP6 SWAP5 POP POP POP POP POP JUMP JUMPDEST PUSH0 PUSH1 0x20 DUP3 DUP5 SUB SLT ISZERO PUSH2 0x14FE JUMPI PUSH2 0x14FD PUSH2 0x135C JUMP JUMPDEST JUMPDEST PUSH0 PUSH2 0x150B DUP5 DUP3 DUP6 ADD PUSH2 0x13D9 JUMP JUMPDEST SWAP2 POP POP SWAP3 SWAP2 POP POP JUMP JUMPDEST PUSH0 PUSH1 0x20 DUP3 ADD SWAP1 POP PUSH2 0x1527 PUSH0 DUP4 ADD DUP5 PUSH2 0x147D JUMP JUMPDEST SWAP3 SWAP2 POP POP JUMP JUMPDEST PUSH0 PUSH1 0x20 DUP3 ADD SWAP1 POP PUSH2 0x1540 PUSH0 DUP4 ADD DUP5 PUSH2 0x1456 JUMP JUMPDEST SWAP3 SWAP2 POP POP JUMP JUMPDEST PUSH2 0x154F DUP2 PUSH2 0x1465 JUMP JUMPDEST DUP2 EQ PUSH2 0x1559 JUMPI PUSH0 PUSH0 REVERT JUMPDEST POP JUMP JUMPDEST PUSH0 DUP2 CALLDATALOAD SWAP1 POP PUSH2 0x156A DUP2 PUSH2 0x1546 JUMP JUMPDEST SWAP3 SWAP2 POP POP JUMP JUMPDEST PUSH0 PUSH0 PUSH1 0x40 DUP4 DUP6 SUB SLT ISZERO PUSH2 0x1586 JUMPI PUSH2 0x1585 PUSH2 0x135C JUMP JUMPDEST JUMPDEST PUSH0 PUSH2 0x1593 DUP6 DUP3 DUP7 ADD PUSH2 0x13A6 JUMP JUMPDEST SWAP3 POP POP PUSH1 0x20 PUSH2 0x15A4 DUP6 DUP3 DUP7 ADD PUSH2 0x155C JUMP JUMPDEST SWAP2 POP POP SWAP3 POP SWAP3 SWAP1 POP JUMP JUMPDEST PUSH0 DUP3 DUP3 MSTORE PUSH1 0x20 DUP3 ADD SWAP1 POP SWAP3 SWAP2 POP POP JUMP JUMPDEST PUSH32 0x52657175657374656420656E65726779206D757374206265203E203000000000 PUSH0 DUP3 ADD MSTORE POP JUMP JUMPDEST PUSH0 PUSH2 0x15F2 PUSH1 0x1C DUP4 PUSH2 0x15AE JUMP JUMPDEST SWAP2 POP PUSH2 0x15FD DUP3 PUSH2 0x15BE JUMP JUMPDEST PUSH1 0x20 DUP3 ADD SWAP1 POP SWAP2 SWAP1 POP JUMP JUMPDEST PUSH0 PUSH1 0x20 DUP3 ADD SWAP1 POP DUP2 DUP2 SUB PUSH0 DUP4 ADD MSTORE PUSH2 0x161F DUP2 PUSH2 0x15E6 JUMP JUMPDEST SWAP1 POP SWAP2 SWAP1 POP JUMP JUMPDEST PUSH32 0x496E76616C69642073656C6C6572000000000000000000000000000000000000 PUSH0 DUP3 ADD MSTORE POP JUMP JUMPDEST PUSH0 PUSH2 0x165A PUSH1 0xE DUP4 PUSH2 0x15AE JUMP JUMPDEST SWAP2 POP PUSH2 0x1665 DUP3 PUSH2 0x1626 JUMP JUMPDEST PUSH1 0x20 DUP3 ADD SWAP1 POP SWAP2 SWAP1 POP JUMP JUMPDEST PUSH0 PUSH1 0x20 DUP3 ADD SWAP1 POP DUP2 DUP2 SUB PUSH0 DUP4 ADD MSTORE PUSH2 0x1687 DUP2 PUSH2 0x164E JUMP JUMPDEST SWAP1 POP SWAP2 SWAP1 POP JUMP JUMPDEST PUSH32 0x43616E6E6F74206275792066726F6D2073656C66000000000000000000000000 PUSH0 DUP3 ADD MSTORE POP JUMP JUMPDEST PUSH0 PUSH2 0x16C2 PUSH1 0x14 DUP4 PUSH2 0x15AE JUMP JUMPDEST SWAP2 POP PUSH2 0x16CD DUP3 PUSH2 0x168E JUMP JUMPDEST PUSH1 0x20 DUP3 ADD SWAP1 POP SWAP2 SWAP1 POP JUMP JUMPDEST PUSH0 PUSH1 0x20 DUP3 ADD SWAP1 POP DUP2 DUP2 SUB PUSH0 DUP4 ADD MSTORE PUSH2 0x16EF DUP2 PUSH2 0x16B6 JUMP JUMPDEST SWAP1 POP SWAP2 SWAP1 POP JUMP JUMPDEST PUSH32 0x4275796572206E6F742072656769737465726564000000000000000000000000 PUSH0 DUP3 ADD MSTORE POP JUMP JUMPDEST PUSH0 PUSH2 0x172A PUSH1 0x14 DUP4 PUSH2 0x15AE JUMP JUMPDEST SWAP2 POP PUSH2 0x1735 DUP3 PUSH2 0x16F6 JUMP JUMPDEST PUSH1 0x20 DUP3 ADD SWAP1 POP SWAP2 SWAP1 POP JUMP JUMPDEST PUSH0 PUSH1 0x20 DUP3 ADD SWAP1 POP DUP2 DUP2 SUB PUSH0 DUP4 ADD MSTORE PUSH2 0x1757 DUP2 PUSH2 0x171E JUMP JUMPDEST SWAP1 POP SWAP2 SWAP1 POP JUMP JUMPDEST PUSH32 0x53656C6C6572206E6F7420726567697374657265640000000000000000000000 PUSH0 DUP3 ADD MSTORE POP JUMP JUMPDEST PUSH0 PUSH2 0x1792 PUSH1 0x15 DUP4 PUSH2 0x15AE JUMP JUMPDEST SWAP2 POP PUSH2 0x179D DUP3 PUSH2 0x175E JUMP JUMPDEST PUSH1 0x20 DUP3 ADD SWAP1 POP SWAP2 SWAP1 POP JUMP JUMPDEST PUSH0 PUSH1 0x20 DUP3 ADD SWAP1 POP DUP2 DUP2 SUB PUSH0 DUP4 ADD MSTORE PUSH2 0x17BF DUP2 PUSH2 0x1786 JUMP JUMPDEST SWAP1 POP SWAP2 SWAP1 POP JUMP JUMPDEST PUSH32 0x4275796572206973206E6F7420696E2064656669636974000000000000000000 PUSH0 DUP3 ADD MSTORE POP JUMP JUMPDEST PUSH0 PUSH2 0x17FA PUSH1 0x17 DUP4 PUSH2 0x15AE JUMP JUMPDEST SWAP2 POP PUSH2 0x1805 DUP3 PUSH2 0x17C6 JUMP JUMPDEST PUSH1 0x20 DUP3 ADD SWAP1 POP SWAP2 SWAP1 POP JUMP JUMPDEST PUSH0 PUSH1 0x20 DUP3 ADD SWAP1 POP DUP2 DUP2 SUB PUSH0 DUP4 ADD MSTORE PUSH2 0x1827 DUP2 PUSH2 0x17EE JUMP JUMPDEST SWAP1 POP SWAP2 SWAP1 POP JUMP JUMPDEST PUSH32 0x53656C6C6572206973206E6F7420696E20737572706C75730000000000000000 PUSH0 DUP3 ADD MSTORE POP JUMP JUMPDEST PUSH0 PUSH2 0x1862 PUSH1 0x18 DUP4 PUSH2 0x15AE JUMP JUMPDEST SWAP2 POP PUSH2 0x186D DUP3 PUSH2 0x182E JUMP JUMPDEST PUSH1 0x20 DUP3 ADD SWAP1 POP SWAP2 SWAP1 POP JUMP JUMPDEST PUSH0 PUSH1 0x20 DUP3 ADD SWAP1 POP DUP2 DUP2 SUB PUSH0 DUP4 ADD MSTORE PUSH2 0x188F DUP2 PUSH2 0x1856 JUMP JUMPDEST SWAP1 POP SWAP2 SWAP1 POP JUMP JUMPDEST PUSH32 0x4E487B7100000000000000000000000000000000000000000000000000000000 PUSH0 MSTORE PUSH1 0x11 PUSH1 0x4 MSTORE PUSH1 0x24 PUSH0 REVERT JUMPDEST PUSH0 PUSH2 0x18CD DUP3 PUSH2 0x1465 JUMP JUMPDEST SWAP2 POP PUSH32 0x8000000000000000000000000000000000000000000000000000000000000000 DUP3 SUB PUSH2 0x18FF JUMPI PUSH2 0x18FE PUSH2 0x1896 JUMP JUMPDEST JUMPDEST DUP2 PUSH0 SUB SWAP1 POP SWAP2 SWAP1 POP JUMP JUMPDEST PUSH32 0x52657175657374656420656E6572677920657863656564732062757965722064 PUSH0 DUP3 ADD MSTORE PUSH32 0x6566696369740000000000000000000000000000000000000000000000000000 PUSH1 0x20 DUP3 ADD MSTORE POP JUMP JUMPDEST PUSH0 PUSH2 0x1963 PUSH1 0x26 DUP4 PUSH2 0x15AE JUMP JUMPDEST SWAP2 POP PUSH2 0x196E DUP3 PUSH2 0x1909 JUMP JUMPDEST PUSH1 0x40 DUP3 ADD SWAP1 POP SWAP2 SWAP1 POP JUMP JUMPDEST PUSH0 PUSH1 0x20 DUP3 ADD SWAP1 POP DUP2 DUP2 SUB PUSH0 DUP4 ADD MSTORE PUSH2 0x1990 DUP2 PUSH2 0x1957 JUMP JUMPDEST SWAP1 POP SWAP2 SWAP1 POP JUMP JUMPDEST PUSH32 0x52657175657374656420656E6572677920657863656564732073656C6C657220 PUSH0 DUP3 ADD MSTORE PUSH32 0x737572706C757300000000000000000000000000000000000000000000000000 PUSH1 0x20 DUP3 ADD MSTORE POP JUMP JUMPDEST PUSH0 PUSH2 0x19F1 PUSH1 0x27 DUP4 PUSH2 0x15AE JUMP JUMPDEST SWAP2 POP PUSH2 0x19FC DUP3 PUSH2 0x1997 JUMP JUMPDEST PUSH1 0x40 DUP3 ADD SWAP1 POP SWAP2 SWAP1 POP JUMP JUMPDEST PUSH0 PUSH1 0x20 DUP3 ADD SWAP1 POP DUP2 DUP2 SUB PUSH0 DUP4 ADD MSTORE PUSH2 0x1A1E DUP2 PUSH2 0x19E5 JUMP JUMPDEST SWAP1 POP SWAP2 SWAP1 POP JUMP JUMPDEST PUSH0 PUSH2 0x1A2F DUP3 PUSH2 0x13BA JUMP JUMPDEST SWAP2 POP PUSH2 0x1A3A DUP4 PUSH2 0x13BA JUMP JUMPDEST SWAP3 POP DUP3 DUP3 MUL PUSH2 0x1A48 DUP2 PUSH2 0x13BA JUMP JUMPDEST SWAP2 POP DUP3 DUP3 DIV DUP5 EQ DUP4 ISZERO OR PUSH2 0x1A5F JUMPI PUSH2 0x1A5E PUSH2 0x1896 JUMP JUMPDEST JUMPDEST POP SWAP3 SWAP2 POP POP JUMP JUMPDEST PUSH32 0x496E73756666696369656E742062757965722062616C616E6365000000000000 PUSH0 DUP3 ADD MSTORE POP JUMP JUMPDEST PUSH0 PUSH2 0x1A9A PUSH1 0x1A DUP4 PUSH2 0x15AE JUMP JUMPDEST SWAP2 POP PUSH2 0x1AA5 DUP3 PUSH2 0x1A66 JUMP JUMPDEST PUSH1 0x20 DUP3 ADD SWAP1 POP SWAP2 SWAP1 POP JUMP JUMPDEST PUSH0 PUSH1 0x20 DUP3 ADD SWAP1 POP DUP2 DUP2 SUB PUSH0 DUP4 ADD MSTORE PUSH2 0x1AC7 DUP2 PUSH2 0x1A8E JUMP JUMPDEST SWAP1 POP SWAP2 SWAP1 POP JUMP JUMPDEST PUSH0 PUSH2 0x1AD8 DUP3 PUSH2 0x13BA JUMP JUMPDEST SWAP2 POP PUSH2 0x1AE3 DUP4 PUSH2 0x13BA JUMP JUMPDEST SWAP3 POP DUP3 DUP3 SUB SWAP1 POP DUP2 DUP2 GT ISZERO PUSH2 0x1AFB JUMPI PUSH2 0x1AFA PUSH2 0x1896 JUMP JUMPDEST JUMPDEST SWAP3 SWAP2 POP POP JUMP JUMPDEST PUSH0 PUSH2 0x1B0B DUP3 PUSH2 0x13BA JUMP JUMPDEST SWAP2 POP PUSH2 0x1B16 DUP4 PUSH2 0x13BA JUMP JUMPDEST SWAP3 POP DUP3 DUP3 ADD SWAP1 POP DUP1 DUP3 GT ISZERO PUSH2 0x1B2E JUMPI PUSH2 0x1B2D PUSH2 0x1896 JUMP JUMPDEST JUMPDEST SWAP3 SWAP2 POP POP JUMP JUMPDEST PUSH0 PUSH2 0x1B3E DUP3 PUSH2 0x1465 JUMP JUMPDEST SWAP2 POP PUSH2 0x1B49 DUP4 PUSH2 0x1465 JUMP JUMPDEST SWAP3 POP DUP3 DUP3 ADD SWAP1 POP DUP3 DUP2 SLT ISZERO PUSH0 DUP4 SLT AND DUP4 DUP3 SLT PUSH0 DUP5 SLT ISZERO AND OR ISZERO PUSH2 0x1B6F JUMPI PUSH2 0x1B6E PUSH2 0x1896 JUMP JUMPDEST JUMPDEST SWAP3 SWAP2 POP POP JUMP JUMPDEST PUSH0 PUSH2 0x1B7F DUP3 PUSH2 0x1465 JUMP JUMPDEST SWAP2 POP PUSH2 0x1B8A DUP4 PUSH2 0x1465 JUMP JUMPDEST SWAP3 POP DUP3 DUP3 SUB SWAP1 POP DUP2 DUP2 SLT PUSH0 DUP5 SLT AND DUP3 DUP3 SGT PUSH0 DUP6 SLT ISZERO AND OR ISZERO PUSH2 0x1BAF JUMPI PUSH2 0x1BAE PUSH2 0x1896 JUMP JUMPDEST JUMPDEST SWAP3 SWAP2 POP POP JUMP JUMPDEST PUSH32 0x50726F73756D6572206E6F742072656769737465726564000000000000000000 PUSH0 DUP3 ADD MSTORE POP JUMP JUMPDEST PUSH0 PUSH2 0x1BE9 PUSH1 0x17 DUP4 PUSH2 0x15AE JUMP JUMPDEST SWAP2 POP PUSH2 0x1BF4 DUP3 PUSH2 0x1BB5 JUMP JUMPDEST PUSH1 0x20 DUP3 ADD SWAP1 POP SWAP2 SWAP1 POP JUMP JUMPDEST PUSH0 PUSH1 0x20 DUP3 ADD SWAP1 POP DUP2 DUP2 SUB PUSH0 DUP4 ADD MSTORE PUSH2 0x1C16 DUP2 PUSH2 0x1BDD JUMP JUMPDEST SWAP1 POP SWAP2 SWAP1 POP JUMP JUMPDEST PUSH32 0x50726F73756D65722068617320616E20656E6572677920646566696369740000 PUSH0 DUP3 ADD MSTORE POP JUMP JUMPDEST PUSH0 PUSH2 0x1C51 PUSH1 0x1E DUP4 PUSH2 0x15AE JUMP JUMPDEST SWAP2 POP PUSH2 0x1C5C DUP3 PUSH2 0x1C1D JUMP JUMPDEST PUSH1 0x20 DUP3 ADD SWAP1 POP SWAP2 SWAP1 POP JUMP JUMPDEST PUSH0 PUSH1 0x20 DUP3 ADD SWAP1 POP DUP2 DUP2 SUB PUSH0 DUP4 ADD MSTORE PUSH2 0x1C7E DUP2 PUSH2 0x1C45 JUMP JUMPDEST SWAP1 POP SWAP2 SWAP1 POP JUMP JUMPDEST PUSH32 0x4E487B7100000000000000000000000000000000000000000000000000000000 PUSH0 MSTORE PUSH1 0x32 PUSH1 0x4 MSTORE PUSH1 0x24 PUSH0 REVERT JUMPDEST PUSH0 PUSH1 0x40 DUP3 ADD SWAP1 POP PUSH2 0x1CC5 PUSH0 DUP4 ADD DUP6 PUSH2 0x147D JUMP JUMPDEST PUSH2 0x1CD2 PUSH1 0x20 DUP4 ADD DUP5 PUSH2 0x146E JUMP JUMPDEST SWAP4 SWAP3 POP POP POP JUMP JUMPDEST PUSH32 0x4F66666572656420656E65726779206D757374206265203E2030000000000000 PUSH0 DUP3 ADD MSTORE POP JUMP JUMPDEST PUSH0 PUSH2 0x1D0D PUSH1 0x1A DUP4 PUSH2 0x15AE JUMP JUMPDEST SWAP2 POP PUSH2 0x1D18 DUP3 PUSH2 0x1CD9 JUMP JUMPDEST PUSH1 0x20 DUP3 ADD SWAP1 POP SWAP2 SWAP1 POP JUMP JUMPDEST PUSH0 PUSH1 0x20 DUP3 ADD SWAP1 POP DUP2 DUP2 SUB PUSH0 DUP4 ADD MSTORE PUSH2 0x1D3A DUP2 PUSH2 0x1D01 JUMP JUMPDEST SWAP1 POP SWAP2 SWAP1 POP JUMP JUMPDEST PUSH32 0x496E76616C696420627579657200000000000000000000000000000000000000 PUSH0 DUP3 ADD MSTORE POP JUMP JUMPDEST PUSH0 PUSH2 0x1D75 PUSH1 0xD DUP4 PUSH2 0x15AE JUMP JUMPDEST SWAP2 POP PUSH2 0x1D80 DUP3 PUSH2 0x1D41 JUMP JUMPDEST PUSH1 0x20 DUP3 ADD SWAP1 POP SWAP2 SWAP1 POP JUMP JUMPDEST PUSH0 PUSH1 0x20 DUP3 ADD SWAP1 POP DUP2 DUP2 SUB PUSH0 DUP4 ADD MSTORE PUSH2 0x1DA2 DUP2 PUSH2 0x1D69 JUMP JUMPDEST SWAP1 POP SWAP2 SWAP1 POP JUMP JUMPDEST PUSH32 0x43616E6E6F742073656C6C20746F2073656C6600000000000000000000000000 PUSH0 DUP3 ADD MSTORE POP JUMP JUMPDEST PUSH0 PUSH2 0x1DDD PUSH1 0x13 DUP4 PUSH2 0x15AE JUMP JUMPDEST SWAP2 POP PUSH2 0x1DE8 DUP3 PUSH2 0x1DA9 JUMP JUMPDEST PUSH1 0x20 DUP3 ADD SWAP1 POP SWAP2 SWAP1 POP JUMP JUMPDEST PUSH0 PUSH1 0x20 DUP3 ADD SWAP1 POP DUP2 DUP2 SUB PUSH0 DUP4 ADD MSTORE PUSH2 0x1E0A DUP2 PUSH2 0x1DD1 JUMP JUMPDEST SWAP1 POP SWAP2 SWAP1 POP JUMP JUMPDEST PUSH32 0x4F66666572656420657863656564732073656C6C657220737572706C75730000 PUSH0 DUP3 ADD MSTORE POP JUMP JUMPDEST PUSH0 PUSH2 0x1E45 PUSH1 0x1E DUP4 PUSH2 0x15AE JUMP JUMPDEST SWAP2 POP PUSH2 0x1E50 DUP3 PUSH2 0x1E11 JUMP JUMPDEST PUSH1 0x20 DUP3 ADD SWAP1 POP SWAP2 SWAP1 POP JUMP JUMPDEST PUSH0 PUSH1 0x20 DUP3 ADD SWAP1 POP DUP2 DUP2 SUB PUSH0 DUP4 ADD MSTORE PUSH2 0x1E72 DUP2 PUSH2 0x1E39 JUMP JUMPDEST SWAP1 POP SWAP2 SWAP1 POP JUMP JUMPDEST PUSH32 0x4F66666572656420657863656564732062757965722064656669636974000000 PUSH0 DUP3 ADD MSTORE POP JUMP JUMPDEST PUSH0 PUSH2 0x1EAD PUSH1 0x1D DUP4 PUSH2 0x15AE JUMP JUMPDEST SWAP2 POP PUSH2 0x1EB8 DUP3 PUSH2 0x1E79 JUMP JUMPDEST PUSH1 0x20 DUP3 ADD SWAP1 POP SWAP2 SWAP1 POP JUMP JUMPDEST PUSH0 PUSH1 0x20 DUP3 ADD SWAP1 POP DUP2 DUP2 SUB PUSH0 DUP4 ADD MSTORE PUSH2 0x1EDA DUP2 PUSH2 0x1EA1 JUMP JUMPDEST SWAP1 POP SWAP2 SWAP1 POP JUMP JUMPDEST PUSH32 0x50726F73756D657220616C726561647920726567697374657265642100000000 PUSH0 DUP3 ADD MSTORE POP JUMP JUMPDEST PUSH0 PUSH2 0x1F15 PUSH1 0x1C DUP4 PUSH2 0x15AE JUMP JUMPDEST SWAP2 POP PUSH2 0x1F20 DUP3 PUSH2 0x1EE1 JUMP JUMPDEST PUSH1 0x20 DUP3 ADD SWAP1 POP SWAP2 SWAP1 POP JUMP JUMPDEST PUSH0 PUSH1 0x20 DUP3 ADD SWAP1 POP DUP2 DUP2 SUB PUSH0 DUP4 ADD MSTORE PUSH2 0x1F42 DUP2 PUSH2 0x1F09 JUMP JUMPDEST SWAP1 POP SWAP2 SWAP1 POP JUMP JUMPDEST PUSH32 0x4F6E6C79207265636F726465722063616E2075706461746520656E6572677920 PUSH0 DUP3 ADD MSTORE PUSH32 0x7374617475730000000000000000000000000000000000000000000000000000 PUSH1 0x20 DUP3 ADD MSTORE POP JUMP JUMPDEST PUSH0 PUSH2 0x1FA3 PUSH1 0x26 DUP4 PUSH2 0x15AE JUMP JUMPDEST SWAP2 POP PUSH2 0x1FAE DUP3 PUSH2 0x1F49 JUMP JUMPDEST PUSH1 0x40 DUP3 ADD SWAP1 POP SWAP2 SWAP1 POP JUMP JUMPDEST PUSH0 PUSH1 0x20 DUP3 ADD SWAP1 POP DUP2 DUP2 SUB PUSH0 DUP4 ADD MSTORE PUSH2 0x1FD0 DUP2 PUSH2 0x1F97 JUMP JUMPDEST SWAP1 POP SWAP2 SWAP1 POP JUMP INVALID LOG2 PUSH5 0x6970667358 0x22 SLT KECCAK256 0xA7 0xC6 PUSH32 0xE4B2041709DBC26452F5F009EBA6940256FADCA1D07908CB67954757AD64736F PUSH13 0x634300081E0033000000000000 "
		},
		"gasEstimates": {
			"creation": {
				"codeDepositCost": "1641000",
				"executionCost": "infinite",
				"totalCost": "infinite"
			},
			"external": {
				"buyEnergyFrom(address,uint256)": "infinite",
				"contractBalance()": "357",
				"coordinateTrading()": "232",
				"deposit()": "infinite",
				"getEnergyPrice()": "2476",
				"getRecorder()": "2582",
				"prosumerAddresses(uint256)": "4966",
				"prosumers(address)": "infinite",
				"registerProsumer()": "109812",
				"sellEnergyTo(address,uint256)": "infinite",
				"updateEnergyPrice()": "26146",
				"updateEnergyStatus(address,int256)": "infinite",
				"withdraw(uint256)": "infinite"
			}
		},
		"methodIdentifiers": {
			"buyEnergyFrom(address,uint256)": "0f0fe598",
			"contractBalance()": "8b7afe2e",
			"coordinateTrading()": "45f80251",
			"deposit()": "d0e30db0",
			"getEnergyPrice()": "cab0f335",
			"getRecorder()": "b6c3afca",
			"prosumerAddresses(uint256)": "b8510a96",
			"prosumers(address)": "2c8d7c32",
			"registerProsumer()": "a3818880",
			"sellEnergyTo(address,uint256)": "7a6edb28",
			"updateEnergyPrice()": "2fbbf123",
			"updateEnergyStatus(address,int256)": "cb2fd8db",
			"withdraw(uint256)": "2e1a7d4d"
		}
	},
	"abi": [
		{
			"inputs": [
				{
					"internalType": "address",
					"name": "_recorder",
					"type": "address"
				}
			],
			"stateMutability": "payable",
			"type": "constructor"
		},
		{
			"anonymous": false,
			"inputs": [
				{
					"indexed": false,
					"internalType": "uint256",
					"name": "totalMatchedEnergy",
					"type": "uint256"
				}
			],
			"name": "CoordinationComplete",
			"type": "event"
		},
		{
			"anonymous": false,
			"inputs": [
				{
					"indexed": false,
					"internalType": "uint256",
					"name": "newPrice",
					"type": "uint256"
				},
				{
					"indexed": false,
					"internalType": "int256",
					"name": "totalEnergyStatus",
					"type": "int256"
				}
			],
			"name": "EnergyPriceUpdated",
			"type": "event"
		},
		{
			"inputs": [
				{
					"internalType": "address",
					"name": "_seller",
					"type": "address"
				},
				{
					"internalType": "uint256",
					"name": "_requestedEnergy",
					"type": "uint256"
				}
			],
			"name": "buyEnergyFrom",
			"outputs": [],
			"stateMutability": "nonpayable",
			"type": "function"
		},
		{
			"inputs": [],
			"name": "contractBalance",
			"outputs": [
				{
					"internalType": "uint256",
					"name": "",
					"type": "uint256"
				}
			],
			"stateMutability": "view",
			"type": "function"
		},
		{
			"inputs": [],
			"name": "coordinateTrading",
			"outputs": [],
			"stateMutability": "nonpayable",
			"type": "function"
		},
		{
			"inputs": [],
			"name": "deposit",
			"outputs": [],
			"stateMutability": "payable",
			"type": "function"
		},
		{
			"inputs": [],
			"name": "getEnergyPrice",
			"outputs": [
				{
					"internalType": "uint256",
					"name": "",
					"type": "uint256"
				}
			],
			"stateMutability": "view",
			"type": "function"
		},
		{
			"inputs": [],
			"name": "getRecorder",
			"outputs": [
				{
					"internalType": "address",
					"name": "",
					"type": "address"
				}
			],
			"stateMutability": "view",
			"type": "function"
		},
		{
			"inputs": [
				{
					"internalType": "uint256",
					"name": "",
					"type": "uint256"
				}
			],
			"name": "prosumerAddresses",
			"outputs": [
				{
					"internalType": "address",
					"name": "",
					"type": "address"
				}
			],
			"stateMutability": "view",
			"type": "function"
		},
		{
			"inputs": [
				{
					"internalType": "address",
					"name": "",
					"type": "address"
				}
			],
			"name": "prosumers",
			"outputs": [
				{
					"internalType": "address",
					"name": "prosumerAddress",
					"type": "address"
				},
				{
					"internalType": "int256",
					"name": "prosumerEnergyStat",
					"type": "int256"
				},
				{
					"internalType": "uint256",
					"name": "prosumerBalance",
					"type": "uint256"
				},
				{
					"internalType": "bool",
					"name": "isMember",
					"type": "bool"
				}
			],
			"stateMutability": "view",
			"type": "function"
		},
		{
			"inputs": [],
			"name": "registerProsumer",
			"outputs": [],
			"stateMutability": "nonpayable",
			"type": "function"
		},
		{
			"inputs": [
				{
					"internalType": "address",
					"name": "_buyer",
					"type": "address"
				},
				{
					"internalType": "uint256",
					"name": "_offeredEnergy",
					"type": "uint256"
				}
			],
			"name": "sellEnergyTo",
			"outputs": [],
			"stateMutability": "nonpayable",
			"type": "function"
		},
		{
			"inputs": [],
			"name": "updateEnergyPrice",
			"outputs": [],
			"stateMutability": "nonpayable",
			"type": "function"
		},
		{
			"inputs": [
				{
					"internalType": "address",
					"name": "_prosumer",
					"type": "address"
				},
				{
					"internalType": "int256",
					"name": "deltaEnergy",
					"type": "int256"
				}
			],
			"name": "updateEnergyStatus",
			"outputs": [],
			"stateMutability": "nonpayable",
			"type": "function"
		},
		{
			"inputs": [
				{
					"internalType": "uint256",
					"name": "_value",
					"type": "uint256"
				}
			],
			"name": "withdraw",
			"outputs": [],
			"stateMutability": "nonpayable",
			"type": "function"
		}
	]
}